:020000040800F2
:10000000B022002021020008D5320008EF2E00089F
:1000100085320008A10A00089D4A0008000000007F
:10002000000000000000000000000000BD440008C7
:100030006B0C000800000000E53F0008BF4400080A
:100040003B0200083B0200083B0200083B0200089C
:100050003B0200083B0200083B0200083B0200088C
:100060003B0200083B0200083B0200083B0200087C
:10007000F90B0008050C0008110C00081D0C000805
:10008000290C0008350C00083B0200083B02000860
:100090003B0200083B0200083B0200083B0200084C
:1000A0003B020008354500083B0200083B020008FF
:1000B0003B0200083B0200083B0200083B0200082C
:1000C0003B0200083B0200083B0200083B0200081C
:1000D0003B020008794A0008854A0008914A000856
:1000E0003B020008E93F00083B0200083B02000811
:1000F0003B0200083B0200083B0200083B020008EC
:100100003B0200083B0200083B0200083B020008DB
:100110003B0200083B0200083B0200083B020008CB
:100120003B0200083B0200083B0200083B020008BB
:1001300000F002F800F04AF80AA090E8000C8244AF
:100140008344AAF10107DA4501D100F03FF8AFF28C
:10015000090EBAE80F0013F0010F18BFFB1A43F0A5
:1001600001031847EC7300000C740000103A24BF20
:1001700078C878C1FAD8520724BF30C830C144BF0C
:1001800004680C607047000000230024002500264E
:10019000103A28BF78C1FBD8520728BF30C148BFEA
:1001A0000B607047642900F01581752900F01281F9
:1001B000782900F04B81732900F0DF83002070471D
:1001C0001FB500F020FA1FBD10B510BD00F016FCE1
:1001D0001146FFF7F5FF05F0B9F900F034FC03B460
:1001E000FFF7F2FF03BC00F0C3FA00000B49D1F89F
:1001F00000C04A685CF8043B1068184442F8040BDD
:100200008C4528BFA1F1DC0C8A4228BFA1F1DC0299
:10021000C1F800C04A6020F000407047481C002030
:100220000948804709480047FEE7FEE7FEE7FEE78A
:10023000FEE7FEE7FEE7FEE7FEE7FEE704480549C6
:10024000054A064B7047000033450008310100089D
:10025000B01C0020B0220020B01E0020B01E0020E4
:10026000B2F120030AD5C2F1200301FA02F120FA0B
:1002700003F300FA02F041EA0301704700FA03F1C8
:100280004FF000007047B2F120030AD5C2F12003FD
:1002900020FA02F001FA03F341FA02F140EA030006
:1002A000704741FA03F04FEAE171704710B54C1006
:1002B00084EA530404D54042C1F1000138BF491E0D
:1002C0001B4204D55242C3F1000338BF5B1E00F04D
:1002D00055FA14F0804F04D04042C1F1000138BFFC
:1002E000491E14F0004F04D05242C3F1000338BF3E
:1002F0005B1E10BD0FB4044910B503AA029800F0AC
:1003000041FB10BC5DF814FB040000200FB41CB5C9
:10031000074B06AA7B4469460090059800F003FB52
:100320000020694600F012FB1CBC5DF814FB0000C5
:100330003506000070B5044685690068C10601D520
:10034000302600E02026C00707D070BDD4E9012187
:1003500030469047206A401C20626D1EF6D570BD65
:1003600070B5044685690078C00707D170BDD4E92F
:10037000012120209047206A401C20626D1EF6D586
:1003800070BD70B50C460546012A05D02878800658
:1003900000D5EA69002302E0012305E05B1C9342DB
:1003A00002D2E05C0028F9D1A869E618C01AA86159
:1003B000286A184428622846FFF7BCFF04E0D5E904
:1003C000012114F8010B9047B442F8D32846FFF7F7
:1003D000C7FF70BD2DE9F04106460024106875295D
:1003E000314616A510D0AFF30080002802DA404253
:1003F00013A507E031688A0701D512A502E0490775
:1004000004D511A5012401E0AFF3008000210A22E8
:1004100006F1240709E0B0FBF2FCB0FBF2F302FBAB
:100420001C00303078541846491C0028F3D123466C
:100430002A463046BDE8F04100F017BA000000003F
:100440002D0000002B0000002000000070B50446C5
:100450000D4621461068AFF300802188090502D5BA
:100460000F4A7A4402E00E4A7A440E32002104F127
:10047000240305E000F00F060009965D5E54491C58
:100480000028F7D120780023000704D5702D02D072
:1004900009B1022311322046BDE8704000F0E5B9F1
:1004A000AF7000002DE9F05F894604464FF0000A66
:1004B000DFF824B1FB44C0F820A02046E16888475B
:1004C00000287DD0252806D0D4E901219047206A54
:1004D000401C2062F1E700255F462046E16888471E
:1004E0002028064607DB312E05D2B81910F8200C5B
:1004F00008B10543F1E7A80701D525F00405C4F8C4
:100500001CA00027C4F818A02A2E09D0304604F0F9
:1005100015FB38B304EB8708303EC8F8186019E0C3
:1005200059F8041B204604EB87029161E168884773
:10053000012F064618D1E069002820DA25F02005B1
:100540001DE0D8F8180000EB800006EB40003038C2
:10055000C8F818002046E1688847064604F0EEFA1D
:100560000028EED1012F0AD02E2E08D12046E168B6
:1005700088477F1C0646022F45F02005C4DBA06992
:10058000002803DA404245F00105A061E80701D0E8
:1005900025F01005A6B1A6F14100192802D8203691
:1005A00045F400654A463146204625604D46FFF732
:1005B000F9FD60B1012807D0ED1D25F0070000E02E
:1005C00007E000F1080978E705F1040975E730460E
:1005D0007AE7206ABDE8F09F857000000B4910B5EE
:1005E000A1F17C020A4CC2E93712372106E000EB88
:1005F000104342F82130074B00FB03400B1EA1F1D2
:100600000101F4DC10BD0120E8E70000E81B002038
:10061000E119D666CD0D010010B5002000F0C4F937
:10062000FFF7D2FDBDE81040012000F0A1B8032A79
:1006300040F2308010F0030C00F0158011F8013BFF
:10064000BCF1020F624498BF11F801CB00F8013BE6
:1006500038BF11F8013BA2F1040298BF00F801CBAA
:1006600038BF00F8013B11F0030300F02580083A81
:10067000C0F0088051F8043B083A51F804CBA0E8D8
:100680000810F5E7121D5CBF51F8043B40F8043B2D
:10069000AFF30080D20724BF11F8013B11F801CB62
:1006A00048BF11F8012B24BF00F8013B00F801CB33
:1006B00048BF00F8012B704710B5203AC0F00B80FE
:1006C000B1E81850203AA0E81850B1E81850A0E856
:1006D0001850BFF4F5AF5FEA027C24BFB1E81850B0
:1006E000A0E8185044BF18C918C0BDE810405FEA20
:1006F000827C24BF51F8043B40F8043B08BF70479C
:10070000D20728BF31F8023B48BF11F8012B28BFA0
:1007100020F8023B48BF00F8012B70474FF0000261
:1007200000B5134694469646203922BFA0E80C50E7
:10073000A0E80C50B1F12001BFF4F7AF090728BFC2
:10074000A0E80C5048BF0CC05DF804EB890028BF3E
:1007500040F8042B08BF704748BF20F8022B11F067
:10076000804F18BF00F8012B7047704770477047E3
:1007700001491820ABBEFEE72600020053EA020C36
:1007800000F069802DE9F04B4FF00006002B1FBFF1
:10079000B3FA83F503FA05F424FA05F65E4012BFB6
:1007A0001643B2FA82F502FA05F4C5F120051EBF20
:1007B00022FA05FC44EA0C04203556EA044C4FEAC0
:1007C000144418BF641C4FF000084FF00009904219
:1007D00071EB030C39D3002919BFB1FA81F701FA83
:1007E00007F6B0FA80F700FA07F6C7F120071EBF38
:1007F00020FA07FC46EA0C062037B6FBF4FCA7EB10
:100800000507103F07F01F0BCBF120060CFA0BFB7E
:100810002CFA06F644BFB3460026202FA4BF5E463E
:100820004FF0000B5BEA060C08BF4FF0010B19EB11
:100830000B09ABFB027C48EB0608C01B06FB02CC95
:100840000BFB03CC71EB0C01C1E70B4602464146A2
:100850004846BDE8F08B13B54FF000004FF00001A3
:10086000AFF30080BDE81C4070472DE9F0470D460E
:1008700099469246044600F124080168880604D58A
:10088000E06921F01001216000E00120A84201DDB3
:10089000471B00E00027A1697A1902EB0900081A3A
:1008A000A0612078C00602D42046FFF743FD002651
:1008B00008E0D4E901211AF806009047206A401C9C
:1008C000761C20624E45F4DB2078C0060AD520460F
:1008D000FFF730FD06E0D4E9012130209047206A7F
:1008E000401C2062381EA7F10107F4DC07E0D4E9C0
:1008F000012118F805009047206A401C2062281E3C
:10090000A5F10105F3DC2046FFF72AFD207800065B
:1009100002D50220BDE8F0870120FBE701694A1CEF
:1009200002610878704700B58FB0CDE90131002130
:10093000059105497944CDE9031011466846FFF752
:10094000B1FD0FB000BD0000E5FFFFFF0A6802F82F
:10095000010B0A60704710B5436913B1AFF3008013
:1009600001E0FFF70EFD012010BD127800F1240117
:100970000A7000224A700122EDE711684FF0FF3241
:10098000E9E70000074B70B50D467B44FFF7CBFF4E
:100990000446284600F010F810B14FF0FF3070BD4B
:1009A000204670BDDB48000010B500F00FF8BDE830
:1009B000104000F005B87047007B00F080007047E1
:1009C000002801D0FFF7D4BE7047000010B5002109
:1009D00002A000F041F8012010BD0000534947413A
:1009E0004252543A2041626E6F726D616C207465A0
:1009F000726D696E6174696F6E000000754600F07B
:100A00004BF8AE4605006946534620F00700854680
:100A100018B020B5FFF712FCBDE820404FF00006EB
:100A20004FF000074FF000084FF0000B21F00701D6
:100A3000AC46ACE8C009ACE8C009ACE8C009ACE819
:100A4000C0098D46704710B50446AFF300802046BC
:100A5000BDE81040FFF7C3BB70B505460C460A2041
:100A600000E06D1C00F011F835B128780028F8D1AD
:100A700002E0641C00F009F814B120780028F8D1D5
:100A8000BDE870400A20AFF3008008B569468DF8D4
:100A900000000320ABBE08BD00487047501C00207A
:100AA000FEE700002DE9FC41002605460C4681F8D2
:100AB000FF6130462118401C81F80061FF28F9DBF6
:100AC000687F324F112802D1697E80207854E87EF9
:100AD00050B105F11C03CDE900355A1C687E114662
:100AE00000F0D8F800284FD084F80462687E84F8BB
:100AF000020284F8FF6184F8FF60032084F8010299
:100B0000287F7F26401D84F800022670687E395CAD
:100B100008436070287FA070002004E02918221884
:100B2000497FD170401C297F8142F7DC94F8000294
:100B300048F205034FF6FF72611CC01E04F02EFB45
:100B40002A7FE11C5054010A2A7F201D11541049AC
:100B5000207808700120024608E0A35C0B54A35CD7
:100B60007F2B01D1401C0E54401C521C94F80032C3
:100B70009342F2DC002202E08B5CA354521C8242BE
:100B8000FADB84F800020120BDE8FC81500B002054
:100B90002C0F00201CB50446D4E90001084318D0EE
:100BA000D4E90201084314D000F03AFA4FF00042B1
:100BB0000023FFF77BFBC4E90623D4E90201CDE95A
:100BC0000001D4E9000103F06BFFC4E90401002037
:100BD0001CBD4FF0FF301CBD1CB50446D4E902011A
:100BE000CDE90001D4E90801D4E9062303F058FF58
:100BF000C4E90C0101201CBD014800F0D3BA00007B
:100C000058040020014800F0CDBA00001404002070
:100C1000014800F0C7BA000048030020014800F076
:100C2000C1BA000004030020014800F0BBBA000074
:100C30008C030020014800F0B5BA0000D00300206A
:100C400030B590F840500124AC40C56B6C6004682E
:100C500063604368102B036803D099600068C2602A
:100C600030BD9A600068C16030BD70471FB5127812
:100C70000023069CCDE90202CDE900311022214675
:100C8000012003F06CFF10B1002004B010BD012062
:100C9000FBE700002DE9F04F91461A788046D01D01
:100CA0001F460026C0B2C5B0030703D000F00F03F3
:100CB000C3F11006DFF8B8B030448DF81020C4B28C
:100CC0005BF82830002004AAC50023FA05F502EBE2
:100CD000000C401CC0B28CF801500428F4D3002052
:100CE00004E00B5C1518401C6B71C0B23B7883426A
:100CF000F7D8002592460CE0FFF778FAFF2190FB29
:100D0000F1F201FB12003A78691D52446D1C5054F7
:100D1000EDB2B542F0D348F205034FF6FF7204A9D5
:100D2000A01E04F03BFA0AEB040202F8020D000ACE
:100D30005070002209F10100CDE9002ACDE902043A
:100D40001346102201204F9904F070F818B10020CA
:100D500045B0BDE8F08F4E98641C7E21047089F880
:100D600000105BF82810491C4BF828100120EFE711
:100D70003008002072B6FEE708B541008DF800107B
:100D800081F01B018DF80110694601EBD01000784D
:100D900008BD08B50021009040238022084600F0DD
:100DA00089F808BD2DE9FF4F224DAA6813785E0728
:100DB0004FEAD30400D0641C92F801C096685288B0
:100DC0000027801A60430CFB0068491E581800F089
:100DD000FF0A3E46A94625E0002008EB040106E094
:100DE0000D1A3B0215F8017C1F43401CC0B2A04203
:100DF000F6D302988846002500EB060B0BE0012095
:100E0000A840B84305D15946AAEB0500039A00F063
:100E100013F86D1CEDB2D9F808000078A842EED89E
:100E2000761CF6B2D9F808004A464078B042D3D8CA
:100E3000BDE8FF8F7000002010B5802815D2002972
:100E400013DB402911DAC317090100EB537301EBDF
:100E5000E30123F00703064CC31A80202144D84045
:100E6000002A0A7802D002430A7010BD8243FBE7D1
:100E70006B1700202DE9F0411F4690460C460546B1
:100E80000B4E0EE03B4642462146FFF78BFF28788B
:100E900020280BD0B0680078142800D9E41C044442
:100EA0006D1C28780028EDD1BDE8F081241DF7E7FE
:100EB000700000202DE9F043CE188846C4B2871890
:100EC000DDF81C900EE000BF08F0FF0506E04A4682
:100ED00029462046FFF7B0FF6D1CEDB2AE42F6DCAE
:100EE000641CE4B2A742EFDCBDE8F0832DE9F041D9
:100EF000DFF83480002508270021284605F0CFF8C8
:100F000008EB05140026207805F092F86078A41C00
:100F100005F08EF8761CF6B2BE42F4D36D1CEDB22D
:100F2000402DE8D3BDE8F0816B17002010B5274CA9
:100F30000246C4E9000100210120904700212268F7
:100F4000022090470121226800209047202005F0D0
:100F50006BF8012000F0C0FA202005F065F80120B0
:100F600000F0BAFA062005F05FF8012000F0B4FAAC
:100F7000202005F059F804F02BF9012000F0ACFA1C
:100F8000012005F051F8322000F0A6FA262005F0E5
:100F90004BF804F01DF9012000F09EFA0C2005F03A
:100FA00043F8012000F098FA0020FFF7F2FEFFF767
:100FB0009DFF322000F090FA012005F035F8322034
:100FC00000F08AFA0248A06010BD00007000002006
:100FD0007C00002070B500F023F84FF000420023A1
:100FE000FFF764F914461D46D00702D1641C43F193
:100FF0000005052200232046294602F044F9012875
:101000000AD0A41C45F100050522002320462946EC
:1010100002F039F90028F4D02046294670BD0000BE
:1010200001480021704700006D99829D10B590F82D
:1010300021100022022905D00421816380F820209C
:10104000012010BD01680B6823F00E030B600168DE
:101050000B6823F001030B6090F84030C46B012152
:1010600001FA03F3636080F8211080F82020104615
:1010700010BD00002DE9F05F90F821100024022936
:1010800003D004218163012485E001680A6822F00D
:101090000E020A6001680A6822F001020A603F4EEF
:1010A0003E4FB215DFF8F4C0DFF8F090DFF8ECA0A7
:1010B000DFF8E8B0DFF8E4E00168783F13011502DB
:1010C000ACF1640CA9F15009AAF13C0AABF1280B70
:1010D000AEF1140E4FF48018B14227D9B9420ED0A8
:1010E000614512D049451DD0514518D0594518D0F9
:1010F000714501D1424615E0294EB14201D101228C
:1011000010E0274E1436B14201D110220AE0244EDD
:101110002836B14206D0224A3C32914201D11A46C9
:1011200000E02A461E49091F0A602BE0B94213D08D
:10113000614517D0494522D051451DD059451DD094
:10114000714501D142461AE0B14202D14FF080729E
:1011500015E0134EB14201D1012210E0104E1436B9
:10116000B14201D110220AE00D4E2836B14206D01C
:101170000B4A3C32914201D11A4600E02A46074907
:1011800080394A60012180F82110002180F8201068
:10119000416B01B188472046BDE8F09F80000240C6
:1011A000080402402DE9F05FC16B0A6801680B6812
:1011B000046C4FF0040808FA04F8844D844E854FFF
:1011C000DFF814C2DFF81492DFF814A2DFF814B2CB
:1011D000DFF814E218EA020F65D05FEA437862D5BF
:1011E0000A68920603D40A6822F004020A60DFF853
:1011F000F0814FF48062016808F1140813011402B1
:10120000414524D9A9420DD0B1420FD0B9421AD0DC
:10121000614515D0494515D0514501D1120312E061
:10122000594501D104220EE0714501D140220AE066
:101230006D4D1435A94206D06B4A2832914201D136
:101240001A4600E022466749091F0A6029E0A942C0
:1012500013D0B14215D0B94220D061451BD04945C9
:101260001BD0514502D14FF4800217E0414502D115
:101270004FF0806212E0594501D104220EE0714521
:1012800001D140220AE0584D1435A94206D0564AF1
:101290002832914201D11A4600E022464B490839D2
:1012A0004A60C16A71E04FF0020808FA04F818EACF
:1012B000020F70D05FEA83786DD50A68920606D473
:1012C0000A6822F00A020A60012180F82110DFF882
:1012D00010814FF40072016808F114081301140220
:1012E000414524D9A9420DD0B1420FD0B9421AD0FC
:1012F000614515D0494515D0514501D1120312E081
:10130000594501D102220EE0714501D120220AE0A7
:10131000354D1435A94206D0334A2832914201D1C5
:101320001A4600E022462F49091F0A6029E0A94217
:1013300013D0B14215D0B94220D061451BD04945E8
:101340001BD0514502D14FF4001217E0414502D1A4
:101350004FF0007212E0594501D102220EE07145B2
:1013600001D120220AE0204D1435A94206D01E4AA0
:101370002832914201D11A4600E022461349083929
:101380004A60002180F82010816A00291CD0BDE845
:10139000F05F0847FFE70825A540154214D01A075B
:1013A00012D50A6822F00E020A6090F84020C36B42
:1013B000012101FA02F25A60816380F821100021B4
:1013C00080F82010016BE0E7BDE8F09F08000240C4
:1013D0001C0002403000024044000240580002401D
:1013E0006C000240080402401C04024030B560B1A9
:1013F0001A4B026814219A4209D2194B1344B3FBC9
:10140000F1F18900016417490AE0012030BD134B56
:101410005B421344B3FBF1F1890001640F490839C1
:10142000C163022180F82110136843F6F0718B43E9
:10143000F0E901142143D0E902452C43214304691A
:1014400021434469214384692143194311600021E8
:101450004163012242770177084630BD080402400B
:10146000F8FFFDBF0000024070B5044690F8200070
:10147000002501280CD0012084F8200094F8216078
:101480000020012E06D084F820000225284670BDD9
:10149000022070BD022684F82160A06320680668DF
:1014A00026F0010606602046FFF7CAFBE06A002826
:1014B0002068016802D041F00E0106E021F004012D
:1014C00001602068016841F00A010160206801683C
:1014D00041F001010160D9E710B500F00BF910BD32
:1014E0002DE9F84FDFF8C8910024A9F1040B234639
:1014F0000F2709F1040AABF1040ED1E00125A54044
:1015000006EA0502AA4276D1DFF8A8C14E68A6EB2A
:101510000C0866452BD00DDC032E34D005DC36B329
:10152000012E19D0022E2FD11BE0112E16D0122E13
:101530002AD119E0B8F5881F19D006DCB8F5803F2C
:1015400015D0B8F5801F1FD111E0B8F5001F0ED0DF
:10155000B8F5041F18D10AE0CB6815E0CB681B1D55
:1015600012E0CB6808330FE0CB680C330CE08B68DB
:101570002BB1012B4FF0080303D0456104E0042395
:1015800002E0056100E00023FF2A01D8064601E0E1
:1015900000F104064FEA840501D9A5F12005D6F82B
:1015A000008007FA05FC28EA0C0803FA05F548EA6A
:1015B0000508C6F800804D68ED0070D53E4DAE6957
:1015C00046F00106AE61AD6924F0030605F00105A1
:1015D00000953A4D06EB050CDCF80850A607360FCF
:1015E00007FA06F825EA0805DFF8D480404503D15C
:1015F0004FF0000825E052E0DFF8C880404502D1F6
:101600004FF001081DE0DFF8C080404502D14FF0E7
:10161000020816E0DFF8B480404502D14FF003081D
:101620000FE0DFF8AC80404502D14FF0040808E03D
:10163000DFF8A080404502D14FF0050801E04FF0EF
:10164000060808FA06F848EA0508CCF808804D684C
:10165000D9F80060ED024D4601D5164300E09643EF
:101660002E604D68DAF80060AD02554601D516438C
:1016700000E096432E604D68DBF80060AD035D46E8
:1016800001D5164300E096432E604D68DEF80060F9
:10169000ED03754601D5164300E096432E60641CA9
:1016A0000A681646E2407FF429AFBDE8F88F0000D3
:1016B0000804014000001110001002400000014029
:1016C00000080140000C01400010014000140140DE
:1016D00000180140001C0140C26821EA02030A40D0
:1016E00043EA0241016170470AB101617047090490
:1016F000FBE70000014880687047000008000020F8
:101700000248816802781144816070470800002017
:10171000074810B5016841F010010160032000F096
:10172000F9F80F2000F006F800F0A8F8002010BD2E
:10173000002002402DE9F04391B000250746012624
:101740000A953004CDE9006007954FF440700C9085
:10175000684600F09FFA04007FD10BA80B9600F0BA
:1017600047F9040079D13F480660404E3E4830605A
:10177000012000F0E1F842F21071B0FBF1F0401EE0
:10178000C6E90105304600F0EFFC040065D1306881
:10179000416841F0100141603068416821F0020168
:1017A0004160334A0A953023B146D2F800C0306810
:1017B0000AE000BFBCFBF3F60A9901F10108CDF87D
:1017C00028808E4200D1012441688907F2D4ECBB05
:1017D0004946056209264662264ED6F800C04CF4FA
:1017E000003CC6F800C0234E0836D6F800C04CF4C2
:1017F000003CC6F800C0466826F005064660D9F8E9
:1018000000008561C561066846F00206066008684A
:10181000466826F0100646600A951268D9F800104E
:1018200007E0B2FBF3F628466D1C0A95864200D10C
:10183000012448688006F4D544B9292000F03CF81A
:10184000102F09D200223946292000E005E000F0DF
:1018500041F80948076000E0012411B02046BDE8C6
:10186000F08300003C044242002800409C04002019
:1018700014000020000401400C0000200C4808B5B2
:10188000816941F001018161816901F001010091EB
:10189000C16941F08051C161C06900F08050009081
:1018A0000448416821F0E06141F00071416008BDE9
:1018B0000010024000000140002809DB00F01F0278
:1018C000012191404009800000F1E020C0F80011A2
:1018D00070470000F0B40E4B1B680C46C3F30223A4
:1018E000C3F10705042D00D90425191D072901D2CC
:1018F000002300E0DB1E012606FA05F1491E214007
:1019000099409E40761E16403143F0BC03F006B964
:101910000CED00E0064900F0070208684FF6FF03EF
:10192000184040EA0220034A104308607047000054
:101930000CED00E00000FA0510B501460020284C2F
:1019400004292FD00BDC012930D0022929D100F045
:101950006BF96168C1F38131491C49001FE0082916
:1019600020D010291DD161682268D20119D51D48E7
:10197000C1F38342C903805C0AD56168194AC1F387
:101980004041921E515C184AB2FBF1F1484301E01C
:10199000164948436168490203D440000321B0FB63
:1019A000F1F010BDBDE8104000F04EB9226AC2F35C
:1019B0000121012903D1920701D5C80310BD0229D5
:1019C00005D1626A920702D549F6404010BD03294D
:1019D000FCD121688903F9D54FF2244010BD0000E5
:1019E00000100240CC71000800127A0000093D008E
:1019F0002DE9F84305460078354CC00754D0E0691E
:101A00000026C00008D4E06940F08050E061E06941
:101A1000012600F0805000902E480168C90512D4BC
:101A20000168804641F480710160FFF763FE07465C
:101A300005E000BFFFF75EFEC01B642823D8D8F87E
:101A40000000C005F6D5206A10F4407021D0A988A6
:101A500001F4407181421CD0206A1F49012220F408
:101A600040700A6000220A602062C00711D0FFF7B0
:101A700041FE074641F2883808E000BFFFF73AFE12
:101A8000C11B414502D90320BDE8F883206A8007C5
:101A9000F4D5206A696820F44070084320621EB1C2
:101AA000E06920F08050E0612878800705D5606803
:101AB000A96820F44040084360602878C00605D536
:101AC0006068696920F48000084360600020DBE7FB
:101AD0000010024000700040400442422DE9F047EF
:101AE0000F46050061D0434E306800F00700B84251
:101AF00009D2306820F0070038433060306800F0C9
:101B00000700B84251D128683B4C810712D54007E5
:101B100003D5606840F4E06060602878000703D572
:101B2000606840F4605060606068A96820F0F00070
:101B3000084360602878C00728D06868012810D062
:101B40002168022810D0890700292EDA616821F067
:101B5000030101436160FFF7CDFD804641F2883902
:101B60000DE021688903EFE78901EDE7FFF7C2FD8A
:101B7000A0EB0801494502D90320BDE8F087606861
:101B8000696800F00C00B0EB810FEFD1306800F015
:101B90000700B8420BD9306820F0070038433060A6
:101BA000306800F00700B84201D00120E5E728784E
:101BB000400705D56068E96820F4E060084360608C
:101BC0002878000706D56068296920F4605040EA4B
:101BD000C100606000F038F86168084AC1F3031181
:101BE000515CC8400649086006480068FFF7A2FD3E
:101BF0000020C2E70020024000100240DC71000813
:101C0000140000200C0000200448054900684968C1
:101C1000044AC1F30221515CC840704714000020FF
:101C200000100240EC71000804480549006849684A
:101C3000044AC1F3C221515CC8407047140000201F
:101C400000100240EC7100080E4A51680E4801F085
:101C50000C03042B11D0082B0FD10C48C1F3834384
:101C6000C903C05C0AD55168084AC1F34041921EBD
:101C7000515C054A5043B0FBF1F0704704494843BA
:101C8000704700000010024000127A00BA7100088C
:101C900000093D002DE9F84F040070D02078C04DB8
:101CA000C00749D06868C0F38100012807D0686880
:101CB000C0F38100022809D16868C00306D52868EE
:101CC000800339D560680028E7D035E06068B0F55A
:101CD000803F0BD010B1B0F5A02F11D0286820F4B0
:101CE00080302860286820F4802002E0286840F4D2
:101CF00080302860606890B1FFF7FCFC06460AE07F
:101D0000286840F480202860F0E700BFFFF7F2FC6D
:101D1000801B642873D828688003F7D50CE0FFF790
:101D2000E9FC064605E000BFFFF7E4FC801B6428E1
:101D3000F0D828688003F7D420789A4E80074FF0B7
:101D400001094FF0000839D5686810F00C0F07D072
:101D50006868C0F38100022809D16868C00306D40E
:101D60002868800714D52069012808D110E020696F
:101D7000B0B1C6F80090FFF7BDFC074605E00AE1E8
:101D8000FFF7B8FCC01B0228C4D828688007F7D525
:101D90002868616920F0F80040EAC10028600DE081
:101DA000C6F80080FFF7A6FC074604E0FFF7A2FC98
:101DB000C01B022823D828688007F7D420780007A2
:101DC0002CD57948A169D9B1C0F80090FFF792FCF1
:101DD000074604E0FFF78EFCC01B02280FD8686A94
:101DE0008007F7D571484FF4FA510068B0FBF1F065
:101DF000009000BF0098411E0091FAD20EE080E0F2
:101E0000C0F80080FFF776FC074604E0FFF772FC9D
:101E1000C01B022875D8686A8007F7D4207840076D
:101E200060D5E8690027C00008D4E86940F0805018
:101E3000E861E869012700F0805000905C48016883
:101E4000C90513D40168834641F480710160FFF72E
:101E500051FC824606E000BFFFF74CFCA0EB0A00F5
:101E600064284ED8DBF80000C005F5D5E0680128ED
:101E70000AD008B1052813D0286A20F00100286292
:101E8000286A20F0040002E0286A40F0010028627D
:101E9000E06841F2883B98B1FFF72CFC82460BE0EA
:101EA000286A40F004002862EEE700BFFFF722FC3A
:101EB000A0EB0A0159455AD8286A8007F6D50CE0EC
:101EC000FFF718FC824605E0FFF714FCA0EB0A01BF
:101ED00059454CD8286A8007F6D41FB1E86920F02C
:101EE0008050E861E06988B36968C1F38101022923
:101EF00044D00228C6F8608004D0FFF7FBFB0446FC
:101F000038E034E0FFF7F6FB074604E0FFF7F2FBAA
:101F1000C01B02282BD828688001F7D4206AB0F5AE
:101F2000803F05D16868A16820F4003008436860EC
:101F3000D4E908010843696821F474110843686012
:101F4000C6F86090FFF7D6FB044606E025E000BF28
:101F5000FFF7D0FB001B022809D828688001F7D5BD
:101F60001BE000BFFFF7C6FB001B022802D90320BD
:101F7000BDE8F88F28688001F4D40EE00128F7D07E
:101F80006868226A00F48031914204D1616A00F4E9
:101F90007010884201D00120EAE70020E8E7000045
:101FA000001002400000424280044242140000201F
:101FB0000070004038B5002504460095FFF7A0FBEF
:101FC0002068416841F01001416020688561206807
:101FD000C5612068416821F00501416020684168C1
:101FE00021F010014160084830232268016806E0B2
:101FF000B1FBF3F50098441C0094854202D0506870
:102000008006F5D538BD00001400002010B5044648
:102010000068016889070AD54068800707D520460F
:10202000FFF7C8FF2068416821F0020141600349C1
:102030004FF4003008600120607410BD14040140AA
:10204000F8B505004FF0000016460C46009006D08B
:102050002CB100226946284600F019F808B1012089
:10206000F8BD287B2070E87BE070697B6170A97BFC
:10207000A17056B101F0C7FFE070607801F0C3FFB6
:102080006070A07801F0BFFFA0700020F8BD2DE9BE
:10209000F04791460C465FEA00084AD084B3D8F86E
:1020A00000004068400744D4404602F04BF84FF42B
:1020B00061620546B0FBF2F1B0FBF2F302FB135094
:1020C0003C23B0FBF3F0B5FBF2F6607002FB165058
:1020D000B0FBF3F203FB1200A070182931D31820D3
:1020E000B1FBF0F7B1FBF0F200FB1210207040469C
:1020F00002F021F8411C04D0A84202D9461B02E09C
:1021000017E04FF0FF36A7EB071000EB4000C0EBE5
:10211000001005EBC0152946404602F062F840B9B0
:10212000701C01D0711900E03146404602F045F8BC
:1021300010B10120BDE8F0873946404601F06EFF3E
:1021400000E02170B9F1000F0BD0207801F05BFFA7
:102150002070607801F057FF6070A07801F053FFA5
:10216000A0700020E6E7000070B5040003D0607C9A
:10217000002610B105E0012070BD2674204600F055
:102180003DF802206074204600F0F2F8042550BBB0
:10219000204601F09AFF30BB2068416821F007011A
:1021A0004160A06820B11448016821F0010101607C
:1021B0001148001F0168A26821F460711143016099
:1021C0006068411C04D10120FFF7B6FB58B1401EE6
:1021D0002268C0F303419160216880B2C860204644
:1021E00001F08EFF08B16574C5E7E67301206073E6
:1021F000A0736074002070BD306C00407047000018
:102200002DE9F0410D4604003BD0C5B3207C0128E8
:102210003AD04FF0010884F8108002206074E8780A
:1022200072B301F0E7FEE073687801F0E3FE6073DB
:10223000A87801F0DFFEA073C2B2617BE07B01F001
:1022400091FF20732870204601F07CFF4FF46161FC
:10225000B0FBF1F1002518292DD91822B1FBF2F1BC
:10226000A1EB011101EB4101C1EB011100EBC11622
:102270003146204601F0B5FF0427C8B90BE000E065
:1022800004E00120BDE8F0810220FBE7E0736878FC
:102290006073A878CFE7204601F04DFF411C0AD0BB
:1022A000B04208D206490144204601F086FF10B131
:1022B00067742574E5E784F8118025740020E1E750
:1022C000805101002DE9F0410D46040024D01DB3DA
:1022D000207C012823D04FF0010884F810800220D0
:1022E00060742878EAB101F085FE4FF4616100FB6B
:1022F00001F6687801F07EFEC0EB001006EB800668
:10230000A87801F077FE35182946204601F069FFCC
:102310000026042710BB0FE00120BDE8F081022059
:10232000FBE74FF4616148436978C1EB011100EBB1
:102330008100A9784518E7E72068416821F0050188
:102340004160204601F0F7FE411C0AD0A84208D2A5
:1023500006490144204601F030FF10B1677426742D
:10236000DAE784F8118026740020D6E78051010056
:1023700070B504000AD02068416821F0080141606E
:10238000FFF7B8F905464FF47A7608E0012070BDF2
:10239000FFF7B0F9401BB04201D9032070BD20689F
:1023A00040680007F4D5002070BD704770470000FA
:1023B00070B590F83C20012A2CD0012480F83C40D4
:1023C000022280F83D2003685A689D6822F070065A
:1023D0000A6832435A60104B02689A420ED00F4B83
:1023E0009A420BD0B2F1804F08D00D4B9A4205D0E3
:1023F0000C4B9A4202D00C4B9A4204D1496825F00A
:1024000080031943916080F83D40002180F83C1022
:10241000084670BD022070BD002C01400034014010
:102420000004004000080040000C004010B504000B
:1024300003D094F83D0010B107E0012010BD00204A
:1024400084F83C00204600F01FF8022084F83D008C
:10245000211D206802F074F8012084F8460084F8F9
:102460003E0084F83F0084F8400084F8410084F87E
:10247000420084F8430084F8440084F8450084F85E
:102480003D00002010BD000008B5114A0168114848
:10249000914211D1816941F400618161806900221A
:1024A00000F40060009011461920FFF713FABDE810
:1024B00008401920FFF700BA074A914207D1C169C5
:1024C00041F00201C161C06900F00200009008BD46
:1024D000002C0140001002400004004090F83D1024
:1024E000012901D001207047022180F83D100168C8
:1024F000CA6842F00102CA6000680E4988420ED0E4
:102500000D4988420BD0B0F1804F08D00B4988426A
:1025100005D00B49884202D00A49884204D181681B
:1025200001F00701062903D0016841F001010160B3
:1025300000207047002C014000340140000400409E
:1025400000080040000C004070B5044690F83C00C4
:102550000025012817D0012684F83C60022084F869
:102560003D002068826822F0770222F47F42826078
:102570000868502838D00DDC20284FD005DC90B3F7
:10258000102811D14AE0022070BD302846D04028E2
:102590000AD13BE060282FD070280DD0B0F5805FC5
:1025A00003D0B0F5005F12D0012584F83D60002013
:1025B00084F83C00284670BDCB68D1E90121206831
:1025C00002F00CF82068816841F0770109E0CB68DF
:1025D000D1E90121206802F001F82068816841F406
:1025E00080418160E1E719E0CA684968206802F02B
:1025F00007F85021206806E0CA684968206802F0A0
:1026000010F86021206801F0F3FFCEE7CA6849683E
:10261000206801F0F5FF40212068F4E722680146B8
:102620001046F0E770472DE9F04104460068C6689F
:1026300005694FF00007A90713D5B10711D5F91E99
:10264000016101202077206880698007204602D040
:10265000FFF7E8FF04E000F07EF8204600F07CF889
:102660002777680716D5700714D521686FF0040026
:102670000861022020772068806910F4407F20469E
:1026800002D0FFF7CFFF04E000F065F8204600F02D
:1026900063F82777280715D5300713D521686FF021
:1026A00008000861042020772068C0698007204660
:1026B00002D0FFF7B7FF04E000F04DF8204600F02D
:1026C0004BF82777E80616D5F00614D521686FF089
:1026D00010000861082020772068C06910F4407F4E
:1026E000204602D0FFF79EFF04E000F034F82046B9
:1026F00000F032F82777E80708D0F00706D0216805
:102700006FF001000861204600F028F8280608D57F
:10271000300606D521686FF0800008612046FFF77B
:1027200044FE680608D5700606D521686FF04000A3
:102730000861204600F020F8A8060AD5B00608D5A2
:1027400021686FF0200008612046BDE8F041FFF7E6
:102750002DBEBDE8F0817047704700000449006855
:102760000968884203D103490888401C08807047E3
:102770008801002000000020704738B5044690F81A
:102780004200202801D0022038BD61B15AB1012099
:10279000206300206063204602F0ECF80028F3D1AB
:1027A000216B012901D0012038BD21680A684968E0
:1027B000009121680C3151E8002F42F0100241E8ED
:1027C0000023002BF5D138BD70B50C4618490068C0
:1027D0004FF480750968884213D104211548FEF72B
:1027E0007BFF15492246A1F5057002F070FE2A46CE
:1027F00011490F48FFF7C1FF10480168491C0160EB
:1028000070BD0F4909688842FAD10E490878401C0A
:1028100008700D48FF2C01D8047001E0FF21017001
:102820002A46BDE8704009490548FFF7A6BF0000E9
:1028300060020020001401402C0E00206C000020DB
:102840001802002002000020030000208800002061
:1028500070470000F8B5016804460868CA684B690B
:1028600010F00F0F4FF0000559D003F0010602F4ED
:102870009077374365D0C10705D0D10503D5616C8A
:1028800041F001016164410705D5D90703D0616CAE
:1028900041F002016164810705D5D90703D0616C5D
:1028A00041F004016164010707D502F020013143C2
:1028B00003D0616C41F008016164616C00293AD079
:1028C000800604D5900602D5204601F096FF2068C8
:1028D0004069616CC0F38010090700D460B32046E2
:1028E00001F056FF20684069400621D52068143069
:1028F00050E8001F21F0400140E80012002AF5D105
:10290000E06BA8B16D494163E06BFEF7B3FB0028B3
:1029100011D0E06B416B01B0BDE8F0400847830681
:102920000FD593060DD52046BDE8F84001F065BFF0
:102930002046FFF78DFFF8BD2046FFF789FF65644D
:10294000F8BD266B2023012E7CD1C6067AD5D6068B
:1029500078D508684868009048694FF0020640063C
:1029600040D5E16B086840680004000CE8D0A28DF7
:102970008242E5D9E085886920282DD020680C3076
:1029800050E8001F21F4807140E80012002AF5D1C0
:102990002068143050E8001F21F0010140E80012C7
:1029A000002AF5D12068143050E8001F21F04001C2
:1029B00040E80012002AF5D184F8423025632068EF
:1029C0000C3050E8001F21F0100140E80012002AEE
:1029D000F5D1E06BFEF72AFB6663A08DE18D401A0E
:1029E00081B22AE0A08DE18D401A81B2E08D0028ED
:1029F000A6D00029A4D022680C3252E8000F20F49F
:102A0000907042E80007002FF5D12068143050E89C
:102A1000002F22F0010240E80027002FF5D184F8B2
:102A20004230256320680C3050E8002F22F010025D
:102A300040E80023002BF5D166632046FFF7C4FE73
:102A4000F8BDFFE705062BD5150629D594F84100FA
:102A50002128F5D1A068B0F5805F01D12069B0B11F
:102A6000206A411C2162216800784860E08C401E89
:102A70000004000CE084E3D12068C16821F08001EB
:102A8000C1602068C16841F04001C160D8E7206A98
:102A90000088C0F308004860206A801C2062E5E7D7
:102AA0004006CDD55006CBD5CA68204622F040025C
:102AB000CA6084F8413000F00BFAC1E747460008CD
:102AC00070B5040004D094F84100002510B106E070
:102AD000012070BD84F84050204600F023F82420E7
:102AE00084F841002068C16821F40051C16020468B
:102AF00001F0E4FE2068016921F490410161206841
:102B0000416921F02A0141612068C16841F4005106
:102B1000C1606564202084F8410084F84200656348
:102B2000002070BD2DE9F04F85B0002504460095CA
:102B300001950295039500689149924F80264FF0C8
:102B400002084FF003094FF0100A88425DD1B869BE
:102B500040F48040B861B86900F480400490B869DE
:102B600040F00400B861B869DFF81CB200F004005E
:102B700004904815CDE900086946CDF80C905846F8
:102B8000FEF7AEFCF000CDE9000569465846029517
:102B9000FEF7A6FCDFF8F8B17C495846C0E90015FD
:102BA000C0E90256CBF81050CBF81450CBF81850AF
:102BB000CBF81C50FEF71AFC08B1FEF7DBF8C4F89E
:102BC0003CB0CBF82440DFF8CCB1704958461439FA
:102BD000C0E90256CBF81050CBF81450CBF818507F
:102BE000CBE9001ACBF81C50FEF700FC08B1FEF749
:102BF000C1F8C4F838B0002211462520CBF8244093
:102C0000FEF768FE2520FEF757FE634920688842DC
:102C10005ED1F86940F40030F861F86900F40030E2
:102C20000490B86940F00400B861B869DFF858B1A1
:102C300000F0040004900420CDE900086946CDF8B6
:102C40000C905846FEF74CFC0820CDE9000569467B
:102C500058460295FEF744FCDFF840B14B49584610
:102C60001431C0E90015C0E90256CBF81050CBF87A
:102C70001450CBF81850CBF81C50FEF7B7FB08B136
:102C8000FEF778F8C4F83CB0CBF82440DFF810B178
:102C90003E4958462831C0E90256CBF81050CBF8CF
:102CA0001450CBF81850CBE9001ACBF81C50FEF7A3
:102CB0009DFB08B1FEF75EF8C4F838B0002211465B
:102CC0002620CBF82440FEF705FE2620FEF7F4FD73
:102CD00034492068884250D1F86940F48020F86176
:102CE000F86900F480200490B86940F00800B861E9
:102CF000B8692D4F00F0080004900815CDE90008D0
:102D00006946CDF80C903846FEF7EAFBF814CDE999
:102D100000050120029069463846FEF7E1FB1B489A
:102D2000224F2838C7E90005C7E902563D617D6199
:102D3000BD613846FD61FEF759FB08B1FEF71AF890
:102D4000E7637C621A4F1148C7E902563D617D6115
:102D5000BD613C38FD61C7E9000A3846FEF746FB15
:102D600008B1FEF707F8A7630022114627207C620E
:102D7000FEF7B0FD2720FEF79FFD05B0BDE8F08F00
:102D80000038014000100240000801405800024095
:102D90000403002048030020004400408C0300206E
:102DA000D003002000480040000C01401404002023
:102DB00058040020704770472DE9F843044690F806
:102DC0004100984616460D46202802D00220BDE854
:102DD000F88385B17EB100206064212084F8410031
:102DE000FEF788FCA6848146E684A0682027B0F51B
:102DF000805F02D003E00120E9E7206910B12E4690
:102E000000250EE000260CE08021204601F0FAFDAE
:102E1000A8B9C6B116F8010B21684860E08C401EC5
:102E2000E084E08C4B464FF00002CDF80080002893
:102E3000EAD14FF04001204601F0E4FD40B184F8B2
:102E400041700320C3E735F8020BC0F30800E3E745
:102E500084F841700020BAE770B5044690F841004C
:102E6000202801D0022070BD49B342B32162A28460
:102E7000E28400206064212384F84130A56B114B6B
:102E8000AB62A56B104BEB62A56B104B2B63A36B76
:102E90005863256813462A1DA06BFEF7E5FA2168E2
:102EA0006FF0400008602068143050E8001F41F0C7
:102EB000800140E80012002AF5D1002070BD0120F9
:102EC00070BD0000454700088747000857460008C6
:102ED000044900680968884203D104210248FEF7CA
:102EE000FBBB704760020020001401407047FEE702
:102EF00010B50020064B0146802203F5487400BF40
:102F000043F820102254401CC828F9D310BD0000FB
:102F10003008002070B50D460446FEF75BF8C4E9A2
:102F20000001FEF757F8C4E902012046FDF732FE22
:102F3000401C04D00249002041F82500012070BD4A
:102F4000300800207CB51446421E1D46CDE9000124
:102F500041F1FF332046294601F0A2FD80F0010037
:102F6000084301D000207CBD01207CBD1D4808B570
:102F7000416941F0010141614069002200F0010016
:102F8000009011460C20FEF7A5FC0C20FEF794FCE7
:102F9000002211460D20FEF79DFC0D20FEF78CFC53
:102FA000002211460E20FEF795FC0E20FEF784FC51
:102FB000002211460F20FEF78DFC0F20FEF77CFC4F
:102FC000002211461020FEF785FC1020FEF774FC4D
:102FD000002211461120FEF77DFCBDE808401120BB
:102FE000FEF76ABC001002402DE9F04F85B00024C6
:102FF0004D480094019402940394816941F02001AA
:103000008161816901F020010491816941F0100121
:103010008161816901F010010491816941F004012D
:103020008161816901F004010491816941F0080125
:1030300081618069DFF8F49000F008004FF4807738
:103040000490002239464846FEF74EFBDFF8E0B018
:10305000002204215846FEF747FB0226DFF8D48001
:103060000096DFF8D4A0CDE9018469465046FEF70A
:1030700037FA01250095CDE9018469464846FEF7F7
:103080002FFA00970396CDE9015469464846FEF7AA
:1030900027FA0420CDE90005CDE9024669465846E5
:1030A000FEF71EFA0820CDE90005CDE90246694683
:1030B0005046FEF715FA8020CDE90005DFF87C8048
:1030C000CDE9024669464046FEF70AFA0122802110
:1030D0004046FEF709FB4FF430400326CDE90005DA
:1030E000CDE9024669464046FEF7FAF90097039695
:1030F000CDE9015469465846FEF7F2F901223946F6
:103100005846FEF7F1FA012208215046FEF7ECFA84
:103110004FF4FA70FEF7E0F9002208215046FEF75E
:10312000E3FA05B0BDE8F08F00100240000801404E
:10313000001401400000111000100140000C01407B
:103140001CB500201A490190184A00900A60421EDE
:10315000C1E901200846FFF707F808B172B6FEE79B
:1031600006208DF8040030208DF8050055208DF8DC
:103170000600012201A90E48FFF7A4F808B172B6B3
:10318000FEE701208DF800008DF801008DF80200A7
:1031900024208DF80300012269460548FFF730F826
:1031A000002801D072B6FEE71CBD000000280040D8
:1031B000F002002010B586B0002417480094019456
:1031C0000294039404941349059401600721C0E913
:1031D000011440F2E731C0E9031444618461FFF750
:1031E00025F908B172B6FEE74FF4805000906946A9
:1031F0000948FFF7A9F908B172B6FEE7049404A9DB
:1032000005480594FFF7D4F8002801D072B6FEE710
:1032100006B010BD002C01408801002010B586B01A
:1032200000241748009401940294039404941349D1
:10323000059401600721C0E901144FF6FF71C0E950
:1032400003148461FFF7F2F808B172B6FEE74FF499
:103250008050009069460A48FFF776F908B172B6C7
:10326000FEE7049404A906480594FFF7A1F8002896
:1032700001D072B6FEE706B010BD000000040040A9
:10328000D0010020FEE72DE9F05F0026C41E924623
:103290009B4689468046354641F1FF3712E0FCF7F0
:1032A000A5FFC11722463B46FDF700F8921C43F1EB
:1032B000000340464946FFF745FE002808D0761C2B
:1032C00045F10005B6EB0A0075EB0B00E7DB0120CA
:1032D000BDE8F09FFEE70000094810B50078002423
:1032E00038B1084802F01EFFF02804D006A0FDF710
:1032F00001F8012402E00BA0FCF7FCFF204610BD02
:1033000018000020B00400204E563131203E3E20EF
:1033100044697361626C65204661696C65640D0A7D
:10332000000000004E563131203E3E20446973615A
:10333000626C65205375636365737366756C6C7935
:103340000D0A00000348007810B1034802F0F0BEF7
:103350000120704718000020B004002070B5114C07
:1033600000202178002911D0E078072809D006280C
:103370004FF000000AD122790B4C0021A4F1280360
:103380000DE00A4802F0ECFE2169484370BD00BF21
:1033900054F8215053F82160491C05FB0600914266
:1033A000F6DB70BD18000020FC070020B0040020F0
:1033B0002DE9F84F03F090F903F002FC07464FF4B3
:1033C0000871D448FDF7AAF9D24E00204FF0010948
:1033D00086F8189070764FF496727261F076032238
:1033E000B2764FF41652834606F55D75C6F8102086
:1033F00005F800B0401C0A28FAD3C7A0FCF77AFFF2
:10340000304603F05DF904460146D1A0FCF772FF97
:10341000F02C01D0D4A095E0DBA0FCF76BFF4FF4BB
:103420007A742046FEF758F8CEA0FCF763FFDD4A19
:103430003046134603F05BF80146F02801D0DAA0CD
:1034400010E0E1A0FCF756FF2046FEF745F8C5A0C6
:10345000FCF750FF0621304602F09FFE0146F0289F
:1034600003D0E0A0FCF746FF40E12046FEF734F829
:10347000BCA0FCF73FFFE449304603F047F80146A3
:10348000F02801D0E1A0EDE74FF47A70FEF724F8C0
:10349000B4A0FCF72FFFDFF87083E5A04446611C61
:1034A000FCF728FFE8A0FCF725FFEC49207A002470
:1034B000087108F5827A0CE004EB440108EB810303
:1034C000611C1A694AF82420E5A01433FCF712FFA6
:1034D000641CD8F80810A142EED84FF47A74204644
:1034E000FDF7FAFF9FA0FCF705FF304602F026FE2D
:1034F0000146F02801D0E1A0B4E72046FDF7ECFF3B
:1035000098A0FCF7F7FE98F80000444603281CD06A
:10351000DFF8488388F803004FF0FF3003F04CFBDE
:10352000FF2403F04BFB23464FF4F172DA49DBA092
:10353000FCF7E0FEFF210A46304602F0B6FFF02815
:1035400017D0DFA0FCF7D6FED0E000250DE000BFCD
:1035500005EB450004EB800202F1140011690246FC
:103560000123304602F08CFF6D1CA068A842EFD802
:10357000C9E098F80300072805D0062824D00028C1
:103580003ED0D5A0DEE7DCA0FCF7B4FE614802F037
:10359000E7FD01460090DFA0FCF7ACFE0098C8F8FC
:1035A00024000098C8F828B0C8F8200044464FF01E
:1035B000FF3003F001FB94F8280097F8581060F3EF
:1035C000410187F8581026E0D9A0FCF793FEE1A04E
:1035D000FCF790FE00240EE05AF824104D4802F04B
:1035E00076FDE249024641F824005AF82410E0A092
:1035F000FCF780FE641C98F804008442ECDB0CE0CD
:10360000DEA0FCF777FE4FF0FF3003F0D5FA3879F3
:1036100020F00800387103F0D1FA98F8030044460E
:10362000072802D006284AD06DE000254FF0FF3869
:103630001EE0404603F0C0FAB7F8591009FA05F049
:10364000014210D003F0BAFA57465AF8250000217B
:1036500000F0E4FB002849D157F82510CEA02161E5
:10366000FCF748FE07E003F0A9FA072D03DC6D1C08
:1036700020798542DDDB644D2978062901D00729B0
:1036800041D1304602F060FDF02808D0C7A0FCF719
:1036900031FE2089401C81B22181CCA0E2E6A4F851
:1036A00008B02978E17084F8009084F802B0FFF740
:1036B00049FECEA0FCF71EFE0120BDE8F88F0026D3
:1036C0004FF0FF3BA8461BE0584603F075FAB7F8E9
:1036D000590009FA06F14D4608420CD003F06EFA83
:1036E0005AF82600002100F099FB08B10020E4E719
:1036F00008F8065001E003F061FA072E03DC761C9F
:1037000020798642E0DB554981F80090FFF71AFEE8
:10371000D2E70000B00400204E563131203E3E205A
:1037200047657474696E6720696E666F726D617447
:10373000696F6E2066726F6D204E6F7465205661E2
:103740006C696461746F722E2E2E0D0A00000000E9
:103750004E563131203E3E20726573706F6E736538
:103760003A2025750D0A00004E563131203E3E208C
:103770004E4F2056414C494441544F5220464F55DC
:103780004E440D0A000000004E563131203E3E20CE
:1037900056616C696461746F7220466F756E640D5A
:1037A0000A000000674523014E563131203E3E207D
:1037B000456E6372797074696F6E204661696C65DD
:1037C000642025640D0A00004E563131203E3E2013
:1037D000456E6372797074696F6E2053657475708D
:1037E0000D0A00004E563131203E3E20486F737462
:1037F0002050726F746F636F6C204661696C6564F2
:103800002025640D0A000000D00600204E563131FC
:10381000203E3E2053657475702052657175657346
:1038200074204661696C65642025640D0A000000FF
:103830004E563131203E3E204669726D7761726589
:103840003A2025730D0A00004E563131203E3E20AD
:103850004368616E6E656C733A0D0A0018000020B3
:103860004E563131203E3E206368616E6E656C209D
:1038700025643A2025642025730D0A004E56313107
:10388000203E3E20456E61626C65204661696C6534
:10389000642025640D0A0000F47100085B25732D77
:1038A00025755D20737370365F7365745F696E682C
:1038B000696269747320253038580D0A00000000D1
:1038C0004E563131203E3E20496E686962697473FC
:1038D000204661696C6564004E563131203E3E20C1
:1038E000556E697420547970653A20554E4B4E4F91
:1038F000574E0D0A000000004E563131203E3E204A
:10390000556E697420547970653A204E5631310DE8
:103910000A0000004E563131203E3E2053746F7233
:103920006564204E6F7465733A2025640D0A0000AB
:103930004E563131203E3E20556E697420547970C8
:10394000653A20536D617274205061796F75740D02
:103950000A0000004E563131203E3E2053746F72F3
:103960006564204E6F7465733A0D0A00FC070020F1
:1039700025643A2025640D0A000000004E563131BE
:10398000203E3E20556E697420547970653A204E71
:1039900056390D0A00000000526566756E64206E8F
:1039A0006F74652025750D0A000000004E563131F8
:1039B000203E3E20456E61626C65207061796F75B6
:1039C00074204661696C65640D0A00004E56313101
:1039D000203E3E205061796F757420696E697420B5
:1039E00025642074696D65730D0A00004E563131EF
:1039F00020656E61626C65207061796F75742073EB
:103A00007563636573730D0A000000002DE9F041D2
:103A1000264C3C252078002845D025A0FCF76AFCE0
:103A20000020A0706071294802F0BEFB0127F02839
:103A300004D027A0FCF75EFCA77034E0FDF75AFE27
:103A400006461BE0FDF756FE801BB0F57A7F09D9CC
:103A5000D5B1284601F0C5FB6D1EEDB2FDF74AFE5B
:103A6000064600E085B1002000F096F8A078062810
:103A700012D0012814D00120FDF72EFDA0780628D1
:103A8000E0D10020BDE8F0811CA0FCF733FC23A0AE
:103A9000FCF730FC677106E02BA0FCF72BFCF0E78D
:103AA00031A0FCF727FC0120ECE700001800002003
:103AB0004E563131203E3E205061796F7574206E34
:103AC0006F74652073746172740D0A00B004002075
:103AD0004E563131203E3E204E6F7465206469732E
:103AE00070656E7365206572726F72206279206EE8
:103AF000763131206572726F720D0A004E56313187
:103B0000203E3E20436F756E7420646F776E207286
:103B1000656A65637420656E640D0A004E56313126
:103B2000203E3E204E6F74652064697370656E732D
:103B300065206572726F722062792074696D656F9D
:103B400075740D0A000000004E563131203E3E20B3
:103B50004E6F74652064697370656E736520627959
:103B600020666C61670D0A004E563131203E3E20C2
:103B70004E6F74652064697370656E73652065723D
:103B8000726F72206279207061796F7574206E6F28
:103B900074650D0A0000000070B54E4CADF5227D35
:103BA0002078002879D0FDF7A5FDA169411A962952
:103BB00073D9A061A0780025012812D06078012671
:103BC00000284ED0444802F0E2FAF02847D00346DD
:103BD000A67040F28152414941A0FCF78BFB657011
:103BE00071E0A079401CC0B2A07114286BD9A571F6
:103BF00043A0FCF77FFBE16A09B1002088476069B8
:103C0000411C61610C2817D949A0FCF773FB002007
:103C100001F03CFE4FF47A706561FDF75DFCBFF387
:103C20004F8F47480168474A01F4E0611143016042
:103C3000BFF34F8F00BFFDE702F048FD02F052FDD9
:103C4000FFF7B6FB00283ED03FA0FCF753FBA57062
:103C5000E16A002937D001208847656133E042A03E
:103C600029E069461C4802F0A5FA0546F02825D04F
:103C7000FF2D06D0FA2D11D0014640A0FCF73AFBEB
:103C800016E046A0FCF736FBA6702B4640F2955294
:103C9000124949A0FCF72EFB15E017E04E4A0E48EA
:103CA000134602F024FCF02804D04CA0FCF722FBC1
:103CB000A67008E050A0FCF71DFB04E00022694656
:103CC000054801F007FE0120FDF706FC0DF5227DF9
:103CD00070BD000018000020B0040020FE71000834
:103CE0005B2573206C696E652025755D204E56310D
:103CF00031206572726F7220253032580D0A000033
:103D00004E563131203E3E204E56313120697320CF
:103D10006572726F722E20547279696E6720746FAB
:103D2000207265636F6E6E6563742E2E2E0D0A0011
:103D30005265736574204E5631310D0A0000000043
:103D40000CED00E00400FA054E563131203E3E20D5
:103D50004E56313120697320776F726B696E672020
:103D60006E6F770D0A0000004E56313120686F6C7F
:103D70006420737563636573730D0A004E563131A9
:103D8000203E3E20556E65787065637465642065DD
:103D900072726F7220253032580D0A004E56313142
:103DA000203E3E2053535020506F6C6C2054696D60
:103DB000656F75740D0A00005B2573206C696E6574
:103DC0002025755D204E563131206572726F72204C
:103DD000253032780D0A0000674523014E563131F7
:103DE000203E3E20456E6372797074696F6E204686
:103DF00061696C65640D0A004E563131203E3E20EB
:103E0000456E6372797074696F6E20536574757056
:103E100020737563636573730D0A000070B5044603
:103E20006420002504FB00F12B4608A2084802F09C
:103E300044FBF028214604D006A0FCF75BFA0125DC
:103E400002E00EA0FCF756FA284670BD564E44001C
:103E5000B00400204E563131203E3E204552524F94
:103E6000523A2053657420726F7574696E672066CC
:103E700061696C65643A2025640D0A004E56313143
:103E8000203E3E2053657420726F7574696E672002
:103E90005375636365737366756C6C793A2025643A
:103EA0000D0A00002DE9F04FADF5197D83469246CD
:103EB0000C4688A8FFF72EF800286ED04FF00008B7
:103EC0008DF81B8002208DF81A004FF47A7005904F
:103ED00001208DF81C0011208DF81D008DF819406F
:103EE0006946584600F0FAF99DF81E01F02853D1B2
:103EF0004FF009094A208DF81C908DF81D00DDE96E
:103F0000886700256C46EA0030463946FCF7BBF965
:103F100061196D1CEDB28877082DF4D369465846B7
:103F200000F0DCF99DF81E01F02835D14B208DF80A
:103F30001C908DF81D00DDE98A670025EA003046F7
:103F40003946FCF7A0F961196D1CEDB28877082D90
:103F5000F4D36946584600F0C1F99DF81E01F028D7
:103F60001AD14C20DDE98C678DF81C908DF81D006E
:103F70000025EA0030463946FCF785F961196D1CC9
:103F8000EDB28877082DF4D36946584600F0A6F9BB
:103F90009DF81E01F02804D000200DF5197DBDE824
:103FA000F08F0020CDE99000054646466019EA00F2
:103FB00090F81F013146FCF753F9DDE99023801892
:103FC00059416D1CEDB2082DCDE99001EED388A8C2
:103FD000FCF702FE0028E0D0DDE99412CAE90212E3
:103FE0000120DAE7704700000148FEF70FB8000033
:103FF0009C040020010901EB810100F00F0000EB9F
:104000004100C0B27047002102E00A38C0B2491C2A
:104010000A28FAD2090740EA116070472DE9F041F9
:1040200004460025C07B627BA37B42E0012A16D0B8
:10403000032A14D0052A12D0072A10D0082A0ED03D
:104040000A2A0CD00C2A0AD0042A10D0062A0ED034
:10405000092A0CD00B2A0AD0022A0DD028E01F2BE7
:104060000CD30C2A05D101221346401C20E01E2B44
:1040700004D30123521C1BE01C2B02D203F10103C9
:1040800016E011D183B29E0710D16426B3FBF6F778
:1040900006FB173636B94FF4C876B3FBF6F706FBC6
:1040A00017331BB91D2303E01D2B01D1032201236C
:1040B0006D1C8D42BAD3D1B2E0736173DAB2A273D0
:1040C00000F050F82073BDE8F08170B50446FDF7AC
:1040D00011FB05464FF47A7606E0FDF70BFB401B1B
:1040E000B04201D9032070BD206840688006F4D535
:1040F0002068416841F010014160002070BD00005F
:1041000070B504460068416821F010014160FDF778
:10411000F1FA05464FF47A7607E000BFFDF7EAFAB8
:10412000401BB04201D9032070BD20684068800662
:10413000F4D5002070BD0168086A496A89B241EA75
:1041400000407047006881698AB2C1698BB2816999
:1041500089B28A4203D0C06961F31F40704743EAC5
:1041600002407047F0B56424C1EBC1030927A500E4
:10417000072603EB01130329B3FBF7F100F5FA60FF
:10418000114401440AD2401EB0FBF4F201EB90014D
:10419000B0FBF5F0891A0844001D08E0B0FBF4F20A
:1041A00001EB9001B0FBF5F0891A0844801CB0FBCC
:1041B000F6F106FB1100C0B2F0BD70B50D46064623
:1041C0000024FFF782FF48B93168280C0862316883
:1041D000A8B248623046FFF793FF00B101242046A1
:1041E00070BD70B50D4606460024FFF76EFF48B956
:1041F0003168280C88613168A8B2C8613046FFF781
:104200007FFF00B10124204670BD70B50C4601252A
:1042100001F580717F2802D194F8FF218AB194F8CA
:1042200004220026012A10D07F2822D094F8FF21F2
:10423000531C84F8FF31505494F8FF0103281BD01D
:104240001FE084F8FF51505470BD7F2808D07F21B3
:1042500084F8001184F80101022084F8FF0105E0D0
:1042600094F8FF21531C84F8FF31505484F8046201
:1042700007E084F8045204E094F80201401D84F839
:10428000010294F8FF1194F801028142DCD194F804
:10429000011194F8022201F07F01914218D148F2F5
:1042A00005034FF6FF7204F20111C01E00F076FF05
:1042B00094F8011204F1FE02C3B28A5C934207D162
:1042C00004F1FF02895CB1EB102F01D184F8035295
:1042D00084F8FF6184F8046270BD00002DE9FE4F90
:1042E0000C4671492046FCF7DDFB4FF00409A8B1EC
:1042F000A57EDFF8B4814FF0000A4FF0030B88F879
:1043000003A2464698F80012674802F01DFA84F8A6
:104310001CB1FDF7EFF90746B0461FE084F81C9189
:1043200034E00126FDF7E6F96169C01B88420DD92A
:10433000052084F81C0119E0012102A802F0F0F91F
:1043400059499DF80800FFF760FF002602F0F0F9D8
:104350000028F1D116B10220FDF7BEF898F803024B
:104360000028DED094F81C01032806D06D1E15F03D
:10437000FF05C4D1C0B2052805D098F80301454611
:104380007E2806D06FE0FF2084F81E010020BDE8E3
:10439000FE8F95F802014549401E8DF8040001ABDF
:1043A0001A460E4608460094FCF760FC9DF804008F
:1043B00048F2050843464FF6FF723146801E00F072
:1043C000EDFE3A4A95F80211D21EC3B28A5C9342BE
:1043D000A4D1364A921E895CB1EB102F9ED10021E8
:1043E00008462A18C30092F805219A40401C11443F
:1043F0000428F6DB607E2E4A52F8200088428DD1D8
:1044000095F804212B4E501DC0B285F8010295F895
:104410000011317095F801117170B270002105E042
:104420006B18771893F80931FB70491C8A42F7DC46
:1044300043464FF6FF72711CC01E00F0AFFE1D4ACE
:1044400095F80411D21C8854020A1A48001D0A5417
:10445000002004E0315C2A18401C82F8001195F815
:1044600001128142F6DC95F8020184F81D0100205A
:1044700006E02918221891F8031182F81E11401C39
:1044800094F81D118142F4DC607E0B490A5C802A9D
:1044900006D0802201F8002084F81CB1012076E7C4
:1044A00001F800A0F8E700002B1000202F110020D9
:1044B0003008002030120020500B00207047FDF71C
:1044C0001FB930B595B028216846FCF727F91421AB
:1044D0000AA8FCF723F918210FA8FCF71FF90520FB
:1044E00000904FF48030012400250190079503943B
:1044F0006846FDF7CFFB08B172B6FEE70F20CDE9A5
:104500000A049020CDE90C0500210AA80E95FDF7BC
:10451000E5FA08B172B6FEE74FF48070CDE90F40BE
:104520000FA8FDF765FA002801D072B6FEE715B0B6
:1045300030BD70470148FEF776B8000088010020C2
:10454000F0B50268204C214D214E224F224B4FF0F6
:10455000804CA04209D0984207D0604505D0A842BF
:1045600003D0B04201D0B84204D122F0700E4A68A4
:1045700042EA0E02A04209D0984207D0604505D019
:10458000A84203D0B04201D0B84203D122F4407512
:10459000CA682A434D6922F080022A4302608A6871
:1045A000C2620A688262A04201D0984201D10969C0
:1045B0000163012141610169C90703D0016921F04B
:1045C00001010161F0BD0000002C01400004004029
:1045D00000080040000C00400034014010B5846821
:1045E00042EA032224F47F440A432243826010BD3E
:1045F000826822F070020A4342F00701816070472E
:1046000010B5036A046A24F001040462846924F08A
:10461000F00444EA021423F00A020A4384610262AD
:1046200010BD10B5036A046A24F0100404628469A2
:1046300023F0A00324F4704444EA023243EA011157
:104640008261016210BD10B5406A0021C185C1843C
:10465000FEF7FEF810BD70B5446A2068406994F812
:104660004110C0F3C0100025212904D118B1E58400
:10467000204600F0B4F82068406994F84210C0F376
:104680008010222904D118B1E585204600F080F879
:10469000606C40F0100060642046FEF7D9F870BDF1
:1046A00010B50146406A096809684FF000028906A2
:1046B0002ED4C28501680C3151E8003F23F4807389
:1046C00041E80034002CF5D10168143151E8003F75
:1046D00023F0010341E80034002CF5D101681431C6
:1046E00051E8003F23F0400341E80034002CF5D1AD
:1046F000202180F84210016B012909D101680C3199
:1047000051E8003F23F0100341E80034002CF5D1BC
:104710004263016B012902D0FEF74CFB10BD818D75
:10472000FEF752F810BD10B5406A01214163016BDC
:10473000012902D0FEF73FFB10BD818D4908FEF72D
:1047400043F810BD10B50146406A0968096889063A
:1047500016D40021C1840168143151E8002F22F0E1
:10476000800241E80023002BF5D101680C3151E8AB
:10477000002F42F0400241E80023002BF5D110BD8C
:10478000FEF7A6FB10BD10B5406AFEF7AFFB10BDEB
:1047900001680C3151E8002F22F4907241E80023A7
:1047A000002BF5D10168143151E8002F22F00102ED
:1047B00041E80023002BF5D1016B012909D10168E3
:1047C0000C3151E8002F22F0100241E80023002BA9
:1047D000F5D1202180F84210002101637047016863
:1047E0000C3151E8002F22F0C00241E80023002BD9
:1047F000F5D1202180F84110704708B590F842109B
:10480000222901D0022008BD82684FF480539A42C9
:1048100001D1016921B1816A9A421BD04AB10AE0F3
:104820000268816A5268C2F308020A80816A891CA0
:1048300008E0026972B10268526802F07F020A70F1
:10484000816A491C8162C18D491E0904090CC18518
:1048500003D01BE002685268F1E70168CA6822F0E1
:104860002002CA600168CA6822F48072CA600168C6
:104870004A6922F001024A61202180F84210002199
:104880004163026B012A03D0FEF794FA002008BDB1
:10489000016301680C3151E8002F22F0100241E859
:1048A0000023002BF5D101680A68D20602D50A68F8
:1048B00049680091818DFDF787FFE7E770B50446F1
:1048C00000680169E26821F44051114301612169E6
:1048D000A0680843616908432168CA6841F20C6313
:1048E0009A430243CA6020684169A26921F4407179
:1048F000114341611E492068884202D1FDF794F9B5
:1049000001E0FDF781F900EBC00101EB00126068E6
:1049100064218000B2FBF0F3B3FBF1F36FF01806F3
:104920007343B2FBF0F5B2FBF0F605EB83053223DF
:1049300003EB0515B5FBF1F5B6FBF1F605F0F00557
:1049400005EB0615B2FBF0F6B2FBF0F0B0FBF1F0B0
:104950006FF01802504306EB800003EB0010B0FB31
:10496000F1F0216800F00F002844886070BD00005D
:104970000038014038B58162044682850020134624
:104980006064222284F84220E56B1B4AAA62E56B30
:104990001A4AEA62E56B1A4A2A63E26B50630A46D6
:1049A0002168E06B091DFCF75FFD20680168406825
:1049B0000090206948B120680C3050E8001F41F495
:1049C000807140E80012002AF5D12068143050E8C8
:1049D000001F41F0010140E80012002AF5D12068D3
:1049E000143050E8001F41F0400140E80012002A56
:1049F000F5D1002038BD0000A14600082747000877
:104A0000574600082DE9F843984617460D460446D8
:104A1000089E24E0701C22D0FCF76CFEA0EB08007E
:104A2000B0421AD8CEB12068C168490717D5802D89
:104A300015D0402D13D00168C94309070FD4016870
:104A40000025406800902046FFF7A2FE0820606421
:104A500084F840500120BDE8F8830320FBE720687C
:104A6000006835EA000004D00020B842D2D000200F
:104A7000F1E70120F9E700000148FDF7EBBE000077
:104A8000180200200148FDF7E5BE0000600200208A
:104A90000148FDF7DFBE0000A8020020FEE700008D
:104AA0002DE9F05F154682468B46DDE90A791C4602
:104AB0000120002182F00102224326D05FF000068F
:104AC000A0FB00C201FB002200FB01213A464B463D
:104AD0006046FBF7EBFB1946104604F000431A0052
:104AE0000CD0A0FB0AC801FB0A8100FB0B113A465F
:104AF0004B466046FBF7DAFB104619466D196441D8
:104B0000761C402EDCDBBDE8F09F3A464B46504613
:104B10005946FBF7CBFB10461946F4E70907090E87
:104B2000002804DB00F1E02080F80014704700F05A
:104B30000F0000F1E02080F8141D704730380A287B
:104B400001D2012070470020704710B5044601F0E3
:104B5000A1FA10B194F81E0110BDFF2010BDF0B5F0
:104B6000B5B00646DDE93B541A4668463D9F00F065
:104B7000C5FA88B93F09012E02D0012035B0F0BD39
:104B8000002612E0214630A800F038FE30AA114677
:104B9000684600F00FF808B1FBF73EFD30A9284643
:104BA00000F02CFE10341035761CBE42EAD30020F3
:104BB000E4E700002DE9FC5F15460A68CB7912BADC
:104BC00022F0FF06CA78CF7A16434A68044612BA22
:104BD00022F0FF021A438B68A0301BBA23F0FF03B8
:104BE0003B43CF68C97B3FBA27F0FF070F430168FB
:104BF0004FF0000881EA060B4168C66881EA020AA4
:104C000081687E4081EA030914F190044FEA1B6039
:104C100000F0B8FB0706C6F3074000F0B3FB87EAD5
:104C20000047C9F3072000F0ADFB87EA00270AF030
:104C3000FF0000F0A7FB47402068784000F07DFBB4
:104C400000904FEA1A6000F09DFB0706CBF3074087
:104C500000F098FB87EA0047C6F3072000F092FBBC
:104C600087EA002709F0FF0000F08CFB47406068EE
:104C7000784000F062FB01904FEA196000F082FB7F
:104C80000706CAF3074000F07DFB87EA0047CBF335
:104C9000072000F077FB87EA0027F0B200F072FBF4
:104CA0004740A068784000F048FB0746300E00F00F
:104CB00069FB0606C9F3074000F064FB86EA00467C
:104CC000CAF3072000F05EFB86EA00260BF0FF0027
:104CD00000F058FB4640E068704000F02EFBDDE934
:104CE00000BA08F10108103CB9460646B8F1090FB0
:104CF0008CDB4FEA1B6000F045FB0706C6F307405C
:104D000000F040FB87EA0047C9F3072000F03AFBB8
:104D100087EA00280AF0FF0000F034FB88EA000868
:104D2000206888EA00084FEA1A60CDF8008000F099
:104D300029FB0706CBF3074000F024FB87EA004776
:104D4000C6F3072000F01EFB87EA002809F0FF00E9
:104D500000F018FB88EA0008606888EA00084FEA5B
:104D60001960CDF8048000F00DFB0706CAF3074078
:104D700000F008FB87EA0047CBF3072000F002FBB6
:104D800087EA0027F0B200F0FDFA4740A0684740EC
:104D9000300E00F0F7FA0606C9F3074000F0F2FA09
:104DA00086EA0046CAF3072000F0ECFA86EA0026FD
:104DB0000BF0FF0000F0E6FA4640E068DDF8008006
:104DC00046404FEA18602870DDF800804FEA18402E
:104DD0006870DDF800804FEA1820A870DDF80080C8
:104DE00085F80380DDF804804FEA18602871DDF84B
:104DF00004804FEA18406871DDF804804FEA1820FB
:104E0000A871DDF8048085F80780380E2872380C08
:104E10006872380AA872EF72300E2873300C68730B
:104E2000300AA873EE730020BDE8FC9FF0B5B5B062
:104E30000646DDE93B541A4668463D9F00F05EF9A0
:104E400088B93F09012E02D0012035B0F0BD0026FF
:104E500012E0294630A800F0D1FC30AA114668467D
:104E600000F00EF808B1FBF7D7FB30A9204600F0A0
:104E7000C5FC10341035761CBE42EAD30020E4E7AE
:104E80002DE9FC5F15460A684FF0000812BA22F0BF
:104E9000FF03CA7813434A6812BA22F0FF04CA79A2
:104EA00014438A6812BA22F0FF06CA7A1643CA6807
:104EB000C97B12BA22F0FF020A4302C881EA030941
:104EC00002C881EA040A50F8081B044681EA060B6E
:104ED00050F8046C564000BF4FEA196000F0B3F977
:104EE0000706CAF3074000F0AEF987EA0047CBF3A4
:104EF000072000F0A8F987EA0027F0B200F0A3F934
:104F0000784000F06FF9216841404FEA1A60009143
:104F100000F099F90706CBF3074000F094F987EA0F
:104F20000047C6F3072000F08EF987EA002709F052
:104F3000FF0000F088F9784000F054F961684140C2
:104F40004FEA1B60019100F07EF90706C6F30740A7
:104F500000F079F987EA0047C9F3072000F073F9F8
:104F600087EA00270AF0FF0000F06DF9784000F0B2
:104F700039F9A16880EA0107300E00F064F90606ED
:104F8000C9F3074000F05FF986EA0046CAF307203C
:104F900000F059F986EA00260BF0FF0000F053F903
:104FA000704000F01FF9E168DDE9009A80EA01062F
:104FB00008F1010101F0FF081034BB46B8F1090FF8
:104FC0008AD34FEA196000F03EF90706CAF307409A
:104FD00000F039F987EA0047CBF3072000F033F9F6
:104FE00087EA0028F0B200F02EF988EA000820686D
:104FF00088EA00084FEA1A60CDF8008000F023F933
:105000000706CBF3074000F01EF987EA0047C6F316
:10501000072000F018F987EA002809F0FF0000F0E7
:1050200012F988EA0008606888EA00084FEA1B6005
:10503000CDF8048000F007F90706C6F3074000F03A
:1050400002F987EA0047C9F3072000F0FCF887EA75
:1050500000270AF0FF0000F0F6F84740A06847403C
:10506000300E00F0F0F80606C9F3074000F0EBF848
:1050700086EA0046CAF3072000F0E5F886EA002633
:105080000BF0FF0000F0DFF84640E068DDF800803C
:1050900046404FEA18602870DDF800804FEA18405B
:1050A0006870DDF800804FEA1820A870DDF80080F5
:1050B00085F80380DDF804804FEA18602871DDF878
:1050C00004804FEA18406871DDF804804FEA182028
:1050D000A871DDF8048085F80780380E2872380C36
:1050E0006872380AA872EF72300E2873300C687339
:1050F000300AA873EE730020BDE8FC9F2DE9F0474D
:10510000804604469246002001EB80021368D27864
:105110001BBA23F0FF03134344F82030401C04283B
:10512000F2DBDFF874900025E068C0F3074000F080
:105130008AF819F805104840216881EA0066A089BC
:10514000C0F3072000F07FF80704207B00F07BF815
:1051500087EA00204640E068000E00F074F8464000
:1051600044F8106F6D1C54F80C0C7040606054F8DB
:10517000081C4140A16054F8040C4840E0600A2D2E
:10518000D2DBBAF1000004D0014608F1B00000F013
:1051900035FB0020BDE8F0870B720008F0B505462E
:1051A000104600224FF6FF760FE08C5C80EA042068
:1051B0000024070403D583EA400080B201E006EA38
:1051C0004000641C082CF4DB521CAA42EDDBF0BD4D
:1051D00008B5FF200090411E009101D30846FAE770
:1051E00008BD70472DE9F0470546C0F3074787EA39
:1051F0001560C5F3072980EA0904EEB27440FBF795
:10520000BBFD80EA156060404FEA0068280C80EA28
:105210001520C0B2FBF7B0FD4740674085EA152076
:1052200088EA0747C0B2FBF7A7FD89EA00016140A1
:1052300087EA012786EA1560FBF79EFD7040604013
:105240007840BDE8F08710B500F03CF8410081EAF5
:10525000800181EAC00181EA0011414081EA112008
:10526000C0B280F0630010BD13B54FF0FF330122D0
:1052700069460248FDF7A0FD00981CBD18020020F9
:1052800001B10121094B40B101280AD002280CD1FB
:10529000CAB281031846FCF727BACAB24FF480514C
:1052A000F8E7CAB24FF40051F4E77047000C014030
:1052B000410841EA900040EA900040EA1010401C8A
:1052C000400870472DE9F04704464FF01B09FFF7EF
:1052D000EFFF8026012705464FF00008022C02D27E
:1052E0002046BDE8F08795B93846FAE7B6FBF5F0F9
:1052F00004FB00F1784381EA090180EA080001F02B
:10530000FF0900F0FF084846FFF7D2FF0646AE420D
:10531000ECD27EB94046E4E7B5FBF6F009FB00F1BC
:105320006140CCB208FB00F17940CFB22046FFF7D4
:10533000BFFF0546B542D6D3EEE770B50446C0F3CD
:10534000072585EA1460FBF717FDFBF715FD0646F8
:1053500084EA1440C0B2FBF70FFDFBF70DFD0146D8
:1053600086EA14600206C4F30740484082EA00401F
:105370007540E2B280EA0520BDE870404A405040E6
:10538000FFF730BF410081EAC00181EA801080EA66
:105390001020C0B280F00500FFF794BF0CB588B1B3
:1053A000016879B1416869B1C26800928068019072
:1053B0001046019A90420BD01046009A904203D9B1
:1053C000811A05E000200CBD1046019A801A091AC6
:1053D000481E0CBD0CB558B1016849B1416839B1DE
:1053E000C2680092806801901046019A904202D1F2
:1053F0004FF000000CBD02D9A0EB02000CBD10461E
:10540000009AA0EB0200A1EB00000CBD70B51546A0
:105410000E46040008D03EB135B11421FBF77EF9E9
:10542000C4E90065012070BD002070BDF8B51446C8
:1054300005000E462CD0286850B3686840B33EB3D0
:1054400034B32846FFF7C6FFA04200D3204607002A
:105450001ED0A868009068680099441ABC4200D326
:105460003C462868224601443046FBF7E0F80098A5
:105470003F1B2044009005D030193A462968FBF7BD
:10548000D6F8009768680099884203D9084603E077
:105490000020F8BD00200090A8602B691BB1E21924
:1054A000002128469847E019F8BD00280ED0016871
:1054B00000290BD04168002908D00021C16081601B
:1054C0000369002B02D00022022118477047F8B56B
:1054D000144605000E462CD0286850B3686840B3C7
:1054E0003EB334B32846FFF759FFA04200D320460D
:1054F00007001ED0E868009068680099441ABC4212
:1055000000D33C462868224608443146FBF78FF812
:1055100000983F1B2044009005D031193A46286876
:10552000FBF785F8009768680099884203D9084618
:1055300003E00020F8BD00200090E8602B691BB15B
:10554000E219012128469847E019F8BD90B01C22C5
:105550006D4908A8FBF7B0F8FCF7DAF8FEF7B1FFE1
:10556000FDF742FDFDF702FDFDF724FE684867499F
:10557000002401604FF4E131C0E901140C25C4603E
:10558000C0E904458461C461FDF79AFA08B172B6B6
:10559000FEE75F485F4948304F14C7604FF4165626
:1055A0000160C0E90164C0E904458461C461FDF79C
:1055B00087FA08B172B6FEE7554857499030C76080
:1055C0000160C0E90164C0E904458461C461FDF77C
:1055D00077FA08B172B6FEE7FDF720FE4FA0FAF7A2
:1055E00089FE52A0FAF786FE9DF812309DF8112030
:1055F0009DF8101050A0FAF77DFE45489038FCF752
:105600006DFF4FF4807251494148FDF7B6F8FDF740
:1056100097FD4FA0FAF76EFE00215248FBF786FC7B
:1056200051A0FAF767FE3A48002204A9D830FCF7E7
:105630002EFD00220123114650A0FBF71BFC9DF814
:10564000120000909DF811309DF810204EA105A881
:10565000FAF75CFE01230A22002105A8FBF70AFCE9
:10566000FBF744FC01F03EF8FDF742FC01F074F852
:105670000146401C44D047A0FAF73CFE4BA0FAF785
:1056800039FE4E4D4FF47A76304601F007FA2888FD
:105690007C28F9D91E48002204A9D830FCF7F7FC71
:1056A0001B4800220FA9D830FCF7CAFC2C809DF8BB
:1056B0003F309DF8102003F5FA639DF81210CDE9F4
:1056C00000329DF81100CDE902019DF83E0008A9C5
:1056D00001EB80029DF83D3039A105A8FAF716FECE
:1056E0000020FBF756FB01230A22002105A8FBF747
:1056F000C1FBFBF7FBFB05A937A0FAF7FBFDC3E7EE
:1057000038A0FAF7F7FDB9E79C71000800380140AE
:105710001802002000440040004800400D0A537465
:10572000617274696E672E2E2E0000000D0A5254AD
:10573000435F646F6E65210054696D653A2025648E
:105740003A25643A253032640000000088000020C9
:105750000D0A5254435F494E49545F4558495421FC
:1057600000000000815200080D0A4C43445F494E7E
:1057700049545F4558495421000000005374617238
:1057800074696E672E2E2E0025643A25643A253002
:10579000326400004E56313120496E6974204661F2
:1057A000696C3A2025640D0A00000000496E6669A4
:1057B0006E697465206C6F6F700D0A000000002028
:1057C00025732F253032642F25642025643A253037
:1057D00032643A25303264000D0A5254433A20258F
:1057E000730000004E56313120496E6974205375A4
:1057F000636365737366756C210D0A0000228B5C10
:105800008354521C102AFADB7047437E0A46007EFE
:105810001946FEF747BB0000094810B5007801247F
:1058200038B1084800F08AFCF02804D006A0FAF746
:1058300061FD002402E00CA0FAF75CFD204610BDDB
:1058400018000020B00400204E563131203E3E208A
:10585000456E61626C65204E563131204661696C3F
:1058600065640D0A000000004E563131203E3E2096
:10587000456E61626C65204E56313120537563630D
:1058800065737366756C6C790D0A000010B5084875
:105890000024007850B1074800F0E7FD0146F028E9
:1058A00003D005A0FAF726FD00E00124204610BD34
:1058B00018000020B00400204E563131207265736C
:1058C0006574206661696C656420253032580D0A64
:1058D000000000002DE9F74F0F4601F071F9DFF8E5
:1058E0009CB2DFF89CA2804600250AF12809ABF1A2
:1058F000300646E307EB05142078E32870D01ADC65
:10590000D6286ED00EDCCC2866D006DC832869D081
:10591000C32868D0C92848D18AE0D2287ED0D528AB
:10592000F9D195E0DB3808283FD2DFE800F05D438D
:105930003F3E3E3EA5ACE4380E28F5D2DFE800F04D
:105940009A358D968B86847F44422C1735078DA01F
:10595000FAF7D0FC0621009800F01FFC0146F02861
:1059600023D003B08CA0BDE8F04FFAF7C3BC616848
:105970000029F5D004F10C0291A0FAF7BBFC606895
:10598000411E0929D0D202210BEB8000B17050F8E2
:10599000041C92A0F16048E00020FDF79DFC04F19A
:1059A0000C0293A06168FAF7A5FCE9E204F10C038C
:1059B00095A002E004F10C039DA0D4E90112FAF7CE
:1059C00099FCDDE2A4A008E0ABA0FAF793FC052067
:1059D000B07000207070D3E2ADA0FAF78BFCCFE27C
:1059E00046E0D5E2A6E094E0B2A0FAF783FC0420FA
:1059F000B070F07806280CD1002407E05AF8241083
:105A0000B14800F064FB49F82400641C30798442FA
:105A1000F4DB0020FDF7A2FC316900E03AE090FBE6
:105A2000F1F0306241437062A8A0FAF763FCA7E28C
:105A3000ADA0FAF75FFC0020FDF7E8FFA0E2B4A0FC
:105A4000FAF758FC03200FE0B6A0C6E7BAA0C4E7F7
:105A5000BFA06168E9E7C3A0BFE704F10C02C8A0DA
:105A60006168FAF747FC0720B07089E2CCA0B4E780
:105A7000D1A0B2E7D7A0B0E761680BEB810050F886
:105A8000041CDBA0D1E761680BEB810050F8041C1B
:105A9000DFA0CAE7F07806280DD1002408E000BF97
:105AA0005AF82410884800F012FB49F82400641CBE
:105AB00030798442F4DBDFA0FAF71CFC0020FFF70A
:105AC000ABFE0020FDF74AFC316990FBF1F0414349
:105AD0003062DFA0FAF70EFC306AB0B9716A0129B2
