:020000040800F2
:10000000E024002039020008A93C000865380008F7
:10001000593C00086F0F0008315B00080000000029
:10002000000000000000000000000000195500085A
:100030003711000800000000B94900081B550008EE
:10004000530200085302000853020008394A00080E
:10005000530200085302000853020008530200082C
:10006000530200085302000853020008530200081C
:10007000C5100008D1100008DD100008E9100008C4
:10008000F51000080111000853020008530200088F
:1000900053020008530200085302000853020008EC
:1000A00053020008530200085302000853020008DC
:1000B00053020008530200085302000853020008CC
:1000C00053020008530200085302000853020008BC
:1000D000530200080D5B0008195B0008255B00084F
:1000E000530200085302000853020008530200089C
:1000F000530200085302000853020008530200088C
:10010000530200085302000853020008530200087B
:100110005302000853020008A955000853020008C2
:10012000530200085302000853020008530200085B
:1001300000F002F800F056F80AA090E8000C8244A3
:100140008344AAF10107DA4501D100F04BF8AFF280
:10015000090EBAE80F0013F0010F18BFFB1A43F0A5
:10016000010318478C880000AC880000103A24BFB7
:1001700078C878C1FAD8520724BF30C830C144BF0C
:1001800004680C607047000000230024002500264E
:10019000103A28BF78C1FBD8520728BF30C148BFEA
:1001A0000B607047642900F02181752900F01E81E1
:1001B000782900F05781632900F0D384732900F077
:1001C000D884002070471FB500F037FA00F028FEF1
:1001D00004000020002108F015FA401C60601FBDDB
:1001E00010B510BD00F0F6FD1146FFF7ECFF06F06C
:1001F00089FA00F027FE03B4FFF7F2FF03BC00F01A
:10020000AFFB00000B49D1F800C04A685CF8043B22
:100210001068184442F8040B8C4528BFA1F1DC0C8F
:100220008A4228BFA1F1DC02C1F800C04A6020F078
:1002300000407047481E0020094880470948004791
:10024000FEE7FEE7FEE7FEE7FEE7FEE7FEE7FEE786
:10025000FEE7FEE704480549054A064B70470000E3
:10026000A755000831010008E01E0020E02400200E
:10027000E0200020E0200020B2F120030AD5C2F1E6
:10028000200301FA02F120FA03F300FA02F041EA36
:100290000301704700FA03F14FF000007047B2F11C
:1002A00020030AD5C2F1200320FA02F001FA03F379
:1002B00041FA02F140EA0300704741FA03F04FEAC5
:1002C000E171704710B54C1084EA530404D54042E4
:1002D000C1F1000138BF491E1B4204D55242C3F18F
:1002E000000338BF5B1E00F045FB14F0804F04D0C4
:1002F0004042C1F1000138BF491E14F0004F04D044
:100300005242C3F1000338BF5B1E10BD0FB4044955
:1003100010B503AA029800F031FC10BC5DF814FB84
:10032000080000200FB41CB5074B06AA7B446946A1
:100330000090059800F0F3FB0020694600F002FCF5
:100340001CBC5DF814FB00001508000070B50446E5
:1003500085690068C10601D5302600E02026C00767
:1003600007D070BDD4E9012130469047206A401C77
:1003700020626D1EF6D570BD70B5044685690078A3
:10038000C00707D170BDD4E9012120209047206A21
:10039000401C20626D1EF6D570BD70B50C4605463A
:1003A000012A05D02878800600D5EA69002302E0FA
:1003B000012305E05B1C934202D2E05C0028F9D1E6
:1003C000A869E618C01AA861286A18442862284655
:1003D000FFF7BCFF04E0D5E9012114F8010B9047B9
:1003E000B442F8D32846FFF7C7FF70BD2DE9F041AE
:1003F0000646002410687529314616A510D0AFF3C3
:100400000080002802DA404213A507E031688A071D
:1004100001D512A502E0490704D511A5012401E088
:10042000AFF3008000210A2206F1240709E0B0FBA7
:10043000F2FCB0FBF2F302FB1C003030785418469B
:10044000491C0028F3D123462A463046BDE8F04136
:1004500000F007BB000000002D0000002B00000092
:100460002000000070B504460D4621461068AFF329
:1004700000802188090502D50F4A7A4402E00E4A1D
:100480007A440E32002104F1240305E000F00F0647
:100490000009965D5E54491C0028F7D1207800239E
:1004A000000704D5702D02D009B102231132204675
:1004B000BDE8704000F0D5BA2B8500002DE9F05F53
:1004C000894604464FF0000ADFF824B1FB44C0F827
:1004D00020A02046E168884700287DD0252806D046
:1004E000D4E901219047206A401C2062F1E70025F1
:1004F0005F462046E16888472028064607DB312E04
:1005000005D2B81910F8200C08B10543F1E7A80787
:1005100001D525F00405C4F81CA00027C4F818A0D4
:100520002A2E09D0304605F053FB38B304EB870878
:10053000303EC8F8186019E059F8041B204604EB57
:1005400087029161E1688847012F064618D1E0696A
:10055000002820DA25F020051DE0D8F8180000EB6F
:10056000800006EB40003038C8F818002046E168EB
:100570008847064605F02CFB0028EED1012F0AD053
:100580002E2E08D12046E16888477F1C0646022FA0
:1005900045F02005C4DBA069002803DA404245F09D
:1005A0000105A061E80701D025F01005A6B1A6F16C
:1005B0004100192802D8203645F400654A463146E4
:1005C000204625604D46FFF7EDFD60B1012807D0BC
:1005D000ED1D25F0070000E007E000F1080978E7CD
:1005E00005F1040975E730467AE7206ABDE8F09F17
:1005F0000185000070B5064600F0B8F904680546AC
:1006000030460A22002100F0CBFA2C6070BD0000B9
:100610000B4910B5A1F17C020A4CC2E9371237210F
:1006200006E000EB104342F82130074B00FB03408B
:100630000B1EA1F10101F4DC10BD0120E8E7000070
:10064000E81D0020E119D666CD0D010010B500208F
:1006500000F0DEFAFFF7C4FDBDE81040012000F015
:100660007FB9032A40F2308010F0030C00F01580AF
:1006700011F8013BBCF1020F624498BF11F801CBA5
:1006800000F8013B38BF11F8013BA2F1040298BF0A
:1006900000F801CB38BF00F8013B11F0030300F074
:1006A0002580083AC0F0088051F8043B083A51F818
:1006B00004CBA0E80810F5E7121D5CBF51F8043B1D
:1006C00040F8043BAFF30080D20724BF11F8013B90
:1006D00011F801CB48BF11F8012B24BF00F8013BF2
:1006E00000F801CB48BF00F8012B704710B5203A45
:1006F000C0F00B80B1E81850203AA0E81850B1E8DB
:100700001850A0E81850BFF4F5AF5FEA027C24BF90
:10071000B1E81850A0E8185044BF18C918C0BDE887
:1007200010405FEA827C24BF51F8043B40F8043B50
:1007300008BF7047D20728BF31F8023B48BF11F805
:10074000012B28BF20F8023B48BF00F8012B70475F
:100750004FF0000200B5134694469646203922BF5A
:10076000A0E80C50A0E80C50B1F12001BFF4F7AFA5
:10077000090728BFA0E80C5048BF0CC05DF804EB87
:10078000890028BF40F8042B08BF704748BF20F8F5
:10079000022B11F0804F18BF00F8012B70470000AA
:1007A000014900F03DBA0000501E002010B503685A
:1007B0001C1404EB21449BB289B2194494FBF2F35C
:1007C00002FB134394FBF2F401EB034393FBF2F1BE
:1007D00002FB113193FBF2F301E05B1E114400298F
:1007E000FBDB016003EB044010BDF0B504464FF0A5
:1007F000FF3585B00068049060680290A06803909F
:10080000E068019020690090666906F18040B0F1CF
:10081000004F7CD83C22002104A8FFF7C7FF3C22F0
:10082000014602A8FFF7C2FF1822014603A8FFF7FE
:10083000BDFF411E40F2B55201A8FFF7B7FF0C22E1
:10084000074668460021FFF7B1FF414B00EB8700E8
:10085000304400267B4411E0511A01910099491C53
:100860000229009102D00C2908D105E0810705D0AA
:100870000199491C019101E0401C00960099019AE0
:10088000595C9142E8DD0099012906D11C2A04D166
:10089000810702D00221CDE90016A0F146018B2983
:1008A0003CD2DDE90061002202E09F5C521C394429
:1008B000B242FADB012E02DD820700D0491E40F26F
:1008C000B55340F26D16C21700EB927292105A4364
:1008D00000F0030303FB062283070A4400D1521EE3
:1008E000039E02EB4203049F06EBC303029EC3EB8D
:1008F000031306EB8303174E33441E149BB2C6EB5F
:100900000616C3EB0313B60007EB830300E005E014
:1009100006EB134666F31F43360C02D0284605B09B
:10092000F0BD80C4029E40C4039E40C4019E761C5C
:1009300044F80C6B009E44E902600720521C92FBB5
:10094000F0F600FB162084E823001846E7E70000D5
:100950008A810000A039CEFD7047704770470000C3
:1009600001491820ABBEFEE7260002000048704790
:100970007C1E002053EA020C00F069802DE9F04B48
:100980004FF00006002B1FBFB3FA83F503FA05F4FE
:1009900024FA05F65E4012BF1643B2FA82F502FA57
:1009A00005F4C5F120051EBF22FA05FC44EA0C043B
:1009B000203556EA044C4FEA144418BF641C4FF02B
:1009C00000084FF00009904271EB030C39D3002965
:1009D00019BFB1FA81F701FA07F6B0FA80F700FA09
:1009E00007F6C7F120071EBF20FA07FC46EA0C06EF
:1009F0002037B6FBF4FCA7EB0507103F07F01F0BF1
:100A0000CBF120060CFA0BFB2CFA06F644BFB346DA
:100A10000026202FA4BF5E464FF0000B5BEA060CB9
:100A200008BF4FF0010B19EB0B09ABFB027C48EB45
:100A30000608C01B06FB02CC0BFB03CC71EB0C01C0
:100A4000C1E70B46024641464846BDE8F08B13B568
:100A50004FF000004FF00001AFF30080BDE81C40F4
:100A600070472DE9F0470D4699469246044600F13D
:100A700024080168880604D5E06921F0100121608E
:100A800000E00120A84201DD471B00E00027A1692A
:100A90007A1902EB0900081AA0612078C00602D476
:100AA0002046FFF753FC002608E0D4E901211AF89C
:100AB00006009047206A401C761C20624E45F4DBFD
:100AC0002078C0060AD52046FFF740FC06E0D4E9AE
:100AD000012130209047206A401C2062381EA7F177
:100AE0000107F4DC07E0D4E9012118F8050090477C
:100AF000206A401C2062281EA5F10105F3DC204677
:100B0000FFF73AFC2078000602D50220BDE8F08706
:100B10000120FBE701694A1C02610878704700B5B3
:100B20008FB0CDE901310021059105497944CDE926
:100B3000031011466846FFF7C1FC0FB000BD00006E
:100B4000E5FFFFFF0A6802F8010B0A60704710B565
:100B5000436913B1AFF3008001E0FFF71EFC0120F1
:100B600010BD127800F124010A7000224A7001229F
:100B7000EDE711684FF0FF32E9E70000074B70B571
:100B80000D467B44FFF7CBFF0446284600F001F9F1
:100B900010B14FF0FF3070BD204670BD43580000CB
:100BA0002DE9F04791460F4680460446002614F88A
:100BB000015B2DB100F096F80068405DC007F6D1EA
:100BC0002B2D02D02D2D18D0641E4A4639462046C2
:100BD00000F090F827B13968A14201D1C7F8008030
:100BE0004FF0020471050BD54042002803DDFFF7EA
:100BF000BDFE0460A007BDE8F08746F48066E4E728
:100C00000028F8DAFFF7B2FE04606FF00040F2E768
:100C100010B500F0C7F8BDE8104000F0BEB8000005
:100C200070B50C46016800204A1C3ED03C22B1FB46
:100C3000F2F302FB1313B1FBF2F12360B1FBF2F309
:100C400002FB1313B1FBF2F118226360B1FBF2F364
:100C500002FB1313B1FBF2F146F2E0320A44072122
:100C6000A360B2FBF1F301FB132140F2B553B2FBD9
:100C7000F3F5A161B2FBF3F103FB15228900B2F594
:100C8000B77F08D39B10521EB2FBF3F52944B2FB89
:100C9000F3F503FB15220F4BE261616189077B4489
:100CA0000CD03B2A0AD3521C08E02C212046FFF727
:100CB0004FFD0120E0600AE0521A401C195C91428D
:100CC000FAD9521CC4E903204FF0FF3020622046BD
:100CD00070BD0000407D0000004870477C1E002071
:100CE0007047000010B500F09BF8001D10BD00BF5C
:100CF000157900002DE9F05F824615468B460027E6
:100D00000AF10104B9460078302801D09DB113E002
:100D100014F8010B0127782803D0582801D045B1D9
:100D20000AE00DB1102D07D1002714F8010B102592
:100D300002E0082500E00A250026B0460EE005FB8B
:100D4000080005FB06F101271FFA80F801EB1046A9
:100D5000B6F5803F00D3B94614F8010B294600F0E0
:100D600063F80028EBDABBF1000F05D00FB1641E69
:100D700000E05446CBF80040B9F1000F06D0FFF771
:100D8000F5FD02210160C81EBDE8F09F48EA06405B
:100D9000FAE7007B00F080007047002801D0FFF7E1
:100DA000DFBD704710B5002102A000F054F801200B
:100DB00010BD0000534947414252543A2041626EEF
:100DC0006F726D616C207465726D696E6174696FAC
:100DD0006E0000007546FFF77FFFAE4605006946CE
:100DE000534620F00700854618B020B5FFF732FAC9
:100DF000BDE820404FF000064FF000074FF000081C
:100E00004FF0000B21F00701AC46ACE8C009ACE89C
:100E1000C009ACE8C009ACE8C0098D4670470000C5
:100E2000004870479C1E00203A2800D2303820F03D
:100E30002002412A01D3A2F13700884201D34FF0AA
:100E4000FF30704710B50446AFF300802046BDE880
:100E50001040FFF7D0B970B505460C460A2000E0F7
:100E60006D1C00F051F835B128780028F8D102E067
:100E7000641C00F049F814B120780028F8D1BDE8CE
:100E800070400A2000F040B84FF0013C50F8042BAD
:100E900051F8043B9A4221D1A2EB0C03934313EA8D
:100EA000CC1317D150F8042B51F8043B9A4215D1BA
:100EB000A2EB0C03934313EACC130BD150F8042B91
:100EC00051F8043B9A4209D1A2EB0C03934313EA75
:100ED000CC13DBD04FF00000704700BFD01A01BA2E
:100EE000B1FA81F101F0180122FA01F0CB40C1F111
:100EF0002001DBB2C0B2C01A2CFA01F3D11A91431F
:100F000011EAC311E6D1704708B569468DF80000B3
:100F10000320ABBE08BD000070B5044600688168C0
:100F2000C943C90717D1816821F00101816000F030
:100F3000CFFF05460AE000BF00F0CAFF401B0228B1
:100F400004D920688068C043C00706D02068806844
:100F5000C043C007F0D0002070BDA06A40F0100070
:100F6000A062E06A40F00100E062012070BDFEE78F
:100F70002DE9FC41002605460C4681F8FF6130460C
:100F80002118401C81F80061FF28F9DB687F324F8F
:100F9000112802D1697E80207854E87E50B105F195
:100FA0001C03CDE900355A1C687E114600F0D8F8C4
:100FB00000284FD084F80462687E84F8020284F826
:100FC000FF6184F8FF60032084F80102287F7F26F8
:100FD000401D84F800022670687E395C084360700A
:100FE000287FA070002004E029182218497FD170C2
:100FF000401C297F8142F7DC94F8000248F2050387
:101000004FF6FF72611CC01E05F012F92A7FE11C29
:101010005054010A2A7F201D11541049207808706D
:101020000120024608E0A35C0B54A35C7F2B01D196
:10103000401C0E54401C521C94F800329342F2DCC7
:10104000002202E08B5CA354521C8242FADB84F83B
:1010500000020120BDE8FC81CC0B00202C140020F4
:101060001CB50446D4E90001084318D0D4E90201B4
:10107000084314D000F07EFA4FF000420023FFF73F
:1010800021F9C4E90623D4E90201CDE90001D4E93C
:10109000000104F04FFDC4E9040100201CBD4FF025
:1010A000FF301CBD1CB50446D4E90201CDE90001A6
:1010B000D4E90801D4E9062304F03CFDC4E90C019D
:1010C00001201CBD014800F051BC00006804002054
:1010D000014800F04BBC000024040020014800F04F
:1010E00045BC000058030020014800F03FBC000050
:1010F00014030020014800F039BC00009C030020CC
:10110000014800F033BC0000E003002030B590F847
:1011100040500124AC40C56B6C6004686360436858
:10112000102B036803D099600068C26030BD9A60DC
:101130000068C16030BD70471FB512780023069C5F
:10114000CDE90202CDE9003110222146012004F050
:1011500050FD10B1002004B010BD0120FBE70000DD
:101160002DE9F04F91461A788046D01D1F46002683
:10117000C0B2C5B0030703D000F00F03C3F11006DF
:10118000DFF8B8B030448DF81020C4B25BF82830D6
:10119000002004AAC50023FA05F502EB000C401C50
:1011A000C0B28CF801500428F4D3002004E00B5C9A
:1011B0001518401C6B71C0B23B788342F7D80025EC
:1011C00092460CE0FFF71EF8FF2190FBF1F201FBC5
:1011D00012003A78691D52446D1C5054EDB2B5426C
:1011E000F0D348F205034FF6FF7204A9A01E05F0E4
:1011F0001FF80AEB040202F8020D000A50700022E8
:1012000009F10100CDE9002ACDE9020413461022BC
:1012100001204F9904F054FE18B1002045B0BDE8FC
:10122000F08F4E98641C7E21047089F800105BF8E2
:101230002810491C4BF828100120EFE7AC080020CB
:1012400072B6FEE708B541008DF8001081F01B0171
:101250008DF80110694601EBD010007808BD08B583
:101260000021009040238022084600F089F808BD44
:101270002DE9FF4F224DAA6813785E074FEAD30489
:1012800000D0641C92F801C0966852880027801A2A
:1012900060430CFB0068491E581800F0FF0A3E46E8
:1012A000A94625E0002008EB040106E00D1A3B02E8
:1012B00015F8017C1F43401CC0B2A042F6D302982F
:1012C0008846002500EB060B0BE00120A840B84340
:1012D00005D15946AAEB0500039A00F013F86D1CDE
:1012E000EDB2D9F808000078A842EED8761CF6B224
:1012F000D9F808004A464078B042D3D8BDE8FF8FFD
:101300001C00002010B5802815D2002913DB4029CD
:1013100011DAC317090100EB537301EBE30123F06A
:101320000703064CC31A80202144D840002A0A78BB
:1013300002D002430A7010BD8243FBE7AC040020D8
:101340002DE9F0411F4690460C4605460B4E0EE037
:101350003B4642462146FFF78BFF287820280BD0DA
:10136000B0680078142800D9E41C04446D1C287867
:101370000028EDD1BDE8F081241DF7E71C00002016
:101380002DE9F043CE188846C4B28718DDF81C90CA
:101390000EE000BF08F0FF0506E04A462946204659
:1013A000FFF7B0FF6D1CEDB2AE42F6DC641CE4B298
:1013B000A742EFDCBDE8F0832DE9F041DFF834808F
:1013C000002508270021284606F09FF808EB0514A1
:1013D0000026207806F03AF86078A41C06F036F86B
:1013E000761CF6B2BE42F4D36D1CEDB2402DE8D3AC
:1013F000BDE8F081AC04002010B5274C0246C4E9DA
:10140000000100210120904700212268022090471E
:101410000121226800209047202006F013F80120C7
:1014200000F03EFC202006F00DF8012000F038FC12
:10143000062006F007F8012000F032FC202006F01C
:1014400001F804F075FF012000F02AFC012005F0EE
:10145000F9FF322000F024FC262005F0F3FF04F011
:1014600067FF012000F01CFC0C2005F0EBFF0120C1
:1014700000F016FC0020FFF7F2FEFFF79DFF322080
:1014800000F00EFC012005F0DDFF322000F008FC2A
:101490000248A06010BD00001C00002028000020B1
:1014A00070B5012000F018F84FF4FA7000F0F8FB66
:1014B0000122084D54022146284600F004FD4FF455
:1014C0007A7000F0EDFB21462846BDE8704000220E
:1014D00000F0F9BC0018014002464FF48061014859
:1014E00000F0F1BC001801404FF48072014902483D
:1014F00001F0E0BD6B1C0020CC020020084910B5B3
:1015000000200880488007494870C87088700871BA
:10151000FF200870FFF7E8FFBDE81040FFF7C0BFED
:10152000980000200100002070B500F023F84FF073
:1015300000420023FEF7C6FE14461D46D00702D126
:10154000641C43F10005052200232046294602F0D1
:1015500084FB01280AD0A41C45F1000505220023C4
:101560002046294602F079FB0028F4D0204629467F
:1015700070BD000001480021704700006D99829DF8
:10158000F8B50024009490F824202546012A12D0B2
:10159000012280F824204A681F23072A0DD20668FA
:1015A000776B521E02EB820293409F430B6893407D
:1015B0001F43776319E00220F8BD06680D2A0AD29E
:1015C000376BD21F02EB820293409F430B6893401C
:1015D0001F43376309E0F76A0D3A02EB820293403A
:1015E0009F430B6893401F43F7620A68072306680E
:1015F0000A2A0AD3F7680A3A02EB420293409F4351
:101600008B6893401F43F76008E0376902EB4202A2
:1016100093409F438B6893401F4337610A68102AA9
:1016200001D0112A20D1124B02689A4217D1936837
:101630001B0219D4936843F40003936009681029CE
:1016400012D10C490C4A0968B1FBF2F101EB81019E
:10165000490000E0491E00910029FBD104E0816AA5
:1016600041F020018162012480F824502046F8BD19
:10167000002401401800002040420F002DE9F041F5
:1016800004004FF000057FD0A06A002628B9E6626A
:1016900084F82460204600F081F82046FFF73CFCE7
:1016A000A16AC90600D420B1A06A40F01000A0626F
:1016B0006AE0A16A21F4885141F00201A162334934
:1016C00023688B42E16904D1B1F5402F01D14FF479
:1016D0000021277B4FF4807C41EA470261680A437E
:1016E000A168614508D0012906D0002194F814E0D2
:1016F000BEF1010F02D00AE06146F7E7C7B1A76A61
:1017000047F02007A762E76A47F00107E7625F68D2
:1017100027F469470F435F60236899681C4F39407D
:1017200011439960A16861450BD0012909D00CE0F3
:10173000DFF860E0A7690EEB47370F4347F400611D
:10174000E5E7218A0D05A5F580152168CB6A23F40C
:1017500070032B43CB62216889680F4B194091427B
:1017600008D1E662A16A21F0020141F00101A16203
:10177000BDE8F081A06A20F0020040F01000A062F5
:10178000E06A40F00100E0620120F1E7003C014026
:10179000FDF7E1FF00E0FFFFFE0E1FFF00B585B083
:1017A0000021009101910291039100680E49884245
:1017B00017D10E48816941F400718161816901F49A
:1017C00000710491816941F010018161806969466D
:1017D00000F010000490032000900190044800F0F5
:1017E00071FA05B000BD0000002401400010024065
:1017F0000010014010B590F821100022022905D0F8
:101800000421816380F82020012010BD01680B684D
:1018100023F00E030B6001680B6823F001030B60DB
:1018200090F84030C46B012101FA03F3636080F843
:10183000211080F82020104610BD00002DE9F05F37
:1018400090F821100024022903D00421816301248F
:1018500085E001680A6822F00E020A6001680A68E1
:1018600022F001020A603F4E3E4FB215DFF8F4C08D
:10187000DFF8F090DFF8ECA0DFF8E8B0DFF8E4E0A4
:101880000168783F13011502ACF1640CA9F150090D
:10189000AAF13C0AABF1280BAEF1140E4FF48018FC
:1018A000B14227D9B9420ED0614512D049451DD069
:1018B000514518D0594518D0714501D1424615E01F
:1018C000294EB14201D1012210E0274E1436B14217
:1018D00001D110220AE0244E2836B14206D0224A15
:1018E0003C32914201D11A4600E02A461E49091FA6
:1018F0000A602BE0B94213D0614517D0494522D088
:1019000051451DD059451DD0714501D142461AE0BF
:10191000B14202D14FF0807215E0134EB14201D1B5
:10192000012210E0104E1436B14201D110220AE01B
:101930000D4E2836B14206D00B4A3C32914201D1BD
:101940001A4600E02A46074980394A60012180F89A
:101950002110002180F82010416B01B188472046FA
:10196000BDE8F09F80000240080402402DE9F05FCE
:10197000C16B0A6801680B68046C4FF0040808FA30
:1019800004F8844D844E854FDFF814C2DFF81492BA
:10199000DFF814A2DFF814B2DFF814E218EA020F3D
:1019A00065D05FEA437862D50A68920603D40A6874
:1019B00022F004020A60DFF8F0814FF480620168CF
:1019C00008F1140813011402414524D9A9420DD08D
:1019D000B1420FD0B9421AD0614515D0494515D052
:1019E000514501D1120312E0594501D104220EE004
:1019F000714501D140220AE06D4D1435A94206D04F
:101A00006B4A2832914201D11A4600E022466749CA
:101A1000091F0A6029E0A94213D0B14215D0B9428A
:101A200020D061451BD049451BD0514502D14FF410
:101A3000800217E0414502D14FF0806212E0594523
:101A400001D104220EE0714501D140220AE0584D37
:101A50001435A94206D0564A2832914201D11A467D
:101A600000E022464B4908394A60C16A71E04FF0F4
:101A7000020808FA04F818EA020F70D05FEA8378C7
:101A80006DD50A68920606D40A6822F00A020A6036
:101A9000012180F82110DFF810814FF400720168F5
:101AA00008F1140813011402414524D9A9420DD0AC
:101AB000B1420FD0B9421AD0614515D0494515D071
:101AC000514501D1120312E0594501D102220EE025
:101AD000714501D120220AE0354D1435A94206D0C6
:101AE000334A2832914201D11A4600E022462F495A
:101AF000091F0A6029E0A94213D0B14215D0B942AA
:101B000020D061451BD049451BD0514502D14FF42F
:101B1000001217E0414502D14FF0007212E0594522
:101B200001D102220EE0714501D120220AE0204DB0
:101B30001435A94206D01E4A2832914201D11A46D4
:101B400000E02246134908394A60002180F820103D
:101B5000816A00291CD0BDE8F05F0847FFE708252F
:101B6000A540154214D01A0712D50A6822F00E02B9
:101B70000A6090F84020C36B012101FA02F25A601A
:101B8000816380F82110002180F82010016BE0E7CC
:101B9000BDE8F09F080002401C00024030000240F7
:101BA00044000240580002406C0002400804024019
:101BB0001C04024030B560B11A4B026814219A42ED
:101BC00009D2194B1344B3FBF1F1890001641749A1
:101BD0000AE0012030BD134B5B421344B3FBF1F12B
:101BE000890001640F490839C163022180F821107E
:101BF000136843F6F0718B43F0E901142143D0E9F7
:101C000002452C43214304692143446921438469EB
:101C1000214319431160002141630122427701777A
:101C2000084630BD08040240F8FFFDBF0000024036
:101C300070B5044690F82000002501280CD0012042
:101C400084F8200094F821600020012E06D084F84A
:101C500020000225284670BD022070BD022684F8AF
:101C60002160A0632068066826F001060660204611
:101C7000FFF74CFAE06A00282068016802D041F0C2
:101C80000E0106E021F0040101602068016841F0C6
:101C90000A0101602068016841F001010160D9E793
:101CA00070B5044600F014F90546601C02D00448E3
:101CB0000078044400F00CF9401BA042FAD370BD38
:101CC0000C0000202DE9F84FDFF8C8910024A9F19D
:101CD000040B23460F2709F1040AABF1040ED1E0EF
:101CE0000125A54006EA0502AA4276D1DFF8A8C17F
:101CF0004E68A6EB0C0866452BD00DDC032E34D0C5
:101D000005DC36B3012E19D0022E2FD11BE0112E87
:101D100016D0122E2AD119E0B8F5881F19D006DC8A
:101D2000B8F5803F15D0B8F5801F1FD111E0B8F588
:101D3000001F0ED0B8F5041F18D10AE0CB6815E0DB
:101D4000CB681B1D12E0CB6808330FE0CB680C3367
:101D50000CE08B682BB1012B4FF0080303D04561D9
:101D600004E0042302E0056100E00023FF2A01D81B
:101D7000064601E000F104064FEA840501D9A5F109
:101D80002005D6F8008007FA05FC28EA0C0803FABB
:101D900005F548EA0508C6F800804D68ED0070D5E5
:101DA0003E4DAE6946F00106AE61AD6924F0030612
:101DB00005F0010500953A4D06EB050CDCF80850DE
:101DC000A607360F07FA06F825EA0805DFF8D480DB
:101DD000404503D14FF0000825E052E0DFF8C8800D
:101DE000404502D14FF001081DE0DFF8C0804045BA
:101DF00002D14FF0020816E0DFF8B480404502D16E
:101E00004FF003080FE0DFF8AC80404502D14FF0FF
:101E1000040808E0DFF8A080404502D14FF0050833
:101E200001E04FF0060808FA06F848EA0508CCF881
:101E300008804D68D9F80060ED024D4601D5164383
:101E400000E096432E604D68DAF80060AD0255461A
:101E500001D5164300E096432E604D68DBF8006024
:101E6000AD035D4601D5164300E096432E604D68F4
:101E7000DEF80060ED03754601D5164300E0964399
:101E80002E60641C0A681646E2407FF429AFBDE864
:101E9000F88F0000080401400000111000100240FB
:101EA0000000014000080140000C0140001001400A
:101EB0000014014000180140001C014080680840E7
:101EC00000D0012070470AB1016170470904FBE7A7
:101ED00001488068704700000C00002002488168BB
:101EE00002781144816070470C000020074810B54B
:101EF000016841F010010160032000F06DF80F202F
:101F000000F006F800F024F8002010BD0020024088
:101F100070B50D4D04464FF47A712878B1FBF0F09E
:101F20000A490968B1FBF0F000F036FF48B9102CFF
:101F300007D200222146501E00F02EF800206C60CF
:101F400070BD012070BD00000C00002018000020B2
:101F5000094808B5816941F001018161816901F099
:101F600001010091C16941F08051C161C06900F077
:101F70008050009008BD000000100240002809DBDE
:101F800000F01F02012191404009800000F1E02093
:101F9000C0F8001170470000F0B40E4B1B680C46EF
:101FA000C3F30223C3F10705042D00D90425191D2D
:101FB000072901D2002300E0DB1E012606FA05F105
:101FC000491E214099409E40761E16403143F0BC88
:101FD00003F0EEBD0CED00E0064900F007020868D2
:101FE0004FF6FF03184040EA0220034A10430860FE
:101FF000704700000CED00E00000FA0501490120E7
:102000000862704700000E4210B501460020284CBF
:1020100004292FD00BDC012930D0022929D100F06E
:102020006BF96168C1F38131491C49001FE008293F
:1020300020D010291DD161682268D20119D51D4810
:10204000C1F38342C903805C0AD56168194AC1F3B0
:102050004041921E515C184AB2FBF1F1484301E045
:10206000164948436168490203D440000321B0FB8C
:10207000F1F010BDBDE8104000F04EB9226AC2F385
:102080000121012903D1920701D5C80310BD0229FE
:1020900005D1626A920702D549F6404010BD032976
:1020A000FCD121688903F9D54FF2244010BD00000E
:1020B000001002406086000800127A0000093D000E
:1020C0002DE9F84305460078354CC00754D0E06947
:1020D0000026C00008D4E06940F08050E061E0696B
:1020E000012600F0805000902E480168C90512D4E6
:1020F0000168804641F480710160FFF7E9FE074600
:1021000005E000BFFFF7E4FEC01B642823D8D8F821
:102110000000C005F6D5206A10F4407021D0A988CF
:1021200001F4407181421CD0206A1F49012220F431
:1021300040700A6000220A602062C00711D0FFF7D9
:10214000C7FE074641F2883808E000BFFFF7C0FE2F
:10215000C11B414502D90320BDE8F883206A8007EE
:10216000F4D5206A696820F44070084320621EB1EB
:10217000E06920F08050E0612878800705D560682C
:10218000A96820F44040084360602878C00605D55F
:102190006068696920F48000084360600020DBE724
:1021A0000010024000700040400442422DE9F04718
:1021B0000F46050061D0434E306800F00700B8427A
:1021C00009D2306820F0070038433060306800F0F2
:1021D0000700B84251D128683B4C810712D540070F
:1021E00003D5606840F4E06060602878000703D59C
:1021F000606840F4605060606068A96820F0F0009A
:10220000084360602878C00728D06868012810D08B
:102210002168022810D0890700292EDA616821F090
:10222000030101436160FFF753FE804641F28839A4
:102230000DE021688903EFE78901EDE7FFF748FE2C
:10224000A0EB0801494502D90320BDE8F08760688A
:10225000696800F00C00B0EB810FEFD1306800F03E
:102260000700B8420BD9306820F0070038433060CF
:10227000306800F00700B84201D00120E5E7287877
:10228000400705D56068E96820F4E06008436060B5
:102290002878000706D56068296920F4605040EA74
:1022A000C100606000F038F86168084AC1F30311AA
:1022B000515CC8400649086006480068FFF728FEE0
:1022C0000020C2E700200240001002407086000893
:1022D00018000020100000200448054900684968E3
:1022E000044AC1F30221515CC84070471800002025
:1022F00000100240808600080448054900684968CB
:10230000044AC1F3C221515CC84070471800002044
:1023100000100240808600080E4A51680E4801F005
:102320000C03042B11D0082B0FD10C48C1F38343AD
:10233000C903C05C0AD55168084AC1F34041921EE6
:10234000515C054A5043B0FBF1F0704704494843E3
:10235000704700000010024000127A004E8600080C
:1023600000093D002DE9F84F040070D02078C04DE1
:10237000C00749D06868C0F38100012807D06868A9
:10238000C0F38100022809D16868C00306D5286817
:10239000800339D560680028E7D035E06068B0F583
:1023A000803F0BD010B1B0F5A02F11D0286820F4D9
:1023B00080302860286820F4802002E0286840F4FB
:1023C00080302860606890B1FFF782FD06460AE021
:1023D000286840F480202860F0E700BFFFF778FD10
:1023E000801B642873D828688003F7D50CE0FFF7BA
:1023F0006FFD064605E000BFFFF76AFD801B6428FD
:10240000F0D828688003F7D420789A4E80074FF0E0
:1024100001094FF0000839D5686810F00C0F07D09B
:102420006868C0F38100022809D16868C00306D437
:102430002868800714D52069012808D110E0206998
:10244000B0B1C6F80090FFF743FD074605E00AE18A
:10245000FFF73EFDC01B0228C4D828688007F7D5C7
:102460002868616920F0F80040EAC10028600DE0AA
:10247000C6F80080FFF72CFD074604E0FFF728FDB3
:10248000C01B022823D828688007F7D420780007CB
:102490002CD57948A169D9B1C0F80090FFF718FD93
:1024A000074604E0FFF714FDC01B02280FD8686A36
:1024B0008007F7D571484FF4FA510068B0FBF1F08E
:1024C000009000BF0098411E0091FAD20EE080E01B
:1024D000C0F80080FFF7FCFC074604E0FFF7F8FCBB
:1024E000C01B022875D8686A8007F7D42078400797
:1024F00060D5E8690027C00008D4E86940F0805042
:10250000E861E869012700F0805000905C480168AC
:10251000C90513D40168834641F480710160FFF757
:10252000D7FC824606E000BFFFF7D2FCA0EB0A0012
:1025300064284ED8DBF80000C005F5D5E068012816
:102540000AD008B1052813D0286A20F001002862BB
:10255000286A20F0040002E0286A40F001002862A6
:10256000E06841F2883B98B1FFF7B2FC82460BE08D
:10257000286A40F004002862EEE700BFFFF7A8FCDD
:10258000A0EB0A0159455AD8286A8007F6D50CE015
:10259000FFF79EFC824605E0FFF79AFCA0EB0A01DC
:1025A00059454CD8286A8007F6D41FB1E86920F055
:1025B0008050E861E06988B36968C1F3810102294C
:1025C00044D00228C6F8608004D0FFF781FC04469E
:1025D00038E034E0FFF77CFC074604E0FFF778FCC6
:1025E000C01B02282BD828688001F7D4206AB0F5D8
:1025F000803F05D16868A16820F400300843686016
:10260000D4E908010843696821F47411084368603B
:10261000C6F86090FFF75CFC044606E025E000BFCA
:10262000FFF756FC001B022809D828688001F7D55F
:102630001BE000BFFFF74CFC001B022802D903205F
:10264000BDE8F88F28688001F4D40EE00128F7D0A7
:102650006868226A00F48031914204D1616A00F412
:102660007010884201D00120EAE70020E8E700006E
:102670000010024000004242800442421800002044
:1026800000700040024850F8210080B270470000FE
:10269000006C0040024800EB810091B2016070477D
:1026A000006C0040014901200870704700000020C4
:1026B000704710B5044600680168C90717D0416823
:1026C000C90714D040684007204607D5FFF7F0FF40
:1026D00021686FF004004860042002E0FFF7E2FF89
:1026E000012060742068416821F00101416010BD43
:1026F00080B1017C01290FD00121017402224274B2
:102700000268136843F001031360417400210174EF
:1027100008467047012070470220704770B50400DA
:1027200003D0607C002610B105E0012070BD267446
:10273000204600F03DF802206074204600F014F9B5
:10274000042550BB204602F041F930BB20684168A7
:1027500021F007014160A06820B11448016821F010
:10276000010101601148001F0168A26821F4607135
:10277000114301606068411C04D10120FFF744FC53
:1027800058B1401E2268C0F303419160216880B2B5
:10279000C860204602F034F908B16574C5E7E673F5
:1027A00001206073A0736074002070BD306C004025
:1027B00008B500680D49884217D1FFF71FFC0C4887
:1027C000C16941F00061C161C0690A4900F000605F
:1027D000009001200860002211460320FFF7DCFB77
:1027E000BDE808400320FFF7C9BB08BD0028004032
:1027F000001002403C0442422DE9F0410D46040025
:102800003BD0C5B3207C01283AD04FF0010884F8B2
:10281000108002206074E87872B302F0CEF8E073A2
:10282000687802F0CAF86073A87802F0C6F8A0735E
:10283000C2B2617BE07B02F02CF920732870204645
:1028400002F017F94FF46161B0FBF1F1002518298E
:102850002DD91822B1FBF2F1A1EB011101EB4101DD
:10286000C1EB011100EBC1163146204602F0B4F96C
:102870000427C8B90BE000E004E00120BDE8F081C6
:102880000220FBE7E07368786073A878CFE7204602
:1028900002F0D8F8411C0AD0B04208D206490144DF
:1028A000204602F04CF910B167742574E5E784F80E
:1028B000118025740020E1E7805101002DE9F041ED
:1028C0000D46040024D01DB3207C012823D04FF0F6
:1028D000010884F81080022060742878EAB102F0C0
:1028E0006CF84FF4616100FB01F6687802F065F85E
:1028F000C0EB001006EB8006A87802F05EF83518F1
:102900002946204602F068F90026042710BB0FE094
:102910000120BDE8F0810220FBE74FF461614843EC
:102920006978C1EB011100EB8100A9784518E7E750
:102930002068416821F005014160204602F082F8DC
:10294000411C0AD0A84208D206490144204602F0A0
:10295000F6F810B167742674DAE784F811802674EB
:102960000020D6E78051010070B504000AD020682D
:10297000416821F008014160FFF7AAFA05464FF4CB
:102980007A7608E0012070BDFFF7A2FA401BB04242
:1029900001D9032070BD206840680007F4D50020ED
:1029A00070BD0000F0B5426E920F0A70426EC2F325
:1029B00083624A70426EC2F301628A70426E120CE8
:1029C000CA70B0F86420120A0A7190F864204A7143
:1029D000826E120DCA80826EC2F303420A72B0F890
:1029E0006820C2F3C0324A72B0F86820C2F3803265
:1029F0008A72B0F86820C2F34032CA72B0F8682018
:102A0000C2F300320A7300264E73426C4FF4007515
:102A1000012462B1012A3AD0026847499163816B6F
:102A200041F08051816380F834400120F0BDB0F85E
:102A30006820C36E9205120D42EA93720A61C26E5B
:102A4000C2F3C2620A75C26EC2F302624A75C26EF6
:102A5000C2F342528A75C26EC2F38242CA75C26E16
:102A6000C2F3C2320A760A69521C42650B7E03F039
:102A700007039B1C9A4042650B7A03F00F0704FA88
:102A800007F383655B0A5A43C0E917250EE090F807
:102A90006820C36E9206920A42EA13420A610A69EA
:102AA000521C92024265C0E91652056630F86C2F3E
:102AB000C2F3803201F8192F0288C2F3C6124A709D
:102AC000027802F07F028A704268D20FCA704268B0
:102AD000C2F341720A714268C2F382624A7142686B
:102AE000C2F383528A714268C2F34052CA710E72B5
:102AF0004268C2F300424A728288C2F3C0328A72CC
:102B00008288C2F38032CA728288C2F340320A736A
:102B10008288C2F300324A738288C2F381228A73A8
:102B20008288C2F30122CA730079C0F34600087498
:102B30004C740020F0BD0000FF05400070B504009B
:102B40000ED094F83400002518B92577204600F0FF
:102B50004FF8032084F83400204600F00BF808B149
:102B6000012070BDA5632563012084F83400002096
:102B700070BD0000FEB50025044676200095CDE925
:102B8000015029460B460A46206802F040F848BB2F
:102B9000154E46F8A05F206802F04BF8012535601D
:102BA0000220FFF77DF8204602F004FB30B100BFA1
:102BB00084F83450A16B0143A16313E0204602F076
:102BC00081FA0028F4D14FF40071206802F078F8FF
:102BD000002808D0226805499163A16B0143A163D5
:102BE00084F834500120FEBD00003042FF05400053
:102BF00030B585B0002100910191029103910068E8
:102C0000184988422BD11848416941F480614161DB
:102C1000416901F480610491816941F01001816191
:102C2000816901F010010491816941F02001816105
:102C30008069022400F0200004904FF4F850CDE9A0
:102C400000040325694603950848FFF73BF8042074
:102C5000CDE90004694603950548FFF733F805B050
:102C600030BD000000800140001002400010014013
:102C70000014014070B5040009D0606A002540B11D
:102C800025616561A56294F8510040B10CE0012016
:102C900070BD6068B0F5827FF4D0E561F2E784F83A
:102CA0005050204600F040F8022084F8510020687F
:102CB000016821F040010160A088218900F4827040
:102CC00001F404410843A18901F400610843217C17
:102CD00001F002010843217D01F001010843218B2D
:102CE00001F400710843217F01F03801084394F892
:102CF000201001F080010843218D01F400510843A8
:102D000021680860A069042101EA10402168486038
:102D10002068C16921F40061C1616565012084F802
:102D20005100002070BD000030B585B00024009433
:102D300001940294039400681449884223D11448F2
:102D4000816941F480518161816901F4805104916C
:102D5000816941F00401816180690E4D00F0040039
:102D60000490B02000900220019003200390694657
:102D70002846FEF7A7FF4020CDE900046946284613
:102D80000294FEF79FFF05B030BD00000030014007
:102D9000001002400008014010B5401EB0F1807FD5
:102DA00001D3012010BD4FF0E02460610F216017B6
:102DB00002F0FEFE0020A06107202061002010BD6F
:102DC0007047704770B590F83C20012A2CD0012440
:102DD00080F83C40022280F83D2003685A689D68D4
:102DE00022F070060A6832435A60104B02689A4219
:102DF0000ED00F4B9A420BD0B2F1804F08D00D4B42
:102E00009A4205D00C4B9A4202D00C4B9A4204D104
:102E1000496825F080031943916080F83D40002106
:102E200080F83C10084670BD022070BD002C0140A7
:102E3000003401400004004000080040000C004045
:102E400010B5040003D094F83D0010B107E0012054
:102E500010BD002084F83C00204600F01FF802203E
:102E600084F83D00211D206802F0A4FB012084F8B5
:102E7000460084F83E0084F83F0084F8400084F85F
:102E8000410084F8420084F8430084F8440084F848
:102E9000450084F83D00002010BD000008B5006822
:102EA0000B49884212D10B48C16941F01001C16140
:102EB000C069002200F01000009011463620FFF794
:102EC0006BF8BDE808403620FFF758B808BD000091
:102ED000001000400010024090F83D10012901D080
:102EE00001207047022180F83D100168CA6842F055
:102EF0000102CA6000680E4988420ED00D4988421E
:102F00000BD0B0F1804F08D00B49884205D00B4957
:102F1000884202D00A49884204D1816801F0070141
:102F2000062903D0016841F00101016000207047CB
:102F3000002C014000340140000400400008004023
:102F4000000C0040704770B50446006801694FF0FE
:102F50000005C943890715D4C168C943890711D43D
:102F6000E91E0161012020772068806980072046E2
:102F700002D0FFF7E7FF04E000F098F8204600F0E9
:102F800096F8257720680169C943490717D4C168B5
:102F9000C943490713D46FF004010161022020776F
:102FA0002068806910F4407F204602D0FFF7CAFFF6
:102FB00004E000F07BF8204600F079F825772068DF
:102FC0000169C943090716D4C168C943090712D466
:102FD0006FF008010161042020772068C069800734
:102FE000204602D0FFF7AEFF04E000F05FF8204675
:102FF00000F05DF8257720680169C943C90617D438
:10300000C168C943C90613D46FF0100101610820DB
:1030100020772068C06910F4407F204602D0FFF777
:1030200091FF04E000F042F8204600F040F82577D8
:1030300020680169C943C90708D1C168C943C907E4
:1030400004D1891E0161204600F032F82068016930
:10305000C943090609D4C168C943090605D46FF0FC
:10306000800101612046FFF7ABFE20680169C9437A
:10307000490609D4C168C943490605D46FF0400127
:103080000161204600F015F820680169C9438906EE
:103090000BD4C168C943890607D46FF020010161D0
:1030A0002046BDE87040FFF78CBE70BD704770478A
:1030B0007047704738B5044690F84200202801D088
:1030C000022038BD61B15AB1012020630020606345
:1030D000204602F097FC0028F3D1216B012901D092
:1030E000012038BD21680A684968009121680C31C7
:1030F00051E8002F42F0100241E80023002BF5D1E7
:1031000038BD00002DE9F0410C462E490746006805
:1031100009682D4D4FF4807688420DD12B49224607
:10312000A1F5057003F0AFFA324628492548FFF7AC
:10313000C1FF6868401C6860254938680968884292
:103140001AD12888234900B22C80A04203DA221A1F
:1031500092B2014408E0C0F58072014492B21E4868
:1031600000F042FB2A881B491B4800F03DFB324619
:1031700018491748FFF79EFF1749386809688842C1
:103180001ED1164F3246164938883C8005B2124887
:10319000FFF790FF398812488D4203DA491B8AB243
:1031A000411908E0C5F580718AB24119084800F05C
:1031B0001BFB3A880A49BDE8F041054800F014BB02
:1031C000BDE8F08184020020880000202C1300203C
:1031D0003C02002018100020CC0200209A000020A1
:1031E0006B1C002070470000F8B5016804460868B1
:1031F000CA684B6910F00F0F4FF0000559D003F06B
:10320000010602F49077374365D0C10705D0D10598
:1032100003D5616C41F001016164410705D5D9070F
:1032200003D0616C41F002016164810705D5D907C3
:1032300003D0616C41F004016164010707D502F01D
:103240002001314303D0616C41F008016164616C7D
:1032500000293AD0800604D5900602D5204602F017
:1032600013FB20684069616CC0F38010090700D42B
:1032700060B3204602F0D3FA20684069400621D5A9
:103280002068143050E8001F21F0400140E800128F
:10329000002AF5D1E06BA8B16D494163E06BFEF700
:1032A000CDFA002811D0E06B416B01B0BDE8F040D1
:1032B000084783060FD593060DD52046BDE8F84094
:1032C00002F0E2BA2046FFF78DFFF8BD2046FFF777
:1032D00089FF6564F8BD266B2023012E7CD1C606CC
:1032E0007AD5D60678D508684868009048694FF0C6
:1032F0000206400640D5E16B086840680004000CF7
:10330000E8D0A28D8242E5D9E085886920282DD0B9
:1033100020680C3050E8001F21F4807140E8001252
:10332000002AF5D12068143050E8001F21F0010177
:1033300040E80012002AF5D12068143050E8001F40
:1033400021F0400140E80012002AF5D184F8423013
:10335000256320680C3050E8001F21F0100140E880
:103360000012002AF5D1E06BFEF744FA6663A08DE7
:10337000E18D401A81B22AE0A08DE18D401A81B220
:10338000E08D0028A6D00029A4D022680C3252E893
:10339000000F20F4907042E80007002FF5D120685C
:1033A000143050E8002F22F0010240E80027002FDF
:1033B000F5D184F84230256320680C3050E8002FA6
:1033C00022F0100240E80023002BF5D1666320466E
:1033D000FFF798FEF8BDFFE705062BD5150629D5A2
:1033E00094F841002128F5D1A068B0F5805F01D1A3
:1033F0002069B0B1206A411C2162216800784860D0
:10340000E08C401E0004000CE084E3D12068C16819
:1034100021F08001C1602068C16841F04001C160B5
:10342000D8E7206A0088C0F308004860206A801C42
:103430002062E5E74006CDD55006CBD5CA682046C8
:1034400022F04002CA6084F8413000F009FAC1E776
:10345000D556000870B5040004D094F8410000254A
:1034600010B106E0012070BD84F84050204600F005
:1034700023F8242084F841002068C16821F4005119
:10348000C160204602F062FA2068016921F490418F
:1034900001612068416921F02A0141612068C16809
:1034A00041F40051C1606564202084F8410084F833
:1034B00042006563002070BD2DE9F04786B000250D
:1034C00000950195029503950446DFF84882D0F8EF
:1034D00000C0914802210322904B102680274FF410
:1034E00080694FF0200AC44557D1D0F818C04CF479
:1034F000804CC0F818C0D0F818C00CF4804CCDF83F
:1035000010C0D0F818C04CF0040CC0F818C0806986
:10351000039200F0040004900802CDE9000169461E
:1035200098461846FEF7CEFBCDE900956946404621
:103530000295FEF7C7FBDFF8EC8179494046B946B2
:10354000C0E90015C0E90257C8F81050C8E9055A8B
:10355000C8F81C50FEF72EFB08B1FDF771FE70484D
:10356000714FC4F83C801438C8F824403860C7E96B
:103570000165C7E903957D61BD613846FD61FEF7D0
:1035800019FB08B1FDF75CFEA76300221146252058
:103590007C62FEF701FD25205EE0DFF89081C445E6
:1035A0005FD1D0F81CC04CF4003CC0F81CC0D0F86F
:1035B0001CC00CF4003CCDF810C0D0F818C04CF082
:1035C000040CC0F818C08069039200F00400049055
:1035D0000420CDE90001694698461846FEF772FBC3
:1035E0000820CDE90005694640460295FEF76AFBD2
:1035F000DFF83C814A4940461431C0E90015C0E972
:103600000257C8F81050C8F81450C8F81850B946F6
:10361000C8F81C50FEF7CEFA08B1FDF711FE40487D
:10362000444FC4F83C802830C8F824403860C7E9CB
:103630000165C7E903957D61BD613846FD61FEF70F
:10364000B9FA08B1FDF7FCFDA76300221146262058
:103650007C62FEF7A1FC2620FEF790FC06B0BDE8D8
:10366000F087354B9C45F9D1C36943F48023C3618E
:10367000C36903F480230493836943F008038361DF
:103680008069CDE9009100F00800CDE90320DFF862
:10369000AC8069464046FEF715FB4FF40060CDE96B
:1036A0000005694640460295FEF70CFBDFF8908066
:1036B0001B4940462839C0E90015C0E90257C8F83F
:1036C0001050C8E9055AB946C8F81C50FEF772FAFE
:1036D00008B1FDF7B5FD12481A4FC4F83C803C38DC
:1036E000C8F824403860C7E90165C7E903957D61E2
:1036F000BD613846FD61FEF75DFA08B1FDF7A0FD3A
:10370000A7630022114627207C62FEF745FC272094
:10371000A2E700000038014000100240000801400C
:1037200058000240140300205803002000440040C9
:103730009C030020E003002000480040000C0140F2
:103740002404002068040020704770472DE9F843E6
:10375000044690F841001F4616460D46202802D028
:103760000220BDE8F8837DB176B10020606421209D
:1037700084F84100FEF7ACFBA6848046E684A0688E
:10378000B0F5805F02D003E00120EAE7206910B1C4
:103790002E4600250EE000260CE08021204602F097
:1037A00079F9A0B9AEB116F8010B21684860E08C38
:1037B000401EE084E08C43464FF000020097002852
:1037C000EBD14FF04001204602F064F930B1032004
:1037D000C7E735F8020BC0F30800E6E7202084F8BD
:1037E00041000020BDE7000070B5044690F841009C
:1037F000202801D0022070BD49B342B32162A284C7
:10380000E28400206064212384F84130A56B114BD1
:10381000AB62A56B104BEB62A56B104B2B63A36BDC
:103820005863256813462A1DA06BFEF701FA21682C
:103830006FF0400008602068143050E8001F41F02D
:10384000800140E80012002AF5D1002070BD01205F
:1038500070BD0000D357000815580008E556000851
:1038600070477047FEE7000010B50020064B014688
:10387000802203F5487400BF43F820102254401CF6
:10388000C828F9D310BD0000AC08002070B50D4663
:103890000446FDF749FEC4E90001FDF745FEC4E911
:1038A00002012046FDF7DCFB401C04D00249002049
:1038B00041F82500012070BDAC0800207CB51446FD
:1038C000421E1D46CDE9000141F1FF332046294645
:1038D00002F030F980F00100084301D000207CBDE7
:1038E00001207CBD3EB5002411480094019402944F
:1038F0000E498460016004730475012505614FF46D
:1039000060214460C161FDF7B9FE08B172B6FEE7FF
:103910000A20CDE90005694602940548FDF730FE0E
:10392000002801D072B6FEE73EBD00000024014031
:10393000D40000201D4808B5416941F001014161F2
:103940004069002200F00100009011460C20FEF7B3
:1039500023FB0C20FEF712FB002211460D20FEF780
:103960001BFB0D20FEF70AFB002211460E20FEF77E
:1039700013FB0E20FEF702FB002211460F20FEF77C
:103980000BFB0F20FEF7FAFA002211461020FEF77B
:1039900003FB1020FEF7F2FA002211461120FEF779
:1039A000FBFABDE808401120FEF7E8BA001002401B
:1039B0002DE9F04F85B000246048009401940294F2
:1039C0000394816941F010018161816901F0100166
:1039D0000491816941F004018161816901F0040170
:1039E0000491816941F008018161816901F0080158
:1039F0000491816941F040018161816901F04001D8
:103A00000491816941F0200181618069002200F008
:103A10002000049048214A48FEF755FADFF824A117
:103A20004FF48177002239465046FEF74CFA0022C7
:103A30004BF2E6014448FEF746FADFF810B14FF6C4
:103A40008078002241465846FEF73DFA4FF4AA49D5
:103A5000002249463E48FEF736FA48200126CDE9C5
:103A60000006022569463648CDE90245FEF72AF9E7
:103A7000CDE90064694650460294FEF723F9CDE98A
:103A8000007669465046CDE90245FEF71BF9302025
:103A9000CDE9000469462A480294FEF713F919207B
:103AA000CDE90004694628480294FEF70BF9E620A8
:103AB000CDE9000669462448CDE90245FEF702F942
:103AC000CDE9008669465846CDE90245FEF7FAF889
:103AD0004FF430400327CDE90006CDE9024769469F
:103AE0001948FEF7EFF86803CDE90005694603972A
:103AF0001548FEF7E7F8CDE9009669461448CDE988
:103B00000245FEF7DFF84FF43870CDE9000469464E
:103B10000F480294FEF7D6F84FF428408DE83100A4
:103B200069460B48FEF7CEF880208DE831006946E3
:103B30000348FEF7C7F805B0BDE8F08F001002405B
:103B40000010014000080140000C01400018014035
:103B5000001401407FB500242C4801942A490094A8
:103B60000160611E41604FF480718160FEF7D6FDF7
:103B700008B172B6FEE72548FEF7BAFD01212348D9
:103B8000FEF780FD43F62276B0423BD006258DF845
:103B9000045059208DF8050040208DF806000122C0
:103BA00001A91A48FEF78AFE08B172B6FEE78DF841
:103BB00000408DF8015002208DF8020024208DF87D
:103BC0000300012269461148FEF716FE08B172B6DD
:103BD000FEE70F49182008704D70102088700F20E4
:103BE0000871192048718C7108688988ADF80C102B
:103BF0008DF80E40039903F060FC32460121034822
:103C0000FEF748FD7FBD00000028004004010020B1
:103C1000900000200F4810B50D4901604FF48271EB
:103C2000416000218160C1604FF480220161C0E9E0
:103C300005121022C0E90721416281620A21C16296
:103C4000FFF718F8002801D072B6FEE710BD00009B
:103C5000003001409C010020FEE72DE9F05F0026C6
:103C6000C41E92469B4689468046354641F1FF3741
:103C700012E0FCF7C7FAC11722463B46FCF722FBCD
:103C8000921C43F1000340464946FFF717FE002807
:103C900008D0761C45F10005B6EB0A0075EB0B0069
:103CA000E7DB0120BDE8F09FFEE70000094810B502
:103CB0000078002438B1084803F073FCF02804D0E1
:103CC00006A0FCF723FB012402E00BA0FCF71EFB7F
:103CD000204610BD34000020980C00204E56313193
:103CE000203E3E2044697361626C65204661696CC8
:103CF00065640D0A000000004E563131203E3E2022
:103D000044697361626C65205375636365737366A0
:103D1000756C6C790D0A00000348007810B10348F7
:103D200003F045BC0120704734000020980C0020AF
:103D300070B5114C00202178002911D0E0780728B7
:103D400009D006284FF000000AD122790B4C00213F
:103D5000A4F128030DE00A4803F041FC216948431F
:103D600070BD00BF54F8215053F82160491C05FB79
:103D700006009142F6DB70BD34000020E40F002005
:103D8000980C00202DE9F84F03F0E6FE04F04CF902
:103D900007464FF40871D448FCF7DAFCD24E0020F5
:103DA0004FF0010986F8189070764FF496727261A0
:103DB000F0760322B2764FF41652834606F55D750F
:103DC000C6F8102005F800B0401C0A28FAD3C7A096
:103DD000FCF79CFA304603F0B3FE04460146D1A03E
:103DE000FCF794FAF02C01D0D4A095E0DBA0FCF70E
:103DF0008DFA4FF47A742046FDF752FFCEA0FCF7FF
:103E000085FADD4A3046134603F0B1FD0146F0283D
:103E100001D0DAA010E0E1A0FCF778FA2046FDF727
:103E20003FFFC5A0FCF772FA0621304603F0F4FB11
:103E30000146F02803D0E0A0FCF768FA40E12046F4
:103E4000FDF72EFFBCA0FCF761FAE449304603F011
:103E50009DFD0146F02801D0E1A0EDE74FF47A7016
:103E6000FDF71EFFB4A0FCF751FADFF87083E5A060
:103E70004446611CFCF74AFAE8A0FCF747FAEC4913
:103E8000207A0024087108F5827A0CE004EB4401E2
:103E900008EB8103611C1A694AF82420E5A0143359
:103EA000FCF734FA641CD8F80810A142EED84FF49D
:103EB0007A742046FDF7F4FE9FA0FCF727FA3046FF
:103EC00003F07BFB0146F02801D0E1A0B4E72046D7
:103ED000FDF7E6FE98A0FCF719FA98F800004446B2
:103EE00003281CD0DFF8488388F803004FF0FF3028
:103EF00004F096F8FF2404F095F823464FF4F1728D
:103F0000DA49DBA0FCF702FAFF210A46304603F04B
:103F10000CFDF02817D0DFA0FCF7F8F9D0E0002561
:103F20000DE000BF05EB450004EB800202F1140038
:103F3000116902460123304603F0E2FC6D1CA068C3
:103F4000A842EFD8C9E098F80300072805D0062852
:103F500024D000283ED0D5A0DEE7DCA0FCF7D6F9BF
:103F6000614803F03CFB01460090DFA0FCF7CEF96E
:103F70000098C8F824000098C8F828B0C8F82000B5
:103F800044464FF0FF3004F04BF894F8280097F8BF
:103F9000581060F3410187F8581026E0D9A0FCF7CB
:103FA000B5F9E1A0FCF7B2F900240EE05AF82410AC
:103FB0004D4803F0CBFAE249024641F824005AF892
:103FC0002410E0A0FCF7A2F9641C98F804008442D5
:103FD000ECDB0CE0DEA0FCF799F94FF0FF3004F0C9
:103FE0001FF8387920F00800387104F01BF898F8B1
:103FF00003004446072802D006284AD06DE0002579
:104000004FF0FF381EE0404604F00AF8B7F85910A8
:1040100009FA05F0014210D004F004F857465AF8A6
:104020002500002100F0E4FB002849D157F82510B5
:10403000CEA02161FCF76AF907E003F0F3FF072D3A
:1040400003DC6D1C20798542DDDB644D297806296F
:1040500001D0072941D1304603F0B5FAF02808D045
:10406000C7A0FCF753F92089401C81B22181CCA064
:10407000E2E6A4F808B02978E17084F8009084F8AA
:1040800002B0FFF749FECEA0FCF740F90120BDE8E1
:10409000F88F00264FF0FF3BA8461BE0584603F080
:1040A000BFFFB7F8590009FA06F14D4608420CD097
:1040B00003F0B8FF5AF82600002100F099FB08B180
:1040C0000020E4E708F8065001E003F0ABFF072EFC
:1040D00003DC761C20798642E0DB554981F80090AC
:1040E000FFF71AFED2E70000980C00204E5631313F
:1040F000203E3E2047657474696E6720696E666F66
:10410000726D6174696F6E2066726F6D204E6F7490
:10411000652056616C696461746F722E2E2E0D0AD3
:10412000000000004E563131203E3E207265737013
:104130006F6E73653A2025750D0A00004E563131B9
:10414000203E3E204E4F2056414C494441544F5250
:1041500020464F554E440D0A000000004E563131A6
:10416000203E3E2056616C696461746F7220466F18
:10417000756E640D0A000000674523014E5631310B
:10418000203E3E20456E6372797074696F6E2046E2
:1041900061696C65642025640D0A00004E5631315A
:1041A000203E3E20456E6372797074696F6E2053B5
:1041B000657475700D0A00004E563131203E3E2068
:1041C000486F73742050726F746F636F6C20466118
:1041D000696C65642025640D0A000000B80E00209B
:1041E0004E563131203E3E20536574757020526525
:1041F0007175657374204661696C65642025640D72
:104200000A0000004E563131203E3E204669726D54
:10421000776172653A2025730D0A00004E563131E0
:10422000203E3E204368616E6E656C733A0D0A0055
:10423000340000204E563131203E3E206368616ECE
:104240006E656C2025643A2025642025730D0A00D4
:104250004E563131203E3E20456E61626C652046EF
:1042600061696C65642025640D0A0000928900086C
:104270005B25732D25755D20737370365F736574D0
:104280005F696E68696269747320253038580D0A59
:10429000000000004E563131203E3E20496E6869D4
:1042A00062697473204661696C6564004E563131F1
:1042B000203E3E20556E697420547970653A205531
:1042C0004E4B4E4F574E0D0A000000004E563131F6
:1042D000203E3E20556E697420547970653A204E18
:1042E0005631310D0A0000004E563131203E3E203D
:1042F00053746F726564204E6F7465733A20256441
:104300000D0A00004E563131203E3E20556E697434
:1043100020547970653A20536D6172742050617930
:104320006F75740D0A0000004E563131203E3E205C
:1043300053746F726564204E6F7465733A0D0A0092
:10434000E40F002025643A2025640D0A00000000D7
:104350004E563131203E3E20556E6974205479709E
:10436000653A204E56390D0A000000005265667508
:104370006E64206E6F74652025750D0A00000000C4
:104380004E563131203E3E20456E61626C65207094
:1043900061796F7574204661696C65640D0A00006F
:1043A0004E563131203E3E205061796F7574206940
:1043B0006E69742025642074696D65730D0A0000B0
:1043C0004E56313120656E61626C65207061796F87
:1043D000757420737563636573730D0A00000000C4
:1043E0002DE9F041264C3C252078002845D025A019
:1043F000FBF78CFF0020A0706071294803F013F9CF
:104400000127F02804D027A0FBF780FFA77034E035
:10441000FDF75EFD06461BE0FDF75AFD801BB0F57B
:104420007A7F09D9D5B1284601F08BFF6D1EEDB218
:10443000FDF74EFD064600E085B1002000F096F83D
:10444000A078062812D0012814D00120FDF728FCFE
:10445000A0780628E0D10020BDE8F0811CA0FBF781
:1044600055FF23A0FBF752FF677106E02BA0FBF777
:104470004DFFF0E731A0FBF749FF0120ECE700001A
:10448000340000204E563131203E3E205061796F7D
:104490007574206E6F74652073746172740D0A00F8
:1044A000980C00204E563131203E3E204E6F7465F0
:1044B0002064697370656E7365206572726F722017
:1044C0006279206E763131206572726F720D0A004A
:1044D0004E563131203E3E20436F756E7420646F1E
:1044E000776E2072656A65637420656E640D0A00DC
:1044F0004E563131203E3E204E6F74652064697304
:1045000070656E7365206572726F722062792074B7
:10451000696D656F75740D0A000000004E563131EB
:10452000203E3E204E6F74652064697370656E7323
:104530006520627920666C61670D0A004E56313144
:10454000203E3E204E6F74652064697370656E7303
:1045500065206572726F72206279207061796F7563
:1045600074206E6F74650D0A0000000070B54E4C2B
:10457000ADF5227D2078002879D0FDF7A9FCA1694E
:10458000411A962973D9A061A0780025012812D07C
:104590006078012600284ED0444803F037F8F02810
:1045A00047D00346A67040F28152414941A0FBF733
:1045B000ADFE657071E0A079401CC0B2A0711428F6
:1045C0006BD9A57143A0FBF7A1FEE16A09B10020F8
:1045D00088476069411C61610C2817D949A0FBF725
:1045E00095FE002002F092FA4FF47A706561FDF7B3
:1045F00057FBBFF34F8F47480168474A01F4E0611A
:1046000011430160BFF34F8F00BFFDE703F09EFA37
:1046100003F0A8FAFFF7B6FB00283ED03FA0FBF757
:1046200075FEA570E16A002937D0012088476561D1
:1046300033E042A029E069461C4802F0FBFF054632
:10464000F02825D0FF2D06D0FA2D11D0014640A02C
:10465000FBF75CFE16E046A0FBF758FEA6702B4663
:1046600040F29552124949A0FBF750FE15E017E0C1
:104670004E4A0E48134603F07AF9F02804D04CA0B5
:10468000FBF744FEA67008E050A0FBF73FFE04E0F5
:1046900000226946054802F05DFA0120FDF700FBA3
:1046A0000DF5227D70BD000034000020980C002024
:1046B0009C8900085B2573206C696E652025755DFB
:1046C000204E563131206572726F7220253032587B
:1046D0000D0A00004E563131203E3E204E563131FB
:1046E000206973206572726F722E20547279696E20
:1046F0006720746F207265636F6E6E6563742E2E13
:104700002E0D0A005265736574204E5631310D0A24
:10471000000000000CED00E00400FA054E563131B7
:10472000203E3E204E56313120697320776F726BE8
:10473000696E67206E6F770D0A0000004E563131AA
:1047400020686F6C6420737563636573730D0A0072
:104750004E563131203E3E20556E6578706563744B
:104760006564206572726F7220253032580D0A0020
:104770004E563131203E3E2053535020506F6C6CCA
:104780002054696D656F75740D0A00005B257320F8
:104790006C696E652025755D204E5631312065723D
:1047A000726F7220253032780D0A000067452301B0
:1047B0004E563131203E3E20456E637279707469E9
:1047C0006F6E204661696C65640D0A004E5631318A
:1047D000203E3E20456E6372797074696F6E20537F
:1047E0006574757020737563636573730D0A0000DB
:1047F00070B504466420002504FB00F12B4608A296
:10480000084803F09AF8F028214604D006A0FBF7E8
:104810007DFD012502E00EA0FBF778FD284670BD66
:10482000564E4400980C00204E563131203E3E201A
:104830004552524F523A2053657420726F75746915
:104840006E67206661696C65643A2025640D0A0014
:104850004E563131203E3E2053657420726F757480
:10486000696E67205375636365737366756C6C79E5
:104870003A2025640D0A00002DE9F04FADF5197DB1
:10488000834692460C4688A8FFF700F800286ED0B1
:104890004FF000088DF81B8002208DF81A004FF4AD
:1048A0007A70059001208DF81C0011208DF81D00F4
:1048B0008DF819406946584600F03EFD9DF81E01EE
:1048C000F02853D14FF009094A208DF81C908DF83B
:1048D0001D00DDE9886700256C46EA003046394650
:1048E000FBF7DDFC61196D1CEDB28877082DF4D360
:1048F0006946584600F020FD9DF81E01F02835D18C
:104900004B208DF81C908DF81D00DDE98A6700258D
:10491000EA0030463946FBF7C2FC61196D1CEDB266
:104920008877082DF4D36946584600F005FD9DF8B8
:104930001E01F0281AD14C20DDE98C678DF81C90FF
:104940008DF81D000025EA0030463946FBF7A7FC2C
:1049500061196D1CEDB28877082DF4D3694658466D
:1049600000F0EAFC9DF81E01F02804D000200DF5AF
:10497000197DBDE8F08F0020CDE990000546464640
:104980006019EA0090F81F013146FBF775FCDDE97C
:104990009023801859416D1CEDB2082DCDE990018E
:1049A000EED388A8FCF77EFB0028E0D0DDE9941266
:1049B000CAE902120120DAE77047010901EB81011F
:1049C00000F00F0000EB4100C0B2704770B5044624
:1049D000FDF77EFA05464FF47A7606E0FDF778FAA1
:1049E000401BB04201D9032070BD2068406880069A
:1049F000F4D52068416841F010014160002070BD8D
:104A000070B504460068416821F010014160FDF76F
:104A10005FFA05464FF47A7607E000BFFDF758FAD3
:104A2000401BB04201D9032070BD20684068800659
:104A3000F4D5002070BD00000148FDF73ABE00002B
:104A4000040100200168086A496A89B241EA00400D
:104A50007047006881698AB2C1698BB2816989B285
:104A60008A4203D0C06961F31F40704743EA0240A5
:104A70007047006881698AB2C1698BB2816989B265
:104A80008A4203D0C06961F31F40704743EA024085
:104A90007047F0B56424C1EBC1030927A5000726C0
:104AA00003EB01130329B3FBF7F100F5FA6011449E
:104AB00001440AD2401EB0FBF4F201EB9001B0FBBE
:104AC000F5F0891A0844001D08E0B0FBF4F201EB90
:104AD0009001B0FBF5F0891A0844801CB0FBF6F198
:104AE00006FB1100C0B2F0BDF0B56424C1EBC103F8
:104AF0000927A500072603EB01130329B3FBF7F1F0
:104B000000F5FA60114401440AD2401EB0FBF4F2F1
:104B100001EB9001B0FBF5F0891A0844001D08E094
:104B2000B0FBF4F201EB9001B0FBF5F0891A0844F8
:104B3000801CB0FBF6F106FB1100C0B2F0BD70B5F1
:104B40000D4606460024FFF741FF48B93168280C9E
:104B500008623168A8B248623046FFF751FF00B1E1
:104B60000124204670BD00002DE9F0410F460446A7
:104B70000025FDF7ADF906464FF47A7805E000BF51
:104B8000FDF7A6F9801B40451DD8206840688006C7
:104B9000F6D52068416841F0100141602168380C69
:104BA00088612168B8B2C8612068416821F01001AD
:104BB0004160FDF78DF90646474606E0FDF788F9A6
:104BC000801BB84201D9012503E0206840688006B7
:104BD000F4D52846BDE8F08170B50D4606460024A0
:104BE000FFF7F4FE48B93168280C88613168A8B233
:104BF000C8613046FFF704FF00B10124204670BDB4
:104C0000006800F00300704708444069704770B5C1
:104C10000DF1100C11439CE8700023431943294304
:104C20004268314347F6FF639A430A4342600020DB
:104C300070BD03210160002070470A688260D1E9DD
:104C400001231A43D1E903310B43C1681A436FF3BF
:104C50000B011143C1600020704710B585B00446B8
:104C60003720CDE9001040200290002003904FF43F
:104C70008060049069462046FFF7DFFF41F28832EA
:104C80003721204600F0D4F805B010BD10B5044619
:104C90000A4885B001432920CDE900104020029048
:104CA000002003904FF48060049069462046FFF78F
:104CB000C4FF204600F074F905B010BD000010805C
:104CC00010B585B004461020CDE9001040200290B8
:104CD000002003904FF48060049069462046FFF75F
:104CE000ACFF41F288321021204600F0A1F805B057
:104CF00010BD000030B585B0002405460094019435
:104D00004FF480600294CDE9034069462846FFF7DE
:104D100094FF0B484FF4FA510068B0FBF1F041F2F8
:104D200088314843401E03D24FF0004005B030BDEB
:104D3000696B0906F6D5C520A8632046F6E7000092
:104D40001800002010B585B004464FF4D5700090CF
:104D50000820019040200290002003904FF48060D2
:104D6000049069462046FFF768FF204600F07EF970
:104D700005B010BD10B585B004460720CDE9002070
:104D800040200290002003904FF480600490694618
:104D90002046FFF752FF41F288320721204600F0FB
:104DA00047F805B010BD10B585B0044600210220BB
:104DB000CDE90010C020CDE902014FF480600490DD
:104DC00069462046FFF739FF204600F0C1F805B0DC
:104DD00010BD10B585B004460920CDE90010C020F3
:104DE0000290002003904FF48060049069462046B2
:104DF000FFF723FF204600F0ABF805B010BD30B53B
:104E000085B00C46054600210320CDE90010402066
:104E1000CDE902010001049069462846FFF70DFF25
:104E200022460321284600F0DDF805B030BD000021
:104E3000454B10B51B684FF4FA54B3FBF4F35343DE
:104E40005B1E02D24FF0004010BD426B12F0450FC6
:104E5000F6D01205F4D4426B520703D504218163C6
:104E6000084610BD426BD20702D00121816305E0E4
:104E7000C52282630269D2B28A4201D0012010BDEC
:104E80000021FFF7C1FE3149084201D1002010BDC9
:104E9000002802DA4FF0007010BD410001D540201B
:104EA00010BD810001D5802010BDC10002D54FF496
:104EB000807010BD010102D54FF4007010BD41019A
:104EC00002D54FF4806010BDC10102D54FF40060DF
:104ED00010BD010202D54FF4805010BD410202D531
:104EE0004FF4005010BD810202D54FF4804010BD38
:104EF000C10202D54FF4004010BD410302D54FF46A
:104F0000003010BD810302D54FF4802010BDC103D5
:104F100002D54FF4002010BD010402D54FF48010DB
:104F200010BD410402D54FF4001010BD810402D51C
:104F30004FF4800010BD000702D54FF4000010BDF3
:104F40004FF4803010BD00001800002008E0FFFD85
:104F500012494FF4FA520968B1FBF2F141F288327A
:104F60005143491E02D24FF000407047426B12F08D
:104F7000450FF6D01205F4D4416B490703D504213F
:104F8000816308467047416BC90703D001218163E3
:104F900008467047C5218163002070471800002033
:104FA0000F494FF4FA520968B1FBF2F141F288322D
:104FB0005143491E02D24FF000407047426B12F03D
:104FC000450FF6D01205F4D4416B490703D50421EF
:104FD000816308467047C521816300207047000047
:104FE0001800002030B5204B4FF4FA541B68B3FB77
:104FF000F4F341F2883463435B1E02D24FF0004069
:1050000030BD446B14F0450FF6D02405F4D4436B47
:105010005B0703D504218163084630BD436BDB0782
:1050200002D00121816303E00369DBB28B4201D02E
:10503000012030BDC52181630021FFF7E5FD10F49B
:10504000604F04D0410406D54FF4005030BD000C31
:105050001080002030BD000402D54FF4805030BDD8
:105060004FF4803030BD00001800002014494FF488
:10507000FA520968B1FBF2F141F288325143491EFC
:1050800002D24FF000407047426B12F0450FF6D04D
:105090001205F4D4416B490703D504218163084606
:1050A0007047416BC90703D00121816308467047EF
:1050B000416B490601D54021816300207047000003
:1050C0001800002010B590B004460120ADF838005B
:1050D0002068FFF795FD002854D0606C032842D06B
:1050E0002068FFF760FE00284AD100212068FFF702
:1050F0008BFD606704212068FFF786FDA06708210B
:105100002068FFF781FDE0670C212068FFF77CFD38
:10511000C4F88000606C032825D00EA92068FFF732
:105120006EFE00282CD1606C03281CD0BDF838001E
:10513000206501042068FFF74CFE002820D10021E3
:105140002068FFF761FD606604212068FFF75CFDC1
:10515000A06608212068FFF757FDE0660C21206853
:10516000FFF752FD206704212068FFF74DFD000D79
:10517000E06403A92046FDF715FC30B14FF08050E4
:1051800010B010BD4FF08060FAE7B4F85000002373
:1051900002042068FFF7EEFD0028F1D104F11000B1
:1051A00007C88DE8070094E80F00FFF730FD0020E6
:1051B000E6E700002DE9F84F002604460096354644
:1051C000B0460068FFF796FD002827D12068FFF75A
:1051D000B9FD4FF0805B4FF001094FF6FF7748B102
:1051E000A6642068FFF786FD002817D1A06C01286F
:1051F00002D020E0C4F8489000212068FFF72DFD80
:1052000058B918E000212068FFF727FD002805D1D4
:1052100051462068FFF73AFD10B15846BDE8F88FB7
:1052200000212068FFF7F0FC05464FEAD07800988F
:10523000401C009002E0DFF82CA00098B84202D297
:10524000B8F1000FDED00098B84202D34FF0807062
:10525000E4E7680002D5C4F8449000E066640020EA
:10526000DCE70000000010C170B50C46012501F517
:1052700080717F2802D194F8FF218AB194F804222A
:105280000026012A10D07F2822D094F8FF21531C39
:1052900084F8FF31505494F8FF0103281BD01FE01D
:1052A00084F8FF51505470BD7F2808D07F2184F8C6
:1052B000001184F80101022084F8FF0105E094F850
:1052C000FF21531C84F8FF31505484F8046207E036
:1052D00084F8045204E094F80201401D84F80102AD
:1052E00094F8FF1194F801028142DCD194F8011185
:1052F00094F8022201F07F01914218D148F205038F
:105300004FF6FF7204F20111C01E00F091FF94F8F5
:10531000011204F1FE02C3B28A5C934207D104F188
:10532000FF02895CB1EB102F01D184F8035284F89D
:10533000FF6184F8046270BD2DE9FE4F0C4671498F
:105340002046FBF715FE4FF00409A8B1A57EDFF853
:10535000B4814FF0000A4FF0030B88F803A24646D1
:1053600098F80012674802F02FFC84F81CB1FCF793
:10537000AFFD0746B0461FE084F81C9134E00126DB
:10538000FCF7A6FD6169C01B88420DD9052084F891
:105390001C0119E0012102A802F002FC59499DF804
:1053A0000800FFF761FF002602F002FC0028F1D19F
:1053B00016B10220FCF774FC98F803020028DED036
:1053C00094F81C01032806D06D1E15F0FF05C4D10A
:1053D000C0B2052805D098F8030145467E2806D0BE
:1053E0006FE0FF2084F81E010020BDE8FE8F95F8D5
:1053F00002014549401E8DF8040001AB1A460E46D5
:1054000008460094FBF798FE9DF8040048F2050852
:1054100043464FF6FF723146801E00F009FF3A4ABC
:1054200095F80211D21EC3B28A5C9342A4D1364AC7
:10543000921E895CB1EB102F9ED1002108462A18DC
:10544000C30092F805219A40401C11440428F6DB61
:10545000607E2E4A52F8200088428DD195F80421B2
:105460002B4E501DC0B285F8010295F80011317025
:1054700095F801117170B270002105E06B18771872
:1054800093F80931FB70491C8A42F7DC43464FF61A
:10549000FF72711CC01E00F0CBFE1D4A95F804116E
:1054A000D21C8854020A1A48001D0A54002004E045
:1054B000315C2A18401C82F8001195F801128142D3
:1054C000F6DC95F8020184F81D01002006E0291899
:1054D000221891F8031182F81E11401C94F81D1136
:1054E0008142F4DC607E0B490A5C802A06D080226F
:1054F00001F8002084F81CB1012076E701F800A033
:10550000F8E700002B1500202F160020AC08002023
:1055100030170020CC0B00207047FCF7DFBC30B503
:1055200095B028216846FBF713F914210AA8FBF768
:105530000FF918210FA8FBF70BF901210520002412
:105540000090CDE902414FF4803001900225049192
:10555000CDE907504FF4E01009906846FCF702FFD0
:1055600008B172B6FEE70F20CDE90A0580200C9045
:10557000C000CDE90D0402210AA8FCF717FE08B10E
:1055800072B6FEE703200F904FF4807010904FF436
:10559000404011900FA8FCF793FD002801D072B68F
:1055A000FEE715B030BD70470148FDF7CCBC0000E8
:1055B000F4010020F0B502681C4B1D4D1D4E1E4F1E
:1055C0001E4C4FF0804C984209D0A04207D0604555
:1055D00005D0A84203D0B04201D0B84204D122F095
:1055E000700E4A6842EA0E02984209D0A04207D0E3
:1055F000604505D0A84203D0B04201D0B84203D1E3
:1056000022F44075CA682A434D6922F080022A4379
:1056100002608A68C2620A688262984201D0A0422F
:1056200001D10969016301214161F0BD002C0140F4
:105630000004004000080040000C0040003401401D
:105640000FB410B50798A0F26C70079002A8FBF792
:10565000CCF810BC5DF814FB13B5044601A8FBF7A9
:105660009FF8014640692C2200F26C704861204688
:10567000FBF73CF81CBD000010B504468CB0074891
:10568000FFF7E7F901466846FFF7E6FF2C22694677
:105690002046FBF72BF80CB010BD000004010020E1
:1056A0000FB41C2200B587B00CA96846FBF71EF8A2
:1056B0000DF1200C9CE80F00FFF7C2FF07B05DF86A
:1056C00014EB00F001B8000001460148FFF74CBAA6
:1056D0000401002010B5406A0021C185C184FDF796
:1056E00081FD10BD70B5446A2068406994F841108E
:1056F000C0F3C0100025212904D118B1E58420464B
:1057000000F0B4F82068406994F84210C0F38010AB
:10571000222904D118B1E585204600F080F8606C9C
:1057200040F0100060642046FDF75CFD70BD10B5D0
:105730000146406A096809684FF0000289062ED4C4
:10574000C28501680C3151E8003F23F4807341E8C1
:105750000034002CF5D10168143151E8003F23F0EA
:10576000010341E80034002CF5D10168143151E8FF
:10577000003F23F0400341E80034002CF5D1202104
:1057800080F84210016B012909D101680C3151E800
:10579000003F23F0100341E80034002CF5D14263B0
:1057A000016B012902D0FDF7CFFF10BD818DFDF700
:1057B000A9FC10BD10B5406A01214163016B0129AC
:1057C00002D0FDF7C2FF10BD818D4908FDF79AFC9C
:1057D00010BD10B50146406A09680968890616D4EB
:1057E0000021C1840168143151E8002F22F08002A9
:1057F00041E80023002BF5D101680C3151E8002F5E
:1058000042F0400241E80023002BF5D110BDFEF725
:1058100027F810BD10B5406AFEF723F810BD0168E7
:105820000C3151E8002F22F4907241E80023002B44
:10583000F5D10168143151E8002F22F0010241E84E
:105840000023002BF5D1016B012909D101680C312E
:1058500051E8002F22F0100241E80023002BF5D17F
:10586000202180F8421000210163704701680C314B
:1058700051E8002F22F0C00241E80023002BF5D1AF
:10588000202180F84110704708B590F84210222975
:1058900001D0022008BD82684FF480539A4201D1A2
:1058A000016921B1816A9A421BD04AB10AE00268BB
:1058B000816A5268C2F308020A80816A891C08E082
:1058C000026972B10268526802F07F020A70816A4E
:1058D000491C8162C18D491E0904090CC18503D090
:1058E0001BE002685268F1E70168CA6822F02002F2
:1058F000CA600168CA6822F48072CA6001684A6995
:1059000022F001024A61202180F842100021416307
:10591000026B012A03D0FDF717FF002008BD0163C9
:1059200001680C3151E8002F22F0100241E80023F9
:10593000002BF5D101680A68D20602D50A684968C9
:105940000091818DFDF7DEFBE7E7000070B50446AE
:1059500000680169E26821F4405111430161216945
:10596000A0680843616908432168CA6841F20C6372
:105970009A430243CA6020684169A26921F44071D8
:10598000114341611E492068884202D1FCF7B4FCF2
:1059900001E0FCF7A1FC00EBC00101EB0012606824
:1059A00064218000B2FBF0F3B3FBF1F36FF0180653
:1059B0007343B2FBF0F5B2FBF0F605EB830532233F
:1059C00003EB0515B5FBF1F5B6FBF1F605F0F005B7
:1059D00005EB0615B2FBF0F6B2FBF0F0B0FBF1F010
:1059E0006FF01802504306EB800003EB0010B0FB91
:1059F000F1F0216800F00F002844886070BD0000BD
:105A00000038014038B58162044682850020134683
:105A10006064222284F84220E56B1B4AAA62E56B8F
:105A20001A4AEA62E56B1A4A2A63E26B50630A4635
:105A30002168E06B091DFCF7FBF8206801684068ED
:105A40000090206948B120680C3050E8001F41F4F4
:105A5000807140E80012002AF5D12068143050E827
:105A6000001F41F0010140E80012002AF5D1206832
:105A7000143050E8001F41F0400140E80012002AB5
:105A8000F5D1002038BD00002F570008B557000899
:105A9000E55600082DE9F041984617460E460446A3
:105AA000069D27E0681C25D02DB1FCF711FAA0EB6C
:105AB0000800A8421ED920680C3050E8001F21F4CD
:105AC000D07140E80012002AF5D12068143050E867
:105AD000001F21F0010140E80012002AF5D120202A
