:020000040800F2
:10000000D0310020810200080BA200085D530008D7
:10001000215E00088F11000871CB0008000000006D
:10002000000000000000000000000000C9BA000845
:10003000AF1600080000000005A9000803BF000873
:100040009B0200089B0200089B020008ADA9000863
:100050009B0200089B020008651700089B0200082D
:100060009B0200089B0200089B0200089B020008FC
:10007000B9150008C5150008D1150008DD150008E0
:10008000E9150008F5150008ED0F00089B020008AF
:100090009B0200089B0200089B0200086B170008E7
:1000A0009B0200089B0200089B0200089B020008BC
:1000B0009B020008C1C200089B0200089B020008C6
:1000C0009B0200089B0200089B0200089B0200089C
:1000D0009B0200084DCB000859CB000865CB0008F7
:1000E0009B0200089B0200089B0200089B0200087C
:1000F0009B0200089B0200089B0200089B0200086C
:100100009B02000879AD00089B0200089B020008D2
:100110009B0200089B020008CDC200089B02000859
:100120009B0200089B0200089B0200089B0200083B
:1001300000F002F800F07AF80AA090E8000C82447F
:100140008344AAF10107DA4501D100F06FF8AFF25C
:10015000090EBAE80F0013F0010F18BFFB1A43F0A5
:1001600001031847B4550200D455020010F8013BB2
:100170000A4413F0030408BF10F8014B1D1108BF17
:1001800010F8015B641E05D010F8016B641E01F8C5
:10019000016BF9D1002D15D010F8014B03F00C03C1
:1001A0000C2BA1EB04040ABF10F8013BA4EB831451
:1001B000A4EB032405F1010314F8016B5B1E01F8A5
:1001C000016BF9D5914238BF10F8013BD1D370478C
:1001D0000023002400250026103A28BF78C1FBD850
:1001E000520728BF30C148BF0B607047642900F038
:1001F0002181752900F01E81782900F0578163293B
:1002000000F01985732900F01E85002070471FB586
:1002100000F05FFA00F06EFE04000020002111F0F3
:1002200047F8401C60601FBD10B510BD00F03CFEDB
:100230001146FFF7ECFF0DF09DFF00F06DFE03B4DB
:10024000FFF7F2FF03BC00F0F5FB00000B49D1F80B
:1002500000C04A685CF8043B1068184442F8040B7C
:100260008C4528BFA1F1DC0C8A4228BFA1F1DC0239
:10027000C1F800C04A6020F000407047382B0020D1
:100280000948804709480047FEE7FEE7FEE7FEE72A
:10029000FEE7FEE7FEE7FEE7FEE7FEE70448054966
:1002A000054A064B704700007FBF00083101000877
:1002B000D02B0020D0310020D02D0020D02D0020C8
:1002C000B2F120030AD5C2F1200301FA02F120FAAB
:1002D00003F300FA02F041EA0301704700FA03F168
:1002E0004FF000007047B2F120030AD5C2F120039D
:1002F00020FA02F001FA03F341FA02F140EA0300A6
:10030000704741FA03F04FEAE171704710B54C10A5
:1003100084EA530404D54042C1F1000138BF491EAC
:100320001B4204D55242C3F1000338BF5B1E00F0EC
:100330008BFB14F0804F04D04042C1F1000138BF64
:10034000491E14F0004F04D05242C3F1000338BFDD
:100350005B1E10BD0FB4044910B503AA029800F04B
:1003600077FC10BC5DF814FB180000200FB41CB51E
:10037000074B06AA7B4469460090059800F039FCBB
:100380000020694600F048FC1CBC5DF814FB00002E
:10039000A108000070B5044685690068C10601D552
:1003A000302600E02026C00707D070BDD4E9012127
:1003B00030469047206A401C20626D1EF6D570BD05
:1003C00070B5044685690078C00707D170BDD4E9CF
:1003D000012120209047206A401C20626D1EF6D526
:1003E00070BD70B50C460546012A05D028788006F8
:1003F00000D5EA69002302E0012305E05B1C93427B
:1004000002D2E05C0028F9D1A869E618C01AA861F8
:10041000286A184428622846FFF7BCFF04E0D5E9A3
:10042000012114F8010B9047B442F8D32846FFF796
:10043000C7FF70BD2DE9F0410646002410687529FC
:10044000314616A510D0AFF30080002802DA4042F2
:1004500013A507E031688A0701D512A502E0490714
:1004600004D511A5012401E0AFF3008000210A2288
:1004700006F1240709E0B0FBF2FCB0FBF2F302FB4B
:100480001C00303078541846491C0028F3D123460C
:100490002A463046BDE8F04100F04DBB00000000A8
:1004A0002D0000002B0000002000000070B5044665
:1004B0000D4621461068AFF300802188090502D55A
:1004C0000F4A7A4402E00E4A7A440E32002104F1C7
:1004D000240305E000F00F060009965D5E54491CF8
:1004E0000028F7D120780023000704D5702D02D012
:1004F00009B1022311322046BDE8704000F01BBB59
:10050000AA4B02002DE9F05F894604464FF0000A2D
:10051000DFF874B1FB44C0F820A02046E1688847AA
:10052000002874D0252806D0D4E901219047206AFC
:10053000401C2062F1E700265F462046E1688847BC
:100540002028054607DB312D05D2781910F8200C3C
:1005500008B10643F1E7B00701D526F00406C4F858
:100560001CA00027C4F818A02A2D09D028460CF09A
:1005700057FD38B304EB8708303DC8F8185019E030
:1005800059F8041B204604EB87029161E168884713
:10059000012F054618D1E069002820DA26F0200650
:1005A0001DE0D8F8180000EB800005EB4000303863
:1005B000C8F818002046E168884705460CF030FD71
:1005C0000028EED1012F0AD02E2D08D12046E16857
:1005D00088477F1C0546022F46F02006C4DBA06931
:1005E000002803DA404246F00106A061F00701D07E
:1005F00026F010066C2D0BD0682D09D04C2D39D06B
:100600006A2D35D0742D35D07A2D33D016E038E0F0
:10061000E1682F4620468847B842054609D16C2F2D
:1006200026D04FF48060E16806432046884705469F
:1006300004E06C2F1AD04FF4807006430DB3A5F17F
:100640004100192802D8203546F400664A4629465A
:10065000204626604E46FFF7C9FD80B101280BD029
:10066000F61D26F0070000F1080956E74020E4E7F0
:100670008020D8E70020D6E706F104094DE7284698
:1006800052E7206ABDE8F09F804B020070B5064635
:1006900000F0D6F90468054630460A22002100F031
:1006A000E9FA2C6070BD00000B4910B5A1F17C0285
:1006B0000A4CC2E93712372106E000EB104342F83A
:1006C0002130074B00FB03400B1EA1F10101F4DCBC
:1006D00010BD0120E8E70000D82A0020E119D66605
:1006E000CD0D010010B5002000F0FCFAFFF79CFDD5
:1006F000BDE81040012000F09DB910B5431C02E098
:1007000010F8011B71B18107FAD14FF0013202C814
:100710008C1A8C4314EAC211F9D0C01A0A0603D00D
:10072000C01E10BDC01A10BD0A0401D0801E10BD2D
:100730000902FCD0401E10BD032A40F2308010F0A8
:10074000030C00F0158011F8013BBCF1020F62446C
:1007500098BF11F801CB00F8013B38BF11F8013BFD
:10076000A2F1040298BF00F801CB38BF00F8013BAA
:1007700011F0030300F02580083AC0F0088051F81A
:10078000043B083A51F804CBA0E80810F5E7121D25
:100790005CBF51F8043B40F8043BAFF30080D20744
:1007A00024BF11F8013B11F801CB48BF11F8012B10
:1007B00024BF00F8013B00F801CB48BF00F8012B33
:1007C000704710B5203AC0F00B80B1E81850203ABD
:1007D000A0E81850B1E81850A0E81850BFF4F5AFE1
:1007E0005FEA027C24BFB1E81850A0E8185044BF6B
:1007F00018C918C0BDE810405FEA827C24BF51F8D8
:10080000043B40F8043B08BF7047D20728BF31F8CB
:10081000023B48BF11F8012B28BF20F8023B48BF1C
:1008200000F8012B70474FF0000200B513469446C4
:100830009646203922BFA0E80C50A0E80C50B1F138
:100840002001BFF4F7AF090728BFA0E80C5048BF4C
:100850000CC05DF804EB890028BF40F8042B08BFEA
:10086000704748BF20F8022B11F0804F18BF00F8E6
:10087000012B7047014900F03DBA0000402B0020D9
:1008800010B503681C1404EB21449BB289B21944CF
:1008900094FBF2F302FB134394FBF2F401EB0343EA
:1008A00093FBF2F102FB113193FBF2F301E05B1ECB
:1008B00011440029FBDB016003EB044010BDF0B5DF
:1008C00004464FF0FF3585B00068049060680290E0
:1008D000A0680390E068019020690090666906F1C5
:1008E0008040B0F1004F7CD83C22002104A8FFF7E3
:1008F000C7FF3C22014602A8FFF7C2FF18220146AB
:1009000003A8FFF7BDFF411E40F2B55201A8FFF753
:10091000B7FF0C22074668460021FFF7B1FF414BA5
:1009200000EB8700304400267B4411E0511A01910E
:100930000099491C0229009102D00C2908D105E038
:10094000810705D00199491C019101E0401C0096E6
:100950000099019A595C9142E8DD0099012906D17C
:100960001C2A04D1810702D00221CDE90016A0F192
:1009700046018B293CD2DDE90061002202E09F5C48
:10098000521C3944B242FADB012E02DD820700D04C
:10099000491E40F2B55340F26D16C21700EB927239
:1009A00092105A4300F0030303FB062283070A4414
:1009B00000D1521E039E02EB4203049F06EBC303C9
:1009C000029EC3EB031306EB8303174E33441E143E
:1009D0009BB2C6EB0616C3EB0313B60007EB83030B
:1009E00000E005E006EB134666F31F43360C02D029
:1009F000284605B0F0BD80C4029E40C4039E40C49A
:100A0000019E761C44F80C6B009E44E902600720AE
:100A1000521C92FBF0F600FB162084E823001846D7
:100A2000E7E700007D470200A039CEFD7047704720
:100A30007047000001491820ABBEFEE72600020007
:100A4000004870476C2B002053EA020C00F06980CC
:100A50002DE9F04B4FF00006002B1FBFB3FA83F5D2
:100A600003FA05F424FA05F65E4012BF1643B2FA03
:100A700082F502FA05F4C5F120051EBF22FA05FC35
:100A800044EA0C04203556EA044C4FEA144418BFDB
:100A9000641C4FF000084FF00009904271EB030C0A
:100AA00039D3002919BFB1FA81F701FA07F6B0FA74
:100AB00080F700FA07F6C7F120071EBF20FA07FCEF
:100AC00046EA0C062037B6FBF4FCA7EB0507103FFF
:100AD00007F01F0BCBF120060CFA0BFB2CFA06F6E5
:100AE00044BFB3460026202FA4BF5E464FF0000B44
:100AF0005BEA060C08BF4FF0010B19EB0B09ABFBCF
:100B0000027C48EB0608C01B06FB02CC0BFB03CCA7
:100B100071EB0C01C1E70B46024641464846BDE871
:100B2000F08B13B54FF000004FF00001AFF30080E1
:100B3000BDE81C4070472DE9F0470D4699469246A6
:100B4000044600F124080168880604D5E06921F014
:100B50001001216000E00120A84201DD471B00E0F8
:100B60000027A1697A1902EB0900081AA061207810
:100B7000C00602D42046FFF70DFC002608E0D4E9A9
:100B800001211AF806009047206A401C761C20625A
:100B90004E45F4DB2078C0060AD52046FFF7FAFB65
:100BA00006E0D4E9012130209047206A401C2062F1
:100BB000381EA7F10107F4DC07E0D4E9012118F899
:100BC00005009047206A401C2062281EA5F10105FF
:100BD000F3DC2046FFF7F4FB2078000602D5022064
:100BE000BDE8F0870120FBE701694A1C0261087833
:100BF000704700B58FB0CDE901310021059105495D
:100C00007944CDE9031011466846FFF77BFC0FB02D
:100C100000BD0000E5FFFFFF0A6802F8010B0A6053
:100C2000704710B5436913B1AFF3008001E0FFF7DF
:100C3000D8FB012010BD127800F124010A700022B7
:100C40004A700122EDE711684FF0FF32E9E700003A
:100C5000074B70B50D467B44FFF7CBFF0446284693
:100C600000F001F910B14FF0FF3070BD204670BDAB
:100C7000ABD000002DE9F04791460F468046044670
:100C8000002614F8015B2DB100F096F80068405D75
:100C9000C007F6D12B2D02D02D2D18D0641E4A4648
:100CA0003946204600F090F827B13968A14201D1B9
:100CB000C7F800804FF0020471050BD540420028B0
:100CC00003DDFFF7BDFE0460A007BDE8F08746F432
:100CD0008066E4E70028F8DAFFF7B2FE04606FF000
:100CE0000040F2E710B500F0C7F8BDE8104000F092
:100CF000BEB8000070B50C46016800204A1C3ED00A
:100D00003C22B1FBF2F302FB1313B1FBF2F12360BF
:100D1000B1FBF2F302FB1313B1FBF2F11822636093
:100D2000B1FBF2F302FB1313B1FBF2F146F2E03236
:100D30000A440721A360B2FBF1F301FB132140F247
:100D4000B553B2FBF3F5A161B2FBF3F103FB15223E
:100D50008900B2F5B77F08D39B10521EB2FBF3F5A2
:100D60002944B2FBF3F503FB15220F4BE2616161ED
:100D700089077B440CD03B2A0AD3521C08E02C2163
:100D80002046FFF750FD0120E0600AE0521A401CA7
:100D9000195C9142FAD9521CC4E903204FF0FF308C
:100DA0002062204670BD00003343020000487047B7
:100DB0006C2B00207047000010B500F09BF8001D60
:100DC00010BD00BFED0401002DE9F05F824615461D
:100DD0008B4600270AF10104B9460078302801D07B
:100DE0009DB113E014F8010B0127782803D058288F
:100DF00001D045B10AE00DB1102D07D1002714F83C
:100E0000010B102502E0082500E00A250026B04667
:100E10000EE005FB080005FB06F101271FFA80F82C
:100E200001EB1046B6F5803F00D3B94614F8010B2C
:100E3000294600F063F80028EBDABBF1000F05D07B
:100E40000FB1641E00E05446CBF80040B9F1000F2A
:100E500006D0FFF7F5FD02210160C81EBDE8F09F36
:100E600048EA0640FAE7007B00F08000704700285F
:100E700001D0FFF7DFBD704710B5002102A000F0E0
:100E800054F8012010BD0000534947414252543AE2
:100E90002041626E6F726D616C207465726D696E57
:100EA0006174696F6E0000007546FFF77FFFAE4604
:100EB00005006946534620F00700854618B020B566
:100EC000FFF7ECF9BDE820404FF000064FF00007B7
:100ED0004FF000084FF0000B21F00701AC46ACE8E2
:100EE000C009ACE8C009ACE8C009ACE8C0098D464F
:100EF00070470000004870478C2B00203A2800D231
:100F0000303820F02002412A01D3A2F13700884274
:100F100001D34FF0FF30704710B50446AFF30080A7
:100F20002046BDE81040FFF78AB970B505460C466B
:100F30000A2000E06D1C00F051F835B12878002837
:100F4000F8D102E0641C00F049F814B120780028C0
:100F5000F8D1BDE870400A2000F040B84FF0013CE5
:100F600050F8042B51F8043B9A4221D1A2EB0C0318
:100F7000934313EACC1317D150F8042B51F8043BD8
:100F80009A4215D1A2EB0C03934313EACC130BD175
:100F900050F8042B51F8043B9A4209D1A2EB0C0300
:100FA000934313EACC13DBD04FF00000704700BF2F
:100FB000D01A01BAB1FA81F101F0180122FA01F058
:100FC000CB40C1F12001DBB2C0B2C01A2CFA01F350
:100FD000D11A914311EAC311E6D1704708B56946A9
:100FE0008DF800000320ABBE08BD0000014801F0F1
:100FF0009EB90000FC0B002070B5044600688168B3
:10100000C943C90717D1816821F00101816001F04E
:101010005BFE05460AE000BF01F056FE401B0228B9
:1010200004D920688068C043C00706D02068806863
:10103000C043C007F0D0002070BDA06A40F010008F
:10104000A062E06A40F00100E062012070BD10B5CE
:101050000446412004F0E6F904F020FA012C00D8FF
:1010600014B140F0010001E000F0FE00BDE81040C6
:1010700004F038BA2DE9F041074600F0FF081C469D
:1010800015460E46302004F0CDF9404604F02AFA09
:101090003F0A312004F0C6F9384604F023FAF7B2CB
:1010A000342004F0BFF9384604F01CFA360A352023
:1010B00004F0B8F9304604F015FAEEB2322004F02C
:1010C000B1F9304604F00EFA2D0A332004F0AAF9E3
:1010D000284604F007FAE5B2362004F0A3F92846C2
:1010E00004F000FA240A372004F09CF92046BDE8F9
:1010F000F04104F0F7B970470146014802F01ABC0C
:10110000400C002010B5044802F026FC042801D051
:10111000012010BD002010BD400C002010B500F0D3
:101120000BF8012801D0012010BDBDE81040014896
:1011300002F024BD400C002008B501208DF800000D
:101140009DF8000008BD000038B500240093134648
:101150000A460146034802F0B5FD00B101242046CD
:1011600038BD0000400C00207047000038B5002456
:10117000009313460A460146034802F097FE00B169
:101180000124204638BD0000400C00207047FEE7D7
:101190002DE9104004F002FA0006FBD410BD10B592
:1011A0004FF4FA64BF2004F03DF904F077F9641EAF
:1011B000C00701D0002CF5D110BD00002DE9FC4185
:1011C000002605460C4681F8FF6130462118401C78
:1011D00081F80061FF28F9DB687F324F112802D1C6
:1011E000697E80207854E87E50B105F11C03CDE97A
:1011F00000355A1C687E114600F0CAFA00284FD00C
:1012000084F80462687E84F8020284F8FF6184F83E
:10121000FF60032084F80102287F7F26401D84F8A8
:1012200000022670687E395C08436070287FA070D9
:10123000002004E029182218497FD170401C297F22
:101240008142F7DC94F8000248F205034FF6FF7282
:10125000611CC01E0CF062FA2A7FE11C5054010A86
:101260002A7F201D11541049207808700120024661
:1012700008E0A35C0B54A35C7F2B01D1401C0E54EF
:10128000401C521C94F800329342F2DC002202E02F
:101290008B5CA354521C8242FADB84F800020120CA
:1012A000BDE8FC8194170020F41F00201CB5044603
:1012B000D4E90001084318D0D4E90201084314D04E
:1012C00000F0AEFF4FF000420023FFF71FF8C4E923
:1012D0000623D4E90201CDE90001D4E900010BF0B5
:1012E000EDFDC4E9040100201CBD4FF0FF301CBD22
:1012F0001CB50446D4E90201CDE90001D4E9080196
:10130000D4E906230BF0DAFDC4E90C0101201CBD71
:1013100070B504461348124D86B0816941F004014E
:1013200081618069012600F0040004901120CDE95C
:10133000006000200290032003906946284601F0D7
:10134000BDFB01221146284601F0B9FCC4E9045650
:10135000022020764FF4FA60E06106B070BD000014
:1013600000080140001002402DE9F043D7B00125EC
:1013700004461120CDE952500326DFF8AC81CDE9B7
:10138000545652A9404601F099FB002701E027542A
:10139000401C0528FBDB01221146404601F08FFC72
:1013A00041F29210401EFDD260A0FEF7D3FFDFF89D
:1013B0008C910022012189F80050404601F07FFC09
:1013C000207E022821D003281FD05D48401EFDD278
:1013D00001221146404601F072FCCDE95476529547
:1013E0003D4652A94046539701F068FB01200FF09B
:1013F00033FF40F6C2380227404504D000200FF0EA
:101400002BFF404505D138462CE04E48401EFDD20A
:10141000DEE701200FF020FF404501D1304621E0FA
:10142000002702AE00200FF017FF46F8270001202A
:101430000FF012FF06EB8701BF1C4860502FF1DB55
:1014400041A0FEF787FF89F8005000204FEA08010D
:1014500006EBC00356F830205F688A4201D08F4205
:1014600005D1042084F8200057B0BDE8F083C317ED
:1014700000EB537304EBE303974293F800C04FEA89
:101480004C6C4FEA1C6C83F800C002D94CF001028E
:101490001A70401C2828DBDB2179E078CDE90001B7
:1014A000A378627821782EA0FEF754FF2078617827
:1014B000A6780144E078321811442279C9B28A42F0
:1014C00007D0052004F8200F2DA0FEF743FF207859
:1014D000CAE706F07F0140EA01200FF030FF2F4FEE
:1014E000DFF8BC803A4643460FF03CFF0FF0F6FEB3
:1014F000A060310602D580F00040A060208840BA8C
:101500000FF01DFF3A4643460FF02CFF0FF0E6FEAA
:10151000E06010F031F8014622A0FEF71BFF84F8CE
:1015200020502846A0E700000008014044485432FB
:101530003120524541440D0A000000007204002091
:101540008E5F01003E0D030072656164207265616B
:10155000647920383020626974730D0A000000003D
:1015600044485432313E3E205245472025642025D0
:10157000642025642025642025640D0A00000000F5
:1015800044485432313E3E20434845434B53554D29
:101590005F4641494C45440D0A0000009A999999CB
:1015A0009999B93F44485432313E3E2048554D3A0E
:1015B0002025640D0A000000014801F0A9B80000D0
:1015C00030100020014801F0A3B80000EC0F00200B
:1015D000014801F09DB80000200F0020014801F0F3
:1015E00097B80000DC0E0020014801F091B800001F
:1015F000640F0020014801F08BB80000A80F002004
:1016000030B590F840500124AC40C56B6C60046864
:1016100063604368102B036803D099600068C26060
:1016200030BD9A600068C16030BD10B50446B0207E
:1016300003F0F8FEE0B203F055FFB12003F0F2FE34
:10164000C4F3072003F04EFFB22003F0EBFEC4F317
:101650000740BDE8104003F045BF70B5064614468C
:101660000D46B42003F0DEFEF0B203F03BFFB520E0
:1016700003F0D8FE300A03F035FFB62003F0D2FEA7
:10168000E8B203F02FFFB72003F0CCFE280A03F0E6
:1016900029FFB82003F0C6FEE0B203F023FFB92013
:1016A00003F0C0FE200ABDE8704003F01BBF704786
:1016B0001FB512780023069CCDE90202CDE9003166
:1016C0001022214601200BF00AFD10B1002004B0C9
:1016D00010BD0120FBE710B5012003F0A3FEBDE81B
:1016E0001040802003F0FEBE10B5044601214120C9
:1016F0000BF0B8FB1A48002200EB0414A088401E2F
:1017000083B26088401E81B21046FFF7B3FC00210F
:10171000084604F086FB002106200BF0A3FBA6215F
:1017200005200BF09FFB0221BF200BF09BFBE06824
:10173000FFF77BFF6088A1880246FFF78EFF032139
:10174000BF200BF08FFBFFF72AFD0020FFF77FFC87
:10175000002004F011F8BDE8104004F083BB000045
:101760001C0B0020012001F09DB9202001F09AB946
:10177000054A064B002118B1012082F8330001E030
:1017800082F8331019707047182A0020AC0B002023
:101790002DE9F04F91461A788046D01D1F4600264D
:1017A000C0B2C5B0030703D000F00F03C3F11006A9
:1017B000DFF8B8B030448DF81020C4B25BF82830A0
:1017C000002004AAC50023FA05F502EB000C401C1A
:1017D000C0B28CF801500428F4D3002004E00B5C64
:1017E0001518401C6B71C0B23B788342F7D80025B6
:1017F00092460CE0FEF72AFDFF2190FBF1F201FB7F
:1018000012003A78691D52446D1C5054EDB2B54235
:10181000F0D348F205034FF6FF7204A9A01E0BF0A7
:101820007DFF0AEB040202F8020D000A507000224C
:1018300009F10100CDE9002ACDE902041346102286
:1018400001204F990BF0B2FD18B1002045B0BDE862
:10185000F08F4E98641C7E21047089F800105BF8AC
:101860002810491C4BF828100120EFE774140020C1
:1018700002A0FEF76FFD72B6FEE700006572726FA0
:10188000720D0A00002200F001B8000030B50E4BC6
:10189000054601205C7A012C15D8587A00241C5486
:1018A000587A03EB800045605D7A03F108002A5402
:1018B000587A421C5A72303008703A2048702F20F3
:1018C0008870CC70002030BD502A002009B1012260
:1018D00000E00022002803D10421024801F0EFB902
:1018E0007047000000100140F8B5054600200E4684
:1018F0008DF80000044611E03246694628460BF098
:1019000038F99DF80010641C0D44716831F810001E
:101910003168084410F8040C204484B22878002868
:10192000EAD12046F8BD00002DE9FF4F83B0012425
:1019300006984168059831F810000699021F096859
:101940008A5C0092C21E401E8A5C0292085C019072
:1019500000200099804688422FDA002527E0DDE943
:10196000052329B20FFA88F000F051F8F0B104997C
:101970000198DFF854A0002701EB000B0398002624
:10198000384408FB04000FFA80F900BF05FB04612E
:1019900001EB0B0001B2DAF800304846109A984784
:1019A000761CA642F2DB7F1CA742E7DB6D1C029887
:1019B0008542D4DB08F10100CBE701FB04F007B05E
:1019C000C0B2BDE8F08F0000CC0B00202DE9FC4137
:1019D000054600201F4614468846089E8DF80400E0
:1019E00010E001A9204600F029F802463B46414696
:1019F00028460096FFF798FF2844401C05B29DF842
:101A00000400044420780028EBD1BDE8FC8130B507
:101A1000C41700EB547525F00704001B8024C44054
:101A2000586830F812001A68831E00EBE500D35C9A
:101A300001FB0321085C204030BD000001220A7038
:101A4000027802F0F003802A21D3C02B04D0E02BCF
:101A500008D0F02B0FD025E002220A7001784278DE
:101A6000090213E003220A7001784278090441EA6E
:101A7000022182780AE004220A700178427809067D
:101A800041EA0241827841EA0221C2780A430649CA
:101A9000002000BF51F82030934204D0401CC0B257
:101AA000EC28F7D300207047904C020870B505462B
:101AB000C6B20C462A2003F0B5FC304603F012FDF6
:101AC0002D0A2B2003F0AEFC284603F00BFDE5B2F7
:101AD0002C2003F0A7FC284603F004FD240A2D2047
:101AE00003F0A0FC2046BDE8704003F0FBBC08B545
:101AF00041008DF8001081F01B018DF8011069463E
:101B000001EBD010007808BD08B5002100904023FB
:101B10008022084600F0E0F908BD2DE9F04710F8F2
:101B2000016B914610F8017B8A46804600251AE039
:101B3000002414E0E008704308EB0501405C04F069
:101B40000701C840C00709EB04010AEB050001D0FA
:101B5000012200E0002200F0EFF8641CA4B2BC42B5
:101B6000E8DB6D1CADB2B542E2DBBDE8F0870000FA
:101B70002DE9FF4F244C626813785E074FEAD305C6
:101B800000D06D1C92F801C0966852880027801A18
:101B900068430CFB0068491E581800F0FF093E46D8
:101BA000A34626E0002008EB050106E00C1A3B02E4
:101BB00014F8017C1F43401CC0B2A842F6D302981F
:101BC0008846002400EB060A0CE00120A040B84340
:101BD0005146A9EB040014D05FF0000200F0ACF80D
:101BE000641CE4B2DBF804000078A042EDD8761C57
:101BF000F6B2DBF804005A464078B042D2D8BDE8CD
:101C0000FF8F039AEAE700002C0000202DE9FF4F28
:101C10001F46934682460024DDF8348022E07E1E73
:101C2000F017012106EB507001EBE000002504FBEA
:101C300000F60BEB040911E00AEBD50005F00701F3
:101C4000305CC1F10701C840C00705D00198494682
:101C500028440E9A00F070F86D1CADB2BD42EBD373
:101C6000641CA4B24445DAD3BDE8FF8F2DE9F04FE0
:101C70001E46DDE9097B90468946824600251AE02A
:101C8000002414E0E00870430AEB0501405C04F016
:101C90000701C840C00708EB040109EB050001D0AB
:101CA0005A4600E0002200F047F8641CA4B2BC428F
:101CB000E8D36D1CADB2B542E2D3BDE8F08F2DE99B
:101CC000FC4F0546994617460C46AA4201DD781B93
:101CD00000E0E81B8046A14502DDA9EB040001E01D
:101CE000A4EB090082464FF0FF30BD4201DA01212A
:101CF00000E0014601914C4500DA01208346CAF11B
:101D00000000A8EB0A060090214628460B9A00F036
:101D100013F8BD4201D14C450CD0009970008842A7
:101D200003DD0199A6EB0A060D444045ECDA464472
:101D30005C44E9E7BDE8FC8F10B5802815D2002986
:101D400013DB402911DAC317090100EB537301EBD0
:101D5000E30123F00703064CC31A80202144D84036
:101D6000002A0A7802D002430A7010BD8243FBE7C2
:101D7000741000202DE9F04F1C4600250F199146E4
:101D80008A468346561C0DE00BEB05008046514603
:101D9000099AFFF7D1FF39464046099AFFF7CCFF71
:101DA0006D1CEDB2B542EFDB00250BEB0906671C9D
:101DB0000EE000BF0AEB050421465846099AFFF7DA
:101DC000BBFF21463046099AFFF7B6FF6D1CEDB206
:101DD000BD42EFDBBDE8F08F2DE9F0411F46904694
:101DE0000C4605460B4E0EE03B4642462146FFF7A9
:101DF000BFFE287820280BD070680078142800D9FE
:101E0000E41C04446D1C28780028EDD1BDE8F08165
:101E1000241DF7E72C0000202DE9FC479A460546D3
:101E20000C461646DFF8508020E00A2818D01349E7
:101E3000DFF84C9032460F5C98F80010CDE9001A9C
:101E40001048114919F8073050F827000844214676
:101E5000FFF7DCFE19F80700641C04446D1C05E064
:101E600098F80000002406446D1C761C2878002891
:101E7000DBD1BDE8FC870000B3020020A4010020F4
:101E8000A402002068010020980000202DE9FC47F2
:101E9000984691460D46044616E0202812D00EF0D2
:101EA000FDFE0F210B4FCDE900180646B819BB5DAA
:101EB0004A462946401CFFF7D9FEB85D6D1C054413
:101EC000641C01E0641CED1C20780028E5D1BDE80D
:101ED000FC870000691A01082DE9F043CE188846F6
:101EE000C4B28718DDF81C900EE000BF08F0FF05B3
:101EF00006E04A4629462046FFF71EFF6D1CEDB25C
:101F0000AE42F6DC641CE4B2A742EFDCBDE8F0832D
:101F10002DE9F041DFF8348000250827002128460C
:101F20000DF010F908EB0514002620780DF0A0F84C
:101F30006078A41C0DF09CF8761CF6B2BE42F4D377
:101F40006D1CEDB2402DE8D3BDE8F0817410002087
:101F500010B501221103214800F0B1FE20200DF040
:101F600083F8012000F06EFD20200DF07DF80120A7
:101F700000F068FD06200DF077F8012000F062FD0A
:101F800020200DF071F80BF017FD012000F05AFD34
:101F900001200DF069F8322000F054FD26200DF0EC
:101FA00063F80BF009FD012000F04CFD0C200DF052
:101FB0005BF8012000F046FD0020FFF7A5FDFFF7CC
:101FC000A7FF322000F03EFD01200DF04DF8322039
:101FD00000F038FD03490248486010BD000C014084
:101FE000340000202C0000202DE9F04116460D465B
:101FF000074600240AF0CFFA80200AF0A9FA0AF076
:1020000001FB38780AF0A4FA0AF0FCFA06E0287816
:102010000AF09EFA0AF0F6FA641C6D1CB442F6D37C
:10202000BDE8F0410AF0D2BAF0B587B01821684691
:10203000FEF7F9FB80276E46182500240AF0ABFA5C
:1020400080200AF085FA0AF0DDFA38460AF080FAB4
:102050000AF0D8FA0AF0BAFA0AF09DFA81200AF0DA
:1020600077FA0AF0CFFA6F1EBC4204D101200AF0C1
:1020700031FA305506E000200AF02CFA3055641C85
:10208000AC42F1D30AF0A2FA1749BDF81600486233
:10209000BDF814000862BDF81200C861BDF8100058
:1020A0008861BDF80E004861BDF80C000861BDF8FC
:1020B0000A00C860BDF808008860BDF80600C0F3DB
:1020C0000B004860BDF80400C0F30B0008609DF8E9
:1020D000000081F82800002804D0002201F8292FF0
:1020E00001224A7007B0F0BDC429002070B501205C
:1020F00000F018F84FF4FA7000F0A4FC0122084D2B
:1021000054022146284600F0DAFD4FF47A7000F0C0
:1021100099FC21462846BDE87040002200F0CFBD62
:102120000018014002464FF48061014800F0C7BD2D
:10213000001801404FF480720149024802F055BD79
:1021400090270020940E00207CB5134C00201349EA
:102150006081A0814870C87088700871FF20087085
:10216000FFF7E8FFFFF7C2FF0D4D286DC2B2C0F3C5
:102170000721CDE90012C0F30743020E09A10C4864
:10218000FEF7F4F8B5F85420E28002B00849BDE843
:10219000704008A0FEF7DEB8BC020020100000204E
:1021A000F823002025642E25642E25642E25640046
:1021B000C228002047534D3E3E205365727665721B
:1021C00049503A2025730D0A506F72743A202564E5
:1021D0000000000070B500F023F84FF0004200232B
:1021E000FEF794F814461D46D00702D1641C43F153
:1021F0000005052200232046294607F0DFFF0128BD
:102200000AD0A41C45F100050522002320462946DA
:1022100007F0D4FF0028F4D02046294670BD000006
:1022200001480021704700006D99829D70470000B1
:10223000F8B50024009490F824202546012A12D0F5
:10224000012280F824204A681F23072A0DD206683D
:10225000776B521E02EB820293409F430B689340C0
:102260001F43776319E00220F8BD06680D2A0AD2E1
:10227000376BD21F02EB820293409F430B6893405F
:102280001F43376309E0F76A0D3A02EB820293407D
:102290009F430B6893401F43F7620A680723066851
:1022A0000A2A0AD3F7680A3A02EB420293409F4394
:1022B0008B6893401F43F76008E0376902EB4202E6
:1022C00093409F438B6893401F4337610A68102AED
:1022D00001D0112A20D1124B02689A4217D193687B
:1022E0001B0219D4936843F4000393600968102912
:1022F00012D10C490C4A0968B1FBF2F101EB8101E2
:10230000490000E0491E00910029FBD104E0816AE8
:1023100041F020018162012480F824502046F8BD5C
:10232000002401402800002040420F00704770B593
:102330000446006806684568A90625D5B10723D577
:10234000A16AC90603D4A16A41F40071A16281683F
:10235000C1F34241072910D1217B71B9416821F0B5
:1023600020014160A06A20F48070A062A06AC004CD
:1023700003D4A06A40F00100A0622046FFF7D6FF18
:1023800021686FF01200086028062ED570072CD542
:10239000A06AC00603D4A06A40F40050A06220687E
:1023A0008168C1F30231072909D04168490515D474
:1023B0008168C1F34241072910D1217B71B941687D
:1023C00021F080014160A06A20F48050A062A06AE0
:1023D000C00503D4A06A40F00100A0622046FFF7C8
:1023E00025FF21686FF00C00086068060CD5F00727
:1023F0000AD0A06A40F48030A062204600F096F82F
:1024000021686FF00100086070BD00002DE9F04107
:1024100004004FF000057FD0A06A002628B9E662CC
:1024200084F82460204600F083F82046FEF7E4FD9F
:10243000A16AC90600D420B1A06A40F01000A062D1
:102440006AE0A16A21F4885141F00201A162334996
:1024500023688B42E16904D1B1F5402F01D14FF4DB
:102460000021277B4FF4807C41EA470261680A43E0
:10247000A168614508D0012906D0002194F814E034
:10248000BEF1010F02D00AE06146F7E7C7B1A76AC3
:1024900047F02007A762E76A47F00107E7625F6835
:1024A00027F469470F435F60236899681C4F3940E0
:1024B00011439960A16861450BD0012909D00CE056
:1024C000DFF860E0A7690EEB47370F4347F4006180
:1024D000E5E7218A0D05A5F580152168CB6A23F46F
:1024E00070032B43CB62216889680F4B19409142DE
:1024F00008D1E662A16A21F0020141F00101A16266
:10250000BDE8F081A06A20F0020040F01000A06257
:10251000E06A40F00100E0620120F1E7003C014088
:10252000FDF7E1FF00E0FFFFFE0E1FFF7047000018
:1025300000B585B0002100910191029103910068DE
:10254000124988421FD11248816941F400718161AA
:10255000816901F400710491816941F01001816188
:102560008069694600F010000490032000900190FB
:10257000084800F0A3FA00221146122000F008FCDF
:10258000122000F0F7FB05B000BD00000024014060
:10259000001002400010014010B590F821100022F8
:1025A000022905D00421816380F82020012010BD7C
:1025B00001680B6823F00E030B6001680B6823F0C1
:1025C00001030B6090F84030C46B012101FA03F362
:1025D000636080F8211080F82020104610BD0000B4
:1025E0002DE9F05F90F821100024022903D0042186
:1025F0008163012485E001680A6822F00E020A6006
:1026000001680A6822F001020A603F4E3E4FB2158F
:10261000DFF8F4C0DFF8F090DFF8ECA0DFF8E8B006
:10262000DFF8E4E00168783F13011502ACF1640CB7
:10263000A9F15009AAF13C0AABF1280BAEF1140E36
:102640004FF48018B14227D9B9420ED0614512D05B
:1026500049451DD0514518D0594518D0714501D173
:10266000424615E0294EB14201D1012210E0274E29
:102670001436B14201D110220AE0244E2836B1426C
:1026800006D0224A3C32914201D11A4600E02A4645
:102690001E49091F0A602BE0B94213D0614517D0CB
:1026A000494522D051451DD059451DD0714501D114
:1026B00042461AE0B14202D14FF0807215E0134E4B
:1026C000B14201D1012210E0104E1436B14201D1C5
:1026D00010220AE00D4E2836B14206D00B4A3C3299
:1026E000914201D11A4600E02A46074980394A60E2
:1026F000012180F82110002180F82010416B01B1E8
:1027000088472046BDE8F09F800002400804024050
:102710002DE9F05FC16B0A6801680B68046C4FF02B
:10272000040808FA04F8844D844E854FDFF814C27B
:10273000DFF81492DFF814A2DFF814B2DFF814E225
:1027400018EA020F65D05FEA437862D50A689206FC
:1027500003D40A6822F004020A60DFF8F0814FF423
:102760008062016808F1140813011402414524D95C
:10277000A9420DD0B1420FD0B9421AD0614515D04F
:10278000494515D0514501D1120312E0594501D1F7
:1027900004220EE0714501D140220AE06D4D14354E
:1027A000A94206D06B4A2832914201D11A4600E074
:1027B00022466749091F0A6029E0A94213D0B142A5
:1027C00015D0B94220D061451BD049451BD0514599
:1027D00002D14FF4800217E0414502D14FF08062F0
:1027E00012E0594501D104220EE0714501D1402289
:1027F0000AE0584D1435A94206D0564A2832914273
:1028000001D11A4600E022464B4908394A60C16AA4
:1028100071E04FF0020808FA04F818EA020F70D0CD
:102820005FEA83786DD50A68920606D40A6822F0BA
:102830000A020A60012180F82110DFF810814FF4AC
:102840000072016808F1140813011402414524D9EB
:10285000A9420DD0B1420FD0B9421AD0614515D06E
:10286000494515D0514501D1120312E0594501D116
:1028700002220EE0714501D120220AE0354D1435C7
:10288000A94206D0334A2832914201D11A4600E0CB
:1028900022462F49091F0A6029E0A94213D0B142FC
:1028A00015D0B94220D061451BD049451BD05145B8
:1028B00002D14FF4001217E0414502D14FF00072EF
:1028C00012E0594501D102220EE0714501D12022CA
:1028D0000AE0204D1435A94206D01E4A2832914202
:1028E00001D11A4600E02246134908394A60002106
:1028F00080F82010816A00291CD0BDE8F05F0847ED
:10290000FFE70825A540154214D01A0712D50A681A
:1029100022F00E020A6090F84020C36B012101FAF8
:1029200002F25A60816380F82110002180F82010A3
:10293000016BE0E7BDE8F09F080002401C00024088
:102940003000024044000240580002406C00024047
:10295000080402401C04024030B560B11A4B026802
:1029600014219A4209D2194B1344B3FBF1F18900A7
:10297000016417490AE0012030BD134B5B42134448
:10298000B3FBF1F1890001640F490839C1630221E9
:1029900080F82110136843F6F0718B43F0E90114BD
:1029A0002143D0E902452C43214304692143446972
:1029B00021438469214319431160002141630122AD
:1029C00042770177084630BD08040240F8FFFDBF9A
:1029D0000000024070B5044690F820000025012850
:1029E0000CD0012084F8200094F821600020012EF2
:1029F00006D084F820000225284670BD022070BD54
:102A0000022684F82160A0632068066826F001068B
:102A100006602046FEF7F4FDE06A002820680168A1
:102A200002D041F00E0106E021F0040101602068AF
:102A3000016841F00A0101602068016841F001016C
:102A40000160D9E770B5044600F03EF90546601C08
:102A500002D004480078044400F036F9401BA0423C
:102A6000FAD370BD1C000020202804D0012801D119
:102A7000094908707047094A50689628FAD30849EE
:102A80000023486810B1401E486002D1044838381D
:102A90000370536070470000520400203804002087
:102AA00020290020044910B50A68024202D00860BB
:102AB000FFF7DAFF10BD0000140401402DE9F84FC4
:102AC000DFF8C8910024A9F1040B23460F2709F170
:102AD000040AABF1040ED1E00125A54006EA050287
:102AE000AA4276D1DFF8A8C14E68A6EB0C0866456D
:102AF0002BD00DDC032E34D005DC36B3012E19D0DB
:102B0000022E2FD11BE0112E16D0122E2AD119E041
:102B1000B8F5881F19D006DCB8F5803F15D0B8F598
:102B2000801F1FD111E0B8F5001F0ED0B8F5041FAB
:102B300018D10AE0CB6815E0CB681B1D12E0CB680A
:102B400008330FE0CB680C330CE08B682BB1012B02
:102B50004FF0080303D0456104E0042302E005615F
:102B600000E00023FF2A01D8064601E000F1040638
:102B70004FEA840501D9A5F12005D6F8008007FAAF
:102B800005FC28EA0C0803FA05F548EA0508C6F82A
:102B900000804D68ED0070D53E4DAE6946F00106EF
:102BA000AE61AD6924F0030605F0010500953A4DCC
:102BB00006EB050CDCF80850A607360F07FA06F8F6
:102BC00025EA0805DFF8D480404503D14FF000081E
:102BD00025E052E0DFF8C880404502D14FF00108FF
:102BE0001DE0DFF8C080404502D14FF0020816E03A
:102BF000DFF8B480404502D14FF003080FE0DFF862
:102C0000AC80404502D14FF0040808E0DFF8A08016
:102C1000404502D14FF0050801E04FF0060808FAE0
:102C200006F848EA0508CCF808804D68D9F8006035
:102C3000ED024D4601D5164300E096432E604D68E7
:102C4000DAF80060AD02554601D5164300E0964320
:102C50002E604D68DBF80060AD035D4601D516437C
:102C600000E096432E604D68DEF80060ED03754687
:102C700001D5164300E096432E60641C0A68164690
:102C8000E2407FF429AFBDE8F88F0000080401405E
:102C90000000111000100240000001400008014037
:102CA000000C0140001001400014014000180140D8
:102CB000001C01408068084000D0012070470AB124
:102CC000016170470904FBE7014880687047000014
:102CD0001C0000200248816802781144816070471E
:102CE0001C000020074810B5016841F01001016088
:102CF000032000F06DF80F2000F006F800F024F833
:102D0000002010BD0020024070B50D4D04464FF468
:102D10007A712878B1FBF0F00A490968B1FBF0F04C
:102D200001F0A9FC48B9102C07D200222146501E00
:102D300000F02EF800206C6070BD012070BD000016
:102D40001C00002028000020094808B5816941F0D6
:102D500001018161816901F001010091C16941F0C6
:102D60008051C161C06900F08050009008BD000032
:102D700000100240002809DB00F01F0201219140F1
:102D80004009800000F1E020C0F800117047000009
:102D9000F0B40E4B1B680C46C3F30223C3F10705C6
:102DA000042D00D90425191D072901D2002300E0B4
:102DB000DB1E012606FA05F1491E214099409E407E
:102DC000761E16403143F0BC0AF01AB90CED00E053
:102DD000064900F0070208684FF6FF03184040EA72
:102DE0000220034A10430860704700000CED00E029
:102DF0000000FA05014901200862704700000E42F8
:102E000010B501460020284C04292FD00BDC0129E5
:102E100030D0022929D100F06BF96168C1F381310A
:102E2000491C49001FE0082920D010291DD16168E4
:102E30002268D20119D51D48C1F38342C903805CC1
:102E40000AD56168194AC1F34041921E515C184A83
:102E5000B2FBF1F1484301E0164948436168490279
:102E600003D440000321B0FBF1F010BDBDE81040D9
:102E700000F04EB9226AC2F30121012903D1920761
:102E800001D5C80310BD022905D1626A920702D597
:102E900049F6404010BD0329FCD121688903F9D5CA
:102EA0004FF2244010BD0000001002402A17010814
:102EB00000127A0000093D002DE9F843054600782C
:102EC000354CC00754D0E0690026C00008D4E06942
:102ED00040F08050E061E069012600F080500090F1
:102EE0002E480168C90512D40168804641F48071FA
:102EF0000160FFF7E9FE074605E000BFFFF7E4FECB
:102F0000C01B642823D8D8F80000C005F6D5206A75
:102F100010F4407021D0A98801F4407181421CD086
:102F2000206A1F49012220F440700A6000220A60D2
:102F30002062C00711D0FFF7C7FE074641F288386C
:102F400008E000BFFFF7C0FEC11B414502D90320C6
:102F5000BDE8F883206A8007F4D5206A696820F408
:102F60004070084320621EB1E06920F08050E061AB
:102F70002878800705D56068A96820F44040084398
:102F800060602878C00605D56068696920F4800013
:102F9000084360600020DBE7001002400070004042
:102FA000400442422DE9F0470F46050061D0434EF0
:102FB000306800F00700B84209D2306820F00700FE
:102FC00038433060306800F00700B84251D12868BB
:102FD0003B4C810712D5400703D5606840F4E060A0
:102FE00060602878000703D5606840F46050606036
:102FF0006068A96820F0F000084360602878C00786
:1030000028D06868012810D02168022810D08907CC
:1030100000292EDA616821F0030101436160FFF7A6
:1030200053FE804641F288390DE021688903EFE7BD
:103030008901EDE7FFF748FEA0EB0801494502D9F9
:103040000320BDE8F0876068696800F00C00B0EB11
:10305000810FEFD1306800F00700B8420BD930681B
:1030600020F0070038433060306800F00700B842B5
:1030700001D00120E5E72878400705D56068E968B8
:1030800020F4E060084360602878000706D5606897
:10309000296920F4605040EAC100606000F038F80F
:1030A0006168084AC1F30311515CC84006490860D1
:1030B00006480068FFF728FE0020C2E70020024013
:1030C000001002403A1701082800002020000020CC
:1030D0000448054900684968044AC1F30221515C6B
:1030E000C840704728000020001002404A1701081D
:1030F0000448054900684968044AC1F3C221515C8B
:10310000C840704728000020001002404A170108FC
:103110000E4A51680E4801F00C03042B11D0082B05
:103120000FD10C48C1F38343C903C05C0AD5516871
:10313000084AC1F34041921E515C054A5043B0FB1E
:10314000F1F0704704494843704700000010024006
:1031500000127A001817010800093D002DE9F84F08
:10316000040070D02078C04DC00749D06868C0F313
:103170008100012807D06868C0F38100022809D1C6
:103180006868C00306D52868800339D560680028C0
:10319000E7D035E06068B0F5803F0BD010B1B0F5F6
:1031A000A02F11D0286820F480302860286820F4EF
:1031B000802002E0286840F480302860606890B188
:1031C000FFF782FD06460AE0286840F48020286068
:1031D000F0E700BFFFF778FD801B642873D82868EC
:1031E0008003F7D50CE0FFF76FFD064605E000BF52
:1031F000FFF76AFD801B6428F0D828688003F7D4A5
:1032000020789A4E80074FF001094FF0000839D519
:10321000686810F00C0F07D06868C0F381000228BE
:1032200009D16868C00306D42868800714D52069CE
:10323000012808D110E02069B0B1C6F80090FFF76E
:1032400043FD074605E00AE1FFF73EFDC01B0228EB
:10325000C4D828688007F7D52868616920F0F8008D
:1032600040EAC10028600DE0C6F80080FFF72CFDA1
:10327000074604E0FFF728FDC01B022823D8286872
:103280008007F7D4207800072CD57948A169D9B1F7
:10329000C0F80090FFF718FD074604E0FFF714FDA3
:1032A000C01B02280FD8686A8007F7D571484FF411
:1032B000FA510068B0FBF1F0009000BF0098411E89
:1032C0000091FAD20EE080E0C0F80080FFF7FCFC2D
:1032D000074604E0FFF7F8FCC01B022875D8686AAF
:1032E0008007F7D42078400760D5E8690027C00040
:1032F00008D4E86940F08050E861E869012700F0EF
:10330000805000905C480168C90513D40168834669
:1033100041F480710160FFF7D7FC824606E000BFF0
:10332000FFF7D2FCA0EB0A0064284ED8DBF80000BF
:10333000C005F5D5E06801280AD008B1052813D0EA
:10334000286A20F001002862286A20F0040002E0C8
:10335000286A40F001002862E06841F2883B98B199
:10336000FFF7B2FC82460BE0286A40F004002862B6
:10337000EEE700BFFFF7A8FCA0EB0A0159455AD8B9
:10338000286A8007F6D50CE0FFF79EFC824605E030
:10339000FFF79AFCA0EB0A0159454CD8286A800730
:1033A000F6D41FB1E86920F08050E861E06988B385
:1033B0006968C1F38101022944D00228C6F86080FF
:1033C00004D0FFF781FC044638E034E0FFF77CFCD2
:1033D000074604E0FFF778FCC01B02282BD82868BA
:1033E0008001F7D4206AB0F5803F05D16868A168F4
:1033F00020F4003008436860D4E908010843696894
:1034000021F4741108436860C6F86090FFF75CFC13
:10341000044606E025E000BFFFF756FC001B02282B
:1034200009D828688001F7D51BE000BFFFF74CFCE6
:10343000001B022802D90320BDE8F88F286880010C
:10344000F4D40EE00128F7D06868226A00F48031D5
:10345000914204D1616A00F47010884201D00120C9
:10346000EAE70020E8E700000010024000004242C6
:10347000800442422800002000700040024850F8BA
:10348000210080B270470000006C0040024800EB51
:10349000810091B201607047006C00400448012136
:1034A00001704178491C41708168491C81607047F6
:1034B00000000020704710B5044600680168C90785
:1034C00017D04168C90714D040684007204607D587
:1034D000FFF7F0FF21686FF004004860042002E06D
:1034E000FFF7DCFF012060742068416821F00101D2
:1034F000416010BD80B1017C01290FD00121017410
:10350000022242740268136843F00103136041749D
:10351000002101740846704701207047022070475F
:1035200070B5040003D0607C002610B105E00120D6
:1035300070BD2674204600F03DF8022060742046DD
:1035400000F00AF9042550BB204607F0F9F930BB1A
:103550002068416821F007014160A06820B114484B
:10356000016821F0010101601148001F0168A26893
:1035700021F46071114301606068411C04D1012095
:10358000FFF73EFC58B1401E2268C0F30341916032
:10359000216880B2C860204607F0ECF908B1657474
:1035A000C5E7E67301206073A0736074002070BDEE
:1035B000306C004008B50068084988420DD1FFF71B
:1035C00019FC0748C16941F00061C161C069054942
:1035D00000F0006000900120086008BD0028004055
:1035E000001002403C0442422DE9F0410D46040027
:1035F0003BD0C5B3207C01283AD04FF0010884F8B5
:10360000108002206074E87872B307F090F9E073DC
:10361000687807F08CF96073A87807F088F9A073D0
:10362000C2B2617BE07B07F0EEF920732870204680
:1036300007F0D9F94FF46161B0FBF1F100251829C9
:103640002DD91822B1FBF2F1A1EB011101EB4101DF
:10365000C1EB011100EBC1163146204607F076FAA6
:103660000427C8B90BE000E004E00120BDE8F081C8
:103670000220FBE7E07368786073A878CFE7204604
:1036800007F09AF9411C0AD0B04208D20649014419
:10369000204607F00EFA10B167742574E5E784F848
:1036A000118025740020E1E7805101002DE9F041EF
:1036B0000D46040024D01DB3207C012823D04FF0F8
:1036C000010884F81080022060742878EAB107F0BD
:1036D0002EF94FF4616100FB01F6687807F027F9D5
:1036E000C0EB001006EB8006A87807F020F935182B
:1036F0002946204607F02AFA0026042710BB0FE0CF
:103700000120BDE8F0810220FBE74FF461614843EE
:103710006978C1EB011100EB8100A9784518E7E752
:103720002068416821F005014160204607F044F916
:10373000411C0AD0A84208D206490144204607F09D
:10374000B8F910B167742674DAE784F8118026742A
:103750000020D6E78051010070B504000AD020682F
:10376000416821F008014160FFF7AEFA05464FF4C9
:103770007A7608E0012070BDFFF7A6FA401BB04240
:1037800001D9032070BD206840680007F4D50020EF
:1037900070BD10B5FDF7AFFC10BD7047F0B5426EBF
:1037A000920F0A70426EC2F383624A70426EC2F395
:1037B00001628A70426E120CCA70B0F86420120A5C
:1037C0000A7190F864204A71826E120DCA80826E6E
:1037D000C2F303420A72B0F86820C2F3C0324A72E0
:1037E000B0F86820C2F380328A72B0F86820C2F361
:1037F0004032CA72B0F86820C2F300320A73002661
:103800004E73426C4FF40075012462B1012A3AD024
:10381000026847499163816B41F08051816380F870
:1038200034400120F0BDB0F86820C36E9205120D3F
:1038300042EA93720A61C26EC2F3C2620A75C26E34
:10384000C2F302624A75C26EC2F342528A75C26EF8
:10385000C2F38242CA75C26EC2F3C2320A760A69E4
:10386000521C42650B7E03F007039B1C9A40426585
:103870000B7A03F00F0704FA07F383655B0A5A43D8
:10388000C0E917250EE090F86820C36E9206920AF0
:1038900042EA13420A610A69521C92024265C0E977
:1038A0001652056630F86C2FC2F3803201F8192FDA
:1038B0000288C2F3C6124A70027802F07F028A7050
:1038C0004268D20FCA704268C2F341720A714268FC
:1038D000C2F382624A714268C2F383528A714268BB
:1038E000C2F34052CA710E724268C2F300424A7279
:1038F0008288C2F3C0328A728288C2F38032CA726E
:103900008288C2F340320A738288C2F300324A735B
:103910008288C2F381228A738288C2F30122CA7329
:103920000079C0F3460008744C740020F0BD00001C
:10393000FF054000426C0A60826C4A60C26C8A607B
:10394000026DCA60426D0A61826D4A61C26D8A6110
:10395000006EC8610020704770B50446B0F8500092
:1039600000250104206807F040FB18B1A16B01435A
:10397000A16304E00021206807F0FAF90546C5F3C9
:10398000432070BDF8B5056B04460068416B09041F
:103990001BD5290719D5D4E90A56002E14D00027C3
:1039A000206807F005FA05F8010B010A05F8011B6C
:1039B000010C05F8021B000E361F7F1C05F8010CD8
:1039C000082FEDD3C4E90A56F8BD416B4FF000064D
:1039D000C9054FF0010744D5390281632068C16BE6
:1039E0004CF23A129143C1632068C16A21F001018F
:1039F000C16228071DD515F0220F09D0206807F0F5
:103A000025FB28B1A16B0143A1632046FFF7C5FE4A
:103A1000216840F23A50886384F834702663A8071E
:103A200003D0204600F03AFAF8BD204600F03AFAFA
:103A3000F8BD2806FCD5A80609D5206807F006FBC6
:103A400028B1A16B0143A1632046FFF7A6FEA8079A
:103A5000EED12068C16A21F00801C16284F8347097
:103A6000E3E7416B490424D5290722D5D4E9085658
:103A7000002EDDD05FF0000715F8010B009015F85F
:103A8000011B361F40EA0120009015F8021B40EA96
:103A90000140009015F8011C40EA01600090694661
:103AA000206807F098F97F1C082FE5D3C4E9085671
:103AB000F8BD416B11F03A0FFAD0416B890703D57D
:103AC000A16B41F00201A163416B090703D5A16B12
:103AD00041F00801A163416B890603D5A16B41F058
:103AE0002001A163416BC90603D5A16B41F0100110
:103AF000A16340F23A7181632068C16B40F23A32AF
:103B00009143C163206807F0A1FAA16B0843A06349
:103B1000280706D584F8347026632046FFF73DFE5B
:103B2000F8BD2806FCD515F0300F0CD0E16B11481C
:103B30004863E06BFEF754FD0028F1D0E06BBDE870
:103B4000F84007F03BBCA8070CD0216C0A4848633A
:103B5000206CFEF745FD0028E2D0206CBDE8F8405F
:103B600007F00ABCA66384F8347026632046FFF78A
:103B700010FEF8BDBDB3000879B3000870B50400AD
:103B80000ED094F83400002518B92577204600F0AF
:103B90004FF8032084F83400204600F00BF808B1F9
:103BA000012070BDA5632563012084F83400002046
:103BB00070BD0000FEB50025044676200095CDE9D5
:103BC000015029460B460A46206807F0DBF848BB3F
:103BD000154E46F8A05F206807F0E6F8012535602D
:103BE0000220FEF72FFF204607F082FC30B100BF15
:103BF00084F83450A16B0143A16313E0204607F021
:103C0000FFFB0028F4D14FF40071206807F01CF985
:103C1000002808D0226805499163A16B0143A16384
:103C200084F834500120FEBD00003042FF05400002
:103C300030B585B000210091019102910391006897
:103C40001C49884233D11C48416941F4806141617B
:103C5000416901F480610491816941F01001816141
:103C6000816901F010010491816941F020018161B5
:103C70008069022400F0200004904FF4F850CDE950
:103C800000040325694603950C48FEF717FF04203E
:103C9000CDE90004694603950948FEF70FFF0022AD
:103CA00011463120FFF774F83120FFF763F805B0B3
:103CB00030BD0000008001400010024000100140B3
:103CC000001401402DE9F04F87B09B4616460D4683
:103CD0000446FEF7F9FF00903DB194F83400012846
:103CE00007D0A06B40F000500DE0A06B40F00060EA
:103CF00009E00020A063E26D06EB0B01914204D9BC
:103D0000A06B40F00070A06386E0032184F83410BB
:103D10002168C862616C012900D076024FF0FF3142
:103D200001914FEA4B2102914FF0010803AA902123
:103D300002278146CDF8188082E8820201A9206816
:103D400007F000F8BBF1010F05D927633146206861
:103D500007F0D4F805E0C4F830803146206807F059
:103D6000E6F8DFF834A130B12268C2F838A0A16BC0
:103D70000143A1634CE0029E1EE0406B000413D59A
:103D800096B10027206807F013F805F8010B010A27
:103D900005F8011B010C05F8021B000E361F7F1CE5
:103DA00005F8010C082FEDD3FEF78EFF0099411A9C
:103DB000109881421DD2E0B12068426B40F22A3156
:103DC0000A42DAD0416BC90509D5BBF1010F06D90A
:103DD000616C032903D007F039F90028C4D12068A9
:103DE000416B09071AD5C0F838A0A06B40F0080055
:103DF00050E02168C1F838A0A06B40F00040A063FB
:103E000084F83480C4F83090032007B0BDE8F08F08
:103E100084F83480C4F830900120F6E7416B8907BC
:103E200005D5C0F838A0A06B40F0020032E0416B2D
:103E300089061BD5C0F838A0A06B40F0200029E00F
:103E400006F0B6FF05F8010B010A05F8011B010C8D
:103E500005F8021B000E05F8010C361FFEF734FFB3
:103E60000099411A109881420ED268B12068416BC6
:103E7000890201D5002EE3D1216840F23A508863CF
:103E800084F834800020C0E72168C1F838A0A06B16
:103E900040F00040A063BBE7FF05400010B5FDF710
:103EA00063F910BD10B5FDF771F910BD2DE9F04FA4
:103EB0008DB09B4616460D460446FEF705FF0A9058
:103EC0003DB194F83400012807D0A06B40F00050B9
:103ED0000DE0A06B40F0006009E00020A063E26DFF
:103EE00006EB0B01914204D9A06B40F00070A06377
:103EF0007AE0032184F834102168C862616C0129DA
:103F000000D076024FF0FF3103914FEA4B2104912C
:103F10009021CDE905104FF00109CDE9070982464E
:103F200003A9206806F00EFFBBF1010F06D920207F
:103F300020633146206807F0A3F805E010202063D5
:103F40003146206807F0B5F85FEA000806D021681E
:103F500040488863A06B40EA080071E0049E27E0B7
:103F6000406B40041CD5DEB15FF0000715F8010B73
:103F7000009015F8011B361F40EA0120009015F84B
:103F8000021B40EA0140009015F8011C40EA016064
:103F900000906946206806F01EFF7F1C082FE5D3BD
:103FA000FEF792FE0A99411A1698814220D2F8B182
:103FB0002068416B40F21A321142D1D0416BC905E1
:103FC00023D5BBF1010F20D9616C03291DD007F067
:103FD0003DF8D0B122681F499163A16B0143A163F1
:103FE00084F83490C4F830A001200DB0BDE8F08F03
:103FF000216818488863A06B40EA0800A06384F831
:104000003490C4F830A00320EFE72068416B090723
:1040100005D510498163A06B40F0080010E0416BAA
:10402000890705D50B498163A06B40F0020007E0CA
:10403000416BC90606D507498163A06B40F01000AB
:10404000A063CDE740F23A51816384F834900020B8
:10405000CBE70000FF05400070B5040009D0606A9E
:10406000002540B125616561A56294F8510040B119
:104070000CE0012070BD6068B0F5827FF4D0E5618E
:10408000F2E784F85050204600F040F8022084F80F
:1040900051002068016821F040010160A088218959
:1040A00000F4827001F404410843A18901F4006125
:1040B0000843217C01F002010843217D01F0010148
:1040C0000843218B01F400710843217F01F038017E
:1040D000084394F8201001F080010843218D01F479
:1040E0000051084321680860A069042101EA1040DA
:1040F000216848602068C16921F40061C16165657B
:10410000012084F85100002070BD000030B585B05A
:1041100000240094019402940394254D03682548DB
:1041200002210322AB421AD1836943F48053836195
:10413000836903F480530493836943F00403836128
:1041400080691D4D00F004000490A020CDE900011D
:10415000039269462846FEF7B1FC40201EE0174D49
:10416000AB4222D1C36943F48043C361C36903F402
:1041700080430493836943F0080383618069104D91
:1041800000F0080004904FF42040CDE900010392B4
:1041900069462846FEF792FC4FF48040CDE90004C2
:1041A000694628460294FEF789FC05B030BD000040
:1041B000003001400010024000080140003800407B
:1041C000000C01402DE9F84F044690F85100984644
:1041D00016460F460025012801D0022598E06068A8
:1041E0004FF0040BB0F5827F01D1A068F8B194F8CC
:1041F0005000012826D04FF0010984F85090FEF7B6
:1042000063FD8246002F7FD0002E7DD084F851B010
:1042100000206065A763A687E6872063A086E08606
:1042200020646064A068B0F5004F0DD016E084F8FB
:1042300051B013460A462046CDF8008000F024F91C
:10424000BDE8F88F0220FBE72068016821F04001FB
:1042500001602068016821F48041016020680168E4
:10426000490603D4016841F040010160E068D8B11B
:104270003BE020688168C90709D0007BA16B08700A
:10428000A06B401CA063E08F401EE0870CE0FEF7AF
:104290001BFDA0EB0A01414503D3B8F1FF3F03D05A
:1042A00006E0B8F1000F03D0E08F0028E1D11FE055
:1042B00003252BE020688168C90709D0C068A16B7D
:1042C0000880A06B801CA063E08F401EE0870CE09C
:1042D000FEF7FAFCA0EB0A01414503D3B8F1FF3F1A
:1042E00003D0E5E7B8F1000FE2D0E08F0028E1D17C
:1042F00052464146204607F0D9F908B120206065B2
:10430000606D00E000E008B1012501E084F8519003
:10431000002084F85000284692E72DE9F84F044623
:1043200090F850000026984615468A4601280CD081
:10433000012784F85070FEF7C7FC814694F85100BD
:10434000B346012804D002269AE00220BDE8F88F87
:10435000BAF1000F6FD0002D6DD0032084F851000A
:10436000C4F854B0C4F830A0A586E586C4F838B0C7
:10437000A4F83CB0A4F83EB0C4F844B0C4F840B0CF
:10438000A068B0F5004F09D12068016821F0400114
:1043900001602068016841F4804101602068016883
:1043A000490603D4016841F040010160E068B0F5BE
:1043B000006F606803D058B3012D29D049E008B1DF
:1043C000012D1FD1206B21680088C86006E020689D
:1043D0008168890709D5216B0988C160206B801C21
:1043E0002063E08E401EE0860CE0FEF76DFCA0EB43
:1043F0000901414503D3B8F1FF3F03D006E0B8F10E
:10440000000F03D0E08E0028E1D125E0032635E03F
:10441000206B21680078087306E0206881688907AE
:104420000AD5216B09780173206B401C2063E08E54
:10443000401EE0860DE01FE0FEF746FCA0EB090100
:10444000414503D3B8F1FF3F03D0DFE7B8F1000FD8
:10445000DCD0E08E0028E0D14A464146204607F0F5
:1044600053F908B120206065A06818B92068C168B8
:1044700080680090606D08B1012601E084F85170F9
:1044800084F850B0304661E72DE9FF4F81B0044613
:1044900090F8500000260E9F1D4693464FF00109EC
:1044A00001280FD04FF0010A84F850A0FEF70CFC51
:1044B000804694F85100616801280DD0B1F5827FE3
:1044C00008D103E0022005B0BDE8F08FA16809B96A
:1044D000042801D00226C9E00298002865D0BBF16B
:1044E000000FFBD0002DF9D094F85100042802D021
:1044F000052084F8510000206065C4F838B0E587D5
:10450000A58702992163E586A586206460642068FA
:104510000168490603D4016841F040010160E06888
:10452000B0F5006F606803D0F0B3012D47D081E093
:1045300008B1012D3CD1206B21680088C860206B38
:10454000801C2063E08E401EE08631E02068816898
:1045500089070FD5E18E69B1B9F1010F0AD1216B3D
:104560000988C160206B801C2063E08E401EE086BD
:104570004FF0000920688168C9070CD0E18F51B164
:10458000C068A16B0880A06B801CA063E08F401EF8
:10459000E0874FF00109FEF797FBA0EB0800B84257
:1045A00006D3781C04D001E009E05BE003265BE061
:1045B000E08E0028CAD1E08F0028C7D140E0206BF0
:1045C000216800780873206B401C2063E08E401E39
:1045D000E0862FE02068816889070FD5E18E69B1F8
:1045E000B9F1010F0AD1216B09780173206B401CCE
:1045F0002063E08E401EE0864FF00009206881684D
:10460000C9070CD0E18F51B1C068A16B0870A06BD5
:10461000401CA063E08F401EE0874FF00109FEF7C9
:1046200053FBA0EB0800B84202D3781C02D0BAE7D3
:10463000002FB8D0E08E0028CCD1E08F0028C9D15F
:1046400042463946204607F05FF818B1012620207F
:1046500060650BE0A06818B92068C16880680090A8
:10466000606D08B1012601E084F851A0002084F8B3
:104670005000304627E710B5401EB0F1807F01D3CF
:10468000012010BD4FF0E02460610F21601708F099
:10469000B7FC0020A06107202061002010BD7047FA
:1046A0007047000070B590F83C20012A2CD00124FE
:1046B00080F83C40022280F83D2003685A689D68DB
:1046C00022F070060A6832435A60104B02689A4220
:1046D0000ED00F4B9A420BD0B2F1804F08D00D4B49
:1046E0009A4205D00C4B9A4202D00C4B9A4204D10C
:1046F000496825F080031943916080F83D4000210E
:1047000080F83C10084670BD022070BD002C0140AE
:10471000003401400004004000080040000C00404C
:1047200010B5040003D094F83D0010B107E001205B
:1047300010BD002084F83C00204600F01FF8022045
:1047400084F83D00211D206807F0C6FD012084F893
:10475000460084F83E0084F83F0084F8400084F866
:10476000410084F8420084F8430084F8440084F84F
:10477000450084F83D00002010BD000008B5114A36
:1047800001681148914211D1C16941F00201C16132
:10479000C069002200F0020000900B211D20FEF7EE
:1047A000F7FABDE808401D20FEF7E4BA074A914237
:1047B00007D1C16941F01001C161C06900F010006A
:1047C000009008BD000400400010024000100040AE
:1047D00090F83D10012901D001207047022180F896
:1047E0003D100168CA6842F00102CA6000680E49C3
:1047F00088420ED00D4988420BD0B0F1804F08D0CE
:104800000B49884205D00B49884202D00A498842A8
:1048100004D1816801F00701062903D0016841F045
:104820000101016000207047002C0140003401406C
:104830000004004000080040000C004070B5044631
:1048400090F83C000025012817D0012684F83C6030
:10485000022084F83D002068826822F0770222F46A
:104860007F4282600868502838D00DDC20284FD065
:1048700005DC90B3102811D14AE0022070BD302829
:1048800046D040280AD13BE060282FD070280DD0B8
:10489000B0F5805F03D0B0F5005F12D0012584F839
:1048A0003D60002084F83C00284670BDCB68D1E90B
:1048B0000121206807F056FD2068816841F07701EA
:1048C00009E0CB68D1E90121206807F04BFD2068A1
:1048D000816841F480418160E1E719E0CA68496874
:1048E000206807F051FD5021206806E0CA68496839
:1048F000206807F05AFD6021206807F03DFDCEE7F3
:10490000CA684968206807F03FFD40212068F4E745
:10491000226801461046F0E7704770B5044600680B
:1049200001694FF00005C943890715D4C168C9431F
:10493000890711D4E91E0161012020772068806970
:104940008007204602D0FFF7E7FF04E000F098F868
:10495000204600F096F8257720680169C943490789
:1049600017D4C168C943490713D46FF0040101612A
:10497000022020772068806910F4407F204602D012
:10498000FFF7CAFF04E000F07BF8204600F079F85A
:10499000257720680169C943090716D4C168C9434E
:1049A000090712D46FF00801016104202077206804
:1049B000C0698007204602D0FFF7AEFF04E000F098
:1049C0005FF8204600F05DF8257720680169C9434B
:1049D000C90617D4C168C943C90613D46FF01001C2
:1049E0000161082020772068C06910F4407F2046CC
:1049F00002D0FFF791FF04E000F042F8204600F0FB
:104A000040F8257720680169C943C90708D1C16802
:104A1000C943C90704D1891E0161204600F032F85C
:104A200020680169C943090609D4C168C943090658
:104A300005D46FF0800101612046FFF730FE206849
:104A40000169C943490609D4C168C943490605D467
:104A50006FF040010161204600F0C6F8206801694E
:104A6000C94389060BD4C168C943890607D46FF0CE
:104A7000200101612046BDE87040FFF711BE70BD06
:104A80007047704770B54C490068096888427DD10D
:104A90004A4890F829101E2902D2491C80F8291092
:104AA000C9B21D2902D1022180F82A104449486860
:104AB00040B1401E4860012804D10022082141482D
:104AC000FEF7FDF840490868B0F5801F01D2401C90
:104AD00008603E494FF6FF720888904201D2401CA0
:104AE00008803B48007808B90AF00CFA394C0025D8
:104AF0002078E0B1A1682069374EB0FBF1F201FBEC
:104B000012006168884201D2012200E00022802167
:104B10003046FEF7D4F82069401C2061E1688842E5
:104B200005D32570002280213046FEF7C8F82B4CB3
:104B30002B4E2078D8B1A1682069B0FBF1F201FBBF
:104B400012006168884201D2012200E000220421A3
:104B50003046FEF7B4F82069401C2061E1688842C5
:104B600005D32570002204213046FEF7A8F81D4C1D
:104B7000207800281ED0A1682069B0FBF1F201FB6B
:104B800012006168884202D2012201E012E0002294
:104B900002213046FEF793F82069401C2061E1684D
:104BA000884207D325703046BDE8704000220221BC
:104BB000FEF785B870BD0000BC0D0020C4290020A0
:104BC00000000020001001403C040020C002002032
:104BD000720400202C2900200018014040290020E8
:104BE000000C014054290020704738B5044690F865
:104BF0004200202801D0022038BD61B15AB1012005
:104C0000206300206063204607F01CFF0028F3D1DA
:104C1000216B012901D0012038BD21680A6849684B
:104C2000009121680C3151E8002F42F0100241E858
:104C30000023002BF5D138BD2DE9F0410D462F4959
:104C40000746006809682E4C4FF4807888420DD1E1
:104C50002C492A46A1F5057009F04DFA424629492A
:104C60002648FFF7C2FF6068401C6060264938682C
:104C7000096888421BD12088258006B24246234914
:104C80002148FFF7B2FF218820488E4203DA891BB2
:104C90008AB2811908E0C6F580718AB281191C4870
:104CA00000F01EFB22881949194800F019FB184929
:104CB0003868096888421ED1164E42461649308827
:104CC000358004B21248FFF790FF318812488C42B9
:104CD00003DA091B8AB2011908E0C4F580718AB2AF
:104CE0000119094800F0FCFA32880B49BDE8F0418F
:104CF000054800F0F5BABDE8F08100004C0E002038
:104D000090000020F41E0020040E0020E01B002074
:104D1000940E0020C8020020902700207047000059
:104D2000F8B5016804460868CA684B6910F00F0FAF
:104D30004FF0000559D003F0010602F49077374395
:104D400065D0C10705D0D10503D5616C41F00101E3
:104D50006164410705D5D90703D0616C41F00201B8
:104D60006164810705D5D90703D0616C41F0040166
:104D70006164010707D502F02001314303D0616C63
:104D800041F008016164616C00293AD0800604D5C5
:104D9000900602D5204607F097FD20684069616CB7
:104DA000C0F38010090700D460B3204607F057FD18
:104DB00020684069400621D52068143050E8001F63
:104DC00021F0400140E80012002AF5D1E06BA8B1C3
:104DD0006D494163E06BFDF703FC002811D0E06BE7
:104DE000416B01B0BDE8F040084783060FD593063C
:104DF0000DD52046BDE8F84007F066BD2046FFF718
:104E00008DFFF8BD2046FFF789FF6564F8BD266B6E
:104E10002023012E7CD1C6067AD5D60678D508681F
:104E20004868009048694FF00206400640D5E16BA3
:104E3000086840680004000CE8D0A28D8242E5D9E1
:104E4000E085886920282DD020680C3050E8001FAC
:104E500021F4807140E80012002AF5D12068143056
:104E600050E8001F21F0010140E80012002AF5D1AE
:104E70002068143050E8001F21F0400140E8001283
:104E8000002AF5D184F84230256320680C3050E8C0
:104E9000001F21F0100140E80012002AF5D1E06B5C
:104EA000FDF77AFB6663A08DE18D401A81B22AE09E
:104EB000A08DE18D401A81B2E08D0028A6D0002996
:104EC000A4D022680C3252E8000F20F4907042E81F
:104ED0000007002FF5D12068143050E8002F22F091
:104EE000010240E80027002FF5D184F84230256305
:104EF00020680C3050E8002F22F0100240E8002318
:104F0000002BF5D166632046FFF796FEF8BDFFE75C
:104F100005062BD5150629D594F841002128F5D191
:104F2000A068B0F5805F01D12069B0B1206A411C52
:104F30002162216800784860E08C401E0004000C6B
:104F4000E084E3D12068C16821F08001C16020685D
:104F5000C16841F04001C160D8E7206A0088C0F311
:104F600008004860206A801C2062E5E74006CDD535
:104F70005006CBD5CA68204622F04002CA6084F8A9
:104F8000413000F0E9F9C1E715C7000870B5040029
:104F900004D094F84100002510B106E0012070BD56
:104FA00084F84050204600F023F8242084F8410083
:104FB0002068C16821F40051C160204607F0E6FC7A
:104FC0002068016921F4904101612068416921F064
:104FD0002A0141612068C16841F40051C1606564E3
:104FE000202084F8410084F842006563002070BDF1
:104FF0002DE9F04786B000250095019502950395AF
:105000000446DFF80882D0F800C08148022103225C
:10501000804B102680274FF480694FF0200AC4454A
:105020004FD1D0F818C04CF4804CC0F818C0D0F85C
:1050300018C00CF4804CCDF810C0D0F818C04CF05B
:10504000040CC0F818C08069039200F004000490BA
:105050000802CDE90001694698461846FDF72EFD85
:10506000CDE90095694640460295FDF727FDDFF83A
:10507000AC8169494046B946C0E90015C0E902570C
:10508000C8F81050C8E9055AC8F81C50FDF764FC70
:1050900008B1FCF7EDFB6048614FC4F83C80143860
:1050A000C8F824403860C7E90165C7E903957D6108
:1050B000BD613846FD61A1E0A7637C6206B0BDE832
:1050C000F087DFF86081C4454ED1D0F81CC04CF4A5
:1050D000003CC0F81CC0D0F81CC00CF4003CCDF85B
:1050E00010C0D0F818C04CF0040CC0F818C080698B
:1050F000039200F0040004900420CDE90001694609
:1051000098461846FDF7DAFC0820CDE90005694607
:1051100040460295FDF7D2FCDFF80C813E4940463F
:105120001431C0E90015C0E90257C8F81050C8F89A
:105130001450C8F81850B946C8F81C50FDF70CFCBC
:1051400008B1FCF795FB3448384FC4F83C80283050
:10515000C8F824403860C7E90165C7E903957D6157
:10516000BD613846FD6149E0314B9C45A6D1C3691C
:1051700043F48023C361C36903F4802304938369E8
:1051800043F0080383618069CDE9009100F00800D5
:10519000CDE90320DFF89C8069464046FDF78EFC90
:1051A0004FF40060CDE90005694640460295FDF7E1
:1051B00085FCDFF88480184940462839C0E900158D
:1051C000C0E90257C8F81050C8E9055AB946C8F8EE
:1051D0001C50FDF7C1FB08B1FCF74AFB0E48174F06
:1051E000C4F83C803C38C8F824403860C7E9016501
:1051F000C7E903957D61BD613846FD61FDF7ACFBF4
:1052000000283FF459AFFCF733FB55E70038014065
:10521000001002400008014058000240DC0E00204F
:10522000200F002000440040640F0020A80F002041
:1052300000480040000C0140EC0F0020301000201E
:10524000704770472DE9F843044690F841001F4627
:1052500016460D46202802D00220BDE8F8837DB115
:1052600076B100206064212084F84100FDF72CFD18
:10527000A6848046E684A068B0F5805F02D003E093
:105280000120EAE7206910B12E4600250EE0002635
:105290000CE08021204607F01DFCA0B9AEB116F845
:1052A000010B21684860E08C401EE084E08C43469E
:1052B0004FF0000200970028EBD14FF0400120464C
:1052C00007F008FC30B10320C7E735F8020BC0F344
:1052D0000800E6E7202084F841000020BDE7000038
:1052E00070B5044690F84100202801D0022070BD1E
:1052F00049B342B32162A284E28400206064212386
:1053000084F84130A56B114BAB62A56B104BEB627F
:10531000A56B104B2B63A36B5863256813462A1D9E
:10532000A06BFDF757FB21686FF040000860206814
:10533000143050E8001F41F0800140E80012002ABC
:10534000F5D1002070BD012070BD000013C8000819
:1053500055C8000825C7000870477047FEE70000E1
:1053600010B505F055FC4FF4FA639C102246FA2163
:10537000094800F08FFA084840F6B8332246FA216F
:10538000143000F087FAE30022460348FA21BDE812
:105390001040283000F07EBA2C2900200149086016
:1053A00070470000CC0B002010B50020064B0146D2
:1053B000802203F5487400BF43F820102254401C9B
:1053C000C828F9D310BD00007414002070B50D4634
:1053D0000446FCF7FFFEC4E90001FCF7FBFEC4E94C
:1053E00002012046FBF762FF401C04D00249002066
:1053F00041F82500012070BD741400207CB51446CE
:10540000421E1D46CDE9000141F1FF3320462946E9
:1054100007F054FD80F00100084301D000207CBD5E
:1054200001207CBD38B580218DF800100A4D8DF823
:1054300001004C01002221462846FDF740FC1423C0
:10544000022269460548FEF768FF012221462846E8
:10545000FDF735FC38BD0000000C01401C0D00209C
:1054600038B5010A8DF800100A4D8DF801004FF48F
:105470008054002221462846FDF721FC14230222F5
:1054800069460548FEF749FF012221462846FDF7F7
:1054900016FC38BD000C01401C0D00207CB54020DE
:1054A00084010E4D8DF80400002221462846FDF7A8
:1054B00006FC0223012201A90948FEF72EFF14234E
:1054C000012269460648FEF77DFE01222146284654
:1054D000FDF7F5FB9DF800007CBD0000000C0140CD
:1054E0001C0D002038B500218DF800100A4D8DF8F4
:1054F00001000A464FF4805421462846FDF7DFFBA1
:105500001423022269460548FEF707FF01222146BF
:105510002846FDF7D4FB38BD000C01401C0D0020CF
:1055200010B58820FFF77EFF0A20FFF7DBFF32204F
:10553000FDF788FA8920FFF775FF0120FFF7D2FFFA
:105540003220FDF77FFABDE8104001A0FAF702BF54
:105550004C434420504C4C5F696E696E740D0A00D8
:1055600070B505460C464620FFF75CFFE8B2FFF732
:10557000B9FF4720FFF756FF280AFFF7B3FF48207F
:10558000FFF750FFE0B2FFF7ADFF4920FFF74AFFFA
:10559000200ABDE87040FFF7A5BF00007CB5C02021
:1055A0000E4D8DF804004FF4805400222146284609
:1055B000FDF785FB1423012201A90948FEF7ADFE82
:1055C0001423012269460648FEF7FCFD012221460C
:1055D0002846FDF774FB9DF800007CBD000C0140DF
:1055E0001C0D002010B5FFF79BFF1020FFF71AFFDE
:1055F0000220FFF777FF0A20FDF724FA56A0FAF7FA
:10560000A9FE0420FFF70EFF8220FFF76BFF0A20A0
:10561000FDF718FA1420FFF705FF6320FFF762FF7C
:105620001520FFF7FFFE0020FFF75CFF1620FFF7B5
:10563000F9FE0320FFF756FF1720FFF7F3FE0320C4
:10564000FFF750FF1820FFF7EDFE0B20FFF74AFF92
:105650001920FFF7E7FEDF20FFF744FF1A20FFF7CE
:10566000E1FE0120FFF73EFF1B20FFF7DBFE2020BD
:10567000FFF738FF1C20FFF7D5FE0020FFF732FFB1
:105680001D20FFF7CFFE1620FFF72CFF1E20FFF78F
:10569000C9FE0020FFF726FF1F20FFF7C3FE0120F1
:1056A000FFF720FF3020FFF7BDFE0020FFF71AFFB5
:1056B0003120FFF7B7FE0020FFF714FF3420FFF77B
:1056C000B1FE1F20FFF70EFF3520FFF7ABFE0320D2
:1056D000FFF708FF3220FFF7A5FE0020FFF702FFCB
:1056E0003320FFF79FFE0020FFF7FCFE3620FFF778
:1056F00099FEDF20FFF7F6FE3720FFF793FE01202B
:10570000FFF7F0FE002000F037F88A20FFF78AFE4E
:105710008720FFF7E7FE8B20FFF784FE5020FFF77E
:10572000E1FE06F0BFFB5220FFF77CFE2320FFF7CF
:10573000D9FE5320FFF776FE0020FFF7D3FE0020AE
:1057400000F032F8FBF7C7FF00F08CFBBDE810401B
:1057500004A0FAF7FFBD00004C434420696E696E57
:10576000740D0A004C434420696E696E745F4649AB
:105770004E4953480D0A000010B504466020FFF75B
:1057800051FEE00AFFF7AEFE6120FFF74BFEC4F3C7
:105790004510FFF7A7FE6220FFF744FE04F01F004C
:1057A000BDE81040FFF79EBE10B504466720FFF726
:1057B00039FEE00AFFF796FE6820FFF733FEC4F3D8
:1057C0004510FFF78FFE6920FFF72CFE04F01F0045
:1057D000BDE81040FFF786BE70B51D4D4FF48074D4
:1057E000002221462846FDF76AFA4FF4FA76304641
:1057F000FDF728F9012221462846FDF760FA3046D8
:10580000FDF720F98820FFF70DFE0C20FFF76AFE58
:105810000A20FDF717F98820FFF704FEFFF73EFE88
:10582000044601460BA0FAF795FD0E4D0C2C08D04E
:10583000FCF78EFB002028700BA0BDE87040FAF743
:1058400089BDFFF7CFFE012028700CA0F5E700000E
:1058500000140140526561645F6C63643A20256402
:105860000D0A0000020000204C43445F4D4F4E4F94
:105870005F44455445435445440D0A004C43445F3E
:10588000434F4C4F525F44455445435445440D0AE1
:105890000000000010B500F1040C00248CE81E008C
:1058A0000121017010BD0000FEB5002418480094CD
:1058B00001941649029401608915816001250573E0
:1058C0000475022606614FF440214460C161FCF773
:1058D0009DFDC0B90F48416841F0E06141F480216D
:1058E00041600A20CDE90005694602940848FCF7AA
:1058F0009FFC40B90B20CDE9000669460448FCF73F
:1059000097FC002801D0FBF7B3FFFEBD0024014047
:10591000FC0B00200000014010B504490448FBF7CF
:10592000B1FF0249491E087010BD0000D10B0020D4
:105930005C5002082DE9F04F85B0002485480094A2
:10594000019402940394816941F01001816181699D
:1059500001F010010491816941F0040181618169C4
:1059600001F004010491816941F0080181618169BC
:1059700001F008010491816941F040018161816970
:1059800001F040010491816941F020018161806949
:10599000DFF8C4A100F02000049001220421504649
:1059A000FDF78DF90022C8215046FDF788F9DFF890
:1059B000ACB1002240F203115846FDF780F90122F4
:1059C00010215846FDF77BF9002240F2E631644889
:1059D000FDF775F900224FF682716248FDF76FF905
:1059E0004FF48059012249465D48FDF768F90022CD
:1059F0004FF482415C48FDF762F90420012503273A
:105A0000CDE90005CDE9024769465046FDF756F855
:105A1000C8200226CDE90005CDE902466946504678
:105A2000FDF74CF8CDE902570095694658460195B7
:105A3000FDF744F84FF48170CDE90005CDE9024649
:105A400069465846FDF73AF84FF01008CDF8008047
:105A50000397CDE9015469465846FDF72FF8CDE983
:105A60000084694650460294FDF728F820200090F3
:105A70003E48CDE9010569465046FDF71FF819205B
:105A8000CDE90004694636480294FDF717F8E62090
:105A9000CDE90005CDE9024669463148FDF70EF82B
:105AA0004FF68070CDE90005CDE9024669462D48E4
:105AB000FDF704F8CDF800900397CDE9015469464D
:105AC0002748FCF7FBFF2802CDE90005CDE9024796
:105AD00069462548FCF7F2FF4FF43870CDE9000421
