:020000040800F2
:100000005028002089020008536100084948000870
:10001000E54C00089F1D0008457F00080000000017
:100020000000000000000000000000004976000809
:100030000F22000800000000996E0008DD7700081C
:10004000A3020008A3020008A3020008196F000819
:10005000A3020008A3020008A3020008A3020008EC
:10006000A3020008A3020008A3020008A3020008DC
:100070009D210008A9210008B5210008C121000820
:10008000CD210008D9210008A3020008A30200081E
:10009000A3020008A3020008A302000837220008F8
:1000A000A3020008A3020008A3020008A30200089C
:1000B000A3020008A3020008A3020008A30200088C
:1000C000A3020008A3020008A3020008A30200087C
:1000D000A3020008217F00082D7F0008397F000857
:1000E000A3020008A3020008A3020008A30200085C
:1000F000A3020008A3020008A3020008A30200084C
:10010000A3020008A3020008A3020008A30200083B
:10011000A3020008A3020008BD790008A30200089A
:10012000A3020008A3020008A3020008A30200081B
:1001300000F002F800F07EF80AA090E8000C82447B
:100140008344AAF10107DA4501D100F073F8AFF258
:10015000090EBAE80F0013F0010F18BFFB1A43F0A5
:10016000010318477CC300009CC300000A444FF001
:10017000000C10F8013B13F0070408BF10F8014B06
:100180001D1108BF10F8015B641E05D010F8016B4B
:10019000641E01F8016BF9D113F0080F1EBF10F8AF
:1001A000014BAD1C0C1B09D16D1E58BF01F801CBD2
:1001B000FAD505E014F8016B01F8016B6D1EF9D555
:1001C0009142D6D37047000000230024002500266A
:1001D000103A28BF78C1FBD8520728BF30C148BFAA
:1001E0000B60704766290BF07C83642900F0268140
:1001F000752900F02381782900F05C81632900F0E3
:100200000687732900F00B87002070471FB500F0A8
:100210003CFA00F0C5FF0400002000210BF002F9B9
:10022000401C6060002000210BF0E6F8E0601FBD7C
:1002300010B510BD01F022F91146FFF7E7FF08F0F5
:1002400053FE01F04EF903B4FFF7F2FF03BC00F0D8
:10025000CDFB00000B49D1F800C04A685CF8043BB4
:100260001068184442F8040B8C4528BFA1F1DC0C3F
:100270008A4228BFA1F1DC02C1F800C04A6020F028
:1002800000407047BC2100200948804709480047CA
:10029000FEE7FEE7FEE7FEE7FEE7FEE7FEE7FEE736
:1002A000FEE7FEE704480549054A064B7047000093
:1002B00063780008310100085022002050280020F7
:1002C0005024002050240020B2F120030AD5C2F1AE
:1002D000200301FA02F120FA03F300FA02F041EAE6
:1002E0000301704700FA03F14FF000007047B2F1CC
:1002F00020030AD5C2F1200320FA02F001FA03F329
:1003000041FA02F140EA0300704741FA03F04FEA74
:10031000E171704710B54C1084EA530404D5404293
:10032000C1F1000138BF491E1B4204D55242C3F13E
:10033000000338BF5B1E00F063FB14F0804F04D055
:100340004042C1F1000138BF491E14F0004F04D0F3
:100350005242C3F1000338BF5B1E10BD0FB4044905
:1003600010B503AA029800F05FFE10BC5DF814FB04
:10037000140000200FB41CB5074B06AA7B44694645
:100380000090059800F021FE0020694600F030FE44
:100390001CBC5DF814FB0000710C000070B5044635
:1003A00085690068C10601D5302600E02026C00717
:1003B00007D070BDD4E9012130469047206A401C27
:1003C00020626D1EF6D570BD70B504468569007853
:1003D000C00707D170BDD4E9012120209047206AD1
:1003E000401C20626D1EF6D570BD70B50C460546EA
:1003F000012A05D02878800600D5EA69002302E0AA
:10040000012305E05B1C934202D2E05C0028F9D195
:10041000A869E618C01AA861286A18442862284604
:10042000FFF7BCFF04E0D5E9012114F8010B904768
:10043000B442F8D32846FFF7C7FF70BD2DE9F0415D
:100440000646002410687529314616A510D0AFF372
:100450000080002802DA404213A507E031688A07CD
:1004600001D512A502E0490704D511A5012401E038
:10047000AFF3008000210A2206F1240709E0B0FB57
:10048000F2FCB0FBF2F302FB1C003030785418464B
:10049000491C0028F3D123462A463046BDE8F041E6
:1004A00000F025BB000000002D0000002B00000024
:1004B0002000000070B504460D4621461068AFF3D9
:1004C00000802188090502D50F4A7A4402E00E4ACD
:1004D0007A440E32002104F1240305E000F00F06F7
:1004E0000009965D5E54491C0028F7D1207800234E
:1004F000000704D5702D02D009B102231132204625
:10050000BDE8704000F0F3BA94BC00002DE9F05F44
:10051000894604464FF0000ADFF824B1FB44C0F8D6
:1005200020A02046E168884700287DD0252806D0F5
:10053000D4E901219047206A401C2062F1E70025A0
:100540005F462046E16888472028064607DB312EB3
:1005500005D2B81910F8200C08B10543F1E7A80737
:1005600001D525F00405C4F81CA00027C4F818A084
:100570002A2E09D0304607F0DDFD38B304EB87089A
:10058000303EC8F8186019E059F8041B204604EB07
:1005900087029161E1688847012F064618D1E0691A
:1005A000002820DA25F020051DE0D8F8180000EB1F
:1005B000800006EB40003038C8F818002046E1689B
:1005C0008847064607F0B6FD0028EED1012F0AD075
:1005D0002E2E08D12046E16888477F1C0646022F50
:1005E00045F02005C4DBA069002803DA404245F04D
:1005F0000105A061E80701D025F01005A6B1A6F11C
:100600004100192802D8203645F400654A46314693
:10061000204625604D46FFF7E5FD60B1012807D073
:10062000ED1D25F0070000E007E000F1080978E77C
:1006300005F1040975E730467AE7206ABDE8F09FC6
:100640006ABC000070B5064600F0D6F9046805469D
:1006500030460A22002100F0F9FC2C6070BD000039
:100660000B4910B5A1F17C020A4CC2E937123721BF
:1006700006E000EB104342F82130074B00FB03403B
:100680000B1EA1F10101F4DC10BD0120E8E7000020
:100690005C210020E119D666CD0D010010B50020C7
:1006A00000F00CFDFFF7C4FDBDE81040012000F094
:1006B0009DB910B5431C02E010F8011B71B1810710
:1006C000FAD14FF0013202C88C1A8C4314EAC211DD
:1006D000F9D0C01A0A0603D0C01E10BDC01A10BD42
:1006E0000A0401D0801E10BD0902FCD0401E10BDBE
:1006F000032A40F2308010F0030C00F0158011F84E
:10070000013BBCF1020F624498BF11F801CB00F825
:10071000013B38BF11F8013BA2F1040298BF00F879
:1007200001CB38BF00F8013B11F0030300F0258036
:10073000083AC0F0088051F8043B083A51F804CB5D
:10074000A0E80810F5E7121D5CBF51F8043B40F823
:10075000043BAFF30080D20724BF11F8013B11F82E
:1007600001CB48BF11F8012B24BF00F8013B00F872
:1007700001CB48BF00F8012B704710B5203AC0F0FC
:100780000B80B1E81850203AA0E81850B1E8185092
:10079000A0E81850BFF4F5AF5FEA027C24BFB1E8CF
:1007A0001850A0E8185044BF18C918C0BDE8104040
:1007B0005FEA827C24BF51F8043B40F8043B08BF49
:1007C0007047D20728BF31F8023B48BF11F8012B10
:1007D00028BF20F8023B48BF00F8012B70474FF0BC
:1007E000000200B5134694469646203922BFA0E881
:1007F0000C50A0E80C50B1F12001BFF4F7AF09078D
:1008000028BFA0E80C5048BF0CC05DF804EB89007D
:1008100028BF40F8042B08BF704748BF20F8022BC0
:1008200011F0804F18BF00F8012B7047014900F00C
:100830004DBC0000C421002010B503681C1404EB5B
:1008400021449BB289B2194494FBF2F302FB134397
:1008500094FBF2F401EB034393FBF2F102FB113141
:1008600093FBF2F301E05B1E11440029FBDB016006
:1008700003EB044010BDF0B504464FF0FF3585B0E2
:100880000068049060680290A0680390E06801909E
:1008900020690090666906F18040B0F1004F7CD875
:1008A0003C22002104A8FFF7C7FF3C22014602A812
:1008B000FFF7C2FF1822014603A8FFF7BDFF411E44
:1008C00040F2B55201A8FFF7B7FF0C220746684671
:1008D0000021FFF7B1FF414B00EB870030440026B9
:1008E0007B4411E0511A01910099491C02290091A1
:1008F00002D00C2908D105E0810705D00199491CD7
:10090000019101E0401C00960099019A595C9142C6
:10091000E8DD0099012906D11C2A04D1810702D003
:100920000221CDE90016A0F146018B293CD2DDE978
:100930000061002202E09F5C521C3944B242FADBA3
:10094000012E02DD820700D0491E40F2B55340F26D
:100950006D16C21700EB927292105A4300F0030317
:1009600003FB062283070A4400D1521E039E02EBBA
:100970004203049F06EBC303029EC3EB031306EB83
:100980008303174E33441E149BB2C6EB0616C3EB0B
:100990000313B60007EB830300E005E006EB134604
:1009A00066F31F43360C02D0284605B0F0BD80C464
:1009B000029E40C4039E40C4019E761C44F80C6B0A
:1009C000009E44E902600720521C92FBF0F600FBF7
:1009D000162084E823001846E7E70000B7B80000B7
:1009E000A039CEFD704770477047000001491820BC
:1009F000ABBEFEE72600020000487047F021002051
:100A000053EA020C00F069802DE9F04B4FF000062C
:100A1000002B1FBFB3FA83F503FA05F424FA05F699
:100A20005E4012BF1643B2FA82F502FA05F4C5F130
:100A300020051EBF22FA05FC44EA0C04203556EAC4
:100A4000044C4FEA144418BF641C4FF000084FF0E8
:100A50000009904271EB030C39D3002919BFB1FA98
:100A600081F701FA07F6B0FA80F700FA07F6C7F146
:100A700020071EBF20FA07FC46EA0C062037B6FB0B
:100A8000F4FCA7EB0507103F07F01F0BCBF1200686
:100A90000CFA0BFB2CFA06F644BFB3460026202FB7
:100AA000A4BF5E464FF0000B5BEA060C08BF4FF098
:100AB000010B19EB0B09ABFB027C48EB0608C01BD2
:100AC00006FB02CC0BFB03CC71EB0C01C1E70B4620
:100AD000024641464846BDE8F08B13B54FF0000092
:100AE0004FF00001AFF30080BDE81C4070472DE9D6
:100AF000F0470D4699469246044600F124080168E5
:100B0000880604D5E06921F01001216000E0012091
:100B1000A84201DD471B00E00027A1697A1902EB1A
:100B20000900081AA0612078C00602D42046FFF709
:100B300035FC002608E0D4E901211AF806009047A8
:100B4000206A401C761C20624E45F4DB2078C006EB
:100B50000AD52046FFF722FC06E0D4E90121302027
:100B60009047206A401C2062381EA7F10107F4DC80
:100B700007E0D4E9012118F805009047206A401CDD
:100B80002062281EA5F10105F3DC2046FFF71CFCBE
:100B90002078000602D50220BDE8F0870120FBE79F
:100BA00070472DE9FF4F0C461E464FF0FF378BB0C4
:100BB000D2E90001DDF860800A908A46C1F30A5547
:100BC00005B93D46002108464FF00000BAF1000F7C
:100BD00000F4400005DA00EB80004FF4400101EA28
:100BE00050004FEA9059B9F1010F00DDB9460A985B
:100BF00050EA4A000ED044F61050A5F2FF354543A6
:100C00002F14B8F1000F1ED07542291E1EDDC9F148
:100C100000021CE0B8F1010F4FF0000001D03021BC
:100C200003E0F24305E02154401CB042FBDB3046B8
:100C30000022002121540B99C1F80880C1E900204D
:100C40000FB0BDE8F08FBD1B6D1CDEE74A4600DA31
:100C5000694206A800F07EFB06AB93E8070003ABF1
:100C600083E8070050460A9900F0A5FC8DE80700CC
:100C7000A0F500501F3800900398002D0ADD42F2C5
:100C80001F014A460844002303A90390684600F068
:100C90000EFF09E0A0F500504A461F38002303A9C3
:100CA0000390684600F018FF8DE807000004000C70
:100CB00003D04FF0FF30410800E01046B8F1000FBC
:100CC00003D00022009215461EE0751E05D400F0E8
:100CD0006BFA303262556D1EF9D5B34601220843D6
:100CE00002D000227F1C04E02078302801D10022AD
:100CF0007F1E002A099784D01DE0112D07DA00F02D
:100D000053FA303262556D1C50EA0102F5D10843A6
:100D100002D00098C8B10EE00021681E05E0235CF7
:100D2000625C63542254401E491C8142F7DBAB468F
:100D3000A81B401E0990002004F80B000B98099A8C
:100D4000C0F80880C0E9002B7AE711264FF00008B0
:100D500057E72DE9F04F88460446D21D22F00701DF
:100D600091B0D1E90001CDE90A0107F0BFF90246CF
:100D70000B98C00F01D02D2007E02068810701D516
:100D80002B2002E0202101EAC000032A099001D0B3
:100D9000072A05DB03464146204600F04BFA0BE1EB
:100DA0002078800601D5E06900E00620B8F1650FE3
:100DB000814606D0B8F1660F18D0B8F1670F70D130
:100DC00031E00020B9F1110F009001DB112301E0A7
:100DD00009F101030AAA01A90CA8FFF7E2FEDDE967
:100DE0000C70002609F10105834647E001204B46BF
:100DF00000904FF000470AAA01A90CA8FFF7D1FE06
:100E0000DDE90DB00C995D46002610B909F101002D
:100E10000D18B9EB050003D4C0F1FF3609F1010547
:100E2000A5EB09002BE0B9F1010F01DA4FF0010940
:100E30000020B9F1110F0090484601DD112300E0B8
:100E400003460AAA01A90CA8FFF7ABFEDDE90C7066
:100E50004D4600268346207800070AD4AB4500DAC9
:100E60005D4601A8012D04DD411911F8011C30294E
:100E700007D04F4502DA17F1040F04DA0120824649
:100E80000FE06D1EEEE7002F02DCED1B3E4403E099
:100E9000781CA84200DD7D1CB81B00F1010A4FF050
:100EA00000472078000703D4AA4501DB4FF0FF3A42
:100EB0000021B7F1004F0DF143088DF8431024D005
:100EC00002202B23002F01DA7F422D230A21021E4C
:100ED000A0F1010000DC5FB197FBF1FC97FBF1F2A0
:100EE00001FB1C7C17460CF1300C08F801CDEEE735
:100EF000A8F1010003702188090501D5452100E012
:100F00006521A0F1010800F8011C09980FA9A1EBC7
:100F10000807FF1D00B10120411901EBEA70A1692A
:100F20003844081A401EA0612078C00602D420462A
:100F3000FFF734FA099828B1D4E901219047206AD3
:100F4000401C20622078C00622D52046FFF726FAF2
:100F50001EE0002E04DBB34502DD01A8805D00E049
:100F60003020D4E901219047206A401C2062761C81
:100F7000AAF101005FEA000A0AD100F011F9C06885
:100F80000168405CD4E901219047206A401C20623E
:100F9000281EA5F10105DCDC07E0D4E9012118F8E1
:100FA000010B9047206A401C2062381EA7F1010700
:100FB000F3DC2046FFF708FA032011B041E60000F9
:100FC00001694A1C02610878704700B58FB0CDE90D
:100FD00001310021059105497944CDE903101146FD
:100FE0006846FFF793FA0FB000BD0000E5FFFFFF72
:100FF0000A6802F8010B0A60704710B5436913B123
:10100000AFF3008001E0FFF7F0F9012010BD127886
:1010100000F124010A7000224A700122EDE71168F4
:101020004FF0FF32E9E70000074B70B50D467B44F7
:10103000FFF7CBFF0446284600F0FEF910B14FF051
:10104000FF3070BD204670BDE37A00002DE9F04707
:1010500091460F4680460446002614F8015B2DB1E8
:1010600000F096F80068405DC007F6D12B2D02D045
:101070002D2D18D0641E4A463946204600F01AF934
:1010800027B13968A14201D1C7F800804FF00204AE
:1010900071050BD54042002803DDFFF7ADFC04606D
:1010A000A007BDE8F08746F48066E4E70028F8DA98
:1010B000FFF7A2FC04606FF00040F2E710B500F00B
:1010C000C5F9BDE8104000F0BBB9000070B50C4692
:1010D000016800204A1C3ED03C22B1FBF2F302FB27
:1010E0001313B1FBF2F12360B1FBF2F302FB131314
:1010F000B1FBF2F118226360B1FBF2F302FB1313B0
:10110000B1FBF2F146F2E0320A440721A360B2FBE0
:10111000F1F301FB132140F2B553B2FBF3F5A161EA
:10112000B2FBF3F103FB15228900B2F5B77F08D3B8
:101130009B10521EB2FBF3F52944B2FBF3F503FBFF
:1011400015220F4BE261616189077B440CD03B2A79
:101150000AD3521C08E02C212046FFF740FB012057
:10116000E0600AE0521A401C195C9142FAD9521C04
:10117000C4E903204FF0FF302062204670BD00001C
:101180004DB0000000487047F0210020704700007B
:1011900010B500F005F8001D10BD00BF89A20000C9
:1011A000004870471022002030B5B0F10A024FEA23
:1011B000900E71F100034EEA817EB0EB0E0061EB00
:1011C00091014FEA101E4EEA017E10EB0E0041EB3A
:1011D00011114FEA102E4EEA016E10EB0E0041EB9A
:1011E00011214FEA104E4EEA014E10EB0E0041EB7A
:1011F0001141401841F100014FEAD00040EA41702E
:101200004FEAD10110EB80054FEA810444EA907463
:1012100044EB01046D1944EB0404521BA3414FF04D
:10122000000348BF0A3200D530BD401C41F1000127
:1012300030BD00002DE9F0411F4604460326016839
:10124000072A01F4006004DB08B116A505E016A525
:1012500003E008B115A500E015A521F010002060FD
:10126000A069C01EA0610FB1401EA0612046FFF71B
:1012700095F84FB1D4E9012138469047206A401CC7
:101280002062C01C206206E0206AFAE7D4E901214E
:1012900015F8010B9047761EF8D22046FFF794F818
:1012A000BDE8F0814E414E006E616E00494E460031
:1012B000696E66002DE9F05F824615468B46002771
:1012C0000AF10104B9460078302801D09DB113E03D
:1012D00014F8010B0127782803D0582801D045B114
:1012E0000AE00DB1102D07D1002714F8010B1025CD
:1012F00002E0082500E00A250026B0460EE005FBC6
:10130000080005FB06F101271FFA80F801EB1046E3
:10131000B6F5803F00D3B94614F8010B294600F01A
:10132000D2F80028EBDABBF1000F05D00FB1641E34
:1013300000E05446CBF80040B9F1000F06D0FFF7AB
:101340005BFB02210160C81EBDE8F09F48EA064031
:10135000FAE700002DE9F047814616468AB0354885
:1013600078440DC88DE80D0032487844801C03ACE9
:101370000DC884E80D0041F69B300844372190FBEE
:10138000F1F290FBF1F5A5F1800501FB12041B3C85
:1013900002D56442012000E00020DFF898A08046DA
:1013A0000027FA44AAF1BE0A0EE0E0070AD032464E
:1013B000684607EB470101230AEB810100F08CFB33
:1013C0008DE8070064107F1C002CEED1194F7F447C
:1013D000AE3F19E0E80715D007EB04100DF1180A2D
:1013E00090E80E008AE80E00C068F04201D198191A
:1013F00008903246012306A903A800F06DFB03AB59
:1014000083E807006D10641C002DE3D14FF0010349
:1014100032466946B8F1000F03A802D000F047FB3E
:1014200001E000F059FBC9E90001C9F808200AB041
:10143000BDE8F087C0AE0000007B00F08000704780
:10144000002801D0FFF7D2BA7047000010B5002184
:1014500002A000F04FF8012010BD000053494741A1
:101460004252543A2041626E6F726D616C20746515
:10147000726D696E6174696F6E0000007546FFF7EA
:1014800081FEAE4605006946534620F007008546BA
:1014900018B020B5FEF706FFBDE820404FF000066B
:1014A0004FF000074FF000084FF0000B21F007014C
:1014B000AC46ACE8C009ACE8C009ACE8C009ACE88F
:1014C000C0098D4670473A2800D2303820F02002FB
:1014D000412A01D3A2F13700884201D34FF0FF30F7
:1014E000704710B50446AFF300802046BDE81040B9
:1014F000FEF7A9BE70B505460C460A2000E06D1C3B
:1015000000F052F835B128780028F8D102E0641CC8
:1015100000F04AF814B120780028F8D1BDE87040F6
:101520000A2000F041B800004FF0013C50F8042BB5
:1015300051F8043B9A4221D1A2EB0C03934313EAE6
:10154000CC1317D150F8042B51F8043B9A4215D113
:10155000A2EB0C03934313EACC130BD150F8042BEA
:1015600051F8043B9A4209D1A2EB0C03934313EACE
:10157000CC13DBD04FF00000704700BFD01A01BA87
:10158000B1FA81F101F0180122FA01F0CB40C1F16A
:101590002001DBB2C0B2C01A2CFA01F3D11A914378
:1015A00011EAC311E6D1704708B569468DF800000D
:1015B0000320ABBE08BD5FEA400C08BF91F0000FEE
:1015C0004FEA8C234FEAC12243EA51514FEA1C50A3
:1015D00018BF00F5F0404FEA300018BF41F000415D
:1015E0005FEA6C5C00F02980BCF1FF3F08BF40F06F
:1015F00080407047130C06BF12044FF0100C4FF0E0
:10160000000C130E04BF12020CF1080C130F04BFE0
:1016100012010CF1040C930F04BF92000CF1020CA8
:10162000D30F04BF52000CF1010C11464FF0000221
:10163000A0F11F00A0EB0C00704711F0004F08BF95
:10164000704731F000413FF4D5AF0B0C06BF0904E1
:101650004FF0100C4FF0000C0B0E04BF09020CF100
:10166000080C0B0F04BF09010CF1040C8B0F04BF15
:1016700089000CF1020CCB0F04BF49000CF1010CE6
:10168000CCF12003A0EB0C0022FA03F302FA0CF2D7
:1016900041EA030100F10100704720F07F4C80EA2D
:1016A000030023F07F47ACEB070303F57C5300F006
:1016B000004003F1FF032DE980494FEA154B09B4BF
:1016C0004FEA144325EA0B4E24EA03480FF204269E
:1016D00006EB132749083E785FEA320203FB0667F0
:1016E000C7F5000707FB06F64FEA54374FEAD64620
:1016F00006F1020607FB066CCCF1005C4FEA1C47C2
:101700002CEA074C07FB06F40CFB06F504EB154628
:101710004FEA961634BF00204FF000404FEAD13711
:1017200006FB07FC4FEA1C4C0CFB0BF7D21B03FB20
:101730000CF761EB07010CFB0EF7B0EB074072EB07
:1017400017420CFB08F734BFA2EB0742B2EB07428B
:1017500061EB17414FEA0C444FEA910706FB07FC87
:101760004FEA1C4C0CFB0BF7B0EBC74072EB573247
:1017700003FB0CF734BFA2EBC742B2EBC74261EBED
:1017800057310CFB0EF7B0EBC70072EB57720CFB36
:1017900008F734BFA2EBC702B2EBC70261EB577187
:1017A000039F4FEA816141EA921104EBCC044FEAB6
:1017B000D1374FEA826206FB07FC42EA90124FEAF9
:1017C00080604FEA1C4C0CFB0BF7D21B03FB0CF7A1
:1017D00061EB07010CFB0EF7B0EB074072EB174211
:1017E0000CFB08F734BFA2EB0742B2EB074261EBF8
:1017F00017414FEA8C554FEA910704EB9C2406FBF6
:1018000007FC4FEA1C4C0CFB0BF7B0EBC74072EB2C
:10181000573203FB0CF734BFA2EBC742B2EBC7420F
:1018200061EB57310CFB0EF7B0EBC70072EB577250
:101830000CFB08F734BFA2EBC702B2EBC70261EBA7
:10184000577115EB4C254FEA816141EA92114FEA3D
:1018500082624FEAD13742EA901206FB07FC44F15C
:1018600000044FEA80604FEA1C4C0CFB0BF7D21BC4
:1018700003FB0CF761EB07010CFB0EF7B0EB074025
:1018800072EB17420CFB08F734BFA2EB0742B2EB36
:10189000074261EB174115EB1C154FEA813141EA14
:1018A00092414FEA823242EA90424FEA80304FEA58
:1018B0000C7644F1000448EA03434EEA0B484FF02B
:1018C000000EB2EB080C71EB030724BF62463946E9
:1018D0004EEB0E0E4FF0000B0018524149414BEBFE
:1018E0000B0BB2EB080C71EB03077BF1000B24BF71
:1018F000624639464EEB0E0E4FF0000B0018524177
:1019000049414BEB0B0BB2EB080C71EB03077BF17E
:10191000000B24BF624639464EEB0E0E51EA020719
:1019200018BF46F0010616EB0E7655F1000254F191
:10193000000103D5BDE88901BDE80088BDE8890143
:10194000BDE80048B619524141EB0101A3F1010382
:10195000704780807F7E7D7C7B7A7978777676751C
:101960007473727171706F6E6E6D6C6C6B6A6A6994
:101970006868676666656464636362616160605F2E
:101980005F5E5E5D5D5C5C5B5B5A5A5959585857A7
:10199000575656555555545453535252525151500F
:1019A00050504F4F4F4E4E4D4D4D4C4C4C4B4B4B62
:1019B0004A4A4A49494948484847474747464646A8
:1019C00045454544444444434343434242424241E3
:1019D0004141002B9C4630D477002BD01CB54FEAF8
:1019E000370703B44FF010004FF01001BAF1000FA9
:1019F00006D0BCF1000FDCBF40F0080040F0080149
:101A00004FF000000FBCBDE810400BF1010BBBF123
:101A1000010F08BF5FEA170722BF12F1010211F19F
:101A200001014FF0004143F1000300F0004043EAA0
:101A300000007047F9D35708D0E746EA064613F18D
:101A4000400F4FEA16461FDD13F1200FDFBF16438C
:101A50000A46002120335B42BED0C3F1200746EA8C
:101A6000064602FA07F74FEA164646EA0706C3F1AA
:101A7000200722FA03F201FA07F721FA03F14FF0E7
:101A8000000342EA0702A7E746EA020646EA0646DC
:101A90004FEA164646EA0106BCBF46EA0646360C41
:101AA0004FF000034FF000024FF0000194E72DE9E2
:101AB000804C9A46934670B491E8380007C831EAE2
:101AC000400C48BF34EA430C03D5FFF7E6FDFFF7AF
:101AD00080FFF0BCBDE8008C2DE9804C9A4693460F
:101AE00070B491E8380007C810F0804F08BF13F0B9
:101AF000804F03D100F005F8FFF76BFFF0BCBDE8A5
:101B0000008C20F07F4780EA030023F07F4C07EB36
:101B10000C03A3F57C5300F00040A3F1FE0392F008
:101B2000000F00F0B38095F0000F00F077802DE9F2
:101B300001494FEA11404FEA144621EA004800FBF0
:101B400006FC24EA064708FB06F607FB08F800FB3C
:101B500007F718EB06484CEB164C4FEA124B18EB04
:101B600007484FEA15464CEB174022EA0B4E0BFB99
:101B700006FC25EA06470EFB06F607FB0EFE0BFBEE
:101B800007F71EEB064E4CEB164C4FF000061EEB13
:101B9000074E4CEB174B18EB0B0840F1000018EB0D
:101BA0000E0B58EB000840F100008F1A4FF00001B7
:101BB0003CBFC943661B14BFB5EB040C00213CBFFE
:101BC000C943F61B4FEA17444EEA8E0E27EA044536
:101BD0004FEA1C4704FB07622CEA074C05FB07F79A
:101BE0000CFB05F604FB0CFC16EB074642EB174218
:101BF00016EB0C4642EB1C421BEB060658EB0202AE
:101C0000414146EA9E0601D5BDE80189B619524117
:101C100041EB0101A3F10103BDE801894FEA14453D
:101C20004FEA114724EA054621EA074C05FB07F471
:101C300006FB07F70CFB06F105FB0CFC11EB07415B
:101C400044EB17444FEA124711EB0C4144EB1C44A0
:101C500022EA074C05FB07F206FB07F70CFB06F62A
:101C600005FB0CFC16EB074642EB174216EB0C4645
:101C700042EB1C456A1854F1000148BF7047B61981
:101C8000524141EB0101A3F10103704795F0000FB0
:101C900037D04FEA11424FEA144721EA024624EABC
:101CA000074C02FB07F106FB07F70CFB06F402FBEF
:101CB0000CFC14EB074441EB17414FEA154714EBBA
:101CC0000C4441EB1C4125EA074C02FB07F506FBDF
:101CD00007F70CFB06F602FB0CFC16EB074645EB80
:101CE000174516EB0C4645EB1C42121951F1000149
:101CF00048BF7047B619524141EB0101A3F10103FE
:101D000070474FEA14454FEA114724EA054621EA95
:101D1000074C05FB07F106FB07F70CFB06F24FF03B
:101D2000000605FB0CFC12EB074241EB174112EBDE
:101D30000C4251EB1C4148BF7047921841EB010126
:101D4000A3F101037047000070B504460068816884
:101D5000C943C90717D1816821F00101816001F0F1
:101D600089FA05460AE000BF01F084FA401B022808
:101D700004D920688068C043C00706D02068806806
:101D8000C043C007F0D0002070BDA06A40F0100032
:101D9000A062E06A40F00100E062012070BDFEE751
:101DA0002DE9FC41002605460C4681F8FF613046CE
:101DB0002118401C81F80061FF28F9DB687F324F51
:101DC000112802D1697E80207854E87E50B105F157
:101DD0001C03CDE900355A1C687E114600F02EFA2E
:101DE00000284FD084F80462687E84F8020284F8E8
:101DF000FF6184F8FF60032084F80102287F7F26BA
:101E0000401D84F800022670687E395C08436070CB
:101E1000287FA070002004E029182218497FD17083
:101E2000401C297F8142F7DC94F8000248F2050348
:101E30004FF6FF72611CC01E06F0D8FC2A7FE11C21
:101E40005054010A2A7F201D11541049207808702F
:101E50000120024608E0A35C0B54A35C7F2B01D158
:101E6000401C0E54401C521C94F800329342F2DC89
:101E7000002202E08B5CA354521C8242FADB84F8FD
:101E800000020120BDE8FC81C4120020241B0020B8
:101E90001CB50446D4E90001084318D0D4E9020176
:101EA000084314D000F016FD4FF000420023FEF767
:101EB00031FAC4E90623D4E90201CDE90001D4E9ED
:101EC000000106F0D5F8C4E9040100201CBD4FF064
:101ED000FF301CBD1CB50446D4E90201CDE9000168
:101EE000D4E90801D4E9062306F0C2F8C4E90C01DC
:101EF00001201CBD70B504461348124D86B081699F
:101F000041F0040181618069012600F00400049021
:101F10001120CDE900600020029003200390694663
:101F2000284601F0A1F801221146284601F09DF94A
:101F3000C4E90456022020764FF4FA60E06106B04E
:101F400070BD000000080140001002402DE9F04380
:101F5000D7B0044601261120CDE95260DFF8AC81EC
:101F6000032752A94046CDE9546701F07DF80025CA
:101F700001E02554401C0528FBDB012211464046A8
:101F800001F073F941F29211491E481CFCD160A086
:101F9000FEF7E4F9DFF888910022012189F800605A
:101FA000404601F062F9207E022820D003281ED08E
:101FB0005C48401EFDD201221146404601F055F911
:101FC000CDE95265CDE9545752A9404601F04CF88D
:101FD000012009F0E5F940F6C2380226404504D058
:101FE000002009F0DDF9404506D130462CE041F2F1
:101FF0007A50401EFDD2DEE7012009F0D1F94045BC
:1020000001D1384620E0002702AE002009F0C8F9CF
:1020100046F82700012009F0C3F906EB8701BF1C31
:102020004860502FF1DB40A0FEF798F989F8005086
:102030000020414606EBC00356F830205B688A4218
:1020400001D08B4205D1042084F8200057B0BDE8B0
:10205000F083C71700EB577704EBE707934297F835
:1020600000C04FEA4C6C4FEA1C6C87F800C002D9E4
:102070004CF001023A70401C2828DBDB2179E07823
:10208000CDE90001A378627821782DA0FEF766F9EA
:1020900020786178A6780844E17872181044227993
:1020A000C0B2824207D0052004F8200F2CA0FEF712
:1020B00055F92078CAE706F07F0041EA002009F0D0
:1020C000F8F92E4FDFF8B8803A46434609F004FA93
:1020D00009F0BEF9A060310602D580F00040A06092
:1020E000208840BA09F0E5F93A46434609F0F4F988
:1020F00009F0AEF9E06009F0EDFA02460B4621A0C6
:10210000FEF72CF984F8205028469FE7000801408C
:10211000444854323120524541440D0A0000000029
:10212000F40300208E5F01007265616420726561B6
:10213000647920383020626974730D0A0000000051
:1021400044485432313E3E205245472025642025E4
:10215000642025642025642025640D0A0000000009
:1021600044485432313E3E20434845434B53554D3D
:102170005F4641494C45440D0A0000009A999999DF
:102180009999B93F44485432313E3E2048554D3A22
:1021900020252E3032660D0A00000000014800F0B4
:1021A00095BD0000600B0020014800F08FBD0000CD
:1021B0001C0B0020014800F089BD0000500A0020DF
:1021C000014800F083BD00000C0A0020014800F027
:1021D0007DBD0000940A0020014800F077BD00009A
:1021E000D80A002030B590F840500124AC40C56BAF
:1021F0006C60046863604368102B036803D09960C7
:102200000068C26030BD9A600068C16030BD704730
:102210001FB512780023069CCDE90202CDE90031FA
:1022200010222146012005F0C2FF10B1002004B0A9
:1022300010BD0120FBE7202000F00ABF2DE9F04F80
:1022400091461A788046D01D1F460026C0B2C5B000
:10225000030703D000F00F03C3F11006DFF8B8B096
:1022600030448DF81020C4B25BF82830002004AA56
:10227000C50023FA05F502EB000C401CC0B28CF837
:1022800001500428F4D3002004E00B5C1518401C16
:102290006B71C0B23B788342F7D8002592460CE0C0
:1022A000FDF7D8FFFF2190FBF1F201FB12003A7815
:1022B000691D52446D1C5054EDB2B542F0D348F242
:1022C00005034FF6FF7204A9A01E06F08FFA0AEB71
:1022D000040202F8020D000A5070002209F1010008
:1022E000CDE9002ACDE902041346102201204F99BE
:1022F00006F0C4F818B1002045B0BDE8F08F4E9844
:10230000641C7E21047089F800105BF82810491CB9
:102310004BF828100120EFE7A40F002002A0FEF7E1
:102320001DF872B6FEE700006572726F720D0A004A
:1023300009B1012200E00022074B38B1012807D083
:10234000022807D11021184600F08FBF8021FAE73C
:102350004021F8E7704700000008014008B541003F
:102360008DF8001081F01B018DF80110694601EB1A
:10237000D010007808BD08B50021009040238022CD
:10238000084600F0ADF908BD2DE9F04710F8016BE3
:10239000914610F8017B8A46804600251AE0002409
:1023A00014E0E008704308EB0501405C04F007010D
:1023B000C840C00709EB04010AEB050001D0012267
:1023C00000E0002200F0EEF8641CA4B2BC42E8DB9E
:1023D0006D1CADB2B542E2DBBDE8F0872DE9FF4FE1
:1023E000244CA26813785E074FEAD30500D06D1C19
:1023F00092F801C0966852880027801A68430CFB47
:102400000068491E581800F0FF093E46A34626E022
:10241000002008EB050106E00C1A3B0214F8017CD1
:102420001F43401CC0B2A842F6D30298884600243D
:1024300000EB060A0CE00120A040B8435146A9EB8E
:10244000040014D05FF0000200F0ACF8641CE4B2A9
:10245000DBF808000078A042EDD8761CF6B2DBF875
:1024600008005A464078B042D2D8BDE8FF8F039AA0
:10247000EAE70000280000202DE9FF4F1F469346A1
:1024800082460024DDF8348022E07E1EF017012110
:1024900006EB507001EBE000002504FB00F60BEBAF
:1024A000040911E00AEBD50005F00701305CC1F129
:1024B0000701C840C00705D00198494628440E9A34
:1024C00000F070F86D1CADB2BD42EBD3641CA4B239
:1024D0004445DAD3BDE8FF8F2DE9F04F1E46DDE914
:1024E000097B90468946824600251AE0002414E0C4
:1024F000E00870430AEB0501405C04F00701C840A6
:10250000C00708EB040109EB050001D05A4600E0C2
:10251000002200F047F8641CA4B2BC42E8D36D1C52
:10252000ADB2B542E2D3BDE8F08F2DE9FC4F0546D0
:10253000994617460C46AA4201DD781B00E0E81BCD
:102540008046A14502DDA9EB040001E0A4EB0900EF
:1025500082464FF0FF30BD4201DA012100E0014622
:1025600001914C4500DA01208346CAF10000A8EB36
:102570000A060090214628460B9A00F013F8BD4247
:1025800001D14C450CD000997000884203DD0199BF
:10259000A6EB0A060D444045ECDA46445C44E9E704
:1025A000BDE8FC8F10B5802815D2002913DB402927
:1025B00011DAC317090100EB537301EBE30123F0B8
:1025C0000703064CC31A80202144D840002A0A7809
:1025D00002D002430A7010BD8243FBE7A40B002027
:1025E0002DE9F0411F4690460C4605460B4E0EE085
:1025F0003B4642462146FFF7F1FE287820280BD0C3
:10260000B0680078142800D9E41C04446D1C2878B4
:102610000028EDD1BDE8F081241DF7E72800002057
:102620002DE9FC479A4605460C461646DFF85080D1
:1026300020E00A2818D01349DFF84C9032460F5C8E
:1026400098F80010CDE9001A1048114919F8073020
:1026500050F8270008442146FFF70EFF19F807003D
:10266000641C04446D1C05E098F800000024064436
:102670006D1C761C28780028DBD1BDE8FC870000A3
:10268000B7020020A8010020A80200206C01002051
:102690009C0000202DE9FC47984691460D460446D3
:1026A00016E0202812D008F09DFB0F210B4FCDE93A
:1026B00000180646B819BB5D4A462946401CFFF77C
:1026C0000BFFB85D6D1C0544641C01E0641CED1C2F
:1026D00020780028E5D1BDE8FC87000043BC000855
:1026E0002DE9F043CE188846C4B28718DDF81C9057
:1026F0000EE000BF08F0FF0506E04A4629462046E6
:10270000FFF750FF6D1CEDB2AE42F6DC641CE4B284
:10271000A742EFDCBDE8F0832DE9F041DFF834801B
:10272000002508270021284607F0CAFA08EB0514FF
:102730000026207807F05EFA6078A41C07F05AFAA9
:10274000761CF6B2BE42F4D36D1CEDB2402DE8D338
:10275000BDE8F081A40B002010B5274C0246C4E967
:1027600000010021012090470021226802209047AB
:102770000121226800209047202007F037FA01202D
:1027800000F03EFC202007F031FA012000F038FC78
:10279000062007F02BFA012000F032FC202007F081
:1027A00025FA06F007F9012000F02AFC012007F0C5
:1027B0001DFA322000F024FC262007F017FA06F05C
:1027C000F9F8012000F01CFC0C2007F00FFA0120A2
:1027D00000F016FC0020FFF7CEFDFFF79DFF322032
:1027E00000F00EFC012007F001FA322000F008FC96
:1027F0000248A06010BD0000280000203400002026
:1028000070B5012000F018F84FF4FA7000F0F8FBF2
:102810000122084D54022146284600F026FD4FF4BF
:102820007A7000F0EDFB21462846BDE8704000229A
:1028300000F01BBD0018014002464FF480610148C2
:1028400000F013BD001801404FF4807201490248A6
:1028500001F041BC271F0020C4090020084910B521
:102860000020C880088107494870C87088700871C6
:10287000FF200870FFF7E8FFBDE81040FFF7C0BF7A
:10288000C00200200C00002070B500F023F84FF0CB
:1028900000420023FDF73EFD14461D46D00702D13D
:1028A000641C43F10005052200232046294603F05D
:1028B00029FC01280AD0A41C45F1000505220023AB
:1028C0002046294603F01EFC0028F4D02046294665
:1028D00070BD000001480021704700006D99829D85
:1028E000F8B50024009490F824202546012A12D03F
:1028F000012280F824204A681F23072A0DD2066887
:10290000776B521E02EB820293409F430B68934009
:102910001F43776319E00220F8BD06680D2A0AD22A
:10292000376BD21F02EB820293409F430B689340A8
:102930001F43376309E0F76A0D3A02EB82029340C6
:102940009F430B6893401F43F7620A68072306689A
:102950000A2A0AD3F7680A3A02EB420293409F43DD
:102960008B6893401F43F76008E0376902EB42022F
:1029700093409F438B6893401F4337610A68102A36
:1029800001D0112A20D1124B02689A4217D19368C4
:102990001B0219D4936843F400039360096810295B
:1029A00012D10C490C4A0968B1FBF2F101EB81012B
:1029B000490000E0491E00910029FBD104E0816A32
:1029C00041F020018162012480F824502046F8BDA6
:1029D000002401402400002040420F002DE9F04176
:1029E00004004FF000057FD0A06A002628B9E662F7
:1029F00084F82460204600F081F82046FFF7A4F90F
:102A0000A16AC90600D420B1A06A40F01000A062FB
:102A10006AE0A16A21F4885141F00201A1623349C0
:102A200023688B42E16904D1B1F5402F01D14FF405
:102A30000021277B4FF4807C41EA470261680A430A
:102A4000A168614508D0012906D0002194F814E05E
:102A5000BEF1010F02D00AE06146F7E7C7B1A76AED
:102A600047F02007A762E76A47F00107E7625F685F
:102A700027F469470F435F60236899681C4F39400A
:102A800011439960A16861450BD0012909D00CE080
:102A9000DFF860E0A7690EEB47370F4347F40061AA
:102AA000E5E7218A0D05A5F580152168CB6A23F499
:102AB00070032B43CB62216889680F4B1940914208
:102AC00008D1E662A16A21F0020141F00101A16290
:102AD000BDE8F081A06A20F0020040F01000A06282
:102AE000E06A40F00100E0620120F1E7003C0140B3
:102AF000FDF7E1FF00E0FFFFFE0E1FFF00B585B010
:102B00000021009101910291039100680E498842D1
:102B100017D10E48816941F400718161816901F426
:102B200000710491816941F01001816180696946F9
:102B300000F010000490032000900190044800F081
:102B400093FA05B000BD00000024014000100240CF
:102B50000010014010B590F821100022022905D084
:102B60000421816380F82020012010BD01680B68DA
:102B700023F00E030B6001680B6823F001030B6068
:102B800090F84030C46B012101FA03F3636080F8D0
:102B9000211080F82020104610BD00002DE9F05FC4
:102BA00090F821100024022903D00421816301241C
:102BB00085E001680A6822F00E020A6001680A686E
:102BC00022F001020A603F4E3E4FB215DFF8F4C01A
:102BD000DFF8F090DFF8ECA0DFF8E8B0DFF8E4E031
:102BE0000168783F13011502ACF1640CA9F150099A
:102BF000AAF13C0AABF1280BAEF1140E4FF4801889
:102C0000B14227D9B9420ED0614512D049451DD0F5
:102C1000514518D0594518D0714501D1424615E0AB
:102C2000294EB14201D1012210E0274E1436B142A3
:102C300001D110220AE0244E2836B14206D0224AA1
:102C40003C32914201D11A4600E02A461E49091F32
:102C50000A602BE0B94213D0614517D0494522D014
:102C600051451DD059451DD0714501D142461AE04C
:102C7000B14202D14FF0807215E0134EB14201D142
:102C8000012210E0104E1436B14201D110220AE0A8
:102C90000D4E2836B14206D00B4A3C32914201D14A
:102CA0001A4600E02A46074980394A60012180F827
:102CB0002110002180F82010416B01B18847204687
:102CC000BDE8F09F80000240080402402DE9F05F5B
:102CD000C16B0A6801680B68046C4FF0040808FABD
:102CE00004F8844D844E854FDFF814C2DFF8149247
:102CF000DFF814A2DFF814B2DFF814E218EA020FCA
:102D000065D05FEA437862D50A68920603D40A6800
:102D100022F004020A60DFF8F0814FF4806201685B
:102D200008F1140813011402414524D9A9420DD019
:102D3000B1420FD0B9421AD0614515D0494515D0DE
:102D4000514501D1120312E0594501D104220EE090
:102D5000714501D140220AE06D4D1435A94206D0DB
:102D60006B4A2832914201D11A4600E02246674957
:102D7000091F0A6029E0A94213D0B14215D0B94217
:102D800020D061451BD049451BD0514502D14FF49D
:102D9000800217E0414502D14FF0806212E05945B0
:102DA00001D104220EE0714501D140220AE0584DC4
:102DB0001435A94206D0564A2832914201D11A460A
:102DC00000E022464B4908394A60C16A71E04FF081
:102DD000020808FA04F818EA020F70D05FEA837854
:102DE0006DD50A68920606D40A6822F00A020A60C3
:102DF000012180F82110DFF810814FF40072016882
:102E000008F1140813011402414524D9A9420DD038
:102E1000B1420FD0B9421AD0614515D0494515D0FD
:102E2000514501D1120312E0594501D102220EE0B1
:102E3000714501D120220AE0354D1435A94206D052
:102E4000334A2832914201D11A4600E022462F49E6
:102E5000091F0A6029E0A94213D0B14215D0B94236
:102E600020D061451BD049451BD0514502D14FF4BC
:102E7000001217E0414502D14FF0007212E05945AF
:102E800001D102220EE0714501D120220AE0204D3D
:102E90001435A94206D01E4A2832914201D11A4661
:102EA00000E02246134908394A60002180F82010CA
:102EB000816A00291CD0BDE8F05F0847FFE70825BC
:102EC000A540154214D01A0712D50A6822F00E0246
:102ED0000A6090F84020C36B012101FA02F25A60A7
:102EE000816380F82110002180F82010016BE0E759
:102EF000BDE8F09F080002401C0002403000024084
:102F000044000240580002406C00024008040240A5
:102F10001C04024030B560B11A4B026814219A4279
:102F200009D2194B1344B3FBF1F18900016417492D
:102F30000AE0012030BD134B5B421344B3FBF1F1B7
:102F4000890001640F490839C163022180F821100A
:102F5000136843F6F0718B43F0E901142143D0E983
:102F600002452C4321430469214344692143846978
:102F70002143194311600021416301224277017707
:102F8000084630BD08040240F8FFFDBF00000240C3
:102F900070B5044690F82000002501280CD00120CF
:102FA00084F8200094F821600020012E06D084F8D7
:102FB00020000225284670BD022070BD022684F83C
:102FC0002160A0632068066826F00106066020469E
:102FD000FFF708F9E06A00282068016802D041F094
:102FE0000E0106E021F0040101602068016841F053
:102FF0000A0101602068016841F001010160D9E720
:1030000070B5044600F036F90546601C02D004484D
:103010000078044400F02EF9401BA042FAD370BDA2
:103020001800002020280ED1074A506896280AD39D
:1030300006490023486810B1401E486002D1034889
:103040003838037053607047B4030020AC20002070
:10305000044910B50A68024202D00860FFF7E2FF97
:1030600010BD0000140401402DE9F84FDFF8C891AD
:103070000024A9F1040B23460F2709F1040AABF140
:10308000040ED1E00125A54006EA0502AA4276D148
:10309000DFF8A8C14E68A6EB0C0866452BD00DDC06
:1030A000032E34D005DC36B3012E19D0022E2FD1D9
:1030B0001BE0112E16D0122E2AD119E0B8F5881F68
:1030C00019D006DCB8F5803F15D0B8F5801F1FD1A8
:1030D00011E0B8F5001F0ED0B8F5041F18D10AE0B2
:1030E000CB6815E0CB681B1D12E0CB6808330FE0FE
:1030F000CB680C330CE08B682BB1012B4FF008032D
:1031000003D0456104E0042302E0056100E00023F0
:10311000FF2A01D8064601E000F104064FEA8405C3
:1031200001D9A5F12005D6F8008007FA05FC28EAA8
:103130000C0803FA05F548EA0508C6F800804D6852
:10314000ED0070D53E4DAE6946F00106AE61AD6949
:1031500024F0030605F0010500953A4D06EB050C39
:10316000DCF80850A607360F07FA06F825EA080526
:10317000DFF8D480404503D14FF0000825E052E04D
:10318000DFF8C880404502D14FF001081DE0DFF8AC
:10319000C080404502D14FF0020816E0DFF8B4804D
:1031A000404502D14FF003080FE0DFF8AC80404506
:1031B00002D14FF0040808E0DFF8A080404502D1BA
:1031C0004FF0050801E04FF0060808FA06F848EA53
:1031D0000508CCF808804D68D9F80060ED024D462E
:1031E00001D5164300E096432E604D68DAF8006082
:1031F000AD02554601D5164300E096432E604D685A
:10320000DBF80060AD035D4601D5164300E0964350
:103210002E604D68DEF80060ED03754601D516435B
:1032200000E096432E60641C0A681646E2407FF474
:1032300029AFBDE8F88F000008040140000011101C
:10324000001002400000014000080140000C014055
:10325000001001400014014000180140001C014012
:103260008068084000D0012070470AB101617047B2
:103270000904FBE70148806870470000180000203F
:10328000024881680278114481607047180000206C
:10329000074810B5016841F010010160032000F0FB
:1032A0006DF80F2000F006F800F024F8002010BDA3
:1032B0000020024070B50D4D04464FF47A71287815
:1032C000B1FBF0F00A490968B1FBF0F000F049FDEC
:1032D00048B9102C07D200222146501E00F02EF8CB
:1032E00000206C6070BD012070BD0000180000203F
:1032F00024000020094808B5816941F0010181617D
:10330000816901F001010091C16941F08051C16101
:10331000C06900F08050009008BD0000001002401D
:10332000002809DB00F01F020121914040098000C4
:1033300000F1E020C0F8001170470000F0B40E4B1F
:103340001B680C46C3F30223C3F10705042D00D903
:103350000425191D072901D2002300E0DB1E0126E8
:1033600006FA05F1491E214099409E40761E1640FE
:103370003143F0BC04F0CEBE0CED00E0064900F095
:10338000070208684FF6FF03184040EA0220034A8C
:1033900010430860704700000CED00E00000FA05E3
:1033A000014901200862704700000E4210B5014635
:1033B0000020284C04292FD00BDC012930D0022911
:1033C00029D100F073F96168C1F38131491C4900CA
:1033D0001FE0082920D010291DD161682268D20180
:1033E00019D51D48C1F38342C903805C0AD56168C1
:1033F000194AC1F34041921E515C184AB2FBF1F1E7
:10340000484301E0164948436168490203D440003B
:103410000321B0FBF1F010BDBDE8104000F056B93B
:10342000226AC2F30121012903D1920701D5C80301
:1034300010BD022905D1626A920702D549F64040C3
:1034400010BD0329FCD121688903F9D54FF224402E
:1034500010BD000000100240FAB8000800127A0007
:1034600000093D002DE9F84305460078354CC007BA
:1034700054D0E0690026C00008D4E06940F08050D4
:10348000E061E069012600F0805000902E4801685C
:10349000C90512D40168804641F480710160FFF7CC
:1034A000E9FE074605E000BFFFF7E4FEC01B642805
:1034B00023D8D8F80000C005F6D5206A10F4407073
:1034C00021D0A98801F4407181421CD0206A1F4993
:1034D000012220F440700A6000220A602062C007C6
:1034E00011D0FFF7C7FE074641F2883808E000BF59
:1034F000FFF7C0FEC11B414502D90320BDE8F88398
:10350000206A8007F4D5206A696820F44070084377
:1035100020621EB1E06920F08050E06128788007C9
:1035200005D56068A96820F44040084360602878A9
:10353000C00605D56068696920F4800008436060B2
:103540000020DBE7001002400070004040044242CF
:10355000704700002DE9F0470F46050061D0434E4B
:10356000306800F00700B84209D2306820F0070048
:1035700038433060306800F00700B84251D1286805
:103580003B4C810712D5400703D5606840F4E060EA
:1035900060602878000703D5606840F46050606080
:1035A0006068A96820F0F000084360602878C007D0
:1035B00028D06868012810D02168022810D0890717
:1035C00000292EDA616821F0030101436160FFF7F1
:1035D00051FE804641F288390DE021688903EFE70A
:1035E0008901EDE7FFF746FEA0EB0801494502D946
:1035F0000320BDE8F0876068696800F00C00B0EB5C
:10360000810FEFD1306800F00700B8420BD9306865
:1036100020F0070038433060306800F00700B842FF
:1036200001D00120E5E72878400705D56068E96802
:1036300020F4E060084360602878000706D56068E1
:10364000296920F4605040EAC100606000F03EF853
:103650006168084AC1F30311515CC840064908601B
:1036600006480068FFF726FE0020C2E7002002405F
:10367000001002400AB90008240000201C000020AD
:1036800001490120C86470470000424204480549CE
:1036900000684968044AC1F30221515CC840704780
:1036A00024000020001002401AB90008044805490F
:1036B00000684968044AC1F3C221515CC8407047A0
:1036C00024000020001002401AB900080E4A516878
:1036D0000E4801F00C03042B11D0082B0FD10C481D
:1036E000C1F38343C903C05C0AD55168084AC1F3DA
:1036F0004041921E515C054A5043B0FBF1F07047C7
:1037000004494843704700000010024000127A004C
:10371000E8B8000800093D0010B5044CA068000698
:1037200003D5FFF715FF8020A07210BD00100240E6
:103730002DE9F84F040070D02078C04DC00749D063
:103740006868C0F38100012807D06868C0F3810071
:10375000022809D16868C00306D52868800339D5D6
:1037600060680028E7D035E06068B0F5803F0BD096
:1037700010B1B0F5A02F11D0286820F48030286057
:10378000286820F4802002E0286840F48030286017
:10379000606890B1FFF76EFD06460AE0286840F4C5
:1037A00080202860F0E700BFFFF764FD801B6428DD
:1037B00073D828688003F7D50CE0FFF75BFD064659
:1037C00005E000BFFFF756FD801B6428F0D828688D
:1037D0008003F7D420789A4E80074FF001094FF00C
:1037E000000839D5686810F00C0F07D06868C0F37E
:1037F0008100022809D16868C00306D428688007C0
:1038000014D52069012808D110E02069B0B1C6F8AC
:103810000090FFF72FFD074605E00AE1FFF72AFDBC
:10382000C01B0228C4D828688007F7D528686169BA
:1038300020F0F80040EAC10028600DE0C6F80080E2
:10384000FFF718FD074604E0FFF714FDC01B022830
:1038500023D828688007F7D4207800072CD579482A
:10386000A169D9B1C0F80090FFF704FD074604E054
:10387000FFF700FDC01B02280FD8686A8007F7D544
:1038800071484FF4FA510068B0FBF1F0009000BFAE
:103890000098411E0091FAD20EE080E0C0F800804E
:1038A000FFF7E8FC074604E0FFF7E4FCC01B022832
:1038B00075D8686A8007F7D42078400760D5E86932
:1038C0000027C00008D4E86940F08050E861E8694A
:1038D000012700F0805000905C480168C90513D4AE
:1038E0000168834641F480710160FFF7C3FC8246A2
:1038F00006E000BFFFF7BEFCA0EB0A0064284ED82C
:10390000DBF80000C005F5D5E06801280AD008B151
:10391000052813D0286A20F001002862286A20F0C8
:10392000040002E0286A40F001002862E06841F2E9
:10393000883B98B1FFF79EFC82460BE0286A40F076
:1039400004002862EEE700BFFFF794FCA0EB0A0139
:1039500059455AD8286A8007F6D50CE0FFF78AFC4B
:10396000824605E0FFF786FCA0EB0A0159454CD8DA
:10397000286A8007F6D41FB1E86920F08050E8611A
:10398000E06988B36968C1F38101022944D0022843
:10399000C6F8608004D0FFF76DFC044638E034E0E0
:1039A000FFF768FC074604E0FFF764FCC01B022831
:1039B0002BD828688001F7D4206AB0F5803F05D164
:1039C0006868A16820F4003008436860D4E9080101
:1039D0000843696821F4741108436860C6F8609070
:1039E000FFF748FC044606E025E000BFFFF742FC75
:1039F000001B022809D828688001F7D51BE000BF0A
:103A0000FFF738FC001B022802D90320BDE8F88F1D
:103A100028688001F4D40EE00128F7D06868226A93
:103A200000F48031914204D1616A00F47010884240
:103A300001D00120EAE70020E8E700000010024082
:103A400000004242800442422400002000700040F6
:103A5000024850F8210080B270470000006C00401E
:103A6000024800EB810091B201607047006C004099
:103A70000348012101704178491C417070470000E2
:103A800000000020704710B5044600680168C907AF
:103A900017D04168C90714D040684007204607D5B1
:103AA000FFF7F0FF21686FF004004860042002E097
:103AB000FFF7DEFF012060742068416821F00101FA
:103AC000416010BD80B1017C01290FD0012101743A
:103AD000022242740268136843F0010313604174C8
:103AE000002101740846704701207047022070478A
:103AF00070B5040003D0607C002610B105E0012001
:103B000070BD2674204600F03DF802206074204607
:103B100000F00AF9042550BB204603F0C7F930BB7A
:103B20002068416821F007014160A06820B1144875
:103B3000016821F0010101601148001F0168A268BD
:103B400021F46071114301606068411C04D10120BF
:103B5000FFF72CFC58B1401E2268C0F3034191606E
:103B6000216880B2C860204603F0BAF908B16574D4
:103B7000C5E7E67301206073A0736074002070BD18
:103B8000306C004008B50068084988420DD1FFF745
:103B900007FC0748C16941F00061C161C06905497E
:103BA00000F0006000900120086008BD002800407F
:103BB000001002403C0442422DE9F0410D46040051
:103BC0003BD0C5B3207C01283AD04FF0010884F8DF
:103BD000108002206074E87872B303F05EF9E0733D
:103BE000687803F05AF96073A87803F056F9A07367
:103BF000C2B2617BE07B03F0BCF9207328702046E1
:103C000003F0A7F94FF46161B0FBF1F10025182929
:103C10002DD91822B1FBF2F1A1EB011101EB410109
:103C2000C1EB011100EBC1163146204603F044FA06
:103C30000427C8B90BE000E004E00120BDE8F081F2
:103C40000220FBE7E07368786073A878CFE720462E
:103C500003F068F9411C0AD0B04208D20649014479
:103C6000204603F0DCF910B167742574E5E784F8A9
:103C7000118025740020E1E7805101002DE9F04119
:103C80000D46040024D01DB3207C012823D04FF022
:103C9000010884F81080022060742878EAB103F0EB
:103CA000FCF84FF4616100FB01F6687803F0F5F869
:103CB000C0EB001006EB8006A87803F0EEF835188C
:103CC0002946204603F0F8F90026042710BB0FE030
:103CD0000120BDE8F0810220FBE74FF46161484319
:103CE0006978C1EB011100EB8100A9784518E7E77D
:103CF0002068416821F005014160204603F012F977
:103D0000411C0AD0A84208D206490144204603F0CB
:103D100086F910B167742674DAE784F81180267486
:103D20000020D6E78051010070B504000AD0206859
:103D3000416821F008014160FFF79CFA05464FF405
:103D40007A7608E0012070BDFFF794FA401BB0427C
:103D500001D9032070BD206840680007F4D5002019
:103D600070BD10B5401EB0F1807F01D3012010BDA1
:103D70004FF0E02460610F21601704F0CBF90020C0
:103D8000A06107202061002010BD7047704700002F
:103D900070B590F83C20012A2CD0012480F83C40DA
:103DA000022280F83D2003685A689D6822F0700660
:103DB0000A6832435A60104B02689A420ED00F4B89
:103DC0009A420BD0B2F1804F08D00D4B9A4205D0E9
:103DD0000C4B9A4202D00C4B9A4204D1496825F010
:103DE00080031943916080F83D40002180F83C1029
:103DF000084670BD022070BD002C01400034014017
:103E00000004004000080040000C004010B5040011
:103E100003D094F83D0010B107E0012010BD002050
:103E200084F83C00204600F01FF8022084F83D0092
:103E3000211D206803F0C8FD012084F8460084F8A5
:103E40003E0084F83F0084F8400084F8410084F884
:103E5000420084F8430084F8440084F8450084F864
:103E60003D00002010BD000008B5006806498842EA
:103E700008D10648C16941F01001C161C06900F074
:103E80001000009008BD000000100040001002402B
:103E900090F83D10012901D001207047022180F8DF
:103EA0003D100168CA6842F00102CA6000680E490C
:103EB00088420ED00D4988420BD0B0F1804F08D017
:103EC0000B49884205D00B49884202D00A498842F2
:103ED00004D1816801F00701062903D0016841F08F
:103EE0000101016000207047002C014000340140B6
:103EF0000004004000080040000C0040704770B50E
:103F00000446006801694FF00005C943890715D4CC
:103F1000C168C943890711D4E91E016101202077D6
:103F2000206880698007204602D0FFF7E7FF04E0A1
:103F300000F098F8204600F096F82577206801698F
:103F4000C943490717D4C168C943490713D46FF05F
:103F500004010161022020772068806910F4407F0D
:103F6000204602D0FFF7CAFF04E000F07BF82046AD
:103F700000F079F8257720680169C943090716D44C
:103F8000C168C943090712D46FF008010161042018
:103F900020772068C0698007204602D0FFF7AEFF77
:103FA00004E000F05FF8204600F05DF82577206817
:103FB0000169C943C90617D4C168C943C90613D4E6
:103FC0006FF010010161082020772068C06910F4AB
:103FD000407F204602D0FFF791FF04E000F042F856
:103FE000204600F040F8257720680169C943C907D9
:103FF00008D1C168C943C90704D1891E016120469F
:1040000000F032F820680169C943090609D4C16883
:10401000C943090605D46FF0800101612046FFF70E
:10402000B4FE20680169C943490609D4C168C9437F
:10403000490605D46FF040010161204600F04AF8BE
:1040400020680169C94389060BD4C168C943890640
:1040500007D46FF0200101612046BDE87040FFF7F2
:1040600095BE70BD7047704710B514490068096867
:10407000884222D11249486840B1401E4860012858
:1040800004D1002208210F48FFF7EFF80E4801681D
:10409000B1F5801F01D2491C01600C484FF6FF7238
:1040A0000188914201D2491C01800948007800280A
:1040B00003D1BDE8104005F0F1BC10BDEC080020B4
:1040C0000000002000100140B8030020C4020020BE
:1040D000F4030020704738B5044690F842002028C9
:1040E00001D0022038BD61B15AB101202063002007
:1040F0006063204603F090FE0028F3D1216B012974
:1041000001D0012038BD21680A6849680091216802
:104110000C3151E8002F42F0100241E80023002B3F
:10412000F5D138BD2DE9F0410D462F49074600680D
:1041300009682E4C4FF4807888420DD12C492A46CC
:10414000A1F5057004F091FE424629492648FFF783
:10415000C2FF6068401C6060264938680968884270
:104160001BD12088258006B2424623492148FFF70B
:10417000B2FF218820488E4203DA891B8AB2811956
:1041800008E0C6F580718AB281191C4800F01EFB58
:1041900022881949194800F019FB1849386809683C
:1041A00088421ED1164E424616493088358004B2E8
:1041B0001248FFF790FF318812488C4203DA091B3E
:1041C0008AB2011908E0C4F580718AB20119094860
:1041D00000F0FCFA32880B49BDE8F041054800F0D8
:1041E000F5BABDE8F08100007C09002094000020B1
:1041F000241A00203409002010170020C4090020D0
:10420000C8020020271F002070470000F8B5016891
:1042100004460868CA684B6910F00F0F4FF000059C
:1042200059D003F0010602F49077374365D0C107F7
:1042300005D0D10503D5616C41F0010161644107EE
:1042400005D5D90703D0616C41F002016164810793
:1042500005D5D90703D0616C41F004016164010701
:1042600007D502F02001314303D0616C41F0080111
:104270006164616C00293AD0800604D5900602D5AD
:10428000204603F00BFD20684069616CC0F380108C
:10429000090700D460B3204603F0CBFC20684069D6
:1042A000400621D52068143050E8001F21F040015D
:1042B00040E80012002AF5D1E06BA8B16D494163D6
:1042C000E06BFEF76BFC002811D0E06B416B01B096
:1042D000BDE8F040084783060FD593060DD520466C
:1042E000BDE8F84003F0DABC2046FFF78DFFF8BDCB
:1042F0002046FFF789FF6564F8BD266B2023012E59
:104300007CD1C6067AD5D60678D50868486800906C
:1043100048694FF00206400640D5E16B08684068E6
:104320000004000CE8D0A28D8242E5D9E0858869BE
:1043300020282DD020680C3050E8001F21F4807117
:1043400040E80012002AF5D12068143050E8001F20
:1043500021F0010140E80012002AF5D12068143054
:1043600050E8001F21F0400140E80012002AF5D17A
:1043700084F84230256320680C3050E8001F21F09B
:10438000100140E80012002AF5D1E06BFEF7E2FBD5
:104390006663A08DE18D401A81B22AE0A08DE18D87
:1043A000401A81B2E08D0028A6D00029A4D022684E
:1043B0000C3252E8000F20F4907042E80007002F02
:1043C000F5D12068143050E8002F22F0010240E8B7
:1043D0000027002FF5D184F84230256320680C3087
:1043E00050E8002F22F0100240E80023002BF5D106
:1043F00066632046FFF796FEF8BDFFE705062BD55E
:10440000150629D594F841002128F5D1A068B0F50A
:10441000805F01D12069B0B1206A411C216221680E
:1044200000784860E08C401E0004000CE084E3D17A
:104430002068C16821F08001C1602068C16841F036
:104440004001C160D8E7206A0088C0F308004860D6
:10445000206A801C2062E5E74006CDD55006CBD50A
:10446000CA68204622F04002CA6084F8413000F059
:10447000E9F9C1E7E97A000870B5040004D094F8BE
:104480004100002510B106E0012070BD84F84050C5
:10449000204600F023F8242084F841002068C168F9
:1044A00021F40051C160204603F05AFC20680169E4
:1044B00021F4904101612068416921F02A014161A4
:1044C0002068C16841F40051C1606564202084F80F
:1044D000410084F842006563002070BD2DE9F0477B
:1044E00086B0002500950195029503950446DFF8F6
:1044F0000882D0F800C0814802210322804B102698
:1045000080274FF480694FF0200AC4454FD1D0F87E
:1045100018C04CF4804CC0F818C0D0F818C00CF487
:10452000804CCDF810C0D0F818C04CF0040CC0F886
:1045300018C08069039200F0040004900802CDE9DD
:104540000001694698461846FEF78EFDCDE90095B4
:10455000694640460295FEF787FDDFF8AC81694960
:104560004046B946C0E90015C0E90257C8F81050E6
:10457000C8E9055AC8F81C50FEF7CCFC08B1FDF795
:10458000CDFE6048614FC4F83C801438C8F8244020
:104590003860C7E90165C7E903957D61BD613846AB
:1045A000FD61A1E0A7637C6206B0BDE8F087DFF89B
:1045B0006081C4454ED1D0F81CC04CF4003CC0F81A
:1045C0001CC0D0F81CC00CF4003CCDF810C0D0F8D2
:1045D00018C04CF0040CC0F818C08069039200F0B9
:1045E000040004900420CDE900016946984618466D
:1045F000FEF73AFD0820CDE90005694640460295E0
:10460000FEF732FDDFF80C813E4940461431C0E927
:104610000015C0E90257C8F81050C8F81450C8F87F
:104620001850B946C8F81C50FEF774FC08B1FDF7E5
:1046300075FE3448384FC4F83C802830C8F8244010
:104640003860C7E90165C7E903957D61BD613846FA
:10465000FD6149E0314B9C45A6D1C36943F48023F9
:10466000C361C36903F480230493836943F008039F
:1046700083618069CDE9009100F00800CDE9032055
:10468000DFF89C8069464046FEF7EEFC4FF4006080
:10469000CDE90005694640460295FEF7E5FCDFF8E6
:1046A0008480184940462839C0E90015C0E90257FE
:1046B000C8F81050C8E9055AB946C8F81C50FEF7AA
:1046C00029FC08B1FDF72AFE0E48174FC4F83C80BC
:1046D0003C38C8F824403860C7E90165C7E903954C
:1046E0007D61BD613846FD61FEF714FC00283FF492
:1046F00059AFFDF713FE55E70038014000100240A6
:1047000000080140580002400C0A0020500A002016
:1047100000440040940A0020D80A002000480040CD
:10472000000C01401C0B0020600B002070477047FC
:104730002DE9F843044690F841001F4616460D4601
:10474000202802D00220BDE8F8837DB176B1002098
:104750006064212084F84100FEF78CFDA684804629
:10476000E684A068B0F5805F02D003E00120EAE7AC
:10477000206910B12E4600250EE000260CE08021B5
:10478000204603F091FBA0B9AEB116F8010B2168E9
:104790004860E08C401EE084E08C43464FF000020D
:1047A00000970028EBD14FF04001204603F07CFB3E
:1047B00030B10320C7E735F8020BC0F30800E6E785
:1047C000202084F841000020BDE7000070B50446B9
:1047D00090F84100202801D0022070BD49B342B3B7
:1047E0002162A284E28400206064212384F84130A5
:1047F000A56B114BAB62A56B104BEB62A56B104B1D
:104800002B63A36B5863256813462A1DA06BFEF724
:10481000BFFB21686FF0400008602068143050E84A
:10482000001F41F0800140E80012002AF5D100206D
:1048300070BD012070BD0000E77B0008297C0008E6
:10484000F97A000870477047FEE70000014902202E
:10485000087370475C20002010B50020064B01460D
:10486000802203F5487400BF43F820102254401CF6
:10487000C828F9D310BD0000A40F002070B50D4664
:104880000446FEF701F8C4E90001FDF7FDFFC4E9A5
:1048900002012046FDF7FCFA401C04D0024900202A
:1048A00041F82500012070BDA40F00207CB51446FE
:1048B000421E1D46CDE9000141F1FF332046294645
:1048C00003F0D6FB80F00100084301D000207CBD3E
:1048D00001207CBD3EB50024104800940194029450
:1048E0000D498460016004730475012505614FF46E
:1048F00060214460C161FEF771F848B90A20CDE932
:104900000005694602940548FDF7EAFF002801D03A
:10491000FDF704FD3EBD000000240140A808002072
:104920002DE9F04F85B00024794800940194029459
:104930000394816941F010018161816901F01001E6
:104940000491816941F004018161816901F00401F0
:104950000491816941F008018161816901F00801D8
:104960000491816941F040018161816901F0400158
:104970000491816941F0200181618069002200F089
:1049800020000490C8216348FEF76FFCDFF888B16F
:10499000002240F253115846FEF767FC01228021A5
:1049A0005846FEF762FC00224BF2E6015B48FEF738
:1049B0005CFC4FF68079002249465948FEF755FCC9
:1049C000012211025748FEF750FC4FF4804A0022A2
:1049D00051465448FEF749FCC82001250226CDE97E
:1049E0000005CDE9024669464A48FEF73DFB03272C
:1049F000CDE902570095694658460195FEF734FB0C
:104A00004FF48170CDE90005CDE90246694658466C
:104A1000FEF72AFBD020CDE90005CDE90247694623
:104A20005846FEF721FB4FF02008CDE90084694687
:104A300058460294FEF718FB1020CDE900046946A1
:104A400034480294FEF710FB3748CDF80080CDE9DA
:104A5000010569462F48FEF707FB1920CDE9000440
:104A600069462E480294FEF7FFFAE620CDE90005DC
:104A7000CDE9024669462948FEF7F6FACDF80090DE
:104A80000396CDE9015469462548FEF7EDFA4FF447
:104A90003040CDE90005CDE9024769461F48FEF7E1
:104AA000E3FACDE900A669461C480397FEF7DCFA55
:104AB0004FF48240CDE90005CDE902466946194828
:104AC000FEF7D2FA4FF43870CDE900046946154874
:104AD0000294FEF7C9FA4FF43C408DE85100694654
:104AE0001048FEF7C1FA4FF4F850CDE900066946C8
:104AF00003970848FEF7B8FA0420CDE90006694696
:104B000003970848FEF7B0FA05B0BDE8F08F000043
:104B1000001002400010014000080140000C01405C
:104B200000180140001401400000211010B50022BF
:104B300011460320FEF702FC0320FEF7F1FB0022E2
:104B400001210C20FEF7FAFB0C20FEF7E9FB002206
:104B500002210D20FEF7F2FB0D20FEF7E1FB002203
:104B600003210E20FEF7EAFB0E20FEF7D9FB002200
:104B700004210F20FEF7E2FB0F20FEF7D1FB0022FD
:104B800006211020FEF7DAFB1020FEF7C9FB0022F9
:104B900005211120FEF7D2FB1120FEF7C1FB0022F8
:104BA00011461720FEF7CAFB1720FEF7B9FB0022BB
:104BB00008212520FEF7C2FB2520FEF7B1FB0022CD
:104BC00009212620FEF7BAFB2620FEF7A9FB0022CA
:104BD0000A212720FEF7B2FB2720FEF7A1FB0022C7
:104BE00007213620FEF7AAFBBDE810403620FEF76D
:104BF00097BB00002DE9FC41002428480194264978
:104C000000940160611E41604FF480718160FEF785
:104C10006FFF48BB2148FEF755FF01211F48FEF7F3
:104C200017FF43F62077B84234D006258DF804509C
:104C300059208DF8050040208DF80600012201A9B9
:104C40001648FFF71BF878B98DF800408DF8015031
:104C500002268DF8026024208DF8030001226946A7
:104C60000E48FEF7A9FF08B1FDF758FB0C494FF4B9
:104C7000FD6008808D701D20C8700E710120487184
:104C80008C710868496804F0F6FF3A460121034830
:104C9000FEF7E6FEBDE8FC8100280040D8080020B1
:104CA000B80200201CB500240D4800940B49019463
:104CB000C0E9001444F24F61C0E9024180218161E2
:104CC000FFF7A4F838B90094694605480194FFF746
:104CD0005FF8002801D0FDF721FB1CBD001000404B
:104CE000EC080020FEE700002DE9F04FADB01822DF
:104CF000FE491EA8FBF741FDFD4CDFF8F8A3214655
:104D0000207949790127002604F11C094FF0050B91
:104D100088427DD060710020FDF72DFB2179F64897
:104D2000182976D2DFE801F00C1328F05395B4F17E
:104D3000EEEDECEBEAE9E8E7E7E7E6E5E4E3E2E1FC
:104D4000142201231146EDA0FDF76AFC07E30220BF
:104D500005F058FD142201231146FDF79BFC282283
:104D600001231146EDA0FDF73BFCEE48EBA10A68DC
:104D7000026089888180F2E2A0780326B0FBF6F118
:104D800006FB1100C0EB0012D84800210C380F328E
:104D9000FDF7FAFA0025A078B0FBF6F101EB41012E
:104DA00029440929D2DCB0FBF6F000EB400028448E
:104DB000001DC0B205F026FDC5EB051201230A2136
:104DC0000A32FDF767FC6D1C032DE4DBC7E201230B
:104DD00000221221D4A0FDF703FCD74801AD0168E1
:104DE000E16140682062B9F8000099F8063099F84E
:104DF000052099F8041085E80F0099F8020000904A
:104E000099F807004C4699F8033000EB400101E0A7
:104E1000AAE2A3E21EA80A18C8A105A8FBF7AAFAED
:104E200001231822002105A8FDF7DAFB2088A379C9
:104E3000627921798DE80F00BA48A378E278C7A19A
:104E40000A30FBF797FA2123172219461220009700
:104E5000FEE3A0790021C0EB0012A4480F320C3809
:104E6000FDF792FA102005F0CDFC0A22012311462D
:104E7000FDF710FC112005F0C5FC012319220A21C1
:104E8000FDF708FC122005F0BDFC0123282289E172
:104E9000142005F0B7FC012319220021FDF7FAFBCD
:104EA000152005F0AFFC012328220021FDF7F2FBBD
:104EB000A1480168E16140682062B9F800000090F3
:104EC0004C4699F8023099F80320AAA105A8FBF7EF
:104ED00051FA01230A22232105A8FDF781FB22783C
:104EE000A178E07803F046FE37E031E218E2FFE116
:104EF000E7E159E1E1E0DEE0D0E0CAE0C3E097E0BD
:104F00007FE068E041E000E066E1142005F07AFC13
:104F1000012319220021FDF7BDFB152005F072FCCD
:104F2000012328220021FDF7B5FB83480168E161D8
:104F3000406820624C46B9F8003099F8022091A1EF
:104F400005A8FBF717FA01230A22282105A8FDF777
:104F500047FB2178A07803F028FE044682B28CA19A
:104F600005A8FBF707FA01232D223C2105A8FDF730
:104F700037FB220C88A105A8FBF7FCF901231E22B0
:104F80003C2105A8FDF72CFBE9E1142005F03AFCD3
:104F9000012319220021FDF77DFB152005F032FCCD
:104FA000012328220021FDF775FB63480168E161B8
:104FB000406820624C46B9F8002078A105A8FBF7AC
:104FC000D9F901230A222D2105A8FDF709FB207834
:104FD00003F009FEC1E7042005F014FC0A220123B6
:104FE0001146FDF757FB142005F00CFC0123192294
:104FF0000021FDF74FFB152005F004FC01232822BA
:1050000054E0142005F0FEFB012319220021FDF7D6
:1050100041FB55469AF800205FA105A8FBF7AAF9C5
:1050200001231E22402105A8FDF7DAFA2878D1E0F5
:10503000A0790326B0FBF6F106FB1100C0EB0012CD
:105040002A4800210C380F32FDF79EF90025A0797F
:10505000B0FBF6F101EB41012944062994DCB0FBD9
:10506000F6F000EB400028441730C0B205F0CAFB50
:10507000C5EB051201230A210A32FDF70BFB6D1C5B
:10508000032DE4DB6BE1007808B117200AE0212052
:1050900008E040780028FAD0182003E08078002843
:1050A000F5D0192005F0AEFB012300225FF00001CE
:1050B000FDF7F0FA53E12220F4E79AF8140000B962
:1050C000A771A0790021C0EB001208480F320C38FC
:1050D000FDF75AF91D2005F095FB0A220123114620
:1050E000FDF7D8FA1E2005F08DFB59E03CC1000801
:1050F000C00300205C200020BC03002058696E2003
:105100004BED6E68204368E06F0A202020202020AD
:105110005175FD204B68E163680000002D2D2D2D99
:105120002D2D0000B820002054696D652053657452
:1051300074696E6700000000B80200202573202506
:105140003032642F253032642F25642025303264BC
:105150003A253032643A25303264200025303264FA
:1051600025303264256425303264253032642530A0
:1051700032640000253032642F253032642F25340C
:1051800064000000253032642F25346400000000E4
:1051900025643030300000002564000025346400B0
:1051A000012319220A2183E7082005F02BFB0A229C
:1051B00001231146FDF76EFA55469AF81520F3A122
:1051C00005A8FBF7D7F801231E22322105A8FDF719
:1051D00007FA687D6081C2E0EE484FF00A08B0F837
:1051E00056006081A279B2FBFBF10BFB112000EBB2
:1051F000800008EB40020021E748FDF7C5F8D946DA
:10520000DFF898B30025A04698F80600B0FBF9F146
:10521000B0FBF9F02944284401EB410200EB4000C7
:105220000BEB80000BEB820301694FF47A70B1FB4A
:10523000F0F2DBA105A81433FBF79CF805EB85041D
:105240000A2000EB440292460123142105A8FDF731
:10525000C7F998F80600B8F80A10B0FBF9F028442E
:10526000C140C8074FF00F004FF00C0100EB4400A5
:1052700001EB44010AD0CDE9007003460C220A205C
:10528000FDF753F953460097019909E0CDE9006015
:1052900003460C220A20FDF748F90199534600966F
:1052A00010220C20FDF741F998F80600B0FBF9F048
:1052B0004119DBF80800814251D26D1C052DA3DB9A
:1052C0004DE00A2005F09EFA0A2201231146FDF75F
:1052D000E1F955469AF80120B4A105A8FBF74AF870
:1052E00001231E22322105A8FDF77AF9687871E7BB
:1052F0000B2005F087FA0A2201231146FDF7CAF9AF
:105300005546AFF26C1105A8DAF80420FBF732F825
:1053100001231E22322105A8FDF762F9A88859E76A
:105320000C2005F06FFA0A2201231146FDF7B2F9AD
:105330005546AFF29C1105A8DAF80820FBF71AF8D9
:1053400001231E22322105A8FDF74AF9288941E7E9
:105350000D2005F057FA01230A2223E72671FDF7F5
:10536000DBF92DB0BDE8F08F04F07EFB904B0546D5
:10537000FF2801D01E7004E018783C2801D91E7067
:10538000267194F804C00B21642232204FF4FD6E84
:10539000BCF1180F7BD2DFE80CF00CF8F7F6F5F44F
:1053A000F3F2F1F0EFEEEDEDEDEDEDEDECEBEAE922
:1053B000E8E72A2D00D127711878002868D0B04678
:1053C0001E707C4EB078727931798DE80700F079E3
:1053D0001EA900EB40004218F37877A105A8FAF760
:1053E000C9FF01230022102105A8FDF7F9F8B079C3
:1053F000C00705D0012300224E2175A0FDF7F0F86B
:1054000003F0E2FAD346DAF8100006F09BF9024600
:1054100070A105A8FAF7AEFF01230022692105A8B3
:10542000FDF7DEF8DFF8B4A16D48DAF80010642962
:1054300004D9017A012901D16A490F70017A227ACF
:10544000A14691425FD0B3790322B3FBF2F402FB91
:105450001432002A7ED189F8081003293CD1322366
:105460007F220A210020CDF80080FDF739F926209F
:1054700005F0C8F901230A220021FDF70BF9544673
:10548000DAF800104FF47A7AB1FBFAF201E02FE17A
:1054900069E055A105A8FAF76DFF2068B0FBFAF1A5
:1054A000039861F30F0068F31F4003903278B178DE
:1054B000F078039B02F04FFE01230F22402105A844
:1054C000C4F80080FDF78CF8232005F09BF9012338
:1054D0002D220F21FDF7DEF8414C207A01280ED154
:1054E00032237F220A210020CDF80080FDF7F8F852
:1054F000012314221146AFF2FC30FDF791F8207A17
:10550000022801D0C8B125E032237F220A210020E1
:10551000CDF80080FDF7E4F8242005F073F90123AD
:105520000F222821FDF7B6F8252005F06BF901239D
:105530001E221421FDF7AEF80BE09BF80000039B40
:10554000327860F31F4368F30F03B178F07802F00C
:1055500002FE2772FDF7E0F8264890F83100012896
:1055600001D189F804702CE245E3F7E3F7E3F7E3B0
:10557000E0E3B0E3ABE341E31EE318E3D0E28EE205
:1055800011E2EBE13BE1ECE3B4E035E025642525F5
:10559000000000003605002030C100080C16002075
:1055A0002533642E303030202573000025647300CD
:1055B00001000020B8020020257320253032642F1E
:1055C00025303264202532642020253032642000CA
:1055D0003A00000025326425252000004C00002000
:1055E000AC200020B40300202533642E3030305628
:1055F0004E44000074200020A5F1300009286FD827
:10560000FC48A1784554491CC9B2A170062952D35F
:10561000F949A67003780F78BB4223D1477891F8F7
:1056200001C067451ED1877891F802C0674519D13E
:10563000C77891F803C0674514D1077991F804C081
:1056400067450FD1477949798F420BD1022000E09D
:105650007BE12071E948082102600122E848FDF75A
:1056600004FEAEE1E449891D0F78BB421AD14378AC
:105670004F78BB4216D183788F78BB4212D1C37862
:10568000CF78BB420ED103790F79BB420AD1407962
:105690004979884206D1D948082102600122D848B8
:1056A000FDF7E3FDD5484FF4FA71012201600821AE
:1056B000D348FDF7DAFD0020A2782A272D2369467A
:1056C000904201DA0F5400E00B54401C0628F7DB2F
:1056D00028228DF80660012311466846FCF780FFFA
:1056E000232D00D12671C74890F831000028B8D189
:1056F000267166E1302D06D0382D0CD0232D11D027
:105700002A2D11D032E0A078401CC0B2A070092828
:105710002CD9A6702AE0A07808B1401E00E009202C
:10572000A07023E02671F4E7A671A0780A281DD2A4
:10573000DFE800F005080A0C0E101416181A84F899
:1057400004B009E00A2010E0217105E012200CE00D
:1057500013200AE003202071A67107E0142004E062
:10576000152002E0162000E017202071E178A078D3
:105770008142BED00327B0FBF7F107FB11000128DF
:1057800006D030237F220F2100200096FCF7A8FFCF
:10579000E078B0FBF7F107FB1100C0EB001200212D
:1057A00099480F32FCF7F0FDA078E070B0FBF7F1FC
:1057B00007FB1100C0EB001293480021801F0F323D
:1057C000FCF7E2FD0026A078B0FBF7F101EB410108
:1057D000314409298DDCB0FBF7F000EB4000304488
:1057E000001DC0B205F00EF8C6EB061201230A2117
:1057F0000A32FCF74FFF761C032EE4DBABE3A5F186
:10580000300009287DD87B48A1780A304554491CCE
:10581000C9B2A1700D2900D9A6700178437830393A
:1058200001EB81016FF02F0202EB4101194401F0FD
:10583000FF0B89F803B0837890F803C0303B03EB8B
:10584000830302EB43036344DBB289F802309A46D8
:10585000037990F807C0303B03EB4308C8EBC31350
:105860000CEBC30C43794FF0640803FB08F390F88A
:105870000680494608EB880803EB48036344A3F518
:10588000A053D03B1FFA83F8A1F80080037A90F868
:1058900009C0303B03EB830302EB4303634403F093
:1058A000FF0C81F804C0837AC146303B90F80B802E
:1058B00003EB830302EB43034344DBB24B7190F8E9
:1058C0000D80007B303800EB800002EB400040444C
:1058D000C0B28871CDF808C0CDE90330CDE900A988
:1058E000C8795B4600EB40011EA80A18AFF2B471FC
:1058F00005A8FAF73FFD01231822002105A8FCF7AF
:105900006FFE232D03D1D4E9070104F0B4F93FA3BE
:105910000DF190080FCB88E80F00FF2D3FF421AD6B
:10592000A0780096A0B124A90844212310F8015CB6
:1059300019466A1D4FEA0500FCF7F7FD0097A178AC
:1059400024A82123405C1946421DFCF7EEFD06E524
:105950009DF89D00421D21231946EDE7302D06D00C
:10596000382D0CD0232D11D02A2D11D013E0A07981
:10597000401CC0B2A07102280DD9A6710BE0A0791D
:1059800010B1401EA07106E00220FBE7022001E0FA
:10599000A079801D2071E178A079814211D0E0705A
:1059A0002D230096A4E1232D01D184F804B01648DC
:1059B00028AC1E30382D0FC884E80F0002D0302DDF
:1059C0002CD0C8E299F8031028AB491CCAB289F858
:1059D000032099F8021048465B5C9A4242D9491C60
:1059E000C9B2C77081700C293CD987700188491CE5
:1059F00036E00000B8200020D00300200400002082
:105A0000001001407420002036C10008121822271F
:105A1000353B41475157636973790000B9F800106D
:105A20004846714505D88278012A02D8C278012AF1
:105A300018D9C278521E12F0FF02C27012D17145FD
:105A400002D88278012A06D9827828AB521ED2B2B7
:105A500082709A5CC270827822B90C228270491ED0
:105A6000A9F80010044600880090A378E278AFF609
:105A7000FC0105A8FAF77EFC01230A22232105A8D0
:105A8000FCF7AEFD192343221E213C200096FCF7B3
:105A900027FE2278A178E07803F06CF86BE0232DE4
:105AA0007ED0382D02D0302D0DD054E299F802105E
:105AB0004846491CC9B289F802100C2916D98770CA
:105AC0000188491C10E0B9F800104846714502D819
:105AD0008278012A02D98278521E827012F0FF0F5A
