:020000040800F2
:10000000B0250020510200084F4000088537000845
:10001000193C0008C30F00080D5B00080000000039
:10002000000000000000000000000000595200081D
:100030005313000800000000614D0008A55300089C
:100040006B0200086B0200086B020008E14D00081B
:100050006B0200086B0200086B0200086B020008CC
:100060006B0200086B0200086B0200086B020008BC
:10007000E1120008ED120008F9120008051300084B
:10008000111300081D1300086B0200086B02000822
:100090006B0200086B0200086B0200087B1300086B
:1000A0006B0200086B0200086B0200086B0200087C
:1000B0006B0200086B0200086B0200086B0200086C
:1000C0006B0200086B0200086B0200086B0200085C
:1000D0006B020008E95A0008F55A0008015B0008A5
:1000E0006B0200086B0200086B0200086B0200083C
:1000F0006B0200086B0200086B0200086B0200082C
:100100006B0200086B0200086B0200086B0200081B
:100110006B0200086B020008855500086B0200089E
:100120006B0200086B0200086B0200086B020008FB
:1001300000F002F800F063F80AA090E8000C824496
:100140008344AAF10107DA4501D100F058F8AFF273
:10015000090EBAE80F0013F0010F18BFFB1A43F0A5
:1001600001031847F48C0000148D00000A4410F8B5
:10017000014B14F00F0508BF10F8015B240908BFFC
:1001800010F8014B6D1E05D010F8013B6D1E01F8F3
:10019000013BF9D1641E03D0641E01F8015BFBD161
:1001A0009142E4D37047000000230024002500267C
:1001B000103A28BF78C1FBD8520728BF30C148BFCA
:1001C0000B607047642900F01D81752900F01A81C9
:1001D000782900F05381732900F0F58400207047DE
:1001E0001FB500F036FA00F045FE040000200021A3
:1001F00008F022FA401C60601FBD10B510BD00F071
:1002000013FE1146FFF7ECFF06F0ECFA00F044FE97
:1002100003B4FFF7F2FF03BC00F0CCFB0B49D1F8AD
:1002200000C04A685CF8043B1068184442F8040BAC
:100230008C4528BFA1F1DC0C8A4228BFA1F1DC0269
:10024000C1F800C04A6020F0004070471C1F002029
:100250000948804709480047FEE7FEE7FEE7FEE75A
:10026000FEE7FEE7FEE7FEE7FEE7FEE70448054996
:10027000054A064B704700002B5400083101000866
:10028000B01F0020B0250020B0210020B0210020A8
:10029000B2F120030AD5C2F1200301FA02F120FADB
:1002A00003F300FA02F041EA0301704700FA03F198
:1002B0004FF000007047B2F120030AD5C2F12003CD
:1002C00020FA02F001FA03F341FA02F140EA0300D6
:1002D000704741FA03F04FEAE171704710B54C10D6
:1002E00084EA530404D54042C1F1000138BF491EDD
:1002F0001B4204D55242C3F1000338BF5B1E00F01D
:1003000063FB14F0804F04D04042C1F1000138BFBC
:10031000491E14F0004F04D05242C3F1000338BF0D
:100320005B1E10BD0FB4044910B503AA029800F07B
:100330004FFC10BC5DF814FB080000200FB41CB586
:10034000074B06AA7B4469460090059800F011FC13
:100350000020694600F020FC1CBC5DF814FB000086
:100360005108000070B5044685690068C10601D5D2
:10037000302600E02026C00707D070BDD4E9012157
:1003800030469047206A401C20626D1EF6D570BD35
:1003900070B5044685690078C00707D170BDD4E9FF
:1003A000012120209047206A401C20626D1EF6D556
:1003B00070BD70B50C460546012A05D02878800628
:1003C00000D5EA69002302E0012305E05B1C9342AB
:1003D00002D2E05C0028F9D1A869E618C01AA86129
:1003E000286A184428622846FFF7BCFF04E0D5E9D4
:1003F000012114F8010B9047B442F8D32846FFF7C7
:10040000C7FF70BD2DE9F04106460024106875292C
:10041000314616A510D0AFF30080002802DA404222
:1004200013A507E031688A0701D512A502E0490744
:1004300004D511A5012401E0AFF3008000210A22B8
:1004400006F1240709E0B0FBF2FCB0FBF2F302FB7B
:100450001C00303078541846491C0028F3D123463C
:100460002A463046BDE8F04100F025BB0000000000
:100470002D0000002B0000002000000070B5044695
:100480000D4621461068AFF300802188090502D58A
:100490000F4A7A4402E00E4A7A440E32002104F1F7
:1004A000240305E000F00F060009965D5E54491C28
:1004B0000028F7D120780023000704D5702D02D042
:1004C00009B1022311322046BDE8704000F0F3BAB2
:1004D0007B8900002DE9F05F894604464FF0000A51
:1004E000DFF824B1FB44C0F820A02046E16888472B
:1004F00000287DD0252806D0D4E901219047206A24
:10050000401C2062F1E700255F462046E1688847ED
:100510002028064607DB312E05D2B81910F8200C2A
:1005200008B10543F1E7A80701D525F00405C4F893
:100530001CA00027C4F818A02A2E09D0304605F0C8
:1005400035FB38B304EB8708303EC8F8186019E073
:1005500059F8041B204604EB87029161E168884743
:10056000012F064618D1E069002820DA25F0200581
:100570001DE0D8F8180000EB800006EB4000303892
:10058000C8F818002046E1688847064605F00EFBCB
:100590000028EED1012F0AD02E2E08D12046E16886
:1005A00088477F1C0646022F45F02005C4DBA06962
:1005B000002803DA404245F00105A061E80701D0B8
:1005C00025F01005A6B1A6F14100192802D8203661
:1005D00045F400654A463146204625604D46FFF702
:1005E000F1FD60B1012807D0ED1D25F0070000E006
:1005F00007E000F1080978E705F1040975E73046DE
:100600007AE7206ABDE8F09F5189000070B5064680
:1006100000F0D6F90468054630460A22002100F0B1
:10062000E9FA2C6070BD00000B4910B5A1F17C0205
:100630000A4CC2E93712372106E000EB104342F8BA
:100640002130074B00FB03400B1EA1F10101F4DC3C
:1006500010BD0120E8E70000BC1E0020E119D666AD
:10066000CD0D010010B5002000F0FCFAFFF7C5FD2C
:10067000BDE81040012000F09DB910B5431C02E018
:1006800010F8011B71B18107FAD14FF0013202C895
:100690008C1A8C4314EAC211F9D0C01A0A0603D08E
:1006A000C01E10BDC01A10BD0A0401D0801E10BDAE
:1006B0000902FCD0401E10BD032A40F2308010F029
:1006C000030C00F0158011F8013BBCF1020F6244ED
:1006D00098BF11F801CB00F8013B38BF11F8013B7E
:1006E000A2F1040298BF00F801CB38BF00F8013B2B
:1006F00011F0030300F02580083AC0F0088051F89B
:10070000043B083A51F804CBA0E80810F5E7121DA5
:100710005CBF51F8043B40F8043BAFF30080D207C4
:1007200024BF11F8013B11F801CB48BF11F8012B90
:1007300024BF00F8013B00F801CB48BF00F8012BB3
:10074000704710B5203AC0F00B80B1E81850203A3D
:10075000A0E81850B1E81850A0E81850BFF4F5AF61
:100760005FEA027C24BFB1E81850A0E8185044BFEB
:1007700018C918C0BDE810405FEA827C24BF51F858
:10078000043B40F8043B08BF7047D20728BF31F84C
:10079000023B48BF11F8012B28BF20F8023B48BF9D
:1007A00000F8012B70474FF0000200B51346944645
:1007B0009646203922BFA0E80C50A0E80C50B1F1B9
:1007C0002001BFF4F7AF090728BFA0E80C5048BFCD
:1007D0000CC05DF804EB890028BF40F8042B08BF6B
:1007E000704748BF20F8022B11F0804F18BF00F867
:1007F000012B7047014900F03DBA0000241F002082
:1008000010B503681C1404EB21449BB289B219444F
:1008100094FBF2F302FB134394FBF2F401EB03436A
:1008200093FBF2F102FB113193FBF2F301E05B1E4B
:1008300011440029FBDB016003EB044010BDF0B55F
:1008400004464FF0FF3585B0006804906068029060
:10085000A0680390E068019020690090666906F145
:100860008040B0F1004F7CD83C22002104A8FFF763
:10087000C7FF3C22014602A8FFF7C2FF182201462B
:1008800003A8FFF7BDFF411E40F2B55201A8FFF7D4
:10089000B7FF0C22074668460021FFF7B1FF414B26
:1008A00000EB8700304400267B4411E0511A01918F
:1008B0000099491C0229009102D00C2908D105E0B9
:1008C000810705D00199491C019101E0401C009667
:1008D0000099019A595C9142E8DD0099012906D1FD
:1008E0001C2A04D1810702D00221CDE90016A0F113
:1008F00046018B293CD2DDE90061002202E09F5CC9
:10090000521C3944B242FADB012E02DD820700D0CC
:10091000491E40F2B55340F26D16C21700EB9272B9
:1009200092105A4300F0030303FB062283070A4494
:1009300000D1521E039E02EB4203049F06EBC30349
:10094000029EC3EB031306EB8303174E33441E14BE
:100950009BB2C6EB0616C3EB0313B60007EB83038B
:1009600000E005E006EB134666F31F43360C02D0A9
:10097000284605B0F0BD80C4029E40C4039E40C41A
:10098000019E761C44F80C6B009E44E9026007202F
:10099000521C92FBF0F600FB162084E82300184658
:1009A000E7E700009E850000A039CEFD7047704744
:1009B0007047000001491820ABBEFEE72600020088
:1009C00000487047501F002053EA020C00F0698075
:1009D0002DE9F04B4FF00006002B1FBFB3FA83F553
:1009E00003FA05F424FA05F65E4012BF1643B2FA84
:1009F00082F502FA05F4C5F120051EBF22FA05FCB6
:100A000044EA0C04203556EA044C4FEA144418BF5B
:100A1000641C4FF000084FF00009904271EB030C8A
:100A200039D3002919BFB1FA81F701FA07F6B0FAF4
:100A300080F700FA07F6C7F120071EBF20FA07FC6F
:100A400046EA0C062037B6FBF4FCA7EB0507103F7F
:100A500007F01F0BCBF120060CFA0BFB2CFA06F665
:100A600044BFB3460026202FA4BF5E464FF0000BC4
:100A70005BEA060C08BF4FF0010B19EB0B09ABFB4F
:100A8000027C48EB0608C01B06FB02CC0BFB03CC28
:100A900071EB0C01C1E70B46024641464846BDE8F2
:100AA000F08B13B54FF000004FF00001AFF3008062
:100AB000BDE81C4070472DE9F0470D469946924627
:100AC000044600F124080168880604D5E06921F095
:100AD0001001216000E00120A84201DD471B00E079
:100AE0000027A1697A1902EB0900081AA061207891
:100AF000C00602D42046FFF735FC002608E0D4E902
:100B000001211AF806009047206A401C761C2062DA
:100B10004E45F4DB2078C0060AD52046FFF722FCBC
:100B200006E0D4E9012130209047206A401C206271
:100B3000381EA7F10107F4DC07E0D4E9012118F819
:100B400005009047206A401C2062281EA5F101057F
:100B5000F3DC2046FFF71CFC2078000602D50220BB
:100B6000BDE8F0870120FBE701694A1C02610878B3
:100B7000704700B58FB0CDE90131002105910549DD
:100B80007944CDE9031011466846FFF7A3FC0FB086
:100B900000BD0000E5FFFFFF0A6802F8010B0A60D4
:100BA000704710B5436913B1AFF3008001E0FFF760
:100BB00000FC012010BD127800F124010A7000220F
:100BC0004A700122EDE711684FF0FF32E9E70000BB
:100BD000074B70B50D467B44FFF7CBFF0446284614
:100BE00000F001F910B14FF0FF3070BD204670BD2C
:100BF000DF5800002DE9F04791460F468046044635
:100C0000002614F8015B2DB100F096F80068405DF5
:100C1000C007F6D12B2D02D02D2D18D0641E4A46C8
:100C20003946204600F090F827B13968A14201D139
:100C3000C7F800804FF0020471050BD54042002830
:100C400003DDFFF7BDFE0460A007BDE8F08746F4B2
:100C50008066E4E70028F8DAFFF7B2FE04606FF080
:100C60000040F2E710B500F0C7F8BDE8104000F012
:100C7000BEB8000070B50C46016800204A1C3ED08A
:100C80003C22B1FBF2F302FB1313B1FBF2F1236040
:100C9000B1FBF2F302FB1313B1FBF2F11822636014
:100CA000B1FBF2F302FB1313B1FBF2F146F2E032B7
:100CB0000A440721A360B2FBF1F301FB132140F2C8
:100CC000B553B2FBF3F5A161B2FBF3F103FB1522BF
:100CD0008900B2F5B77F08D39B10521EB2FBF3F523
:100CE0002944B2FBF3F503FB15220F4BE26161616E
:100CF00089077B440CD03B2A0AD3521C08E02C21E4
:100D00002046FFF750FD0120E0600AE0521A401C27
:100D1000195C9142FAD9521CC4E903204FF0FF300C
:100D20002062204670BD00005481000000487047DA
:100D3000501F00207047000010B500F09BF8001D08
:100D400010BD00BFF57800002DE9F05F8246154622
:100D50008B4600270AF10104B9460078302801D0FB
:100D60009DB113E014F8010B0127782803D058280F
:100D700001D045B10AE00DB1102D07D1002714F8BC
:100D8000010B102502E0082500E00A250026B046E8
:100D90000EE005FB080005FB06F101271FFA80F8AD
:100DA00001EB1046B6F5803F00D3B94614F8010BAD
:100DB000294600F063F80028EBDABBF1000F05D0FC
:100DC0000FB1641E00E05446CBF80040B9F1000FAB
:100DD00006D0FFF7F5FD02210160C81EBDE8F09FB7
:100DE00048EA0640FAE7007B00F0800070470028E0
:100DF00001D0FFF7DFBD704710B5002102A000F061
:100E000054F8012010BD0000534947414252543A62
:100E10002041626E6F726D616C207465726D696ED7
:100E20006174696F6E0000007546FFF77FFFAE4684
:100E300005006946534620F00700854618B020B5E6
:100E4000FFF714FABDE820404FF000064FF000070E
:100E50004FF000084FF0000B21F00701AC46ACE862
:100E6000C009ACE8C009ACE8C009ACE8C0098D46CF
:100E70007047000000487047701F00203A2800D2D9
:100E8000303820F02002412A01D3A2F137008842F5
:100E900001D34FF0FF30704710B50446AFF3008028
:100EA0002046BDE81040FFF7B3B970B505460C46C3
:100EB0000A2000E06D1C00F051F835B128780028B8
:100EC000F8D102E0641C00F049F814B12078002841
:100ED000F8D1BDE870400A2000F040B84FF0013C66
:100EE00050F8042B51F8043B9A4221D1A2EB0C0399
:100EF000934313EACC1317D150F8042B51F8043B59
:100F00009A4215D1A2EB0C03934313EACC130BD1F5
:100F100050F8042B51F8043B9A4209D1A2EB0C0380
:100F2000934313EACC13DBD04FF00000704700BFAF
:100F3000D01A01BAB1FA81F101F0180122FA01F0D8
:100F4000CB40C1F12001DBB2C0B2C01A2CFA01F3D0
:100F5000D11A914311EAC311E6D1704708B5694629
:100F60008DF800000320ABBE08BD000070B504463C
:100F700000688168C943C90717D1816821F0010160
:100F8000816001F029F905460AE000BF01F024F96B
:100F9000401B022804D920688068C043C00706D0DF
:100FA00020688068C043C007F0D0002070BDA06AF0
:100FB00040F01000A062E06A40F00100E062012011
:100FC00070BDFEE72DE9FC41002605460C4681F880
:100FD000FF6130462118401C81F80061FF28F9DBD1
:100FE000687F324F112802D1697E80207854E87ED4
:100FF00050B105F11C03CDE900355A1C687E11463D
:1010000000F0BEF900284FD084F80462687E84F8AE
:10101000020284F8FF6184F8FF60032084F8010273
:10102000287F7F26401D84F800022670687E395C88
:1010300008436070287FA070002004E0291822185F
:10104000497FD170401C297F8142F7DC94F800026F
:1010500048F205034FF6FF72611CC01E05F0D6F87A
:101060002A7FE11C5054010A2A7F201D1154104987
:10107000207808700120024608E0A35C0B54A35CB2
:101080007F2B01D1401C0E54401C521C94F800329E
:101090009342F2DC002202E08B5CA354521C824299
:1010A000FADB84F800020120BDE8FC81FC0B002083
:1010B0005C1400201CB50446D4E90001084318D094
:1010C000D4E90201084314D000F0AEFB4FF0004217
:1010D0000023FFF703F9C4E90623D4E90201CDE9AF
:1010E0000001D4E9000104F013FDC4E9040100206B
:1010F0001CBD4FF0FF301CBD1CB50446D4E90201F5
:10110000CDE90001D4E90801D4E9062304F000FD8B
:10111000C4E90C0101201CBD70B504461348124DF2
:1011200086B0816941F0040181618069012600F087
:10113000040004901120CDE90060002002900320FB
:1011400003906946284600F039FF012211462846DF
:1011500001F03DF8C4E90456022020764FF4FA600D
:10116000E06106B070BD00000008014000100240C0
:101170002DE9F041D4B00446012751AA11200025E1
:101180000326509782E86100DFF8448150A9404669
:1011900000F014FF01E02554401C0528FBDB012270
:1011A0001146404601F013F841F29210401EFDD264
:1011B00000220121404601F00AF8207E022858D082
:1011C000032856D04348401EFDD201221146404616
:1011D00000F0FDFFCDE95075CDE9525650A94046CB
:1011E00000F0ECFE002007F00FFAFF2846D00120A7
:1011F00007F00AFAFF2843D000276E46002007F0C8
:1012000003FA46F82700012007F0FEF906EB8701F4
:10121000BF1C4860502FF1DB5FF0000006EBC001FF
:1012200056F830204B68FF2A2CD0FF2B2AD0C1174C
:1012300000EB517104EBE1010F787F063F0E0F7058
:10124000934202D947F001020A70401C2828E5DBCE
:1012500020786178A6780844E178721810442279E1
:10126000C0B2824210D0052084F8200054B0BDE8FE
:10127000F08141F28630401EFDD2A6E70220F3E75E
:101280003046F1E70420EFE706F07F0041EA002056
:1012900007F019FA104FDFF844803A46434607F04A
:1012A00025FA07F0DFF9A060310602D580F0004092
:1012B000A060208840BA07F006FA3A46434607F095
:1012C00015FA07F0CFF9E06084F820502846CDE702
:1012D000000801408E5F01009A9999999999B93F48
:1012E000014800F09DBC000098040020014800F077
:1012F00097BC000054040020014800F091BC00009D
:1013000088030020014800F08BBC0000440300204B
:10131000014800F085BC0000CC030020014800F02B
:101320007FBC00001004002030B590F8405001242C
:10133000AC40C56B6C60046863604368102B036845
:1013400003D099600068C26030BD9A600068C160D7
:1013500030BD70471FB512780023069CCDE902020C
:10136000CDE9003110222146012004F030FC10B1FB
:10137000002004B010BD0120FBE7202000F012BEC9
:101380002DE9F04F91461A788046D01D1F46002661
:10139000C0B2C5B0030703D000F00F03C3F11006BD
:1013A000DFF8B8B030448DF81020C4B25BF82830B4
:1013B000002004AAC50023FA05F502EB000C401C2E
:1013C000C0B28CF801500428F4D3002004E00B5C78
:1013D0001518401C6B71C0B23B788342F7D80025CA
:1013E00092460CE0FEF71AFFFF2190FBF1F201FBA1
:1013F00012003A78691D52446D1C5054EDB2B5424A
:10140000F0D348F205034FF6FF7204A9A01E04F0C2
:10141000FDFE0AEB040202F8020D000A50700022E1
:1014200009F10100CDE9002ACDE90204134610229A
:1014300001204F9904F032FD18B1002045B0BDE8FD
:10144000F08F4E98641C7E21047089F800105BF8C0
:101450002810491C4BF828100120EFE7DC08002079
:1014600002A0FEF75FFF72B6FEE700006572726FC2
:10147000720D0A0008B541008DF8001081F01B01C3
:101480008DF80110694601EBD010007808BD08B551
:101490000021009040238022084600F0CBF808BDD0
:1014A0002DE9FF4F244CA26813785E074FEAD3055D
:1014B00000D06D1C92F801C0966852880027801AEF
:1014C00068430CFB0068491E581800F0FF093E46AF
:1014D000A34626E0002008EB050106E00C1A3B02BB
:1014E00014F8017C1F43401CC0B2A842F6D30298F6
:1014F0008846002400EB060A0CE00120A040B84317
:101500005146A9EB040014D05FF0000200F054F83B
:10151000641CE4B2DBF808000078A042EDD8761C29
:10152000F6B2DBF808005A464078B042D2D8BDE89F
:10153000FF8F039AEAE700001C0000202DE9FC4F12
:101540000546994617460C46AA4201DD781B00E085
:10155000E81B8046A14502DDA9EB040001E0A4EBF5
:10156000090082464FF0FF30BD4201DA012100E060
:10157000014601914C4500DA01208346CAF1000082
:10158000A8EB0A060090214628460B9A00F014F8B2
:10159000BD4201D14C450CD000997000884203DD5A
:1015A0000199A6EB0A060D444045ECDA46445C443A
:1015B000E9E7BDE8FC8F000010B5802815D20029AE
:1015C00013DB402911DAC317090100EB537301EB58
:1015D000E30123F00703064CC31A80202144D840BE
:1015E000002A0A7802D002430A7010BD8243FBE74A
:1015F000DC0400202DE9F0411F4690460C460546CC
:101600000B4E0EE03B4642462146FFF749FF287845
:1016100020280BD0B0680078142800D9E41C0444BA
:101620006D1C28780028EDD1BDE8F081241DF7E776
:101630001C0000202DE9F043CE188846C4B287185C
:10164000DDF81C900EE000BF08F0FF0506E04A46FA
:1016500029462046FFF7B0FF6D1CEDB2AE42F6DC26
:10166000641CE4B2A742EFDCBDE8F0832DE9F04151
:10167000DFF83480002508270021284605F044FFC4
:1016800008EB05140026207805F0D8FE6078A41C2D
:1016900005F0D4FE761CF6B2BE42F4D36D1CEDB25A
:1016A000402DE8D3BDE8F081DC04002010B5274CC4
:1016B0000246C4E900010021012090470021226870
:1016C000022090470121226800209047202005F049
:1016D000B1FE012000F03EFC202005F0ABFE012011
:1016E00000F038FC062005F0A5FE012000F032FCD9
:1016F000202005F09FFE04F031FE012000F02AFCBE
:10170000012005F097FE322000F024FC262005F091
:1017100091FE04F023FE012000F01CFC0C2005F0DB
:1017200089FE012000F016FC0020FFF7B0FEFFF755
:101730009DFF322000F00EFC012005F07BFE3220E0
:1017400000F008FC0248A06010BD00001C00002052
:101750002800002070B5012000F018F84FF4FA704E
:1017600000F0F8FB0122084D54022146284600F003
:101770002EFD4FF47A7000F0EDFB21462846BDE8BF
:101780007040002200F023BD0018014002464FF4D3
:101790008061014800F01BBD001801404FF48072C9
:1017A0000149024801F035BC9B1C0020FC020020CE
:1017B000084910B50020C880088107494870C870E2
:1017C00088700871FF200870FFF7E8FFBDE810403F
:1017D000FFF7C0BF980000200200002070B500F0A5
:1017E00023F84FF000420023FEF778FD14461D4613
:1017F000D00702D1641C43F10005052200232046D6
:10180000294602F0FDFB01280AD0A41C45F1000581
:10181000052200232046294602F0F2FB0028F4D0DE
:101820002046294670BD0000014800217047000095
:101830006D99829DF8B50024009490F824202546E7
:10184000012A12D0012280F824204A681F23072A87
:101850000DD20668776B521E02EB820293409F43C3
:101860000B6893401F43776319E00220F8BD0668B8
:101870000D2A0AD2376BD21F02EB820293409F439C
:101880000B6893401F43376309E0F76A0D3A02EB98
:10189000820293409F430B6893401F43F7620A689C
:1018A000072306680A2A0AD3F7680A3A02EB4202BB
:1018B00093409F438B6893401F43F76008E037696C
:1018C00002EB420293409F438B6893401F43376172
:1018D0000A68102A01D0112A20D1124B02689A42BC
:1018E00017D193681B0219D4936843F400039360E3
:1018F0000968102912D10C490C4A0968B1FBF2F1B0
:1019000001EB8101490000E0491E00910029FBD153
:1019100004E0816A41F020018162012480F82450B2
:101920002046F8BD002401401800002040420F006E
:101930002DE9F04104004FF000057FD0A06A002699
:1019400028B9E66284F82460204600F081F8204639
:10195000FFF70CFBA16AC90600D420B1A06A40F0D1
:101960001000A0626AE0A16A21F4885141F00201EE
:10197000A162334923688B42E16904D1B1F5402F5C
:1019800001D14FF40021277B4FF4807C41EA4702CC
:1019900061680A43A168614508D0012906D0002189
:1019A00094F814E0BEF1010F02D00AE06146F7E7B7
:1019B000C7B1A76A47F02007A762E76A47F00107A7
:1019C000E7625F6827F469470F435F60236899689F
:1019D0001C4F394011439960A16861450BD0012922
:1019E00009D00CE0DFF860E0A7690EEB47370F4342
:1019F00047F40061E5E7218A0D05A5F5801521680A
:101A0000CB6A23F470032B43CB62216889680F4BA8
:101A10001940914208D1E662A16A21F0020141F029
:101A20000101A162BDE8F081A06A20F0020040F04F
:101A30001000A062E06A40F00100E0620120F1E7DE
:101A4000003C0140FDF7E1FF00E0FFFFFE0E1FFF3D
:101A500000B585B0002100910191029103910068C9
:101A60000E49884217D10E48816941F400718161A5
:101A7000816901F400710491816941F01001816173
:101A80008069694600F010000490032000900190E6
:101A9000044800F093FA05B000BD000000240140A6
:101AA000001002400010014010B590F821100022F3
:101AB000022905D00421816380F82020012010BD77
:101AC00001680B6823F00E030B6001680B6823F0BC
:101AD00001030B6090F84030C46B012101FA03F35D
:101AE000636080F8211080F82020104610BD0000AF
:101AF0002DE9F05F90F821100024022903D0042181
:101B00008163012485E001680A6822F00E020A6000
:101B100001680A6822F001020A603F4E3E4FB2158A
:101B2000DFF8F4C0DFF8F090DFF8ECA0DFF8E8B001
:101B3000DFF8E4E00168783F13011502ACF1640CB2
:101B4000A9F15009AAF13C0AABF1280BAEF1140E31
:101B50004FF48018B14227D9B9420ED0614512D056
:101B600049451DD0514518D0594518D0714501D16E
:101B7000424615E0294EB14201D1012210E0274E24
:101B80001436B14201D110220AE0244E2836B14267
:101B900006D0224A3C32914201D11A4600E02A4640
:101BA0001E49091F0A602BE0B94213D0614517D0C6
:101BB000494522D051451DD059451DD0714501D10F
:101BC00042461AE0B14202D14FF0807215E0134E46
:101BD000B14201D1012210E0104E1436B14201D1C0
:101BE00010220AE00D4E2836B14206D00B4A3C3294
:101BF000914201D11A4600E02A46074980394A60DD
:101C0000012180F82110002180F82010416B01B1E2
:101C100088472046BDE8F09F80000240080402404B
:101C20002DE9F05FC16B0A6801680B68046C4FF026
:101C3000040808FA04F8844D844E854FDFF814C276
:101C4000DFF81492DFF814A2DFF814B2DFF814E220
:101C500018EA020F65D05FEA437862D50A689206F7
:101C600003D40A6822F004020A60DFF8F0814FF41E
:101C70008062016808F1140813011402414524D957
:101C8000A9420DD0B1420FD0B9421AD0614515D04A
:101C9000494515D0514501D1120312E0594501D1F2
:101CA00004220EE0714501D140220AE06D4D143549
:101CB000A94206D06B4A2832914201D11A4600E06F
:101CC00022466749091F0A6029E0A94213D0B142A0
:101CD00015D0B94220D061451BD049451BD0514594
:101CE00002D14FF4800217E0414502D14FF08062EB
:101CF00012E0594501D104220EE0714501D1402284
:101D00000AE0584D1435A94206D0564A283291426D
:101D100001D11A4600E022464B4908394A60C16A9F
:101D200071E04FF0020808FA04F818EA020F70D0C8
:101D30005FEA83786DD50A68920606D40A6822F0B5
:101D40000A020A60012180F82110DFF810814FF4A7
:101D50000072016808F1140813011402414524D9E6
:101D6000A9420DD0B1420FD0B9421AD0614515D069
:101D7000494515D0514501D1120312E0594501D111
:101D800002220EE0714501D120220AE0354D1435C2
:101D9000A94206D0334A2832914201D11A4600E0C6
:101DA00022462F49091F0A6029E0A94213D0B142F7
:101DB00015D0B94220D061451BD049451BD05145B3
:101DC00002D14FF4001217E0414502D14FF00072EA
:101DD00012E0594501D102220EE0714501D12022C5
:101DE0000AE0204D1435A94206D01E4A28329142FD
:101DF00001D11A4600E02246134908394A60002101
:101E000080F82010816A00291CD0BDE8F05F0847E7
:101E1000FFE70825A540154214D01A0712D50A6815
:101E200022F00E020A6090F84020C36B012101FAF3
:101E300002F25A60816380F82110002180F820109E
:101E4000016BE0E7BDE8F09F080002401C00024083
:101E50003000024044000240580002406C00024042
:101E6000080402401C04024030B560B11A4B0268FD
:101E700014219A4209D2194B1344B3FBF1F18900A2
:101E8000016417490AE0012030BD134B5B42134443
:101E9000B3FBF1F1890001640F490839C1630221E4
:101EA00080F82110136843F6F0718B43F0E90114B8
:101EB0002143D0E902452C4321430469214344696D
:101EC00021438469214319431160002141630122A8
:101ED00042770177084630BD08040240F8FFFDBF95
:101EE0000000024070B5044690F82000002501284B
:101EF0000CD0012084F8200094F821600020012EED
:101F000006D084F820000225284670BD022070BD4E
:101F1000022684F82160A0632068066826F0010686
:101F200006602046FFF700FAE06A00282068016892
:101F300002D041F00E0106E021F0040101602068AA
:101F4000016841F00A0101602068016841F0010167
:101F50000160D9E770B5044600F03EF90546601C03
:101F600002D004480078044400F036F9401BA04237
:101F7000FAD370BD0C00002020280ED1074A50680B
:101F800096280AD302F108010023486810B1401EC8
:101F9000486001D102480370536070478C010020F3
:101FA000E81D0020044910B50A68024202D008600A
:101FB000FFF7E2FF10BD0000140401402DE9F84FC7
:101FC000DFF8C8910024A9F1040B23460F2709F17B
:101FD000040AABF1040ED1E00125A54006EA050292
:101FE000AA4276D1DFF8A8C14E68A6EB0C08664578
:101FF0002BD00DDC032E34D005DC36B3012E19D0E6
:10200000022E2FD11BE0112E16D0122E2AD119E04C
:10201000B8F5881F19D006DCB8F5803F15D0B8F5A3
:10202000801F1FD111E0B8F5001F0ED0B8F5041FB6
:1020300018D10AE0CB6815E0CB681B1D12E0CB6815
:1020400008330FE0CB680C330CE08B682BB1012B0D
:102050004FF0080303D0456104E0042302E005616A
:1020600000E00023FF2A01D8064601E000F1040643
:102070004FEA840501D9A5F12005D6F8008007FABA
:1020800005FC28EA0C0803FA05F548EA0508C6F835
:1020900000804D68ED0070D53E4DAE6946F00106FA
:1020A000AE61AD6924F0030605F0010500953A4DD7
:1020B00006EB050CDCF80850A607360F07FA06F801
:1020C00025EA0805DFF8D480404503D14FF0000829
:1020D00025E052E0DFF8C880404502D14FF001080A
:1020E0001DE0DFF8C080404502D14FF0020816E045
:1020F000DFF8B480404502D14FF003080FE0DFF86D
:10210000AC80404502D14FF0040808E0DFF8A08021
:10211000404502D14FF0050801E04FF0060808FAEB
:1021200006F848EA0508CCF808804D68D9F8006040
:10213000ED024D4601D5164300E096432E604D68F2
:10214000DAF80060AD02554601D5164300E096432B
:102150002E604D68DBF80060AD035D4601D5164387
:1021600000E096432E604D68DEF80060ED03754692
:1021700001D5164300E096432E60641C0A6816469B
:10218000E2407FF429AFBDE8F88F00000804014069
:102190000000111000100240000001400008014042
:1021A000000C0140001001400014014000180140E3
:1021B000001C01408068084000D001207047C268C0
:1021C00021EA02030A4043EA0241016170470AB171
:1021D000016170470904FBE701488068704700000F
:1021E0000C00002002488168027811448160704729
:1021F0000C000020074810B5016841F01001016093
:10220000032000F06DF80F2000F006F800F024F82D
:10221000002010BD0020024070B50D4D04464FF463
:102220007A712878B1FBF0F00A490968B1FBF0F047
:1022300000F049FD48B9102C07D200222146501E5B
:1022400000F02EF800206C6070BD012070BD000011
:102250000C00002018000020094808B5816941F0F1
:1022600001018161816901F001010091C16941F0C1
:102270008051C161C06900F08050009008BD00002D
:1022800000100240002809DB00F01F0201219140EC
:102290004009800000F1E020C0F800117047000004
:1022A000F0B40E4B1B680C46C3F30223C3F10705C1
:1022B000042D00D90425191D072901D2002300E0AF
:1022C000DB1E012606FA05F1491E214099409E4079
:1022D000761E16403143F0BC03F058BC0CED00E014
:1022E000064900F0070208684FF6FF03184040EA6D
:1022F0000220034A10430860704700000CED00E024
:102300000000FA05014901200862704700000E42F2
:1023100010B501460020284C04292FD00BDC0129E0
:1023200030D0022929D100F073F96168C1F38131FD
:10233000491C49001FE0082920D010291DD16168DF
:102340002268D20119D51D48C1F38342C903805CBC
:102350000AD56168194AC1F34041921E515C184A7E
:10236000B2FBF1F1484301E0164948436168490274
:1023700003D440000321B0FBF1F010BDBDE81040D4
:1023800000F056B9226AC2F30121012903D1920754
:1023900001D5C80310BD022905D1626A920702D592
:1023A00049F6404010BD0329FCD121688903F9D5C5
:1023B0004FF2244010BD000000100240B28A000815
:1023C00000127A0000093D002DE9F8430546007827
:1023D000354CC00754D0E0690026C00008D4E0693D
:1023E00040F08050E061E069012600F080500090EC
:1023F0002E480168C90512D40168804641F48071F5
:102400000160FFF7E9FE074605E000BFFFF7E4FEC5
:10241000C01B642823D8D8F80000C005F6D5206A70
:1024200010F4407021D0A98801F4407181421CD081
:10243000206A1F49012220F440700A6000220A60CD
:102440002062C00711D0FFF7C7FE074641F2883867
:1024500008E000BFFFF7C0FEC11B414502D90320C1
:10246000BDE8F883206A8007F4D5206A696820F403
:102470004070084320621EB1E06920F08050E061A6
:102480002878800705D56068A96820F44040084393
:1024900060602878C00605D56068696920F480000E
:1024A000084360600020DBE700100240007000403D
:1024B00040044242704700002DE9F0470F460500F6
:1024C00061D0434E306800F00700B84209D230684E
:1024D00020F0070038433060306800F00700B84251
:1024E00051D128683B4C810712D5400703D560685D
:1024F00040F4E06060602878000703D5606840F42D
:10250000605060606068A96820F0F0000843606077
:102510002878C00728D06868012810D021680228D0
:1025200010D0890700292EDA616821F003010143E8
:102530006160FFF751FE804641F288390DE0216865
:102540008903EFE78901EDE7FFF746FEA0EB0801FD
:10255000494502D90320BDE8F0876068696800F04A
:102560000C00B0EB810FEFD1306800F00700B842EB
:102570000BD9306820F0070038433060306800F035
:102580000700B84201D00120E5E72878400705D5CB
:102590006068E96820F4E06008436060287800071C
:1025A00006D56068296920F4605040EAC100606087
:1025B00000F03EF86168084AC1F30311515CC8405D
:1025C0000649086006480068FFF726FE0020C2E7BB
:1025D0000020024000100240C28A000818000020BB
:1025E0001000002001490120C864704700004242E9
:1025F0000448054900684968044AC1F30221515C56
:10260000C84070471800002000100240D28A00081D
:102610000448054900684968044AC1F3C221515C75
:10262000C84070471800002000100240D28A0008FD
:102630000E4A51680E4801F00C03042B11D0082BF0
:102640000FD10C48C1F38343C903C05C0AD551685C
:10265000084AC1F34041921E515C054A5043B0FB09
:10266000F1F07047044948437047000000100240F1
:1026700000127A00A08A000800093D0010B5044C41
:10268000A068000603D5FFF715FF8020A07210BDDB
:10269000001002402DE9F84F040070D02078C04DA2
:1026A000C00749D06868C0F38100012807D0686876
:1026B000C0F38100022809D16868C00306D52868E4
:1026C000800339D560680028E7D035E06068B0F550
:1026D000803F0BD010B1B0F5A02F11D0286820F4A6
:1026E00080302860286820F4802002E0286840F4C8
:1026F00080302860606890B1FFF76EFD06460AE002
:10270000286840F480202860F0E700BFFFF764FDF0
:10271000801B642873D828688003F7D50CE0FFF786
:102720005BFD064605E000BFFFF756FD801B6428F1
:10273000F0D828688003F7D420789A4E80074FF0AD
:1027400001094FF0000839D5686810F00C0F07D068
:102750006868C0F38100022809D16868C00306D404
:102760002868800714D52069012808D110E0206965
:10277000B0B1C6F80090FFF72FFD074605E00AE16B
:10278000FFF72AFDC01B0228C4D828688007F7D5A8
:102790002868616920F0F80040EAC10028600DE077
:1027A000C6F80080FFF718FD074604E0FFF714FDA8
:1027B000C01B022823D828688007F7D42078000798
:1027C0002CD57948A169D9B1C0F80090FFF704FD74
:1027D000074604E0FFF700FDC01B02280FD8686A17
:1027E0008007F7D571484FF4FA510068B0FBF1F05B
:1027F000009000BF0098411E0091FAD20EE080E0E8
:10280000C0F80080FFF7E8FC074604E0FFF7E4FCAF
:10281000C01B022875D8686A8007F7D42078400763
:1028200060D5E8690027C00008D4E86940F080500E
:10283000E861E869012700F0805000905C48016879
:10284000C90513D40168834641F480710160FFF724
:10285000C3FC824606E000BFFFF7BEFCA0EB0A0007
:1028600064284ED8DBF80000C005F5D5E0680128E3
:102870000AD008B1052813D0286A20F00100286288
:10288000286A20F0040002E0286A40F00100286273
:10289000E06841F2883B98B1FFF79EFC82460BE06E
:1028A000286A40F004002862EEE700BFFFF794FCBE
:1028B000A0EB0A0159455AD8286A8007F6D50CE0E2
:1028C000FFF78AFC824605E0FFF786FCA0EB0A01D1
:1028D00059454CD8286A8007F6D41FB1E86920F022
:1028E0008050E861E06988B36968C1F38101022919
:1028F00044D00228C6F8608004D0FFF76DFC04467F
:1029000038E034E0FFF768FC074604E0FFF764FCBA
:10291000C01B02282BD828688001F7D4206AB0F5A4
:10292000803F05D16868A16820F4003008436860E2
:10293000D4E908010843696821F474110843686008
:10294000C6F86090FFF748FC044606E025E000BFAB
:10295000FFF742FC001B022809D828688001F7D540
:102960001BE000BFFFF738FC001B022802D9032040
:10297000BDE8F88F28688001F4D40EE00128F7D074
:102980006868226A00F48031914204D1616A00F4DF
:102990007010884201D00120EAE70020E8E700003B
:1029A0000010024000004242800442421800002011
:1029B00000700040024850F8210080B270470000CB
:1029C000006C0040024800EB810091B2016070474A
:1029D000006C00400348012101704178491C41709E
:1029E0007047000000000020704710B504460068E2
:1029F0000168C90717D04168C90714D0406840076B
:102A0000204607D5FFF7F0FF21686FF0040048600B
:102A1000042002E0FFF7DEFF0120607420684168B7
:102A200021F00101416010BD80B1017C01290FD06E
:102A300001210174022242740268136843F0010309
:102A400013604174002101740846704701207047EB
:102A50000220704770B5040003D0607C002610B1DE
:102A600005E0012070BD2674204600F03DF80220EC
:102A70006074204600F00AF9042550BB204602F09D
:102A800079F930BB2068416821F007014160A068F6
:102A900020B11448016821F0010101601148001FB4
:102AA0000168A26821F46071114301606068411CF3
:102AB00004D10120FFF72CFC58B1401E2268C0F35E
:102AC00003419160216880B2C860204602F06CF931
:102AD00008B16574C5E7E67301206073A073607484
:102AE000002070BD306C004008B50068084988427D
:102AF0000DD1FFF707FC0748C16941F00061C161D2
:102B0000C069054900F0006000900120086008BD20
:102B100000280040001002403C0442422DE9F041F0
:102B20000D4604003BD0C5B3207C01283AD04FF0BD
:102B3000010884F8108002206074E87872B302F013
:102B400010F9E073687802F00CF96073A87802F06D
:102B500008F9A073C2B2617BE07B02F06EF92073CA
:102B60002870204602F059F94FF46161B0FBF1F191
:102B7000002518292DD91822B1FBF2F1A1EB011182
:102B800001EB4101C1EB011100EBC11631462046BA
:102B900002F0F6F90427C8B90BE000E004E00120D8
:102BA000BDE8F0810220FBE7E07368786073A878E5
:102BB000CFE7204602F01AF9411C0AD0B04208D2F1
:102BC00006490144204602F08EF910B1677425745D
:102BD000E5E784F8118025740020E1E780510100C9
:102BE0002DE9F0410D46040024D01DB3207C0128BE
:102BF00023D04FF0010884F81080022060742878F8
:102C0000EAB102F0AEF84FF4616100FB01F66878BA
:102C100002F0A7F8C0EB001006EB8006A87802F0DF
:102C2000A0F835182946204602F0AAF90026042704
:102C300010BB0FE00120BDE8F0810220FBE74FF45C
:102C4000616148436978C1EB011100EB8100A9780B
:102C50004518E7E72068416821F0050141602046FA
:102C600002F0C4F8411C0AD0A84208D20649014427
:102C7000204602F038F910B167742674DAE784F858
:102C8000118026740020D6E78051010070B5040041
:102C90000AD02068416821F008014160FFF79CFAE2
:102CA00005464FF47A7608E0012070BDFFF794FAEC
:102CB000401BB04201D9032070BD20684068000766
:102CC000F4D5002070BD10B5401EB0F1807F01D357
:102CD000012010BD4FF0E02460610F21601702F069
:102CE00055FF0020A06107202061002010BD704723
:102CF0007047000070B590F83C20012A2CD00124C8
:102D000080F83C40022280F83D2003685A689D68A4
:102D100022F070060A6832435A60104B02689A42E9
:102D20000ED00F4B9A420BD0B2F1804F08D00D4B12
:102D30009A4205D00C4B9A4202D00C4B9A4204D1D5
:102D4000496825F080031943916080F83D400021D7
:102D500080F83C10084670BD022070BD002C014078
:102D6000003401400004004000080040000C004016
:102D700010B5040003D094F83D0010B107E0012025
:102D800010BD002084F83C00204600F01FF802200F
:102D900084F83D00211D206802F0FAFB012084F830
:102DA000460084F83E0084F83F0084F8400084F830
:102DB000410084F8420084F8430084F8440084F819
:102DC000450084F83D00002010BD000008B50068F3
:102DD0000649884208D10648C16941F01001C16125
:102DE000C06900F01000009008BD00000010004015
:102DF0000010024090F83D10012901D001207047D9
:102E0000022180F83D100168CA6842F00102CA60E0
:102E100000680E4988420ED00D4988420BD0B0F1AF
:102E2000804F08D00B49884205D00B49884202D018
:102E30000A49884204D1816801F00701062903D0BC
:102E4000016841F00101016000207047002C014041
:102E5000003401400004004000080040000C004025
:102E6000704770B50446006801694FF00005C9431A
:102E7000890715D4C168C943890711D4E91E0161C6
:102E800001202077206880698007204602D0FFF764
:102E9000E7FF04E000F098F8204600F096F8257768
:102EA00020680169C943490717D4C168C943490764
:102EB00013D46FF00401016102202077206880693B
:102EC00010F4407F204602D0FFF7CAFF04E000F074
:102ED0007BF8204600F079F8257720680169C9431E
:102EE000090716D4C168C943090712D46FF0080155
:102EF0000161042020772068C0698007204602D045
:102F0000FFF7AEFF04E000F05FF8204600F05DF848
:102F1000257720680169C943C90617D4C168C94328
:102F2000C90613D46FF010010161082020772068D2
:102F3000C06910F4407F204602D0FFF791FF04E003
:102F400000F042F8204600F040F82577206801693B
:102F5000C943C90708D1C168C943C90704D1891E3B
:102F60000161204600F032F820680169C943090672
:102F700009D4C168C943090605D46FF08001016115
:102F80002046FFF7B4FE20680169C943490609D409
:102F9000C168C943490605D46FF04001016120466C
:102FA00000F036F820680169C94389060BD4C1686E
:102FB000C943890607D46FF0200101612046BDE8AE
:102FC0007040FFF795BE70BD704770470C490068B0
:102FD0000968884213D10B480168B1F5801F01D2FE
:102FE000491C016008494FF6FF720888904201D2DF
:102FF000401C08804FF480710448FFF7E0B8704728
:1030000024020020900100209C00002000080140C4
:10301000704738B5044690F84200202801D00220BD
:1030200038BD61B15AB101202063002060632046A1
:1030300002F0D6FC0028F3D1216B012901D0012038
:1030400038BD21680A684968009121680C3151E84F
:10305000002F42F0100241E80023002BF5D138BDCB
:103060002DE9F0410D462F490746006809682E4CAE
:103070004FF4807888420DD12C492A46A1F505707D
:1030800003F071FB424629492648FFF7C2FF6068FA
:10309000401C606026493868096888421BD1208836
:1030A000258006B2424623492148FFF7B2FF218816
:1030B00020488E4203DA891B8AB2811908E0C6F5DE
:1030C00080718AB281191C4800F01EFB22881949C0
:1030D000194800F019FB18493868096888421ED160
:1030E000164E424616493088358004B21248FFF722
:1030F00090FF318812488C4203DA091B8AB2011909
:1031000008E0C4F580718AB20119094800F0FCFAA0
:1031100032880B49BDE8F041054800F0F5BABDE83A
:10312000F0810000B4020020880000205C13002021
:103130006C02002048100020FC020020A0000020AB
:103140009B1C002070470000F8B501680446086821
:10315000CA684B6910F00F0F4FF0000559D003F00B
:10316000010602F49077374365D0C10705D0D10539
:1031700003D5616C41F001016164410705D5D907B0
:1031800003D0616C41F002016164810705D5D90764
:1031900003D0616C41F004016164010707D502F0BE
:1031A0002001314303D0616C41F008016164616C1E
:1031B00000293AD0800604D5900602D5204602F0B8
:1031C00051FB20684069616CC0F38010090700D48E
:1031D00060B3204602F011FB20684069400621D50B
:1031E0002068143050E8001F21F0400140E8001230
:1031F000002AF5D1E06BA8B16D494163E06BFEF7A1
:1032000077FC002811D0E06B416B01B0BDE8F040C5
:10321000084783060FD593060DD52046BDE8F84034
:1032200002F020BB2046FFF78DFFF8BD2046FFF7D8
:1032300089FF6564F8BD266B2023012E7CD1C6066C
:103240007AD5D60678D508684868009048694FF066
:103250000206400640D5E16B086840680004000C97
:10326000E8D0A28D8242E5D9E085886920282DD05A
:1032700020680C3050E8001F21F4807140E80012F3
:10328000002AF5D12068143050E8001F21F0010118
:1032900040E80012002AF5D12068143050E8001FE1
:1032A00021F0400140E80012002AF5D184F84230B4
:1032B000256320680C3050E8001F21F0100140E821
:1032C0000012002AF5D1E06BFEF7EEFB6663A08DDD
:1032D000E18D401A81B22AE0A08DE18D401A81B2C1
:1032E000E08D0028A6D00029A4D022680C3252E834
:1032F000000F20F4907042E80007002FF5D12068FD
:10330000143050E8002F22F0010240E80027002F7F
:10331000F5D184F84230256320680C3050E8002F46
:1033200022F0100240E80023002BF5D1666320460E
:10333000FFF796FEF8BDFFE705062BD5150629D544
:1033400094F841002128F5D1A068B0F5805F01D143
:103350002069B0B1206A411C216221680078486070
:10336000E08C401E0004000CE084E3D12068C168BA
:1033700021F08001C1602068C16841F04001C16056
:10338000D8E7206A0088C0F308004860206A801CE3
:103390002062E5E74006CDD55006CBD5CA68204669
:1033A00022F04002CA6084F8413000F0E9F9C1E738
:1033B000B156000870B5040004D094F8410000250F
:1033C00010B106E0012070BD84F84050204600F0A6
:1033D00023F8242084F841002068C16821F40051BA
:1033E000C160204602F0A0FA2068016921F49041F2
:1033F00001612068416921F02A0141612068C168AA
:1034000041F40051C1606564202084F8410084F8D3
:1034100042006563002070BD2DE9F04786B00025AD
:1034200000950195029503950446DFF80882D0F8CF
:1034300000C0814802210322804B102680274FF4D0
:1034400080694FF0200AC4454FD1D0F818C04CF421
:10345000804CC0F818C0D0F818C00CF4804CCDF8DF
:1034600010C0D0F818C04CF0040CC0F818C0806927
:10347000039200F0040004900802CDE900016946BF
:1034800098461846FEF79AFDCDE9009569464046F4
:103490000295FEF793FDDFF8AC8169494046B946D5
:1034A000C0E90015C0E90257C8F81050C8E9055A2C
:1034B000C8F81C50FEF7D8FC08B1FDF7D1FF6048F2
:1034C000614FC4F83C801438C8F824403860C7E91C
:1034D0000165C7E903957D61BD613846FD61A1E0E5
:1034E000A7637C6206B0BDE8F087DFF86081C44561
:1034F0004ED1D0F81CC04CF4003CC0F81CC0D0F831
:103500001CC00CF4003CCDF810C0D0F818C04CF032
:10351000040CC0F818C08069039200F00400049005
:103520000420CDE90001694698461846FEF746FD9D
:103530000820CDE90005694640460295FEF73EFDAC
:10354000DFF80C813E4940461431C0E90015C0E95E
:103550000257C8F81050C8F81450C8F81850B946A7
:10356000C8F81C50FEF780FC08B1FDF779FF34481D
:10357000384FC4F83C802830C8F824403860C7E988
:103580000165C7E903957D61BD613846FD6149E08C
:10359000314B9C45A6D1C36943F48023C361C36901
:1035A00003F480230493836943F0080383618069F3
:1035B000CDE9009100F00800CDE90320DFF89C8000
:1035C00069464046FEF7FAFC4FF40060CDE900057D
:1035D000694640460295FEF7F1FCDFF88480184901
:1035E00040462839C0E90015C0E90257C8F8105014
:1035F000C8E9055AB946C8F81C50FEF735FC08B1B1
:10360000FDF72EFF0E48174FC4F83C803C38C8F831
:1036100024403860C7E90165C7E903957D61BD6154
:103620003846FD61FEF720FC00283FF459AFFDF756
:1036300017FF55E700380140001002400008014024
:10364000580002404403002088030020004400404A
:10365000CC0300201004002000480040000C014072
:103660005404002098040020704770472DE9F84367
:10367000044690F841001F4616460D46202802D009
:103680000220BDE8F8837DB176B10020606421207E
:1036900084F84100FEF7A0FDA6848046E684A06879
:1036A000B0F5805F02D003E00120EAE7206910B1A5
:1036B0002E4600250EE000260CE08021204602F078
:1036C000D7F9A0B9AEB116F8010B21684860E08CBB
:1036D000401EE084E08C43464FF000020097002833
:1036E000EBD14FF04001204602F0C2F930B1032087
:1036F000C7E735F8020BC0F30800E6E7202084F89E
:1037000041000020BDE7000070B5044690F841007C
:10371000202801D0022070BD49B342B32162A284A7
:10372000E28400206064212384F84130A56B114BB2
:10373000AB62A56B104BEB62A56B104B2B63A36BBD
:103740005863256813462A1DA06BFEF7CBFB216842
:103750006FF0400008602068143050E8001F41F00E
:10376000800140E80012002AF5D1002070BD012040
:1037700070BD0000AF570008F1570008C15600089F
:1037800070477047FEE700000848002101615A2198
:1037900001750A218160082101701E2141700221FA
:1037A000C1604FF47A71416070470000D01D002065
:1037B00010B50020064B0146802203F5487400BF77
:1037C00043F820102254401CC828F9D310BD000033
:1037D000DC08002070B50D460446FDF7FFFFC4E984
:1037E0000001FDF7FBFFC4E902012046FDF762FC82
:1037F000401C04D00249002041F82500012070BD82
:10380000DC0800207CB51446421E1D46CDE90001AF
:1038100041F1FF332046294602F07AF980F0010099
:10382000084301D000207CBD01207CBD3EB50024B2
:1038300010480094019402940D498460016004735F
:103840000475012505614FF460214460C161FEF7F4
:103850006FF848B90A20CDE9000569460294054889
:10386000FDF7E8FF002801D0FDF7FAFD3EBD00009E
:1038700000240140E00100202DE9F04F85B0002434
:1038800070480094019402940394816941F01001FE
:103890008161816901F010010491816941F00401A5
:1038A0008161816901F004010491816941F008019D
:1038B0008161816901F008010491816941F0400151
:1038C0008161816901F040010491816941F0200129
:1038D00081618069002200F020000490C8215A48CC
:1038E000FEF775FCDFF864A1002240F20311504698
:1038F000FEF76DFCDFF858B100224BF2E6015846A6
:10390000FEF765FC4FF68078002241465148FEF7ED
:103910005EFC4FF48249002249464F48FEF757FCAF
:10392000C82001250226CDE90005CDE902466946F9
:103930004548FEF743FB0327CDE90257009569464A
:1039400050460195FEF73AFB4FF48170CDE9000532
:10395000CDE9024669465046FEF730FBF020CDE93E
:103960000006694603975046FEF728FB1020CDE974
:103970000004694634480294FEF720FB20200090A2
:103980003648CDE9010569462F48FEF717FB192097
:10399000CDE90004694658460294FEF70FFBE62085
:1039A000CDE90005CDE9024669465846FEF706FB1B
:1039B000CDF800800396CDE9015469462548FEF70D
:1039C000FDFA4FF43040CDE90005CDE902476946E4
:1039D0005846FEF7F3FAA803CDE9000669460397B7
:1039E0005846FEF7EBFACDF800900396CDE9015466
:1039F00069461948FEF7E2FA4FF43870CDE9000441
:103A0000694615480294FEF7D9FA4FF43C408DE818
:103A1000510069461048FEF7D1FA4FF4F850CDE94D
:103A20000006694603970848FEF7C8FA0420CDE966
:103A30000006694603970848FEF7C0FA05B0BDE8DE
:103A4000F08F00000010024000100140000801400B
:103A5000000C01400018014000140140000021103A
:103A600010B5002211460320FEF71AFC0320FEF7D2
:103A700009FC002201210C20FEF712FC0C20FEF7AD
:103A800001FC002202210D20FEF70AFC0D20FEF7AA
:103A9000F9FB002203210E20FEF702FC0E20FEF7A8
:103AA000F1FB002204210F20FEF7FAFB0F20FEF7A6
:103AB000E9FB002206211020FEF7F2FB1020FEF7A2
:103AC000E1FB002205211120FEF7EAFB1120FEF7A1
:103AD000D9FB002211461720FEF7E2FB1720FEF764
:103AE000D1FB002208212520FEF7DAFB2520FEF776
:103AF000C9FB002209212620FEF7D2FB2620FEF773
:103B0000C1FB00220A212720FEF7CAFB2720FEF76F
:103B1000B9FB002207213620FEF7C2FBBDE81040AA
:103B20003620FEF7AFBB00002DE9FC4100242848F9
:103B30000194264900940160611E41604FF4807138
:103B40008160FEF787FF48BB2148FEF76DFF01212A
:103B50001F48FEF72FFF43F62077B84234D00625E2
:103B60008DF8045059208DF8050040208DF806008E
:103B7000012201A91648FFF733F878B98DF8004003
:103B80008DF8015002268DF8026024208DF8030084
:103B9000012269460E48FEF7C1FF08B1FDF760FC3F
:103BA0000C494FF4FD6008808D701D20C8700E71A7
:103BB000012048718C710868496803F080FC3A461E
:103BC00001210348FEF7FEFEBDE8FC81002800400D
:103BD00010020020900000201CB500240D48009425
:103BE0000B490194C0E9001444F24F61C0E902415D
:103BF00080218161FFF7BCF838B900946946054817
:103C00000194FFF777F8002801D0FDF729FC1CBDCF
:103C10000010004024020020FEE700002DE9F04FD4
:103C2000A9B01822C1491EA8FCF78BFDC04CDFF8D3
:103C300004830025207961791EAF4FF0010904F15A
:103C4000060A884268D06071E5700020FDF71FFC0D
:103C5000207960B1012813D0022818D003281BD086
:103C600084F80450FDF702FD29B0BDE8F08FB2A141
:103C700005A8FCF763FB01231C22002105A803E033
:103C8000012300221221B1A0FDF7B4FCEAE70123D1
:103C900000221221B0A0F7E7012300221221B0A0D8
:103CA000FDF7A8FCD8F8001044F8061FD8F8040067
:103CB0006060BAF8000001AD9AF806309AF8052065
:103CC0009AF8041085E80F009AF8020000909AF81C
:103CD0000700544600EB4000C2199AF80330A4A133
:103CE00005A8FCF72BFB01231822002105A8FDF7EE
:103CF00081FC2088A379627921798DE80F00A3786F
:103D0000E278A3A1A848FCF719FB21231722194642
:103D10001220CDF80090FFE003F0E0FAA349064638
:103D2000FF2803D00D702A2E11D004E008781E2839
:103D300001D90D702571207968B1012804D00228BD
:103D400002D0032844D02571FF2E8BD18CE7207937
:103D5000401C2071EFE7232E02D1954A82F8009093
:103D600008780028F0D00D7098F8061098F8053003
:103D7000C90798F8021098F804208DE80E0098F80A
:103D8000070098F8033000EB400000EB070201D079
:103D900088A100E08DA105A8FCF7D0FA012300223C
:103DA000122105A8FDF726FC02F0E2FA8D48006911
:103DB00004F0A6FD02468CA105A8FCF7BFFA01237A
:103DC0000022642105A8FDF715FCFDF74FFCBBE7B9
:103DD000A6F13000092879D87348E1784654491C87
:103DE000C9B2E1700D2900D9E57001784378303906
:103DF00001EB81016FF02F0202EB4101194401F048
:103E0000FF0E8AF803E0837890F803C0303B03EBA1
:103E1000830302EB43036344DBB28AF802309B4620
:103E2000037990F807C0303B03EB4308C8EBC3139A
:103E30000CEBC30C43794FF0640803FB08F390F8D4
:103E40000680514608EB880803EB48036344A3F55A
:103E5000A053D03B9BB20B809A46037A90F809C0DE
:103E6000303B03EB830302EB4303634403F0FF089F
:103E700081F80480837A90F80BC0303B03EB830316
:103E800002EB4303634403F0FF0C81F805C0437B5E
:103E9000007B303800EB800002EB40001844C0B2D9
:103EA0008871CDF800B0CDE903C0CDE901A8C8798B
:103EB000734600EB4000C2192DA105A8FCF73EFA9D
:103EC00001231822002105A8FDF794FB232E05D11C
:103ED000D4F80600D4F80A1003F0F1FA44A324AF92
:103EE0000FCB87E80F00FF2E3FF430AFE07800954E
:103EF000A8B124A90844212310F8015C19466A1DC1
:103F00004FEA0500FDF71AFBCDF80090E17824A8F0
:103F10002123405C1946421DFDF710FBA2E69DF8E7
:103F20009D00421D21231946ECE70000FC8D00088E
:103F30009C010020900000204BCD4E48204348C0FB
:103F40004F205155DD204B48C143480050726573E6
:103F50007320506173730000536574757000000026
:103F600054696D652053657474696E6700000000C4
:103F7000257320253032642F253032642F256420AC
:103F8000253032643A253032643A253032642000DC
:103F90002530326425303264256425303264253082
:103FA0003264253032640000201E00200100002011
:103FB0008C010020257320253032642F2530326497
:103FC0002025643A25303264200000002573202526
:103FD0003032642F2530326420256420253032644D
:103FE00020000000D01D002025303264252500006F
:103FF00012182227353B41475157636973790000F6
:104000002DE9F05F0026C41E92469B4689468046F5
:10401000354641F1FF3712E0FCF700F9C11722469F
:104020003B46FCF75BF9921C43F1000340464946CE
:10403000FFF7E8FB002808D0761C45F10005B6EB39
:104040000A0075EB0B00E7DB0120BDE8F09FFEF7EF
:1040500015FBFEE7094810B50078002438B1084880
:1040600003F09EFAF02804D006A0FCF75BF90124C7
:1040700002E00BA0FCF756F9204610BD34000020EA
:10408000C80C00204E563131203E3E2044697361F9
:10409000626C65204661696C65640D0A0000000071
:1040A0004E563131203E3E2044697361626C65207A
:1040B0005375636365737366756C6C790D0A0000E4
:1040C0000348007810B1034803F070BA012070472C
:1040D00034000020C80C002070B5114C002021785D
:1040E000002911D0E078072809D006284FF00000F9
:1040F0000AD122790B4C0021A4F128030DE00A48D3
:1041000003F06CFA2169484370BD00BF54F8215098
:1041100053F82160491C05FB06009142F6DB70BD97
:104120003400002014100020C80C00202DE9F84FA6
:1041300003F010FD03F082FF07464FF40871D448E6
:10414000FCF731FBD24E00204FF0010986F81890A1
:1041500070764FF496727261F0760322B2764FF465
:104160001652834606F55D75C6F8102005F800B0B6
:10417000401C0A28FAD3C7A0FCF7D4F8304603F055
:10418000DDFC04460146D1A0FCF7CCF8F02C01D0B0
:10419000D4A095E0DBA0FCF7C5F84FF47A74204674
:1041A000FDF7D8FECEA0FCF7BDF8DD4A3046134639
:1041B00003F0DBFB0146F02801D0DAA010E0E1A01B
:1041C000FCF7B0F82046FDF7C5FEC5A0FCF7AAF83D
:1041D0000621304603F01FFA0146F02803D0E0A084
:1041E000FCF7A0F840E12046FDF7B4FEBCA0FCF7C8
:1041F00099F8E449304603F0C7FB0146F02801D0A6
:10420000E1A0EDE74FF47A70FDF7A4FEB4A0FCF74F
:1042100089F8DFF87083E5A04446611CFCF782F85A
:10422000E8A0FCF77FF8EC49207A0024087108F533
:10423000827A0CE004EB440108EB8103611C1A69EB
:104240004AF82420E5A01433FCF76CF8641CD8F875
:104250000810A142EED84FF47A742046FDF77AFE9A
:104260009FA0FCF75FF8304603F0A6F90146F0285E
:1042700001D0E1A0B4E72046FDF76CFE98A0FCF762
:1042800051F898F80000444603281CD0DFF8488312
:1042900088F803004FF0FF3003F0CCFEFF2403F05A
:1042A000CBFE23464FF4F172DA49DBA0FCF73AF873
:1042B000FF210A46304603F036FBF02817D0DFA076
:1042C000FCF730F8D0E000250DE000BF05EB45001D
:1042D00004EB800202F1140011690246012330460A
:1042E00003F00CFB6D1CA068A842EFD8C9E098F859
:1042F0000300072805D0062824D000283ED0D5A0EA
:10430000DEE7DCA0FCF70EF8614803F067F9014630
:104310000090DFA0FCF706F80098C8F82400009889
:10432000C8F828B0C8F8200044464FF0FF3003F02A
:1043300081FE94F8280097F8581060F3410187F83F
:10434000581026E0D9A0FBF7EDFFE1A0FBF7EAFF4C
:1043500000240EE05AF824104D4803F0F6F8E24924
:10436000024641F824005AF82410E0A0FBF7DAFFD7
:10437000641C98F804008442ECDB0CE0DEA0FBF740
:10438000D1FF4FF0FF3003F055FE387920F00800E0
:10439000387103F051FE98F803004446072802D014
:1043A00006284AD06DE000254FF0FF381EE0404659
:1043B00003F040FEB7F8591009FA05F0014210D099
:1043C00003F03AFE57465AF82500002100F0E4FBBE
:1043D000002849D157F82510CEA02161FBF7A2FF94
:1043E00007E003F029FE072D03DC6D1C20798542D0
:1043F000DDDB644D2978062901D0072941D13046FB
:1044000003F0E0F8F02808D0C7A0FBF78BFF208965
:10441000401C81B22181CCA0E2E6A4F808B0297842
:10442000E17084F8009084F802B0FFF749FECEA056
:10443000FBF778FF0120BDE8F88F00264FF0FF3B27
:10444000A8461BE0584603F0F5FDB7F8590009FAF5
:1044500006F14D4608420CD003F0EEFD5AF8260056
:10446000002100F099FB08B10020E4E708F80650AD
:1044700001E003F0E1FD072E03DC761C2079864283
:10448000E0DB554981F80090FFF71AFED2E7000003
:10449000C80C00204E563131203E3E2047657474D2
:1044A000696E6720696E666F726D6174696F6E20E8
:1044B00066726F6D204E6F74652056616C69646121
:1044C000746F722E2E2E0D0A000000004E563131F0
:1044D000203E3E20726573706F6E73653A202575BD
:1044E0000D0A00004E563131203E3E204E4F2056E0
:1044F000414C494441544F5220464F554E440D0AB9
:10450000000000004E563131203E3E2056616C695D
:104510006461746F7220466F756E640D0A0000004E
:10452000674523014E563131203E3E20456E637271
:10453000797074696F6E204661696C6564202564CA
:104540000D0A00004E563131203E3E20456E63720A
:10455000797074696F6E2053657475700D0A000070
:104560004E563131203E3E20486F73742050726F9A
:10457000746F636F6C204661696C65642025640DFF
:104580000A000000E80E00204E563131203E3E2049
:10459000536574757020526571756573742046613A
:1045A000696C65642025640D0A0000004E563131A7
:1045B000203E3E204669726D776172653A20257310
:1045C0000D0A00004E563131203E3E204368616E98
:1045D0006E656C733A0D0A00340000204E5631317E
:1045E000203E3E206368616E6E656C2025643A2033
:1045F00025642025730D0A004E563131203E3E20A1
:10460000456E61626C65204661696C656420256455
:104610000D0A0000E48D00085B25732D25755D20D3
:10462000737370365F7365745F696E68696269740D
:104630007320253038580D0A000000004E563131E5
:10464000203E3E20496E6869626974732046616944
:104650006C6564004E563131203E3E20556E6974C3
:1046600020547970653A20554E4B4E4F574E0D0AE7
:10467000000000004E563131203E3E20556E6974D8
:1046800020547970653A204E5631310D0A000000F1
:104690004E563131203E3E2053746F726564204E79
:1046A0006F7465733A2025640D0A00004E5631314F
:1046B000203E3E20556E697420547970653A20532F
:1046C0006D617274205061796F75740D0A0000007D
:1046D0004E563131203E3E2053746F726564204E39
:1046E0006F7465733A0D0A001410002025643A2097
:1046F00025640D0A000000004E563131203E3E2058
:10470000556E697420547970653A204E56390D0AF9
:1047100000000000526566756E64206E6F7465203F
:1047200025750D0A000000004E563131203E3E2016
:10473000456E61626C65207061796F7574204661A9
:10474000696C65640D0A00004E563131203E3E20F2
:104750005061796F757420696E69742025642074C6
:10476000696D65730D0A00004E56313120656E612A
:10477000626C65207061796F757420737563636511
:1047800073730D0A000000002DE9F041264C3C2512
:104790002078002845D025A0FBF7C4FD0020A0709C
:1047A0006071294802F03EFF0127F02804D027A0BD
:1047B000FBF7B8FDA77034E0FDF70EFD06461BE0E1
:1047C000FDF70AFD801BB0F57A7F09D9D5B12846DF
:1047D00001F0CDFD6D1EEDB2FDF7FEFC064600E0DA
:1047E00085B1002000F096F8A078062812D00128A4
:1047F00014D00120FDF7AEFBA0780628E0D1002000
:10480000BDE8F0811CA0FBF78DFD23A0FBF78AFD1E
:10481000677106E02BA0FBF785FDF0E731A0FBF701
:1048200081FD0120ECE70000340000204E563131BC
:10483000203E3E205061796F7574206E6F74652044
:1048400073746172740D0A00C80C00204E56313129
:10485000203E3E204E6F74652064697370656E73F0
:1048600065206572726F72206279206E7631312018
:104870006572726F720D0A004E563131203E3E2035
:10488000436F756E7420646F776E2072656A65631E
:104890007420656E640D0A004E563131203E3E2074
:1048A0004E6F74652064697370656E736520657200
:1048B000726F722062792074696D656F75740D0A6C
:1048C000000000004E563131203E3E204E6F746590
:1048D0002064697370656E736520627920666C610F
:1048E000670D0A004E563131203E3E204E6F7465F2
:1048F0002064697370656E7365206572726F7220D3
:104900006279207061796F7574206E6F74650D0A1D
:104910000000000070B54E4CADF5227D20780028D7
:1049200079D0FDF759FCA169411A962973D9A06184
:10493000A0780025012812D06078012600284ED0EA
:10494000444802F062FEF02847D00346A67040F2C9
:104950008152414941A0FBF7E5FC657071E0A07907
:10496000401CC0B2A07114286BD9A57143A0FBF7FD
:10497000D9FCE16A09B1002088476069411C616186
:104980000C2817D949A0FBF7CDFC002002F0B6F89F
:104990004FF47A706561FDF7DDFABFF34F8F47483A
:1049A0000168474A01F4E06111430160BFF34F8F92
:1049B00000BFFDE703F0C8F803F0D2F8FFF7B6FB3D
:1049C00000283ED03FA0FBF7ADFCA570E16A0029AE
:1049D00037D001208847656133E042A029E069466D
:1049E0001C4802F025FE0546F02825D0FF2D06D0F4
:1049F000FA2D11D0014640A0FBF794FC16E046A02A
:104A0000FBF790FCA6702B4640F29552124949A044
:104A1000FBF788FC15E017E04E4A0E48134602F0FB
:104A2000A4FFF02804D04CA0FBF77CFCA67008E0A3
:104A300050A0FBF777FC04E000226946054802F02D
:104A400081F80120FDF786FA0DF5227D70BD00008A
:104A500034000020C80C0020EE8D00085B25732078
:104A60006C696E652025755D204E5631312065726A
:104A7000726F7220253032580D0A00004E563131C7
:104A8000203E3E204E563131206973206572726F90
:104A9000722E20547279696E6720746F207265637C
:104AA0006F6E6E6563742E2E2E0D0A00526573654F
:104AB00074204E5631310D0A000000000CED00E06C
:104AC0000400FA054E563131203E3E204E5631311B
:104AD00020697320776F726B696E67206E6F770D38
:104AE0000A0000004E56313120686F6C64207375E7
:104AF00063636573730D0A004E563131203E3E20CC
:104B0000556E6578706563746564206572726F7246
:104B100020253032580D0A004E563131203E3E20BD
:104B200053535020506F6C6C2054696D656F7574D1
:104B30000D0A00005B2573206C696E652025755D8C
:104B4000204E563131206572726F722025303278D6
:104B50000D0A0000674523014E563131203E3E20AC
:104B6000456E6372797074696F6E204661696C6519
:104B7000640D0A004E563131203E3E20456E637270
:104B8000797074696F6E20536574757020737563E6
:104B9000636573730D0A000070B504466420002538
:104BA00004FB00F12B4608A2084802F0C4FEF028DE
:104BB000214604D006A0FBF7B5FB012502E00EA0BC
:104BC000FBF7B0FB284670BD564E4400C80C0020D1
:104BD0004E563131203E3E204552524F523A2053DC
:104BE000657420726F7574696E67206661696C65A3
:104BF000643A2025640D0A004E563131203E3E2095
:104C000053657420726F7574696E672053756363A2
:104C100065737366756C6C793A2025640D0A000023
:104C20002DE9F04FADF5197D834692460C4688A8D4
:104C3000FEF7D0FD00286ED04FF000088DF81B80E5
:104C400002208DF81A004FF47A70059001208DF83B
:104C50001C0011208DF81D008DF81940694658463A
:104C600000F00AFA9DF81E01F02853D14FF009090F
:104C70004A208DF81C908DF81D00DDE9886700251D
:104C80006C46EA0030463946FBF715FB61196D1C8E
:104C9000EDB28877082DF4D36946584600F0ECF958
:104CA0009DF81E01F02835D14B208DF81C908DF811
:104CB0001D00DDE98A670025EA0030463946FBF72A
:104CC000FAFA61196D1CEDB28877082DF4D36946A4
:104CD000584600F0D1F99DF81E01F0281AD14C2059
:104CE000DDE98C678DF81C908DF81D000025EA0029
:104CF00030463946FBF7DFFA61196D1CEDB2887753
:104D0000082DF4D36946584600F0B6F99DF81E0107
:104D1000F02804D000200DF5197DBDE8F08F0020AB
:104D2000CDE99000054646466019EA0090F81F015B
:104D30003146FBF7ADFADDE99023801859416D1C2F
:104D4000EDB2082DCDE99001EED388A8FCF7D4F997
:104D50000028E0D0DDE99412CAE902120120DAE766
:104D60007047010901EB810100F00F0000EB4100E9
:104D7000C0B2704770B50446FDF72EFA05464FF4F1
:104D80007A7606E0FDF728FA401BB04201D90320ED
:104D900070BD206840688006F4D52068416841F005
:104DA00010014160002070BD70B504460068416884
:104DB00021F010014160FDF70FFA05464FF47A76B5
:104DC00007E000BFFDF708FA401BB04201D90320FD
:104DD00070BD206840688006F4D5002070BD0000DA
:104DE0000148FDF702BE0000100200200168086AB9
:104DF000496A89B241EA00407047006881698AB215
:104E0000C1698BB2816989B28A4203D0C06961F3FA
:104E10001F40704743EA02407047006881698AB2C8
:104E2000C1698BB2816989B28A4203D0C06961F3DA
:104E30001F40704743EA02407047F0B56424C1EB5D
:104E4000C1030927A500072603EB01130329B3FBC0
:104E5000F7F100F5FA60114401440AD2401EB0FB9C
:104E6000F4F201EB9001B0FBF5F0891A0844001D43
:104E700008E0B0FBF4F201EB9001B0FBF5F0891A09
:104E80000844801CB0FBF6F106FB1100C0B2F0BD77
:104E9000F0B56424C1EBC1030927A500072603EB85
:104EA00001130329B3FBF7F100F5FA601144014443
:104EB0000AD2401EB0FBF4F201EB9001B0FBF5F01A
:104EC000891A0844001D08E0B0FBF4F201EB9001E0
:104ED000B0FBF5F0891A0844801CB0FBF6F106FB24
:104EE0001100C0B2F0BD70B50D4606460024FFF7B4
:104EF00041FF48B93168280C08623168A8B248629D
:104F00003046FFF751FF00B10124204670BD00007C
:104F10002DE9F0410F4604460025FDF75DF90646F0
:104F20004FF47A7805E000BFFDF756F9801B404545
:104F30001DD8206840688006F6D52068416841F099
:104F4000100141602168380C88612168B8B2C861DD
:104F50002068416821F010014160FDF73DF90646E7
:104F6000474606E0FDF738F9801BB84201D9012514
:104F700003E0206840688006F4D52846BDE8F0814B
:104F800070B50D4606460024FFF7F4FE48B93168B7
:104F9000280C88613168A8B2C8613046FFF704FF69
:104FA00000B10124204670BD70B50C46012501F505
:104FB00080717F2802D194F8FF218AB194F80422ED
:104FC0000026012A10D07F2822D094F8FF21531CFC
:104FD00084F8FF31505494F8FF0103281BD01FE0E0
:104FE00084F8FF51505470BD7F2808D07F2184F889
:104FF000001184F80101022084F8FF0105E094F813
:10500000FF21531C84F8FF31505484F8046207E0F8
:1050100084F8045204E094F80201401D84F801026F
:1050200094F8FF1194F801028142DCD194F8011147
:1050300094F8022201F07F01914218D148F2050351
:105040004FF6FF7204F20111C01E01F0DFF894F870
:10505000011204F1FE02C3B28A5C934207D104F14B
:10506000FF02895CB1EB102F01D184F8035284F860
:10507000FF6184F8046270BD2DE9FE4F0C46714952
:105080002046FBF79FFF4FF00409A8B1A57EDFF88B
:10509000B4814FF0000A4FF0030B88F803A2464694
:1050A00098F80012674802F08DFD84F81CB1FDF7F6
:1050B00093F80746B0461FE084F81C9134E00126BF
:1050C000FDF78AF86169C01B88420DD9052084F874
:1050D0001C0119E0012102A802F060FD59499DF868
:1050E0000800FFF761FF002602F060FD0028F1D103
:1050F00016B10220FCF72EFF98F803020028DED03C
:1051000094F81C01032806D06D1E15F0FF05C4D1CC
:10511000C0B2052805D098F8030145467E2806D080
:105120006FE0FF2084F81E010020BDE8FE8F95F897
:1051300002014549401E8DF8040001AB1A460E4697
:1051400008460094FCF706F99DF8040048F20508AB
:1051500043464FF6FF723146801E01F057F83A4A37
:1051600095F80211D21EC3B28A5C9342A4D1364A8A
:10517000921E895CB1EB102F9ED1002108462A189F
:10518000C30092F805219A40401C11440428F6DB24
:10519000607E2E4A52F8200088428DD195F8042175
:1051A0002B4E501DC0B285F8010295F800113170E8
:1051B00095F801117170B270002105E06B18771835
:1051C00093F80931FB70491C8A42F7DC43464FF6DD
:1051D000FF72711CC01E01F019F81D4A95F80411E8
:1051E000D21C8854020A1A48001D0A54002004E008
:1051F000315C2A18401C82F8001195F80112814296
:10520000F6DC95F8020184F81D01002006E029185B
:10521000221891F8031182F81E11401C94F81D11F8
:105220008142F4DC607E0B490A5C802A06D0802231
:1052300001F8002084F81CB1012076E701F800A0F5
:10524000F8E700005B1500205F160020DC08002056
:1052500060170020FC0B0020704700002DE9F05F74
:105260004C48DFF834A1034600F1080E42789978E3
:10527000DAF80C909AF80170DEF804C05B6800253B
:1052800001264FF47A7B0AF11804052A4FD2DFE891
:1052900002F0030E1A2C410019B145608570267486
:1052A00045E0B3FBFBF24A4541D325743EE00129BA
:1052B00004D0456082702570257438E0017841B3D0
:1052C0000570022124E0022908D08C2141608270FF
:1052D0009AF80010CEF80410267028E0B3FBFBF11A
:1052E000B94211D3032141700EE0032902D0456079
:1052F000267415E0B3FBFBF8C84500D32574B3FB57
:10530000FBF1B94200D34670BCF1000F0FD104216C
:1053100041700CE0042905D04560257084F82060B8
:10532000827004E05B4502D384F8205046705746F3
:105330009AF8140003F020FB396903F031FB03D81D
:1053400084F83060012202E084F83050002202210B
:105350001248FCF73CFF2078114D08B1012200E013
:10536000002280212846FCF732FF207C08B1012270
:1053700000E0002240212846FCF729FF94F8200095
:1053800008B1012200E000222846BDE8F05F20219C
:10539000FCF71DBF8C010020D01D0020000801403B
:1053A000000C0140FCF71EBF10B596B028216846DE
:1053B000FBF7F9F914210AA8FBF7F5F918210FA852
:1053C000FBF7F1F9052000904FF480304100CDE962
:1053D00001010121039102240491CDE907404FF41A
:1053E000E01009906846FDF755F9C0B90F20CDE9E6
:1053F0000A0480200C90C0000D9000200E90012126
:105400000AA8FDF759F850B903200F90E001109059
:105410004FF4404011900FA8FCF7D6FF08B1FCF7FD
:105420001FF8FDF7DFF816B010BD70472DE9F04109
:1054300030480024024601785578967803239288F4
:105440004FF4FA67062916D2DFE801F0031B263D68
:10545000154995B141708370848027A12948FAF7D6
:105460006DFF2848FBF709F982B226492648FEF766
:105470004BF926484470BDE8F081BA42FBD98480DC
:1054800013E0012D04D041708370848020A109E0D5
:10549000002EF2D1022120E0022D10D04170837045
:1054A000848025A11748FAF749FF1648FBF7E5F86D
:1054B000BDE8F04182B213491348FEF725B9002E2A
:1054C000DBD10370D7E7032D04D041708370848053
:1054D0001DA1E7E7002ED0D105210170CBE7052DF6
:1054E00004D04170837084801BA1DBE7002EC4D1FF
:1054F0000621F2E79800002041542B434F50533FC0
:105500000D0A00009B1D0020FC020020020000206C
:1055100041542B5149435347503D312C312C226D7E
:105520002D776170222C226D6D73222C226D6D738C
:10553000222C310D0A00000041542B5149414354A3
:105540003D310D0A0000000041542B4E45544F5090
:10555000454E0D0A0000000041542B4349504F5066
:10556000454E3D312C22544350222C223230332ED2
:105570003137312E32302E3632222C393230310D45
:105580000A0000000148FDF76CBC00002402002066
:10559000F0B502681C4B1D4D1D4E1E4F1E4C4FF0AA
:1055A000804C984209D0A04207D0604505D0A8425F
:1055B00003D0B04201D0B84204D122F0700E4A6844
:1055C00042EA0E02984209D0A04207D0604505D0B9
:1055D000A84203D0B04201D0B84203D122F44075B2
:1055E000CA682A434D6922F080022A4302608A6811
:1055F000C2620A688262984201D0A04201D1096960
:10560000016301214161F0BD002C01400004004014
:1056100000080040000C0040003401400FB410B5F9
:105620000798A0F26C70079002A8FBF708F910BC6D
:105630005DF814FB13B5044601A8FBF7DBF801463F
:1056400040692C2200F26C7048612046FBF779F823
:105650001CBD000010B504468CB00748FFF7CDFB19
:1056600001466846FFF7E6FF2C2269462046FBF715
:1056700068F80CB010BD0000100200200FB41C220E
:1056800000B587B00CA96846FBF75BF80DF1200C5C
:105690009CE80F00FFF7C2FF07B05DF814EB00F0C5
:1056A00001B8000001460148FFF732BC100200209B
:1056B00010B5406A0021C185C184FDF743FD10BDCE
:1056C00070B5446A2068406994F84110C0F3C01076
:1056D0000025212904D118B1E584204600F0B4F852
:1056E0002068406994F84210C0F38010222904D148
:1056F00018B1E585204600F080F8606C40F010009D
:1057000060642046FDF71EFD70BD10B50146406A7D
:10571000096809684FF0000289062ED4C285016825
:105720000C3151E8003F23F4807341E80034002C31
:10573000F5D10168143151E8003F23F0010341E83D
:105740000034002CF5D10168143151E8003F23F0FA
:10575000400341E80034002CF5D1202180F84210AC
:10576000016B012909D101680C3151E8003F23F098
:10577000100341E80034002CF5D14263016B01298C
:1057800002D0FDF771FF10BD818DFDF769FC10BDE2
:1057900010B5406A01214163016B012902D0FDF778
:1057A00064FF10BD818D4908FDF75AFC10BD10B58E
:1057B0000146406A09680968890616D40021C18437
:1057C0000168143151E8002F22F0800241E80023E3
:1057D000002BF5D101680C3151E8002F42F0400256
:1057E00041E80023002BF5D110BDFDF7C9FF10BD26
:1057F00010B5406AFDF7C5FF10BD01680C3151E8D6
:10580000002F22F4907241E80023002BF5D10168AB
:10581000143151E8002F22F0010241E80023002B4F
:10582000F5D1016B012909D101680C3151E8002F34
:1058300022F0100241E80023002BF5D1202180F84E
:10584000421000210163704701680C3151E8002FBC
:1058500022F0C00241E80023002BF5D1202180F87E
:105860004110704708B590F84210222901D002205B
:1058700008BD82684FF480539A4201D1016921B179
:10588000816A9A421BD04AB10AE00268816A526872
:10589000C2F308020A80816A891C08E0026972B1B9
:1058A0000268526802F07F020A70816A491C8162B4
:1058B000C18D491E0904090CC18503D01BE0026893
:1058C0005268F1E70168CA6822F02002CA600168E4
:1058D000CA6822F48072CA6001684A6922F0010233
:1058E0004A61202180F8421000214163026B012AA5
:1058F00003D0FDF7B9FE002008BD016301680C313B
:1059000051E8002F22F0100241E80023002BF5D1CE
:1059100001680A68D20602D50A6849680091818D3B
:10592000FDF79EFBE7E7000070B5044600680169DB
:10593000E26821F44051114301612169A0680843E4
:10594000616908432168CA6841F20C639A430243C3
:10595000CA6020684169A26921F440711143416124
:105960001E492068884202D1FCF752FE01E0FCF794
:105970003FFE00EBC00101EB001260686421800073
:10598000B2FBF0F3B3FBF1F36FF018067343B2FB15
:10599000F0F5B2FBF0F605EB8305322303EB0515BA
:1059A000B5FBF1F5B6FBF1F605F0F00505EB0615D4
:1059B000B2FBF0F6B2FBF0F0B0FBF1F06FF01802C2
:1059C000504306EB800003EB0010B0FBF1F02168C0
:1059D00000F00F002844886070BD000000380140CE
:1059E00038B5816204468285002013466064222215
:1059F00084F84220E56B1B4AAA62E56B1A4AEA6208
:105A0000E56B1A4A2A63E26B50630A462168E06B31
:105A1000091DFCF767FA206801684068009020695A
:105A200048B120680C3050E8001F41F4807140E814
:105A30000012002AF5D12068143050E8001F41F010
:105A4000010140E80012002AF5D12068143050E826
:105A5000001F41F0400140E80012002AF5D100206B
:105A600038BD00000B57000891570008C1560008C8
:105A70002DE9F041984617460E460446069D27E05C
:105A8000681C25D02DB1FCF7A7FBA0EB0800A842AD
:105A90001ED920680C3050E8001F21F4D07140E876
:105AA0000012002AF5D12068143050E8001F21F0C0
:105AB000010140E80012002AF5D1202084F84100BD
:105AC00084F84200002084F840000320BDE8F08103
:105AD0002068006836EA000004D00020B842CFD029
