:020000040800F2
:10000000B82D002079020008C36A00083D4A0008A4
:10001000D94F00088F100008F18E00080000000082
:1000200000000000000000000000000049830008FC
:10003000FB14000800000000BD710008A186000844
:100040009302000893020008930200083D72000822
:10005000930200089302000893020008930200082C
:10006000930200089302000893020008930200081C
:100070008914000895140008A1140008AD140008A4
:10008000B9140008C5140008950F00089302000871
:100090009302000893020008930200082315000849
:1000A00093020008930200089302000893020008DC
:1000B00093020008F58800089302000893020008E4
:1000C00093020008930200089302000893020008BC
:1000D00093020008CD8E0008D98E0008E58E000836
:1000E000930200089302000893020008930200089C
:1000F000930200089302000893020008930200088C
:1001000093020008E57500089302000893020008B6
:100110009302000893020008018900089302000876
:10012000930200089302000893020008930200085B
:1001300000F002F800F076F80AA090E8000C824483
:100140008344AAF10107DA4501D100F06BF8AFF260
:10015000090EBAE80F0013F0010F18BFFB1A43F0A5
:1001600001031847D0D90000F0D900000A444FF02D
:10017000000C10F8013B13F0070408BF10F8014B06
:100180001D1108BF10F8015B641E05D010F8016B4B
:10019000641E01F8016BF9D113F0080F1EBF10F8AF
:1001A000014BAD1C0C1B09D16D1E58BF01F801CBD2
:1001B000FAD505E014F8016B01F8016B6D1EF9D555
:1001C0009142D6D37047000000230024002500266A
:1001D000103A28BF78C1FBD8520728BF30C148BFAA
:1001E0000B607047642900F02181752900F01E81A1
:1001F000782900F05781632900F0F184732900F019
:10020000F684002070471FB500F037FA00F046FE74
:100210000400002000210CF01FFC401C60601FBD8A
:1002200010B510BD00F014FE1146FFF7ECFF09F009
:1002300091FE00F045FE03B4FFF7F2FF03BC00F0AF
:10024000CDFB00000B49D1F800C04A685CF8043BC4
:100250001068184442F8040B8C4528BFA1F1DC0C4F
:100260008A4228BFA1F1DC02C1F800C04A6020F038
:10027000004070472427002009488047094800476C
:10028000FEE7FEE7FEE7FEE7FEE7FEE7FEE7FEE746
:10029000FEE7FEE704480549054A064B70470000A3
:1002A0001F87000831010008B8270020B82D002062
:1002B000B8290020B8290020B2F120030AD5C2F1E4
:1002C000200301FA02F120FA03F300FA02F041EAF6
:1002D0000301704700FA03F14FF000007047B2F1DC
:1002E00020030AD5C2F1200320FA02F001FA03F339
:1002F00041FA02F140EA0300704741FA03F04FEA85
:10030000E171704710B54C1084EA530404D54042A3
:10031000C1F1000138BF491E1B4204D55242C3F14E
:10032000000338BF5B1E00F063FB14F0804F04D065
:100330004042C1F1000138BF491E14F0004F04D003
:100340005242C3F1000338BF5B1E10BD0FB4044915
:1003500010B503AA029800F04FFC10BC5DF814FB26
:10036000140000200FB41CB5074B06AA7B44694655
:100370000090059800F011FC0020694600F020FC78
:100380001CBC5DF814FB00005108000070B5044669
:1003900085690068C10601D5302600E02026C00727
:1003A00007D070BDD4E9012130469047206A401C37
:1003B00020626D1EF6D570BD70B504468569007863
:1003C000C00707D170BDD4E9012120209047206AE1
:1003D000401C20626D1EF6D570BD70B50C460546FA
:1003E000012A05D02878800600D5EA69002302E0BA
:1003F000012305E05B1C934202D2E05C0028F9D1A6
:10040000A869E618C01AA861286A18442862284614
:10041000FFF7BCFF04E0D5E9012114F8010B904778
:10042000B442F8D32846FFF7C7FF70BD2DE9F0416D
:100430000646002410687529314616A510D0AFF382
:100440000080002802DA404213A507E031688A07DD
:1004500001D512A502E0490704D511A5012401E048
:10046000AFF3008000210A2206F1240709E0B0FB67
:10047000F2FCB0FBF2F302FB1C003030785418465B
:10048000491C0028F3D123462A463046BDE8F041F6
:1004900000F025BB000000002D0000002B00000034
:1004A0002000000070B504460D4621461068AFF3E9
:1004B00000802188090502D50F4A7A4402E00E4ADD
:1004C0007A440E32002104F1240305E000F00F0607
:1004D0000009965D5E54491C0028F7D1207800235E
:1004E000000704D5702D02D009B102231132204635
:1004F000BDE8704000F0F3BAAED200002DE9F05F25
:10050000894604464FF0000ADFF824B1FB44C0F8E6
:1005100020A02046E168884700287DD0252806D005
:10052000D4E901219047206A401C2062F1E70025B0
:100530005F462046E16888472028064607DB312EC3
:1005400005D2B81910F8200C08B10543F1E7A80747
:1005500001D525F00405C4F81CA00027C4F818A094
:100560002A2E09D0304608F08BFD38B304EB8708FB
:10057000303EC8F8186019E059F8041B204604EB17
:1005800087029161E1688847012F064618D1E0692A
:10059000002820DA25F020051DE0D8F8180000EB2F
:1005A000800006EB40003038C8F818002046E168AB
:1005B0008847064608F064FD0028EED1012F0AD0D6
:1005C0002E2E08D12046E16888477F1C0646022F60
:1005D00045F02005C4DBA069002803DA404245F05D
:1005E0000105A061E80701D025F01005A6B1A6F12C
:1005F0004100192802D8203645F400654A463146A4
:10060000204625604D46FFF7EDFD60B1012807D07B
:10061000ED1D25F0070000E007E000F1080978E78C
:1006200005F1040975E730467AE7206ABDE8F09FD6
:1006300084D2000070B5064600F0D6F9046805467D
:1006400030460A22002100F0E9FA2C6070BD00005B
:100650000B4910B5A1F17C020A4CC2E937123721CF
:1006600006E000EB104342F82130074B00FB03404B
:100670000B1EA1F10101F4DC10BD0120E8E7000030
:10068000C4260020E119D666CD0D010010B500206A
:1006900000F0FCFAFFF7C4FDBDE81040012000F0B7
:1006A0009DB910B5431C02E010F8011B71B1810720
:1006B000FAD14FF0013202C88C1A8C4314EAC211ED
:1006C000F9D0C01A0A0603D0C01E10BDC01A10BD52
:1006D0000A0401D0801E10BD0902FCD0401E10BDCE
:1006E000032A40F2308010F0030C00F0158011F85E
:1006F000013BBCF1020F624498BF11F801CB00F836
:10070000013B38BF11F8013BA2F1040298BF00F889
:1007100001CB38BF00F8013B11F0030300F0258046
:10072000083AC0F0088051F8043B083A51F804CB6D
:10073000A0E80810F5E7121D5CBF51F8043B40F833
:10074000043BAFF30080D20724BF11F8013B11F83E
:1007500001CB48BF11F8012B24BF00F8013B00F882
:1007600001CB48BF00F8012B704710B5203AC0F00C
:100770000B80B1E81850203AA0E81850B1E81850A2
:10078000A0E81850BFF4F5AF5FEA027C24BFB1E8DF
:100790001850A0E8185044BF18C918C0BDE8104050
:1007A0005FEA827C24BF51F8043B40F8043B08BF59
:1007B0007047D20728BF31F8023B48BF11F8012B20
:1007C00028BF20F8023B48BF00F8012B70474FF0CC
:1007D000000200B5134694469646203922BFA0E891
:1007E0000C50A0E80C50B1F12001BFF4F7AF09079D
:1007F00028BFA0E80C5048BF0CC05DF804EB89008E
:1008000028BF40F8042B08BF704748BF20F8022BD0
:1008100011F0804F18BF00F8012B7047014900F01C
:100820003DBA00002C27002010B503681C1404EB0F
:1008300021449BB289B2194494FBF2F302FB1343A7
:1008400094FBF2F401EB034393FBF2F102FB113151
:1008500093FBF2F301E05B1E11440029FBDB016016
:1008600003EB044010BDF0B504464FF0FF3585B0F2
:100870000068049060680290A0680390E0680190AE
:1008800020690090666906F18040B0F1004F7CD885
:100890003C22002104A8FFF7C7FF3C22014602A822
:1008A000FFF7C2FF1822014603A8FFF7BDFF411E54
:1008B00040F2B55201A8FFF7B7FF0C220746684681
:1008C0000021FFF7B1FF414B00EB870030440026C9
:1008D0007B4411E0511A01910099491C02290091B1
:1008E00002D00C2908D105E0810705D00199491CE7
:1008F000019101E0401C00960099019A595C9142D7
:10090000E8DD0099012906D11C2A04D1810702D013
:100910000221CDE90016A0F146018B293CD2DDE988
:100920000061002202E09F5C521C3944B242FADBB3
:10093000012E02DD820700D0491E40F2B55340F27D
:100940006D16C21700EB927292105A4300F0030327
:1009500003FB062283070A4400D1521E039E02EBCA
:100960004203049F06EBC303029EC3EB031306EB93
:100970008303174E33441E149BB2C6EB0616C3EB1B
:100980000313B60007EB830300E005E006EB134614
:1009900066F31F43360C02D0284605B0F0BD80C474
:1009A000029E40C4039E40C4019E761C44F80C6B1A
:1009B000009E44E902600720521C92FBF0F600FB07
:1009C000162084E823001846E7E70000D1CE000097
:1009D000A039CEFD704770477047000001491820CC
:1009E000ABBEFEE7260002000048704758270020F3
:1009F00053EA020C00F069802DE9F04B4FF000063D
:100A0000002B1FBFB3FA83F503FA05F424FA05F6A9
:100A10005E4012BF1643B2FA82F502FA05F4C5F140
:100A200020051EBF22FA05FC44EA0C04203556EAD4
:100A3000044C4FEA144418BF641C4FF000084FF0F8
:100A40000009904271EB030C39D3002919BFB1FAA8
:100A500081F701FA07F6B0FA80F700FA07F6C7F156
:100A600020071EBF20FA07FC46EA0C062037B6FB1B
:100A7000F4FCA7EB0507103F07F01F0BCBF1200696
:100A80000CFA0BFB2CFA06F644BFB3460026202FC7
:100A9000A4BF5E464FF0000B5BEA060C08BF4FF0A8
:100AA000010B19EB0B09ABFB027C48EB0608C01BE2
:100AB00006FB02CC0BFB03CC71EB0C01C1E70B4630
:100AC000024641464846BDE8F08B13B54FF00000A2
:100AD0004FF00001AFF30080BDE81C4070472DE9E6
:100AE000F0470D4699469246044600F124080168F5
:100AF000880604D5E06921F01001216000E00120A2
:100B0000A84201DD471B00E00027A1697A1902EB2A
:100B10000900081AA0612078C00602D42046FFF719
:100B200035FC002608E0D4E901211AF806009047B8
:100B3000206A401C761C20624E45F4DB2078C006FB
:100B40000AD52046FFF722FC06E0D4E90121302037
:100B50009047206A401C2062381EA7F10107F4DC90
:100B600007E0D4E9012118F805009047206A401CED
:100B70002062281EA5F10105F3DC2046FFF71CFCCE
:100B80002078000602D50220BDE8F0870120FBE7AF
:100B900001694A1C02610878704700B58FB0CDE941
:100BA00001310021059105497944CDE90310114631
:100BB0006846FFF7A3FC0FB000BD0000E5FFFFFF94
:100BC0000A6802F8010B0A60704710B5436913B157
:100BD000AFF3008001E0FFF700FC012010BD1278A8
:100BE00000F124010A7000224A700122EDE7116829
:100BF0004FF0FF32E9E70000074B70B50D467B442C
:100C0000FFF7CBFF0446284600F001F910B14FF082
:100C1000FF3070BD204670BD4F8F00002DE9F047BA
:100C200091460F4680460446002614F8015B2DB11C
:100C300000F096F80068405DC007F6D12B2D02D079
:100C40002D2D18D0641E4A463946204600F090F8F3
:100C500027B13968A14201D1C7F800804FF00204E2
:100C600071050BD54042002803DDFFF7BDFE04608F
:100C7000A007BDE8F08746F48066E4E70028F8DACC
:100C8000FFF7B2FE04606FF00040F2E710B500F02D
:100C9000C7F8BDE8104000F0BEB8000070B50C46C3
:100CA000016800204A1C3ED03C22B1FBF2F302FB5B
:100CB0001313B1FBF2F12360B1FBF2F302FB131348
:100CC000B1FBF2F118226360B1FBF2F302FB1313E4
:100CD000B1FBF2F146F2E0320A440721A360B2FB15
:100CE000F1F301FB132140F2B553B2FBF3F5A1611F
:100CF000B2FBF3F103FB15228900B2F5B77F08D3ED
:100D00009B10521EB2FBF3F52944B2FBF3F503FB33
:100D100015220F4BE261616189077B440CD03B2AAD
:100D20000AD3521C08E02C212046FFF750FD012079
:100D3000E0600AE0521A401C195C9142FAD9521C38
:100D4000C4E903204FF0FF302062204670BD000050
:100D500087CA0000004870475827002070470000ED
:100D600010B500F09BF8001D10BD00BFEDBC0000E9
:100D70002DE9F05F824615468B4600270AF10104F3
:100D8000B9460078302801D09DB113E014F8010B6A
:100D90000127782803D0582801D045B10AE00DB1C9
:100DA000102D07D1002714F8010B102502E00825AB
:100DB00000E00A250026B0460EE005FB080005FB12
:100DC00006F101271FFA80F801EB1046B6F5803FC7
:100DD00000D3B94614F8010B294600F063F8002847
:100DE000EBDABBF1000F05D00FB1641E00E05446F2
:100DF000CBF80040B9F1000F06D0FFF7F5FD022156
:100E00000160C81EBDE8F09F48EA0640FAE7007B93
:100E100000F080007047002801D0FFF7DFBD704769
:100E200010B5002102A000F054F8012010BD000010
:100E3000534947414252543A2041626E6F726D618C
:100E40006C207465726D696E6174696F6E0000006C
:100E50007546FFF77FFFAE4605006946534620F012
:100E60000700854618B020B5FFF714FABDE820400A
:100E70004FF000064FF000074FF000084FF0000B56
:100E800021F00701AC46ACE8C009ACE8C009ACE809
:100E9000C009ACE8C0098D467047000000487047A3
:100EA000782700203A2800D2303820F02002412A4A
:100EB00001D3A2F13700884201D34FF0FF307047D1
:100EC00010B50446AFF300802046BDE81040FFF7A0
:100ED000B2B970B505460C460A2000E06D1C00F062
:100EE00051F835B128780028F8D102E0641C00F0F0
:100EF00049F814B120780028F8D1BDE870400A20E4
:100F000000F040B84FF0013C50F8042B51F8043B7E
:100F10009A4221D1A2EB0C03934313EACC1317D1CD
:100F200050F8042B51F8043B9A4215D1A2EB0C0364
:100F3000934313EACC130BD150F8042B51F8043B24
:100F40009A4209D1A2EB0C03934313EACC13DBD0F2
:100F50004FF00000704700BFD01A01BAB1FA81F11A
:100F600001F0180122FA01F0CB40C1F12001DBB2FF
:100F7000C0B2C01A2CFA01F3D11A914311EAC3117D
:100F8000E6D1704708B569468DF800000320ABBE76
:100F900008BD0000014800F018BF00001C09002037
:100FA00070B5044600688168C943C90717D18168D4
:100FB00021F00101816001F0CDFB05460AE000BF90
:100FC00001F0C8FB401B022804D920688068C04398
:100FD000C00706D020688068C043C007F0D000205A
:100FE00070BDA06A40F01000A062E06A40F001000D
:100FF000E062012070BD70470146014802F0DEB991
:101000006009002010B5044802F0EAF9042801D074
:10101000012010BD002010BD6009002010B500F0B7
:101020000BF8012801D0012010BDBDE81040014897
:1010300002F0E8BA6009002008B501208DF8000030
:101040009DF8000008BD000038B500240093134649
:101050000A460146034802F079FB00B1012420460C
:1010600038BD0000600900207047000038B500243A
:10107000009313460A460146034802F05BFC00B1A8
:101080000124204638BD0000600900207047FEE7BB
:101090002DE9FC41002605460C4681F8FF613046EB
:1010A0002118401C81F80061FF28F9DB687F324F6E
:1010B000112802D1697E80207854E87E50B105F174
:1010C0001C03CDE900355A1C687E114600F02CFA4D
:1010D00000284FD084F80462687E84F8020284F805
:1010E000FF6184F8FF60032084F80102287F7F26D7
:1010F000401D84F800022670687E395C08436070E9
:10110000287FA070002004E029182218497FD170A0
:10111000401C297F8142F7DC94F8000248F2050365
:101120004FF6FF72611CC01E08F006FB2A7FE11C0F
:101130005054010A2A7F201D11541049207808704C
:101140000120024608E0A35C0B54A35C7F2B01D175
:10115000401C0E54401C521C94F800329342F2DCA6
:10116000002202E08B5CA354521C8242FADB84F81A
:1011700000020120BDE8FC815C140020BC1C0020A2
:101180001CB50446D4E90001084318D0D4E9020193
:10119000084314D000F092FD4FF000420023FFF707
:1011A000B1F8C4E90623D4E90201CDE90001D4E98C
:1011B000000107F017FFC4E9040100201CBD4FF037
:1011C000FF301CBD1CB50446D4E90201CDE9000185
:1011D000D4E90801D4E9062307F004FFC4E90C01AF
:1011E00001201CBD70B504461348124D86B08169BC
:1011F00041F0040181618069012600F0040004903F
:101200001120CDE900600020029003200390694680
:10121000284601F099F901221146284601F095FA75
:10122000C4E90456022020764FF4FA60E06106B06B
:1012300070BD000000080140001002402DE9F0439D
:10124000D7B0012504461120CDE952500326DFF81E
:10125000AC81CDE9545652A9404601F075F90027FA
:1012600001E02754401C0528FBDB012211464046C3
:1012700001F06BFA41F29210401EFDD260A0FFF720
:1012800065F8DFF88C910022012189F80050404672
:1012900001F05BFA207E022821D003281FD05D4890
:1012A000401EFDD201221146404601F04EFACDE922
:1012B000547652953D4652A94046539701F044F961
:1012C00001200BF09DFB40F6C2380227404504D0B8
:1012D00000200BF095FB404506D138462CE041F24A
:1012E0007A50401EFDD2DDE701200BF089FB40451E
:1012F00001D1304620E0002702AE00200BF080FB39
:1013000046F8270001200BF07BFB06EB8701BF1C92
:101310004860502FF1DB40A0FFF718F889F8005023
:101320000020414606EBC00356F830205F688A4231
:1013300001D08F4205D1042084F8200057B0BDE8C9
:10134000F083C31700EB537304EBE303974293F866
:1013500000C04FEA4C6C4FEA1C6C83F800C002D905
:101360004CF001021A70401C2828DBDB2179E07860
:10137000CDE90001A378627821782DA0FEF7E6FF81
:1013800020786178A6780144E078321811442279F7
:10139000C9B28A4207D0052004F8200F2CA0FEF71E
:1013A000D5FF2078CAE706F07F0140EA01200BF064
:1013B0009AFB2E4FDFF8B8803A4643460BF0A6FB67
:1013C0000BF060FBA060310602D580F00040A06009
:1013D000208840BA0BF087FB3A4643460BF096FB59
:1013E0000BF050FBE0600BF09BFC014621A0FEF7E8
:1013F000ADFF84F820502846A0E700000008014017
:10140000444854323120524541440D0A0000000046
:101410001C0400208E5F01007265616420726561AA
:10142000647920383020626974730D0A000000006E
:1014300044485432313E3E20524547202564202501
:10144000642025642025642025640D0A0000000026
:1014500044485432313E3E20434845434B53554D5A
:101460005F4641494C45440D0A0000009A999999FC
:101470009999B93F44485432313E3E2048554D3A3F
:101480002025640D0A000000014800F08FBE000016
:10149000F80C0020014800F089BE0000B40C0020C8
:1014A000014800F083BE0000E80B0020014800F076
:1014B0007DBE0000A40B0020014800F077BE0000B4
:1014C0002C0C0020014800F071BE0000700C0020C0
:1014D00030B590F840500124AC40C56B6C60046896
:1014E00063604368102B036803D099600068C26092
:1014F00030BD9A600068C16030BD70471FB512787A
:101500000023069CCDE90202CDE9003110222146DC
:10151000012007F0F2FD10B1002004B010BD012041
:10152000FBE7202001F004B82DE9F04F91461A782E
:101530008046D01D1F460026C0B2C5B0030703D0A9
:1015400000F00F03C3F11006DFF8B8B030448DF897
:101550001020C4B25BF82830002004AAC50023FA8A
:1015600005F502EB000C401CC0B28CF801500428B9
:10157000F4D3002004E00B5C1518401C6B71C0B262
:101580003B788342F7D8002592460CE0FEF75AFEDE
:10159000FF2190FBF1F201FB12003A78691D5244E1
:1015A0006D1C5054EDB2B542F0D348F205034FF62E
:1015B000FF7204A9A01E08F0BFF80AEB040202F8AB
:1015C000020D000A5070002209F10100CDE9002A45
:1015D000CDE902041346102201204F9907F0F4FED2
:1015E00018B1002045B0BDE8F08F4E98641C7E21F4
:1015F000047089F800105BF82810491C4BF828107B
:101600000120EFE73C11002002A0FEF79FFE72B61A
:10161000FEE700006572726F720D0A00002200F092
:1016200001B8000030B50E4B054601205C7A012C54
:1016300015D8587A00241C54587A03EB8000456072
:101640005D7A03F108002A54587A421C5A723030ED
:1016500008703A2048702F208870CC70002030BD70
:101660003C26002009B1012200E00022074B38B1DE
:10167000012807D0022807D11021184601F065B8CB
:101680008021FAE74021F8E7704700000008014098
:1016900008B541008DF8001081F01B018DF8011094
:1016A000694601EBD010007808BD08B50021009014
:1016B00040238022084600F0DFF908BD2DE9F047FD
:1016C00010F8016B914610F8017B8A468046002590
:1016D0001AE0002414E0E008704308EB0501405CC8
:1016E00004F00701C840C00709EB04010AEB05003C
:1016F00001D0012200E0002200F0EEF8641CA4B248
:10170000BC42E8DB6D1CADB2B542E2DBBDE8F08760
:101710002DE9FF4F244CA26813785E074FEAD305EA
:1017200000D06D1C92F801C0966852880027801A7C
:1017300068430CFB0068491E581800F0FF093E463C
:10174000A34626E0002008EB050106E00C1A3B0248
:1017500014F8017C1F43401CC0B2A842F6D3029883
:101760008846002400EB060A0CE00120A040B843A4
:101770005146A9EB040014D05FF0000200F0ACF871
:10178000641CE4B2DBF808000078A042EDD8761CB7
:10179000F6B2DBF808005A464078B042D2D8BDE82D
:1017A000FF8F039AEAE70000280000202DE9FF4F91
:1017B0001F46934682460024DDF8348022E07E1ED8
:1017C000F017012106EB507001EBE000002504FB4F
:1017D00000F60BEB040911E00AEBD50005F0070158
:1017E000305CC1F10701C840C00705D001984946E7
:1017F00028440E9A00F070F86D1CADB2BD42EBD3D8
:10180000641CA4B24445DAD3BDE8FF8F2DE9F04F44
:101810001E46DDE9097B90468946824600251AE08E
:10182000002414E0E00870430AEB0501405C04F07A
:101830000701C840C00708EB040109EB050001D00F
:101840005A4600E0002200F047F8641CA4B2BC42F3
:10185000E8D36D1CADB2B542E2D3BDE8F08F2DE9FF
:10186000FC4F0546994617460C46AA4201DD781BF7
:1018700000E0E81B8046A14502DDA9EB040001E081
:10188000A4EB090082464FF0FF30BD4201DA01218E
:1018900000E0014601914C4500DA01208346CAF17F
:1018A0000000A8EB0A060090214628460B9A00F09B
:1018B00013F8BD4201D14C450CD00099700088420C
:1018C00003DD0199A6EB0A060D444045ECDA4644D7
:1018D0005C44E9E7BDE8FC8F10B5802815D20029EB
:1018E00013DB402911DAC317090100EB537301EB35
:1018F000E30123F00703064CC31A80202144D8409B
:10190000002A0A7802D002430A7010BD8243FBE726
:101910003C0D00202DE9F04F1C4600250F19914683
:101920008A468346561C0DE00BEB05008046514667
:10193000099AFFF7D1FF39464046099AFFF7CCFFD5
:101940006D1CEDB2B542EFDB00250BEB0906671C01
:101950000EE000BF0AEB050421465846099AFFF73E
:10196000BBFF21463046099AFFF7B6FF6D1CEDB26A
:10197000BD42EFDBBDE8F08F2DE9F0411F469046F8
:101980000C4605460B4E0EE03B4642462146FFF70D
:10199000BFFE287820280BD0B0680078142800D922
:1019A000E41C04446D1C28780028EDD1BDE8F081CA
:1019B000241DF7E7280000202DE9FC479A4605463C
:1019C0000C461646DFF8508020E00A2818D013494C
:1019D000DFF84C9032460F5C98F80010CDE9001A01
:1019E0001048114919F8073050F8270008442146DB
:1019F000FFF7DCFE19F80700641C04446D1C05E0C9
:101A000098F80000002406446D1C761C28780028F5
:101A1000DBD1BDE8FC870000B3020020A401002058
:101A2000A402002068010020980000202DE9FC4756
:101A3000984691460D46044616E0202812D00AF03A
:101A400001FD0F210B4FCDE900180646B819BB5D0B
:101A50004A462946401CFFF7D9FEB85D6D1C054477
:101A6000641C01E0641CED1C20780028E5D1BDE871
:101A7000FC87000011D200082DE9F043CE188846FB
:101A8000C4B28718DDF81C900EE000BF08F0FF0517
:101A900006E04A4629462046FFF71EFF6D1CEDB2C0
:101AA000AE42F6DC641CE4B2A742EFDCBDE8F08392
:101AB0002DE9F041DFF83480002508270021284671
:101AC00009F0CAF908EB05140026207809F07CF922
:101AD0006078A41C09F078F9761CF6B2BE42F4D303
:101AE0006D1CEDB2402DE8D3BDE8F0813C0D002027
:101AF00010B5234C0246C4E90001012100209047A3
:101B0000202009F05DF9012000F0EAFC202009F016
:101B100057F9012000F0E4FC062009F051F90120FA
:101B200000F0DEFC202009F04BF907F025FF012032
:101B300000F0D6FC012009F043F9322000F0D0FC7F
:101B4000262009F03DF907F017FF012000F0C8FC3E
:101B50000C2009F035F9012000F0C2FC0020FFF74D
:101B6000A4FDFFF7A5FF322000F0BAFC012009F028
:101B700027F9322000F0B4FC0248A06010BD00003C
:101B8000280000203400002070B5012000F018F873
:101B90004FF4FA7000F0A4FC0122084D54022146D3
:101BA000284600F0D2FD4FF47A7000F099FC2146EF
:101BB0002846BDE87040002200F0C7BD0018014073
:101BC00002464FF48061014800F0BFBD001801409B
:101BD0004FF480720149024802F077BB1C240020B8
:101BE0005C0B00207CB5134C002013496081A08160
:101BF0004870C87088700871FF200870FFF7E8FF10
:101C0000FFF7C2FF0D4D286DC2B2C0F30721CDE929
:101C10000012C0F30743020E09A10C48FEF7A2FB15
:101C2000B5F85420E28002B00849BDE8704008A031
:101C3000FEF78CBBBC0200200C000020C02000205E
:101C400025642E25642E25642E2564004E25002053
:101C500047534D3E3E2053657276657249503A2097
:101C600025730D0A506F72743A202564000000003D
:101C700070B500F023F84FF000420023FEF742FB5E
:101C800014461D46D00702D1641C43F1000505220D
:101C900000232046294604F0EDFE01280AD0A41CAA
:101CA00045F10005052200232046294604F0E2FE06
:101CB0000028F4D02046294670BD000001480021CC
:101CC000704700006D99829D70470000F8B50024B0
:101CD000009490F824202546012A12D0012280F891
:101CE00024204A681F23072A0DD20668776B521EEC
:101CF00002EB820293409F430B6893401F4377633C
:101D000019E00220F8BD06680D2A0AD2376BD21FEF
:101D100002EB820293409F430B6893401F4337635B
:101D200009E0F76A0D3A02EB820293409F430B6889
:101D300093401F43F7620A68072306680A2A0AD3FA
:101D4000F7680A3A02EB420293409F438B68934044
:101D50001F43F76008E0376902EB420293409F435C
:101D60008B6893401F4337610A68102A01D0112AFB
:101D700020D1124B02689A4217D193681B0219D4E2
:101D8000936843F4000393600968102912D10C4949
:101D90000C4A0968B1FBF2F101EB8101490000E056
:101DA000491E00910029FBD104E0816A41F0200125
:101DB0008162012480F824502046F8BD00240140AF
:101DC0002400002040420F00704770B504460068B0
:101DD00006684568A90625D5B10723D5A16AC906B5
:101DE00003D4A16A41F40071A1628168C1F3424148
:101DF000072910D1217B71B9416821F02001416090
:101E0000A06A20F48070A062A06AC00403D4A06A13
:101E100040F00100A0622046FFF7D6FF21686FF076
:101E20001200086028062ED570072CD5A06AC006BF
:101E300003D4A06A40F40050A06220688168C1F316
:101E40000231072909D04168490515D48168C1F3D9
:101E50004241072910D1217B71B9416821F08001ED
:101E60004160A06A20F48050A062A06AC00503D43B
:101E7000A06A40F00100A0622046FFF725FF21681C
:101E80006FF00C00086068060CD5F0070AD0A06A55
:101E900040F48030A062204600F096F821686FF090
:101EA0000100086070BD00002DE9F04104004FF012
:101EB00000057FD0A06A002628B9E66284F8246075
:101EC000204600F083F82046FFF76AF8A16AC906A9
:101ED00000D420B1A06A40F01000A0626AE0A16ABC
:101EE00021F4885141F00201A162334923688B42F9
:101EF000E16904D1B1F5402F01D14FF40021277BD6
:101F00004FF4807C41EA470261680A43A168614559
:101F100008D0012906D0002194F814E0BEF1010F89
:101F200002D00AE06146F7E7C7B1A76A47F0200789
:101F3000A762E76A47F00107E7625F6827F469472D
:101F40000F435F60236899681C4F394011439960C3
:101F5000A16861450BD0012909D00CE0DFF860E0F1
:101F6000A7690EEB47370F4347F40061E5E7218A85
:101F70000D05A5F580152168CB6A23F470032B436A
:101F8000CB62216889680F4B1940914208D1E66203
:101F9000A16A21F0020141F00101A162BDE8F081D6
:101FA000A06A20F0020040F01000A062E06A40F059
:101FB0000100E0620120F1E7003C0140FDF7E1FF94
:101FC00000E0FFFFFE0E1FFF7047000000B585B068
:101FD0000021009101910291039100681249884209
:101FE0001FD11248816941F400718161816901F456
:101FF00000710491816941F0100181618069694635
:1020000000F010000490032000900190084800F0B8
:102010009BFA00221146122000F000FC122000F072
:10202000EFFB05B000BD000000240140001002409D
:102030000010014010B590F821100022022905D0AF
:102040000421816380F82020012010BD01680B6805
:1020500023F00E030B6001680B6823F001030B6093
:1020600090F84030C46B012101FA03F3636080F8FB
:10207000211080F82020104610BD00002DE9F05FEF
:1020800090F821100024022903D004218163012447
:1020900085E001680A6822F00E020A6001680A6899
:1020A00022F001020A603F4E3E4FB215DFF8F4C045
:1020B000DFF8F090DFF8ECA0DFF8E8B0DFF8E4E05C
:1020C0000168783F13011502ACF1640CA9F15009C5
:1020D000AAF13C0AABF1280BAEF1140E4FF48018B4
:1020E000B14227D9B9420ED0614512D049451DD021
:1020F000514518D0594518D0714501D1424615E0D7
:10210000294EB14201D1012210E0274E1436B142CE
:1021100001D110220AE0244E2836B14206D0224ACC
:102120003C32914201D11A4600E02A461E49091F5D
:102130000A602BE0B94213D0614517D0494522D03F
:1021400051451DD059451DD0714501D142461AE077
:10215000B14202D14FF0807215E0134EB14201D16D
:10216000012210E0104E1436B14201D110220AE0D3
:102170000D4E2836B14206D00B4A3C32914201D175
:102180001A4600E02A46074980394A60012180F852
:102190002110002180F82010416B01B188472046B2
:1021A000BDE8F09F80000240080402402DE9F05F86
:1021B000C16B0A6801680B68046C4FF0040808FAE8
:1021C00004F8844D844E854FDFF814C2DFF8149272
:1021D000DFF814A2DFF814B2DFF814E218EA020FF5
:1021E00065D05FEA437862D50A68920603D40A682C
:1021F00022F004020A60DFF8F0814FF48062016887
:1022000008F1140813011402414524D9A9420DD044
:10221000B1420FD0B9421AD0614515D0494515D009
:10222000514501D1120312E0594501D104220EE0BB
:10223000714501D140220AE06D4D1435A94206D006
:102240006B4A2832914201D11A4600E02246674982
:10225000091F0A6029E0A94213D0B14215D0B94242
:1022600020D061451BD049451BD0514502D14FF4C8
:10227000800217E0414502D14FF0806212E05945DB
:1022800001D104220EE0714501D140220AE0584DEF
:102290001435A94206D0564A2832914201D11A4635
:1022A00000E022464B4908394A60C16A71E04FF0AC
:1022B000020808FA04F818EA020F70D05FEA83787F
:1022C0006DD50A68920606D40A6822F00A020A60EE
:1022D000012180F82110DFF810814FF400720168AD
:1022E00008F1140813011402414524D9A9420DD064
:1022F000B1420FD0B9421AD0614515D0494515D029
:10230000514501D1120312E0594501D102220EE0DC
:10231000714501D120220AE0354D1435A94206D07D
:10232000334A2832914201D11A4600E022462F4911
:10233000091F0A6029E0A94213D0B14215D0B94261
:1023400020D061451BD049451BD0514502D14FF4E7
:10235000001217E0414502D14FF0007212E05945DA
:1023600001D102220EE0714501D120220AE0204D68
:102370001435A94206D01E4A2832914201D11A468C
:1023800000E02246134908394A60002180F82010F5
:10239000816A00291CD0BDE8F05F0847FFE70825E7
:1023A000A540154214D01A0712D50A6822F00E0271
:1023B0000A6090F84020C36B012101FA02F25A60D2
:1023C000816380F82110002180F82010016BE0E784
:1023D000BDE8F09F080002401C00024030000240AF
:1023E00044000240580002406C00024008040240D1
:1023F0001C04024030B560B11A4B026814219A42A5
:1024000009D2194B1344B3FBF1F189000164174958
:102410000AE0012030BD134B5B421344B3FBF1F1E2
:10242000890001640F490839C163022180F8211035
:10243000136843F6F0718B43F0E901142143D0E9AE
:1024400002452C43214304692143446921438469A3
:102450002143194311600021416301224277017732
:10246000084630BD08040240F8FFFDBF00000240EE
:1024700070B5044690F82000002501280CD00120FA
:1024800084F8200094F821600020012E06D084F802
:1024900020000225284670BD022070BD022684F867
:1024A0002160A0632068066826F0010606602046C9
:1024B000FFF70EF8E06A00282068016802D041F0BA
:1024C0000E0106E021F0040101602068016841F07E
:1024D0000A0101602068016841F001010160D9E74B
:1024E00070B5044600F036F90546601C02D0044879
:1024F0000078044400F02EF9401BA042FAD370BDCE
:102500001800002020280ED1074A506896280AD3C8
:1025100006490023486810B1401E486002D10348B4
:102520003838037053607047D0030020AC2500207A
:10253000044910B50A68024202D00860FFF7E2FFC2
:1025400010BD0000140401402DE9F84FDFF8C891D8
:102550000024A9F1040B23460F2709F1040AABF16B
:10256000040ED1E00125A54006EA0502AA4276D173
:10257000DFF8A8C14E68A6EB0C0866452BD00DDC31
:10258000032E34D005DC36B3012E19D0022E2FD104
:102590001BE0112E16D0122E2AD119E0B8F5881F93
:1025A00019D006DCB8F5803F15D0B8F5801F1FD1D3
:1025B00011E0B8F5001F0ED0B8F5041F18D10AE0DD
:1025C000CB6815E0CB681B1D12E0CB6808330FE029
:1025D000CB680C330CE08B682BB1012B4FF0080358
:1025E00003D0456104E0042302E0056100E000231C
:1025F000FF2A01D8064601E000F104064FEA8405EF
:1026000001D9A5F12005D6F8008007FA05FC28EAD3
:102610000C0803FA05F548EA0508C6F800804D687D
:10262000ED0070D53E4DAE6946F00106AE61AD6974
:1026300024F0030605F0010500953A4D06EB050C64
:10264000DCF80850A607360F07FA06F825EA080551
:10265000DFF8D480404503D14FF0000825E052E078
:10266000DFF8C880404502D14FF001081DE0DFF8D7
:10267000C080404502D14FF0020816E0DFF8B48078
:10268000404502D14FF003080FE0DFF8AC80404531
:1026900002D14FF0040808E0DFF8A080404502D1E5
:1026A0004FF0050801E04FF0060808FA06F848EA7E
:1026B0000508CCF808804D68D9F80060ED024D4659
:1026C00001D5164300E096432E604D68DAF80060AD
:1026D000AD02554601D5164300E096432E604D6885
:1026E000DBF80060AD035D4601D5164300E096437C
:1026F0002E604D68DEF80060ED03754601D5164387
:1027000000E096432E60641C0A681646E2407FF49F
:1027100029AFBDE8F88F0000080401400000111047
:10272000001002400000014000080140000C014080
:10273000001001400014014000180140001C01403D
:102740008068084000D0012070470AB101617047DD
:102750000904FBE70148806870470000180000206A
:102760000248816802781144816070471800002097
:10277000074810B5016841F010010160032000F026
:102780006DF80F2000F006F800F024F8002010BDCE
:102790000020024070B50D4D04464FF47A71287840
:1027A000B1FBF0F00A490968B1FBF0F001F0E3FA7F
:1027B00048B9102C07D200222146501E00F02EF8F6
:1027C00000206C6070BD012070BD0000180000206A
:1027D00024000020094808B5816941F001018161A8
:1027E000816901F001010091C16941F08051C1612D
:1027F000C06900F08050009008BD00000010024049
:10280000002809DB00F01F020121914040098000EF
:1028100000F1E020C0F8001170470000F0B40E4B4A
:102820001B680C46C3F30223C3F10705042D00D92E
:102830000425191D072901D2002300E0DB1E012613
:1028400006FA05F1491E214099409E40761E164029
:102850003143F0BC06F004BC0CED00E0064900F08A
:10286000070208684FF6FF03184040EA0220034AB7
:1028700010430860704700000CED00E00000FA050E
:10288000014901200862704700000E4210B5014660
:102890000020284C04292FD00BDC012930D002293C
:1028A00029D100F06BF96168C1F38131491C4900FD
:1028B0001FE0082920D010291DD161682268D201AB
:1028C00019D51D48C1F38342C903805C0AD56168EC
:1028D000194AC1F34041921E515C184AB2FBF1F112
:1028E000484301E0164948436168490203D4400067
:1028F0000321B0FBF1F010BDBDE8104000F04EB96F
:10290000226AC2F30121012903D1920701D5C8032C
:1029100010BD022905D1626A920702D549F64040EE
:1029200010BD0329FCD121688903F9D54FF2244059
:1029300010BD000000100240D2CE000800127A0044
:1029400000093D002DE9F84305460078354CC007E5
:1029500054D0E0690026C00008D4E06940F08050FF
:10296000E061E069012600F0805000902E48016887
:10297000C90512D40168804641F480710160FFF7F7
:10298000E9FE074605E000BFFFF7E4FEC01B642830
:1029900023D8D8F80000C005F6D5206A10F440709E
:1029A00021D0A98801F4407181421CD0206A1F49BE
:1029B000012220F440700A6000220A602062C007F1
:1029C00011D0FFF7C7FE074641F2883808E000BF84
:1029D000FFF7C0FEC11B414502D90320BDE8F883C3
:1029E000206A8007F4D5206A696820F440700843A3
:1029F00020621EB1E06920F08050E06128788007F5
:102A000005D56068A96820F44040084360602878D4
:102A1000C00605D56068696920F4800008436060DD
:102A20000020DBE7001002400070004040044242FA
:102A30002DE9F0470F46050061D0434E306800F0A5
:102A40000700B84209D2306820F0070038433060F0
:102A5000306800F00700B84251D128683B4C81072C
:102A600012D5400703D5606840F4E06060602878C4
:102A7000000703D5606840F4605060606068A96832
:102A800020F0F000084360602878C00728D068680C
:102A9000012810D02168022810D0890700292EDAD9
:102AA000616821F0030101436160FFF753FE804636
:102AB00041F288390DE021688903EFE78901EDE7EC
:102AC000FFF748FEA0EB0801494502D90320BDE805
:102AD000F0876068696800F00C00B0EB810FEFD1FF
:102AE000306800F00700B8420BD9306820F00700CA
:102AF00038433060306800F00700B84201D0012050
:102B0000E5E72878400705D56068E96820F4E060CB
:102B1000084360602878000706D56068296920F4BA
:102B2000605040EAC100606000F038F86168084A0F
:102B3000C1F30311515CC8400649086006480068AB
:102B4000FFF728FE0020C2E70020024000100240EC
:102B5000E2CE0008240000201C00002004480549A3
:102B600000684968044AC1F30221515CC8407047BB
:102B70002400002000100240F2CE0008044805495D
:102B800000684968044AC1F3C221515CC8407047DB
:102B90002400002000100240F2CE00080E4A5168C6
:102BA0000E4801F00C03042B11D0082B0FD10C4858
:102BB000C1F38343C903C05C0AD55168084AC1F315
:102BC0004041921E515C054A5043B0FBF1F0704702
:102BD00004494843704700000010024000127A0088
:102BE000C0CE000800093D002DE9F84F040070D068
:102BF0002078C04DC00749D06868C0F38100012823
:102C000007D06868C0F38100022809D16868C00352
:102C100006D52868800339D560680028E7D035E0FC
:102C20006068B0F5803F0BD010B1B0F5A02F11D087
:102C3000286820F480302860286820F4802002E092
:102C4000286840F480302860606890B1FFF782FD0A
:102C500006460AE0286840F480202860F0E700BFBC
:102C6000FFF778FD801B642873D828688003F7D5A8
:102C70000CE0FFF76FFD064605E000BFFFF76AFDB9
:102C8000801B6428F0D828688003F7D420789A4EF7
:102C900080074FF001094FF0000839D5686810F03F
:102CA0000C0F07D06868C0F38100022809D168685A
:102CB000C00306D42868800714D52069012808D1EC
:102CC00010E02069B0B1C6F80090FFF743FD074659
:102CD00005E00AE1FFF73EFDC01B0228C4D82868C2
:102CE0008007F7D52868616920F0F80040EAC10044
:102CF00028600DE0C6F80080FFF72CFD074604E0D1
:102D0000FFF728FDC01B022823D828688007F7D4C6
:102D1000207800072CD57948A169D9B1C0F8009076
:102D2000FFF718FD074604E0FFF714FDC01B02285B
:102D30000FD8686A8007F7D571484FF4FA510068D8
:102D4000B0FBF1F0009000BF0098411E0091FAD254
:102D50000EE080E0C0F80080FFF7FCFC074604E0CE
:102D6000FFF7F8FCC01B022875D8686A8007F7D403
:102D70002078400760D5E8690027C00008D4E869DA
:102D800040F08050E861E869012700F08050009031
:102D90005C480168C90513D40168834641F4807119
:102DA0000160FFF7D7FC824606E000BFFFF7D2FCC8
:102DB000A0EB0A0064284ED8DBF80000C005F5D56A
:102DC000E06801280AD008B1052813D0286A20F04D
:102DD00001002862286A20F0040002E0286A40F01E
:102DE00001002862E06841F2883B98B1FFF7B2FC2D
:102DF00082460BE0286A40F004002862EEE700BF3C
:102E0000FFF7A8FCA0EB0A0159455AD8286A8007A9
:102E1000F6D50CE0FFF79EFC824605E0FFF79AFC32
:102E2000A0EB0A0159454CD8286A8007F6D41FB197
:102E3000E86920F08050E861E06988B36968C1F30F
:102E40008101022944D00228C6F8608004D0FFF72F
:102E500081FC044638E034E0FFF77CFC074604E0E0
:102E6000FFF778FCC01B02282BD828688001F7D414
:102E7000206AB0F5803F05D16868A16820F4003071
:102E800008436860D4E908010843696821F47411B3
:102E900008436860C6F86090FFF75CFC044606E0F3
:102EA00025E000BFFFF756FC001B022809D8286860
:102EB0008001F7D51BE000BFFFF74CFC001B022888
:102EC00002D90320BDE8F88F28688001F4D40EE011
:102ED0000128F7D06868226A00F48031914204D159
:102EE000616A00F47010884201D00120EAE70020F6
:102EF000E8E7000000100240000042428004424225
:102F00002400002000700040024850F8210080B2E8
:102F100070470000006C0040024800EB810091B255
:102F200001607047006C0040034801210170417846
:102F3000491C41707047000000000020704710B528
:102F4000044600680168C90717D04168C90714D052
:102F500040684007204607D5FFF7F0FF21686FF073
:102F600004004860042002E0FFF7DEFF01206074E7
:102F70002068416821F00101416010BD80B1017CF1
:102F800001290FD0012101740222427402681368E2
:102F900043F0010313604174002101740846704737
:102FA000012070470220704770B5040003D0607C98
:102FB000002610B105E0012070BD2674204600F007
:102FC0003DF802206074204600F00AF9042550BB49
:102FD000204604F0FDF830BB2068416821F007016D
:102FE0004160A06820B11448016821F0010101602E
:102FF0001148001F0168A26821F46071114301604B
:103000006068411C04D10120FFF740FC58B1401E0C
:103010002268C0F303419160216880B2C8602046F5
:1030200004F0F0F808B16574C5E7E6730120607339
:10303000A0736074002070BD306C004008B500685B
:10304000084988420DD1FFF71BFC0748C16941F0D0
:103050000061C161C069054900F000600090012075
:10306000086008BD00280040001002403C044242B5
:103070002DE9F0410D4604003BD0C5B3207C01286A
:103080003AD04FF0010884F8108002206074E8788C
:1030900072B304F094F8E073687804F090F8607309
:1030A000A87804F08CF8A073C2B2617BE07B04F0D6
:1030B000F2F820732870204604F0DDF84FF46161C7
:1030C000B0FBF1F1002518292DD91822B1FBF2F13E
:1030D000A1EB011101EB4101C1EB011100EBC116A4
:1030E0003146204604F07AF90427C8B90BE000E025
:1030F00004E00120BDE8F0810220FBE7E07368787E
:103100006073A878CFE7204604F09EF8411C0AD0EF
:10311000B04208D206490144204604F012F910B129
:1031200067742574E5E784F8118025740020E1E7D1
:10313000805101002DE9F0410D46040024D01DB35B
:10314000207C012823D04FF0010884F81080022051
:1031500060742878EAB104F032F84FF4616100FB42
:1031600001F6687804F02BF8C0EB001006EB80063F
:10317000A87804F024F835182946204604F02EF9E2
:103180000026042710BB0FE00120BDE8F0810220DB
:10319000FBE74FF4616148436978C1EB011100EB33
:1031A0008100A9784518E7E72068416821F005010A
:1031B0004160204604F048F8411C0AD0A84208D2D9
:1031C00006490144204604F0BCF810B16774267427
:1031D000DAE784F8118026740020D6E780510100D8
:1031E00070B504000AD02068416821F008014160F0
:1031F000FFF7B0FA05464FF47A7608E0012070BD7B
:10320000FFF7A8FA401BB04201D9032070BD206827
:1032100040680007F4D5002070BD10B5FDF7EBFE47
:1032200010BD7047F0B5426E920F0A70426EC2F345
:1032300083624A70426EC2F301628A70426E120C5F
:10324000CA70B0F86420120A0A7190F864204A71BA
:10325000826E120DCA80826EC2F303420A72B0F807
:103260006820C2F3C0324A72B0F86820C2F38032DC
:103270008A72B0F86820C2F34032CA72B0F868208F
:10328000C2F300320A7300264E73426C4FF400758D
:10329000012462B1012A3AD0026847499163816BE7
:1032A00041F08051816380F834400120F0BDB0F8D6
:1032B0006820C36E9205120D42EA93720A61C26ED3
:1032C000C2F3C2620A75C26EC2F302624A75C26E6E
:1032D000C2F342528A75C26EC2F38242CA75C26E8E
:1032E000C2F3C2320A760A69521C42650B7E03F0B1
:1032F00007039B1C9A4042650B7A03F00F0704FA00
:1033000007F383655B0A5A43C0E917250EE090F87E
:103310006820C36E9206920A42EA13420A610A6961
:10332000521C92024265C0E91652056630F86C2FB5
:10333000C2F3803201F8192F0288C2F3C6124A7014
:10334000027802F07F028A704268D20FCA70426827
:10335000C2F341720A714268C2F382624A714268E2
:10336000C2F383528A714268C2F34052CA710E722C
:103370004268C2F300424A728288C2F3C0328A7243
:103380008288C2F38032CA728288C2F340320A73E2
:103390008288C2F300324A738288C2F381228A7320
:1033A0008288C2F30122CA730079C0F34600087410
:1033B0004C740020F0BD0000FF054000426C0A6024
:1033C000826C4A60C26C8A60026DCA60426D0A619A
:1033D000826D4A61C26D8A61006EC86100207047CB
:1033E00070B50446B0F8500000250104206804F0D0
:1033F00032FA18B1A16B0143A16304E000212068F7
:1034000004F0ECF80546C5F3432070BDF8B5056B34
:1034100004460068416B09041BD5290719D5D4E976
:103420000A56002E14D00027206804F0F7F805F89B
:10343000010B010A05F8011B010C05F8021B000E27
:10344000361F7F1C05F8010C082FEDD3C4E90A567E
:10345000F8BD416B4FF00006C9054FF0010744D598
:10346000390281632068C16B4CF23A129143C16307
:103470002068C16A21F00101C16228071DD515F03D
:10348000220F09D0206804F017FA28B1A16B01437C
:10349000A1632046FFF7C5FE216840F23A508863D9
:1034A00084F834702663A80703D0204600F03AFA67
:1034B000F8BD204600F03AFAF8BD2806FCD5A8066B
:1034C00009D5206804F0F8F928B1A16B0143A16384
:1034D0002046FFF7A6FEA807EED12068C16A21F0BA
:1034E0000801C16284F83470E3E7416B490424D5D4
:1034F000290722D5D4E90856002EDDD05FF0000759
:1035000015F8010B009015F8011B361F40EA012049
:10351000009015F8021B40EA0140009015F8011CCC
:1035200040EA016000906946206804F08AF87F1C38
:10353000082FE5D3C4E90856F8BD416B11F03A0FE6
:10354000FAD0416B890703D5A16B41F00201A16359
:10355000416B090703D5A16B41F00801A163416BE1
:10356000890603D5A16B41F02001A163416BC90617
:1035700003D5A16B41F01001A16340F23A71816360
:103580002068C16B40F23A329143C163206804F075
:1035900093F9A16B0843A063280706D584F834701B
:1035A00026632046FFF73DFEF8BD2806FCD515F042
:1035B000300F0CD0E16B11484863E06BFEF75EFD05
:1035C0000028F1D0E06BBDE8F84004F02DBBA8075F
:1035D0000CD0216C0A484863206CFEF74FFD002890
:1035E000E2D0206CBDE8F84004F0FCBAA66384F891
:1035F000347026632046FFF710FEF8BD297C0008D2
:10360000E57B000870B504000ED094F83400002566
:1036100018B92577204600F04FF8032084F83400CD
:10362000204600F00BF808B1012070BDA5632563AA
:10363000012084F83400002070BD0000FEB5002594
:10364000044676200095CDE9015029460B460A46EE
:10365000206803F0CDFF48BB154E46F8A05F2068F8
:1036600003F0D8FF012535600220FEF739FF204620
:1036700004F074FB30B100BF84F83450A16B0143F7
:10368000A16313E0204604F0F1FA0028F4D14FF4CE
:103690000071206804F00EF8002808D0226805495F
:1036A0009163A16B0143A16384F834500120FEBDF6
:1036B00000003042FF05400030B585B00021009188
:1036C00001910291039100681C49884233D11C4842
:1036D000416941F480614161416901F48061049173
:1036E000816941F010018161816901F0100104914B
:1036F000816941F0200181618069022400F020008D
:1037000004904FF4F850CDE9000403256946039571
:103710000C48FEF719FF0420CDE900046946039523
:103720000948FEF711FF002211463120FFF776F815
:103730003120FFF765F805B030BD00000080014082
:103740000010024000100140001401402DE9F04F2C
:1037500087B09B4616460D460446FEF7FBFF0090D9
:103760003DB194F83400012807D0A06B40F0005020
:103770000DE0A06B40F0006009E00020A063E26D66
:1037800006EB0B01914204D9A06B40F00070A063DE
:1037900086E0032184F834102168C862616C012935
:1037A00000D076024FF0FF3101914FEA4B21029198
:1037B0004FF0010803AA902102278146CDF8188016
:1037C00082E8820201A9206803F0F2FEBBF1010F3A
:1037D00005D927633146206803F0C6FF05E0C4F829
:1037E00030803146206803F0D8FFDFF834A130B1D3
:1037F0002268C2F838A0A16B0143A1634CE0029E8D
:103800001EE0406B000413D596B10027206803F03A
:1038100005FF05F8010B010A05F8011B010C05F86D
:10382000021B000E361F7F1C05F8010C082FEDD37C
:10383000FEF790FF0099411A109881421DD2E0B125
:103840002068426B40F22A310A42DAD0416BC90546
:1038500009D5BBF1010F06D9616C032903D004F02F
:103860002BF80028C4D12068416B09071AD5C0F88D
:1038700038A0A06B40F0080050E02168C1F838A0E3
:10388000A06B40F00040A06384F83480C4F830900E
:10389000032007B0BDE8F08F84F83480C4F830907E
:1038A0000120F6E7416B890705D5C0F838A0A06B69
:1038B00040F0020032E0416B89061BD5C0F838A009
:1038C000A06B40F0200029E003F0A8FE05F8010BF2
:1038D000010A05F8011B010C05F8021B000E05F892
:1038E000010C361FFEF736FF0099411A10988142ED
:1038F0000ED268B12068416B890201D5002EE3D158
:10390000216840F23A50886384F834800020C0E790
:103910002168C1F838A0A06B40F00040A063BBE76D
:10392000FF05400010B5FDF79FFB10BD10B5FDF77A
:10393000ADFB10BD2DE9F04F8DB09B4616460D46F0
:103940000446FEF707FF0A903DB194F834000128C1
:1039500007D0A06B40F000500DE0A06B40F000607D
:1039600009E00020A063E26D06EB0B01914204D94F
:10397000A06B40F00070A0637AE0032184F834105B
:103980002168C862616C012900D076024FF0FF31D6
:1039900003914FEA4B2104919021CDE905104FF09E
:1039A0000109CDE90709824603A9206803F000FE5A
:1039B000BBF1010F06D9202020633146206803F0B7
:1039C00095FF05E0102020633146206803F0A7FF33
:1039D0005FEA000806D0216840488863A06B40EA8F
:1039E000080071E0049E27E0406B40041CD5DEB166
:1039F0005FF0000715F8010B009015F8011B361F4A
:103A000040EA0120009015F8021B40EA01400090B6
:103A100015F8011C40EA016000906946206803F037
:103A200010FE7F1C082FE5D3FEF794FE0A99411A79
:103A30001698814220D2F8B12068416B40F21A32C8
:103A40001142D1D0416BC90523D5BBF1010F20D95B
:103A5000616C03291DD003F02FFFD0B122681F49EC
:103A60009163A16B0143A16384F83490C4F830A042
:103A700001200DB0BDE8F08F216818488863A06B65
:103A800040EA0800A06384F83490C4F830A0032012
:103A9000EFE72068416B090705D510498163A06BEA
:103AA00040F0080010E0416B890705D50B498163A0
:103AB000A06B40F0020007E0416BC90606D507493C
:103AC0008163A06B40F01000A063CDE740F23A5153
:103AD000816384F834900020CBE70000FF054000AC
:103AE00070B5040009D0606A002540B125616561A8
:103AF000A56294F8510040B10CE0012070BD6068EF
:103B0000B0F5827FF4D0E561F2E784F850502046AA
:103B100000F040F8022084F851002068016821F08C
:103B200040010160A088218900F4827001F4044101
:103B30000843A18901F400610843217C01F00201DE
:103B40000843217D01F001010843218B01F400713C
:103B50000843217F01F03801084394F8201001F058
:103B600080010843218D01F4005108432168086059
:103B7000A069042101EA1040216848602068C169F9
:103B800021F40061C1616565012084F851000020C5
:103B900070BD000030B585B00024009401940294FB
:103BA000039400681549884225D11548C16941F43C
:103BB0008041C161C16901F480410491816941F092
:103BC0000801816180690F4D00F0080004904FF4F6
:103BD000204000900220019003200390694628466F
:103BE000FEF7B2FC4FF48040CDE900046946284658
:103BF0000294FEF7A9FC05B030BD0000003800407B
:103C000000100240000C01402DE9F84F044690F8E6
:103C100050000026984615468A4601280CD00127F8
:103C200084F85070FEF796FD814694F85100B34633
:103C3000012804D002269AE00220BDE8F88FBAF1EC
:103C4000000F6FD0002D6DD0032084F85100C4F810
:103C500054B0C4F830A0A586E586C4F838B0A4F8FE
:103C60003CB0A4F83EB0C4F844B0C4F840B0A0687A
:103C7000B0F5004F09D12068016821F040010160D2
:103C80002068016841F480410160206801684906AC
:103C900003D4016841F040010160E068B0F5006FB5
:103CA000606803D058B3012D29D049E008B1012D37
:103CB0001FD1206B21680088C86006E020688168F9
:103CC000890709D5216B0988C160206B801C20639E
:103CD000E08E401EE0860CE0FEF73CFDA0EB090103
:103CE000414503D3B8F1FF3F03D006E0B8F1000F20
:103CF00003D0E08E0028E1D125E0032635E0206BDB
:103D000021680078087306E02068816889070AD571
:103D1000216B09780173206B401C2063E08E401EEC
:103D2000E0860DE01FE0FEF715FDA0EB090141451F
:103D300003D3B8F1FF3F03D0DFE7B8F1000FDCD0C9
:103D4000E08E0028E0D14A464146204604F0E4F8DF
:103D500008B120206065A06818B92068C168806833
:103D60000090606D08B1012601E084F8517084F87C
:103D700050B0304661E710B5401EB0F1807F01D3EE
:103D8000012010BD4FF0E02460610F21601705F0A5
:103D900067F90020A06107202061002010BD704756
:103DA0007047000070B590F83C20012A2CD0012407
:103DB00080F83C40022280F83D2003685A689D68E4
:103DC00022F070060A6832435A60104B02689A4229
:103DD0000ED00F4B9A420BD0B2F1804F08D00D4B52
:103DE0009A4205D00C4B9A4202D00C4B9A4204D115
:103DF000496825F080031943916080F83D40002117
:103E000080F83C10084670BD022070BD002C0140B7
:103E1000003401400004004000080040000C004055
:103E200010B5040003D094F83D0010B107E0012064
:103E300010BD002084F83C00204600F01FF802204E
:103E400084F83D00211D206804F060FD012084F805
:103E5000460084F83E0084F83F0084F8400084F86F
:103E6000410084F8420084F8430084F8440084F858
:103E7000450084F83D00002010BD000008B5114A3F
:103E800001681148914211D1C16941F00201C1613B
:103E9000C069002200F0020000900B211D20FEF7F7
:103EA000BDFCBDE808401D20FEF7AABC074A9142B0
:103EB00007D1C16941F01001C161C06900F0100073
:103EC000009008BD000400400010024000100040B7
:103ED00090F83D10012901D001207047022180F89F
:103EE0003D100168CA6842F00102CA6000680E49CC
:103EF00088420ED00D4988420BD0B0F1804F08D0D7
:103F00000B49884205D00B49884202D00A498842B1
:103F100004D1816801F00701062903D0016841F04E
:103F20000101016000207047002C01400034014075
:103F30000004004000080040000C004070B504463A
:103F400090F83C000025012817D0012684F83C6039
:103F5000022084F83D002068826822F0770222F473
:103F60007F4282600868502838D00DDC20284FD06E
:103F700005DC90B3102811D14AE0022070BD302832
:103F800046D040280AD13BE060282FD070280DD0C1
:103F9000B0F5805F03D0B0F5005F12D0012584F842
:103FA0003D60002084F83C00284670BDCB68D1E914
:103FB0000121206804F0F0FC2068816841F077015D
:103FC00009E0CB68D1E90121206804F0E5FC206814
:103FD000816841F480418160E1E719E0CA6849687D
:103FE000206804F0EBFC5021206806E0CA684968AC
:103FF000206804F0F4FC6021206804F0D7FCCEE7D0
:10400000CA684968206804F0D9FC40212068F4E7B8
:10401000226801461046F0E7704770B50446006814
:1040200001694FF00005C943890715D4C168C94328
:10403000890711D4E91E0161012020772068806979
:104040008007204602D0FFF7E7FF04E000F098F871
:10405000204600F096F8257720680169C943490792
:1040600017D4C168C943490713D46FF00401016133
:10407000022020772068806910F4407F204602D01B
:10408000FFF7CAFF04E000F07BF8204600F079F863
:10409000257720680169C943090716D4C168C94357
:1040A000090712D46FF0080101610420207720680D
:1040B000C0698007204602D0FFF7AEFF04E000F0A1
:1040C0005FF8204600F05DF8257720680169C94354
:1040D000C90617D4C168C943C90613D46FF01001CB
:1040E0000161082020772068C06910F4407F2046D5
:1040F00002D0FFF791FF04E000F042F8204600F004
:1041000040F8257720680169C943C90708D1C1680B
:10411000C943C90704D1891E0161204600F032F865
:1041200020680169C943090609D4C168C943090661
:1041300005D46FF0800101612046FFF730FE206852
:104140000169C943490609D4C168C943490605D470
:104150006FF040010161204600F0B6F82068016967
:10416000C94389060BD4C168C943890607D46FF0D7
:10417000200101612046BDE87040FFF711BE70BD0F
:104180007047704770B545490068096888426FD12B
:104190004349486840B1401E4860012804D10022CC
:1041A00008214048FEF7D1FA3F490868B0F5801F62
:1041B00001D2401C08603D494FF6FF7208889042CA
:1041C00001D2401C08803A48007808B906F050FD3A
:1041D000384C00252078E0B1A1682069364EB0FB4C
:1041E000F1F201FB12006168884201D2012200E075
:1041F000002280213046FEF7A8FA2069401C206189
:10420000E168884205D92570002280213046FEF7FA
:104210009CFA2A4C2A4E2078D8B1A1682069B0FBBC
:10422000F1F201FB12006168884201D2012200E034
:10423000002204213046FEF788FA2069401C2061E4
:10424000E168884205D92570002204213046FEF736
:104250007CFA1C4C207800281ED0A1682069B0FB95
:10426000F1F201FB12006168884202D2012201E0F2
:1042700012E0002202213046FEF767FA2069401C56
:104280002061E168884207D925703046BDE870405A
:1042900000220221FEF759BA70BD0000840A0020F6
:1042A0000000002000100140D4030020C0020020C4
:1042B0001C040020B825002000180140CC25002057
:1042C000000C0140E0250020704738B5044690F806
:1042D0004200202801D0022038BD61B15AB101202E
:1042E000206300206063204604F06CFD0028F3D1B9
:1042F000216B012901D0012038BD21680A68496875
:10430000009121680C3151E8002F42F0100241E881
:104310000023002BF5D138BD2DE9F0410D462F4982
:104320000746006809682E4C4FF4807888420DD10A
:104330002C492A46A1F5057005F0CDFD42462949D4
:104340002648FFF7C2FF6068401C60602649386855
:10435000096888421BD12088258006B2424623493D
:104360002148FFF7B2FF218820488E4203DA891BDB
:104370008AB2811908E0C6F580718AB281191C4899
:1043800000F01EFB22881949194800F019FB184952
:104390003868096888421ED1164E42461649308850
:1043A000358004B21248FFF790FF318812488C42E2
:1043B00003DA091B8AB2011908E0C4F580718AB2D8
:1043C0000119094800F0FCFA32880B49BDE8F041B8
:1043D000054800F0F5BABDE8F0810000140B00209C
:1043E00090000020BC1B0020CC0A0020A818002050
:1043F0005C0B0020C80200201C2400207047000035
:10440000F8B5016804460868CA684B6910F00F0FD8
:104410004FF0000559D003F0010602F490773743BE
:1044200065D0C10705D0D10503D5616C41F001010C
:104430006164410705D5D90703D0616C41F00201E1
:104440006164810705D5D90703D0616C41F004018F
:104450006164010707D502F02001314303D0616C8C
:1044600041F008016164616C00293AD0800604D5EE
:10447000900602D5204604F0E7FB20684069616C95
:10448000C0F38010090700D460B3204604F0A7FBF6
:1044900020684069400621D52068143050E8001F8C
:1044A00021F0400140E80012002AF5D1E06BA8B1EC
:1044B0006D494163E06BFDF7E1FD002811D0E06B31
:1044C000416B01B0BDE8F040084783060FD5930665
:1044D0000DD52046BDE8F84004F0B6BB2046FFF7F6
:1044E0008DFFF8BD2046FFF789FF6564F8BD266B98
:1044F0002023012E7CD1C6067AD5D60678D5086849
:104500004868009048694FF00206400640D5E16BCC
:10451000086840680004000CE8D0A28D8242E5D90A
:10452000E085886920282DD020680C3050E8001FD5
:1045300021F4807140E80012002AF5D1206814307F
:1045400050E8001F21F0010140E80012002AF5D1D7
:104550002068143050E8001F21F0400140E80012AC
:10456000002AF5D184F84230256320680C3050E8E9
:10457000001F21F0100140E80012002AF5D1E06B85
:10458000FDF758FD6663A08DE18D401A81B22AE0E7
:10459000A08DE18D401A81B2E08D0028A6D00029BF
:1045A000A4D022680C3252E8000F20F4907042E848
:1045B0000007002FF5D12068143050E8002F22F0BA
:1045C000010240E80027002FF5D184F8423025632E
:1045D00020680C3050E8002F22F0100240E8002341
:1045E000002BF5D166632046FFF796FEF8BDFFE786
:1045F00005062BD5150629D594F841002128F5D1BB
:10460000A068B0F5805F01D12069B0B1206A411C7B
:104610002162216800784860E08C401E0004000C94
:10462000E084E3D12068C16821F08001C160206886
:10463000C16841F04001C160D8E7206A0088C0F33A
:1046400008004860206A801C2062E5E74006CDD55E
:104650005006CBD5CA68204622F04002CA6084F8D2
:10466000413000F0E9F9C1E7958A000870B504000F
:1046700004D094F84100002510B106E0012070BD7F
:1046800084F84050204600F023F8242084F84100AC
:104690002068C16821F40051C160204604F036FB57
:1046A0002068016921F4904101612068416921F08D
:1046B0002A0141612068C16841F40051C16065640C
:1046C000202084F8410084F842006563002070BD1A
:1046D0002DE9F04786B000250095019502950395D8
:1046E0000446DFF80882D0F800C081480221032286
:1046F000804B102680274FF480694FF0200AC44574
:104700004FD1D0F818C04CF4804CC0F818C0D0F885
:1047100018C00CF4804CCDF810C0D0F818C04CF084
:10472000040CC0F818C08069039200F004000490E3
:104730000802CDE90001694698461846FDF704FFD6
:10474000CDE90095694640460295FDF7FDFEDFF88C
:10475000AC8169494046B946C0E90015C0E9025735
:10476000C8F81050C8E9055AC8F81C50FDF742FEB9
:1047700008B1FCF749FF6048614FC4F83C80143829
:10478000C8F824403860C7E90165C7E903957D6131
:10479000BD613846FD61A1E0A7637C6206B0BDE85B
:1047A000F087DFF86081C4454ED1D0F81CC04CF4CE
:1047B000003CC0F81CC0D0F81CC00CF4003CCDF884
:1047C00010C0D0F818C04CF0040CC0F818C08069B4
:1047D000039200F0040004900420CDE90001694632
:1047E00098461846FDF7B0FE0820CDE90005694659
:1047F00040460295FDF7A8FEDFF80C813E49404691
:104800001431C0E90015C0E90257C8F81050C8F8C3
:104810001450C8F81850B946C8F81C50FDF7EAFD06
:1048200008B1FCF7F1FE3448384FC4F83C8028301A
:10483000C8F824403860C7E90165C7E903957D6180
:10484000BD613846FD6149E0314B9C45A6D1C36945
:1048500043F48023C361C36903F480230493836911
:1048600043F0080383618069CDE9009100F00800FE
:10487000CDE90320DFF89C8069464046FDF764FEE1
:104880004FF40060CDE90005694640460295FDF70A
:104890005BFEDFF88480184940462839C0E90015DE
:1048A000C0E90257C8F81050C8E9055AB946C8F817
:1048B0001C50FDF79FFD08B1FCF7A6FE0E48174FF0
:1048C000C4F83C803C38C8F824403860C7E901652A
:1048D000C7E903957D61BD613846FD61FDF78AFD3D
:1048E00000283FF459AFFCF78FFE55E70038014030
:1048F000001002400008014058000240A40B0020B4
:10490000E80B0020004400402C0C0020700C00201C
:1049100000480040000C0140B40C0020F80C0020BE
:10492000704770472DE9F843044690F841001F4650
:1049300016460D46202802D00220BDE8F8837DB13E
:1049400076B100206064212084F84100FDF702FF69
:10495000A6848046E684A068B0F5805F02D003E0BC
:104960000120EAE7206910B12E4600250EE000265E
:104970000CE08021204604F06DFAA0B9AEB116F823
:10498000010B21684860E08C401EE084E08C4346C7
:104990004FF0000200970028EBD14FF04001204675
:1049A00004F058FA30B10320C7E735F8020BC0F322
:1049B0000800E6E7202084F841000020BDE7000061
:1049C00070B5044690F84100202801D0022070BD47
:1049D00049B342B32162A284E284002060642123AF
:1049E00084F84130A56B114BAB62A56B104BEB62A9
:1049F000A56B104B2B63A36B5863256813462A1DC8
:104A0000A06BFDF735FD21686FF04000086020685D
:104A1000143050E8001F41F0800140E80012002AE5
:104A2000F5D1002070BD012070BD0000938B0008FF
:104A3000D58B0008A58A000870477047FEE7000084
:104A400010B502F079FD4FF4FA639C102246FA216A
:104A5000094800F051F8084840F6B8332246FA21D8
:104A6000143000F049F8E30022460348FA21BDE87B
:104A70001040283000F040B8B825002010B50020C4
:104A8000064B0146802203F5487400BF43F820100E
:104A90002254401CC828F9D310BD00003C1100204E
:104AA00070B50D460446FDF7E3F8C4E90001FDF7D3
:104AB000DFF8C4E902012046FCF762FB401C04D089
:104AC0000249002041F82500012070BD3C11002062
:104AD0007CB51446421E1D46CDE9000141F1FF336D
:104AE0002046294604F07EFA80F00100084301D0F8
:104AF00000207CBD01207CBD10B500F1040C002419
:104B00008CE81E000121017010BD0000FEB50024DC
:104B10001848009401941649029401608915816037
:104B2000012505730475022606614FF44021446097
:104B3000C161FDF7B9F9C0B90F48416841F0E061C2
:104B400041F4802141600A20CDE9000569460294C4
:104B50000848FDF7BBF840B90B20CDE900066946CF
:104B60000448FDF7B3F8002801D0FCF74DFDFEBD69
:104B7000002401401C0900200000014010B5044938
:104B80000448FCF74BFD0249491E087010BD0000A7
:104B9000F108002058D700082DE9F04F85B0002417
:104BA0006F480094019402940394816941F01001CC
:104BB0008161816901F010010491816941F0040172
:104BC0008161816901F004010491816941F008016A
:104BD0008161816901F008010491816941F040011E
:104BE0008161816901F040010491816941F02001F6
:104BF00081618069002200F020000490C82159489A
:104C0000FDF7A3FDDFF860B1002240F253115846D2
:104C1000FDF79BFD012280215846FDF796FD0022FD
:104C2000E6215248FDF791FD4FF680790022494672
:104C30004F48FDF78AFD4FF4805A012251464B48F8
:104C4000FDF783FD012211024A48FDF77EFD002297
:104C50004FF480414748FDF778FDC8200125022622
:104C6000CDE90005CDE9024669463E48FDF76CFCFA
:104C70000327CDE902570095694658460195FDF78F
:104C800063FC4FF48170CDE90005CDE90246694629
:104C90005846FDF759FCD020CDE90005CDE9024783
:104CA00069465846FDF750FC4FF02008CDE90084D6
:104CB000694658460294FDF747FC1020CDE90004F0
:104CC000694628480294FDF73FFC2B48CDF8008048
:104CD000CDE9010569462348FDF736FC1920CDE9E9
:104CE0000004694621480294FDF72EFCE620CDE938
:104CF0000005CDE9024669461C48FDF725FCCDF8C4
:104D000000900396CDE9015469461948FDF71CFC53
:104D1000CDF800A00397CDE9015469461348FDF78B
:104D200013FC4FF48240CDE90005CDE90246694607
:104D30001048FDF709FC4FF43870CDE900046946CE
:104D40000C480294FDF700FC4FF43C408DE8510004
:104D500069460848FDF7F8FB05B0BDE8F08F000094
:104D6000001002400010014000080140000C01400A
:104D700000180140001401400000211010B500226D
:104D800011460320FDF74AFD0320FDF739FD0022FF
:104D900001210C20FDF742FD0C20FDF731FD002222
:104DA00002210D20FDF73AFD0D20FDF729FD00221F
:104DB00003210E20FDF732FD0E20FDF721FD00221C
:104DC00004210F20FDF72AFD0F20FDF719FD002219
:104DD00006211020FDF722FD1020FDF711FD002215
:104DE00005211120FDF71AFD1120FDF709FD002214
:104DF00011461720FDF712FD1720FDF701FD0022D7
:104E000008212520FDF70AFD2520FDF7F9FC0022E9
:104E100009212620FDF702FD2620FDF7F1FC0022E6
:104E20000A212720FDF7FAFC2720FDF7E9FC0022E4
:104E300007213620FDF7F2FCBDE810403620FDF7D3
:104E4000DFBC00002DE9FC410024284801942649DC
:104E500000940160611E41604FF480718160FEF733
:104E6000A3F848BB2148FEF789F801211F48FEF747
:104E70004BF843F62077B84234D006258DF804501D
:104E800059208DF8050040208DF80600012201A967
:104E90001648FEF74FF978B98DF800408DF80150AB
:104EA00002268DF8026024208DF803000122694655
:104EB0000E48FEF7DDF808B1FCF7A6FB0C494FF4ED
:104EC000FD6008808D701D20C8700E710120487132
:104ED0008C710868496805F09AFF3A460121034839
:104EE000FEF71AF8BDE8FC81002800404C090020BC
:104EF000B40200200F4810B50D4901604FF48271D3
:104F0000416000218160C1604FF400720161C0E91D
:104F100005121822C0E90721416281620A21C1629B
:104F2000FEF7DEFD002801D0FCF76EFB10BD00008F
:104F300000380040E409002010B586B00024154870
:104F4000009401940294039404941149059401601F
:104F50000421C0E901144FF47A51C0E903148021FF
:104F60008161FEF75DFF78B94FF48050009069468B
:104F70000848FEF7E3FF38B9049404A905480594EE
:104F8000FEF710FF002801D0FCF73EFB06B010BD75
:104F9000000400403C0A00201CB500240D48009489
:104FA0000B490194C0E9001443F67F61C0E9024156
:104FB00080218161FEF734FF38B9009469460548C5
:104FC0000194FEF7EFFE002801D0FCF71DFB1CBD8D
:104FD00000100040840A0020FEE700002DE9F04F99
:104FE000ADB01822FE491EA8FBF7BFFBFD48FE4FDF
:104FF000012590F83100397B0026884203D03873B0
:10500000012826D0BE71F849B879DFF8DC83C97968
:10501000DFF8D89308F1200888427BD0F87119286E
:1050200002D00020FCF741FBB979F1481E2972D269
:10503000DFE801F013A1B6F7F8F5F4F3F2F1F0EFC1
:10504000EEEDECEBEBEBEAE9E8E7E6E5E41171E322
:10505000E2E1BD71D7E73E719EE2E64CFF20387277
:10506000607A04280ED132237F220A210020009684
:10507000FCF702FD2B2006F0F3FE0123142205218C
:10508000FCF7D4FC607A032836D132237F220A2130
:1050900000200096FCF7F0FC292006F0E1FE012339
:1050A0000A220021FCF7C2FCD34F4FF47A7805A8FE
:1050B0003968B1FBF8F2D1A1FBF754F939685046D1
:1050C000B1FBF8F161F30F0066F31F408246CE4852
:1050D000534602788178C07803F0E3FF01230F2262
:1050E000402105A8FCF748FC242006F0B9FE012366
:1050F0002D220F21FCF79AFC607A01280FD1322370
:105100007F220A2100200096FCF7B6FC012314221E
:10511000114601E0DCE3DCE3BCA0FCF74DFC607A67
:10512000022801D0C0B137E232237F220A210020B9
:105130000096FCF7A1FC252006F092FE01230F2229
:105140002821FCF773FC262006F08AFE01231E228C
:105150001421FCF76BFC0CE099F80200534660F355
:105160001F43A94866F30F0302788178C07803F0E3
:1051700098FF657210E2022006F072FE14220123ED
:105180001146FCF753FC282201231146A7A0FCF787
:10519000F3FBA849A5A002680A6080888880EBE339
:1051A000B8780325B0FBF5F105FB1100C0EB001248
:1051B0008B4800210C380F32FCF780FA0024B878B5
:1051C000B0FBF5F101EB410121440A29ABDCB0FB56
:1051D000F5F000EB40002044001DC0B206F040FE98
:1051E000C4EB041201230A210A32FCF71FFC641CE1
:1051F000032CE4DBC0E37FE0B5E052E098E350E34A
:1052000038E320E308E379E25DE25AE24DE247E267
:1052100040E215E2FDE1E6E1BFE17EE150E1C7E0F9
:1052200000E083E201230022122183A0FCF7A4FB0B
:10523000754801AE44460168396240687862B8F842
:10524000000098F8063098F8052098F8041086E8D1
:105250000F0098F80200009098F8070098F80330C3
:1052600000EB40011EA80A1877A105A8FBF77AF801
:1052700001231822002105A8FCF77EFB2088A379D2
:10528000627921798DE80F006A48A378E27876A1E7
:105290001E30FBF767F821231722194612200095CC
:1052A0005EE0B8780325B0FBF5F105FB1100C0EB1B
:1052B00000124B4800210C380F32FCF7FFF9002494
:1052C000B878B0FBF5F101EB41012144012991DCF3
:1052D000B0FBF5F000EB400020442C30C0B206F0EB
:1052E000BFFDC4EB041201230A210A32FCF79EFB26
:1052F000641C032CE4DB3FE3BE722D2006F0B0FDFE
:10530000012300222821FCF791FB5D4E494C316DB1
:105310000A0EC1F307432270C1F307206370A07027
:10532000C9B2E170B6F85440FC81CDE9000155A145
:1053300005A8FBF717F801231422002105A8FCF7A4
:105340001BFBFA8955A105A8FBF70CF801232822BD
:10535000002105A8FCF710FB1E232322009524E062
:10536000FCF77DFA08E3BE722C2006F079FD0123DC
:1053700000222821FCF75AFB2E49414B00201A1825
:10538000527A30320A54401C0728F8DBCE71294A81
:1053900045A105A8FAF7E6FF01231422002105A87C
:1053A000FCF7EAFA1E231B2200951E211720D7E7DF
:1053B000787A0021C0EB001209480F320C38FCF754
:1053C0007DF9112006F04CFD0A2201231146FCF75D
:1053D0002DFB122006F044FD012319220A2167E06B
:1053E00014D7000874250020E40300206025002065
:1053F000DC030020AC250020480000202533642E6B
:10540000303030564E440000B402002058696E20FF
:105410004BED6E68204368E06F0A2020202020209A
:105420005175FD204B68E163680000002D2D2D2D86
:105430002D2D0000F425002054696D6520536574FE
:1054400074696E6700000000257320253032642FD8
:10545000253032642F256420253032643A253032DD
:10546000643A2530326420002530326425303264BD
:1054700025642530326425303264253032640000E2
:10548000C020002049503A20253033642E25303387
:10549000642E253033642E2530336400504F52542F
:1054A0003A2025303464000049443A202573000036
:1054B000FCF7BCFA132006F0D3FC012328221BE1E1
:1054C000152006F0CDFC012319220021FCF7AEFACD
:1054D000162006F0C5FC012328220021FCF7A6FABD
:1054E000FC4844460168396240687862B8F80000B8
:1054F000009098F8023098F80320F7A105A8FAF771
:1055000031FF01230A22232105A8FCF735FA22786E
:10551000A178E07804F04CFB27E0152006F0A0FC11
:10552000012319220021FCF781FA162006F098FCCD
:10553000012328220021FCF779FAE6484446016855
:10554000396240687862B8F8003098F80220E6A125
:1055500005A8FAF707FF01230A22282105A8FCF76E
:105560000BFA2178A07804F03EFB044682B2E1A158
:1055700005A8FAF7F7FE01232D223C2105A8FCF728
:10558000FBF9220CDDA105A8FAF7ECFE01231E228F
:105590003C2105A8FCF7F0F9EEE1152006F060FCCF
:1055A000012319220021FCF741FA162006F058FCCD
:1055B000012328220021FCF739FAC6484446016835
:1055C000396240687862B8F80020CDA105A8FAF7E2
:1055D000C9FE01230A222D2105A8FCF7CDF9207868
:1055E00004F01FFBC1E7042006F03AFC0A22012365
:1055F0001146FCF71BFA152006F032FC0123192294
:105600000021FCF713FA162006F02AFC01232822B9
:1056100053E0152006F024FC012319220021FCF799
:1056200005FA4C4699F80220B4A105A8FAF79AFEAB
:1056300001231E22402105A8FCF79EF9A07873E003
:10564000787A0325B0FBF5F105FB1100C0EB0012E1
:105650000021AC480F32FCF731F80024787AB0FB17
:10566000F5F101EB41012144062995DCB0FBF5F091
:1056700000EB400020441830C0B206F0F1FBC4EB50
:10568000041201230A210A32FCF7D0F9641C032C0E
:10569000E4DB71E1007808B118200AE0222008E07C
:1056A00040780028FAD0192003E080780028F5D04F
:1056B0001A2006F0D5FB012300220021FCF7B6F9E1
:1056C0005AE12320F5E799F80A0000B97D72787A4B
:1056D0000021C0EB00128B480F32FBF7EFFF1E20BA
:1056E00006F0BEFB0A2201231146FCF79FF91F209A
:1056F00006F0B6FB012319220A21DFE7082006F095
:10570000AFFB0A2201231146FCF790F94C4699F8A9
:105710000B207DA105A8FAF725FE01231E223221C8
:1057200005A8FCF729F9E07AF88125E17848B9461F
:105730004FF00A08B0F85610F981787A0527B0FBC7
:10574000F7F107FB110000EB800108EB410200219B
:105750006C48FBF7B3FFDFF8BCB100244FEA09083F
:105760004FF0050998F80910B1FBF9F0B1FBF9F118
:10577000204400EB4002214401EB41010BEB81008E
:105780000BEB820301694FF47A70B1FBF0F262A176
:1057900005A81433FAF7E6FD04EB84070A2000EBB2
:1057A000470292460123142105A8FCF7E5F898F872
:1057B0000900B8F80E10B0FBF9F02044C140C8074A
:1057C0004FF00F0000EB47034FF00C0000EB4701D8
:1057D00002464FF00A0007D0CDE90053FCF73FF82E
:1057E00000955346019906E0CDE90063FCF737F8D0
:1057F00001995346009610220C20FCF730F898F8D7
:105800000910B1FBF9F00119DBF80800814202D25E
:10581000641C052CA4DBAFE00A2006F021FB0A2261
:1058200001231146FCF702F94C4699F803203DA1EB
:1058300005A8FAF797FD01231E22322105A8FCF7DF
:105840009BF8E07870E70B2006F00AFB0A220123A0
:105850001146FCF7EBF84C46B9F8042027A105A83F
:10586000FAF780FD01231E22322105A8FCF784F8F7
:10587000A08859E70C2006F0F3FA0A22012311460A
:10588000FCF7D4F84C46B9F806201CA105A8FAF795
:1058900069FD01231E22322105A8FCF76DF8E0887E
:1058A00042E70D2006F0DCFA0A2201231146FCF73C
:1058B000BDF84C4699F810201CA105A8FAF752FD36
:1058C00001231E22322105A8FCF756F8207C2BE785
:1058D00057E050E0B4020020253032642F253032EA
:1058E000642F253464000000253032642F25346491
:1058F0000000000025643030300000002564000006
:105900002534640008D70008256425250000000020
:10591000C0200020A41700202533642E3030302012
:1059200025730000253364732000000025326400D5
:105930000E2006F095FA0A2201231146FCF776F8AC
:1059400099F810004C4689F8110003F02BFBF84E33
:10595000F84964207572086001220821F648FCF7B6
:10596000F4FE737A227C617CF4A0FAF7EFFC01204C
:10597000FCF7B6FD00E0BE71FCF79AF82DB0BDE86B
:10598000F08F05F05BF9F5490446FF2801D00E7051
:1059900009E008783C2806D9F1480E7090F83100EB
:1059A000012828D0BE71BB790B204FF0020B4FF4B9
:1059B000FD621E2B7ED2DFE813F02F004101F501BE
:1059C00056057D0230035703BF03020459045C04EB
:1059D0008804F004F004F004F004F004F004F5048A
:1059E0002A05280653069606C306850420007D0076
:1059F000F806F7075B07BD71D5E7087840B10E7070
:105A00003879022802D2401C387101E07879B871E7
:105A1000232C7DD1787997E30878002878D000206E
:105A200008703879B846032802D2401C88F8040070
:105A3000DFF830B35E469BF802009BF805209BF828
:105A400004108DE807009BF807009BF8033000EB7B
:105A500040011EA80A18C4A105A8FAF783FC012377
:105A60000022102105A8FBF787FFB079C00705D0F9
:105A7000012300224E21C2A0FBF77EFF03F0AEFF00
:105A8000C048006807F04CF90246BFA105A8FAF724
:105A900069FC01230022692105A8FBF76DFFBC4FBB
:105AA000386864280DD9BB480178032909D1A04979
:105AB000497A00E03AE1012903D1B7490D7000218C
:105AC00001709B4998F80B20487A904273D098F85F
:105AD0000420032A6FD3002688F8046088F80B009E
