:020000040800F2
:10000000702D0020790200082B6800083148000894
:10001000494D000883100008CD8B00080000000047
:10002000000000000000000000000000B180000897
:10003000EF14000800000000256F0008F18300089D
:10004000930200089302000893020008A56F0008BD
:10005000930200089302000893020008930200082C
:10006000930200089302000893020008930200081C
:100070007D1400088914000895140008A1140008D4
:10008000AD140008B9140008930200089302000898
:100090009302000893020008930200081715000855
:1000A00093020008930200089302000893020008DC
:1000B00093020008930200089302000893020008CC
:1000C00093020008930200089302000893020008BC
:1000D00093020008A98B0008B58B0008C18B0008AB
:1000E000930200089302000893020008930200089C
:1000F000930200089302000893020008930200088C
:10010000930200084D730008930200089302000850
:100110009302000893020008458600089302000835
:10012000930200089302000893020008930200085B
:1001300000F002F800F076F80AA090E8000C824483
:100140008344AAF10107DA4501D100F06BF8AFF260
:10015000090EBAE80F0013F0010F18BFFB1A43F0A5
:100160000103184770D6000090D600000A444FF0F3
:10017000000C10F8013B13F0070408BF10F8014B06
:100180001D1108BF10F8015B641E05D010F8016B4B
:10019000641E01F8016BF9D113F0080F1EBF10F8AF
:1001A000014BAD1C0C1B09D16D1E58BF01F801CBD2
:1001B000FAD505E014F8016B01F8016B6D1EF9D555
:1001C0009142D6D37047000000230024002500266A
:1001D000103A28BF78C1FBD8520728BF30C148BFAA
:1001E0000B607047642900F02181752900F01E81A1
:1001F000782900F05781632900F0F184732900F019
:10020000F684002070471FB500F037FA00F046FE74
:100210000400002000210CF071FA401C60601FBD3A
:1002200010B510BD00F014FE1146FFF7ECFF09F009
:10023000FFFC00F045FE03B4FFF7F2FF03BC00F043
:10024000CDFB00000B49D1F800C04A685CF8043BC4
:100250001068184442F8040B8C4528BFA1F1DC0C4F
:100260008A4228BFA1F1DC02C1F800C04A6020F038
:1002700000407047DC2600200948804709480047B5
:10028000FEE7FEE7FEE7FEE7FEE7FEE7FEE7FEE746
:10029000FEE7FEE704480549054A064B70470000A3
:1002A0006F8400083101000870270020702D0020A5
:1002B0007029002070290020B2F120030AD5C2F174
:1002C000200301FA02F120FA03F300FA02F041EAF6
:1002D0000301704700FA03F14FF000007047B2F1DC
:1002E00020030AD5C2F1200320FA02F001FA03F339
:1002F00041FA02F140EA0300704741FA03F04FEA85
:10030000E171704710B54C1084EA530404D54042A3
:10031000C1F1000138BF491E1B4204D55242C3F14E
:10032000000338BF5B1E00F063FB14F0804F04D065
:100330004042C1F1000138BF491E14F0004F04D003
:100340005242C3F1000338BF5B1E10BD0FB4044915
:1003500010B503AA029800F04FFC10BC5DF814FB26
:10036000140000200FB41CB5074B06AA7B44694655
:100370000090059800F011FC0020694600F020FC78
:100380001CBC5DF814FB00005108000070B5044669
:1003900085690068C10601D5302600E02026C00727
:1003A00007D070BDD4E9012130469047206A401C37
:1003B00020626D1EF6D570BD70B504468569007863
:1003C000C00707D170BDD4E9012120209047206AE1
:1003D000401C20626D1EF6D570BD70B50C460546FA
:1003E000012A05D02878800600D5EA69002302E0BA
:1003F000012305E05B1C934202D2E05C0028F9D1A6
:10040000A869E618C01AA861286A18442862284614
:10041000FFF7BCFF04E0D5E9012114F8010B904778
:10042000B442F8D32846FFF7C7FF70BD2DE9F0416D
:100430000646002410687529314616A510D0AFF382
:100440000080002802DA404213A507E031688A07DD
:1004500001D512A502E0490704D511A5012401E048
:10046000AFF3008000210A2206F1240709E0B0FB67
:10047000F2FCB0FBF2F302FB1C003030785418465B
:10048000491C0028F3D123462A463046BDE8F041F6
:1004900000F025BB000000002D0000002B00000034
:1004A0002000000070B504460D4621461068AFF3E9
:1004B00000802188090502D50F4A7A4402E00E4ADD
:1004C0007A440E32002104F1240305E000F00F0607
:1004D0000009965D5E54491C0028F7D1207800235E
:1004E000000704D5702D02D009B102231132204635
:1004F000BDE8704000F0F3BA4ACF00002DE9F05F8C
:10050000894604464FF0000ADFF824B1FB44C0F8E6
:1005100020A02046E168884700287DD0252806D005
:10052000D4E901219047206A401C2062F1E70025B0
:100530005F462046E16888472028064607DB312EC3
:1005400005D2B81910F8200C08B10543F1E7A80747
:1005500001D525F00405C4F81CA00027C4F818A094
:100560002A2E09D0304608F0F9FB38B304EB87088F
:10057000303EC8F8186019E059F8041B204604EB17
:1005800087029161E1688847012F064618D1E0692A
:10059000002820DA25F020051DE0D8F8180000EB2F
:1005A000800006EB40003038C8F818002046E168AB
:1005B0008847064608F0D2FB0028EED1012F0AD06A
:1005C0002E2E08D12046E16888477F1C0646022F60
:1005D00045F02005C4DBA069002803DA404245F05D
:1005E0000105A061E80701D025F01005A6B1A6F12C
:1005F0004100192802D8203645F400654A463146A4
:10060000204625604D46FFF7EDFD60B1012807D07B
:10061000ED1D25F0070000E007E000F1080978E78C
:1006200005F1040975E730467AE7206ABDE8F09FD6
:1006300020CF000070B5064600F0D6F904680546E4
:1006400030460A22002100F0E9FA2C6070BD00005B
:100650000B4910B5A1F17C020A4CC2E937123721CF
:1006600006E000EB104342F82130074B00FB03404B
:100670000B1EA1F10101F4DC10BD0120E8E7000030
:100680007C260020E119D666CD0D010010B50020B2
:1006900000F0FCFAFFF7C4FDBDE81040012000F0B7
:1006A0009DB910B5431C02E010F8011B71B1810720
:1006B000FAD14FF0013202C88C1A8C4314EAC211ED
:1006C000F9D0C01A0A0603D0C01E10BDC01A10BD52
:1006D0000A0401D0801E10BD0902FCD0401E10BDCE
:1006E000032A40F2308010F0030C00F0158011F85E
:1006F000013BBCF1020F624498BF11F801CB00F836
:10070000013B38BF11F8013BA2F1040298BF00F889
:1007100001CB38BF00F8013B11F0030300F0258046
:10072000083AC0F0088051F8043B083A51F804CB6D
:10073000A0E80810F5E7121D5CBF51F8043B40F833
:10074000043BAFF30080D20724BF11F8013B11F83E
:1007500001CB48BF11F8012B24BF00F8013B00F882
:1007600001CB48BF00F8012B704710B5203AC0F00C
:100770000B80B1E81850203AA0E81850B1E81850A2
:10078000A0E81850BFF4F5AF5FEA027C24BFB1E8DF
:100790001850A0E8185044BF18C918C0BDE8104050
:1007A0005FEA827C24BF51F8043B40F8043B08BF59
:1007B0007047D20728BF31F8023B48BF11F8012B20
:1007C00028BF20F8023B48BF00F8012B70474FF0CC
:1007D000000200B5134694469646203922BFA0E891
:1007E0000C50A0E80C50B1F12001BFF4F7AF09079D
:1007F00028BFA0E80C5048BF0CC05DF804EB89008E
:1008000028BF40F8042B08BF704748BF20F8022BD0
:1008100011F0804F18BF00F8012B7047014900F01C
:100820003DBA0000E426002010B503681C1404EB58
:1008300021449BB289B2194494FBF2F302FB1343A7
:1008400094FBF2F401EB034393FBF2F102FB113151
:1008500093FBF2F301E05B1E11440029FBDB016016
:1008600003EB044010BDF0B504464FF0FF3585B0F2
:100870000068049060680290A0680390E0680190AE
:1008800020690090666906F18040B0F1004F7CD885
:100890003C22002104A8FFF7C7FF3C22014602A822
:1008A000FFF7C2FF1822014603A8FFF7BDFF411E54
:1008B00040F2B55201A8FFF7B7FF0C220746684681
:1008C0000021FFF7B1FF414B00EB870030440026C9
:1008D0007B4411E0511A01910099491C02290091B1
:1008E00002D00C2908D105E0810705D00199491CE7
:1008F000019101E0401C00960099019A595C9142D7
:10090000E8DD0099012906D11C2A04D1810702D013
:100910000221CDE90016A0F146018B293CD2DDE988
:100920000061002202E09F5C521C3944B242FADBB3
:10093000012E02DD820700D0491E40F2B55340F27D
:100940006D16C21700EB927292105A4300F0030327
:1009500003FB062283070A4400D1521E039E02EBCA
:100960004203049F06EBC303029EC3EB031306EB93
:100970008303174E33441E149BB2C6EB0616C3EB1B
:100980000313B60007EB830300E005E006EB134614
:1009900066F31F43360C02D0284605B0F0BD80C474
:1009A000029E40C4039E40C4019E761C44F80C6B1A
:1009B000009E44E902600720521C92FBF0F600FB07
:1009C000162084E823001846E7E700006DCB0000FE
:1009D000A039CEFD704770477047000001491820CC
:1009E000ABBEFEE72600020000487047102700203B
:1009F00053EA020C00F069802DE9F04B4FF000063D
:100A0000002B1FBFB3FA83F503FA05F424FA05F6A9
:100A10005E4012BF1643B2FA82F502FA05F4C5F140
:100A200020051EBF22FA05FC44EA0C04203556EAD4
:100A3000044C4FEA144418BF641C4FF000084FF0F8
:100A40000009904271EB030C39D3002919BFB1FAA8
:100A500081F701FA07F6B0FA80F700FA07F6C7F156
:100A600020071EBF20FA07FC46EA0C062037B6FB1B
:100A7000F4FCA7EB0507103F07F01F0BCBF1200696
:100A80000CFA0BFB2CFA06F644BFB3460026202FC7
:100A9000A4BF5E464FF0000B5BEA060C08BF4FF0A8
:100AA000010B19EB0B09ABFB027C48EB0608C01BE2
:100AB00006FB02CC0BFB03CC71EB0C01C1E70B4630
:100AC000024641464846BDE8F08B13B54FF00000A2
:100AD0004FF00001AFF30080BDE81C4070472DE9E6
:100AE000F0470D4699469246044600F124080168F5
:100AF000880604D5E06921F01001216000E00120A2
:100B0000A84201DD471B00E00027A1697A1902EB2A
:100B10000900081AA0612078C00602D42046FFF719
:100B200035FC002608E0D4E901211AF806009047B8
:100B3000206A401C761C20624E45F4DB2078C006FB
:100B40000AD52046FFF722FC06E0D4E90121302037
:100B50009047206A401C2062381EA7F10107F4DC90
:100B600007E0D4E9012118F805009047206A401CED
:100B70002062281EA5F10105F3DC2046FFF71CFCCE
:100B80002078000602D50220BDE8F0870120FBE7AF
:100B900001694A1C02610878704700B58FB0CDE941
:100BA00001310021059105497944CDE90310114631
:100BB0006846FFF7A3FC0FB000BD0000E5FFFFFF94
:100BC0000A6802F8010B0A60704710B5436913B157
:100BD000AFF3008001E0FFF700FC012010BD1278A8
:100BE00000F124010A7000224A700122EDE7116829
:100BF0004FF0FF32E9E70000074B70B50D467B442C
:100C0000FFF7CBFF0446284600F001F910B14FF082
:100C1000FF3070BD204670BD2B8C00002DE9F047E1
:100C200091460F4680460446002614F8015B2DB11C
:100C300000F096F80068405DC007F6D12B2D02D079
:100C40002D2D18D0641E4A463946204600F090F8F3
:100C500027B13968A14201D1C7F800804FF00204E2
:100C600071050BD54042002803DDFFF7BDFE04608F
:100C7000A007BDE8F08746F48066E4E70028F8DACC
:100C8000FFF7B2FE04606FF00040F2E710B500F02D
:100C9000C7F8BDE8104000F0BEB8000070B50C46C3
:100CA000016800204A1C3ED03C22B1FBF2F302FB5B
:100CB0001313B1FBF2F12360B1FBF2F302FB131348
:100CC000B1FBF2F118226360B1FBF2F302FB1313E4
:100CD000B1FBF2F146F2E0320A440721A360B2FB15
:100CE000F1F301FB132140F2B553B2FBF3F5A1611F
:100CF000B2FBF3F103FB15228900B2F5B77F08D3ED
:100D00009B10521EB2FBF3F52944B2FBF3F503FB33
:100D100015220F4BE261616189077B440CD03B2AAD
:100D20000AD3521C08E02C212046FFF750FD012079
:100D3000E0600AE0521A401C195C9142FAD9521C38
:100D4000C4E903204FF0FF302062204670BD000050
:100D500023C700000048704710270020704700009C
:100D600010B500F09BF8001D10BD00BF91B9000048
:100D70002DE9F05F824615468B4600270AF10104F3
:100D8000B9460078302801D09DB113E014F8010B6A
:100D90000127782803D0582801D045B10AE00DB1C9
:100DA000102D07D1002714F8010B102502E00825AB
:100DB00000E00A250026B0460EE005FB080005FB12
:100DC00006F101271FFA80F801EB1046B6F5803FC7
:100DD00000D3B94614F8010B294600F063F8002847
:100DE000EBDABBF1000F05D00FB1641E00E05446F2
:100DF000CBF80040B9F1000F06D0FFF7F5FD022156
:100E00000160C81EBDE8F09F48EA0640FAE7007B93
:100E100000F080007047002801D0FFF7DFBD704769
:100E200010B5002102A000F054F8012010BD000010
:100E3000534947414252543A2041626E6F726D618C
:100E40006C207465726D696E6174696F6E0000006C
:100E50007546FFF77FFFAE4605006946534620F012
:100E60000700854618B020B5FFF714FABDE820400A
:100E70004FF000064FF000074FF000084FF0000B56
:100E800021F00701AC46ACE8C009ACE8C009ACE809
:100E9000C009ACE8C0098D467047000000487047A3
:100EA000302700203A2800D2303820F02002412A92
:100EB00001D3A2F13700884201D34FF0FF307047D1
:100EC00010B50446AFF300802046BDE81040FFF7A0
:100ED000B2B970B505460C460A2000E06D1C00F062
:100EE00051F835B128780028F8D102E0641C00F0F0
:100EF00049F814B120780028F8D1BDE870400A20E4
:100F000000F040B84FF0013C50F8042B51F8043B7E
:100F10009A4221D1A2EB0C03934313EACC1317D1CD
:100F200050F8042B51F8043B9A4215D1A2EB0C0364
:100F3000934313EACC130BD150F8042B51F8043B24
:100F40009A4209D1A2EB0C03934313EACC13DBD0F2
:100F50004FF00000704700BFD01A01BAB1FA81F11A
:100F600001F0180122FA01F0CB40C1F12001DBB2FF
:100F7000C0B2C01A2CFA01F3D11A914311EAC3117D
:100F8000E6D1704708B569468DF800000320ABBE76
:100F900008BD000070B5044600688168C943C907F0
:100FA00017D1816821F00101816001F051FB0546F4
:100FB0000AE000BF01F04CFB401B022804D9206866
:100FC0008068C043C00706D020688068C043C0075F
:100FD000F0D0002070BDA06A40F01000A062E06A6E
:100FE00040F00100E062012070BD704701460148F9
:100FF00002F062B96009002010B5044802F06EF9F1
:10100000042801D0012010BD002010BD600900207F
:1010100010B500F00BF8012801D0012010BDBDE88B
:101020001040014802F06CBA6009002008B50120A8
:101030008DF800009DF8000008BD000038B50024C0
:10104000009313460A460146034802F0FDFA00B138
:101050000124204638BD00006009002070470000D0
:1010600038B50024009313460A460146034802F0AF
:10107000DFFB00B10124204638BD000060090020DC
:101080007047FEE72DE9FC41002605460C4681F835
:10109000FF6130462118401C81F80061FF28F9DB10
:1010A000687F324F112802D1697E80207854E87E13
:1010B00050B105F11C03CDE900355A1C687E11467C
:1010C00000F02CFA00284FD084F80462687E84F87F
:1010D000020284F8FF6184F8FF60032084F80102B3
:1010E000287F7F26401D84F800022670687E395CC8
:1010F00008436070287FA070002004E0291822189F
:10110000497FD170401C297F8142F7DC94F80002AE
:1011100048F205034FF6FF72611CC01E08F07AF911
:101120002A7FE11C5054010A2A7F201D11541049C6
:10113000207808700120024608E0A35C0B54A35CF1
:101140007F2B01D1401C0E54401C521C94F80032DD
:101150009342F2DC002202E08B5CA354521C8242D8
:10116000FADB84F800020120BDE8FC8114140020A1
:10117000741C00201CB50446D4E90001084318D0B3
:10118000D4E90201084314D000F092FD4FF0004270
:101190000023FFF7B7F8C4E90623D4E90201CDE93B
:1011A0000001D4E9000107F08BFDC4E9040100202F
:1011B0001CBD4FF0FF301CBD1CB50446D4E9020134
:1011C000CDE90001D4E90801D4E9062307F078FD50
:1011D000C4E90C0101201CBD70B504461348124D32
:1011E00086B0816941F0040181618069012600F0C7
:1011F000040004901120CDE900600020029003203B
:1012000003906946284601F01DF90122114628463F
:1012100001F019FAC4E90456022020764FF4FA606E
:10122000E06106B070BD00000008014000100240FF
:101230002DE9F043D7B0012504461120CDE95250E5
:101240000326DFF8AC81CDE9545652A9404601F09F
:10125000F9F8002701E02754401C0528FBDB012298
:101260001146404601F0EFF941F29210401EFDD2C6
:1012700060A0FFF76BF8DFF88C910022012189F85C
:101280000050404601F0DFF9207E022821D00328DB
:101290001FD05D48401EFDD201221146404601F09C
:1012A000D2F9CDE9547652953D4652A9404653971E
:1012B00001F0C8F801200BF0F5F940F6C23802271A
:1012C000404504D000200BF0EDF9404506D13846EA
:1012D0002CE041F27A50401EFDD2DDE701200BF0F8
:1012E000E1F9404501D1304620E0002702AE002060
:1012F0000BF0D8F946F8270001200BF0D3F906EBE4
:101300008701BF1C4860502FF1DB40A0FFF71EF89B
:1013100089F800500020414606EBC00356F8302003
:101320005F688A4201D08F4205D1042084F82000F2
:1013300057B0BDE8F083C31700EB537304EBE3032E
:10134000974293F800C04FEA4C6C4FEA1C6C83F84C
:1013500000C002D94CF001021A70401C2828DBDBC7
:101360002179E078CDE90001A378627821782DA079
:10137000FEF7ECFF20786178A6780144E078321817
:1013800011442279C9B28A4207D0052004F8200FFF
:101390002CA0FEF7DBFF2078CAE706F07F0140EAC9
:1013A00001200BF0F2F92E4FDFF8B8803A464346A1
:1013B0000BF0FEF90BF0B8F9A060310602D580F011
:1013C0000040A060208840BA0BF0DFF93A4643465F
:1013D0000BF0EEF90BF0A8F9E0600BF0F3FA014620
:1013E00021A0FEF7B3FF84F820502846A0E70000B4
:1013F00000080140444854323120524541440D0A0E
:10140000000000001C0400208E5F01007265616412
:1014100020726561647920383020626974730D0A26
:101420000000000044485432313E3E2052454720DF
:1014300025642025642025642025642025640D0A68
:101440000000000044485432313E3E2043484543AA
:101450004B53554D5F4641494C45440D0A00000031
:101460009A9999999999B93F44485432313E3E200E
:1014700048554D3A2025640D0A000000014800F04F
:1014800013BE0000B00C0020014800F00DBE0000AB
:101490006C0C0020014800F007BE0000A00B0020EB
:1014A000014800F001BE00005C0B0020014800F084
:1014B000FBBD0000E40B0020014800F0F5BD00007A
:1014C000280C002030B590F840500124AC40C56B8A
:1014D0006C60046863604368102B036803D09960F4
:1014E0000068C26030BD9A600068C16030BD70475E
:1014F0001FB512780023069CCDE90202CDE9003128
:1015000010222146012007F066FC10B1002004B033
:1015100010BD0120FBE7202000F088BF2DE9F04F2F
:1015200091461A788046D01D1F460026C0B2C5B02D
:10153000030703D000F00F03C3F11006DFF8B8B0C3
:1015400030448DF81020C4B25BF82830002004AA83
:10155000C50023FA05F502EB000C401CC0B28CF864
:1015600001500428F4D3002004E00B5C1518401C43
:101570006B71C0B23B788342F7D8002592460CE0ED
:10158000FEF760FEFF2190FBF1F201FB12003A78BA
:10159000691D52446D1C5054EDB2B542F0D348F26F
:1015A00005034FF6FF7204A9A01E07F033FF0AEBF4
:1015B000040202F8020D000A5070002209F1010035
:1015C000CDE9002ACDE902041346102201204F99EB
:1015D00007F068FD18B1002045B0BDE8F08F4E98C7
:1015E000641C7E21047089F800105BF82810491CE7
:1015F0004BF828100120EFE7F410002002A0FEF7BE
:10160000A5FE72B6FEE700006572726F720D0A00E9
:10161000002200F001B8000030B50E4B0546012055
:101620005C7A012C15D8587A00241C54587A03EBA4
:10163000800045605D7A03F108002A54587A421C04
:101640005A72303008703A2048702F208870CC7061
:10165000002030BDF425002009B1012200E0002265
:10166000074B38B1012807D0022807D110211846AE
:1016700000F0E9BF8021FAE74021F8E77047000059
:101680000008014008B541008DF8001081F01B01F1
:101690008DF80110694601EBD010007808BD08B53F
:1016A0000021009040238022084600F0DFF908BDA9
:1016B0002DE9F04710F8016B914610F8017B8A463E
:1016C000804600251AE0002414E0E008704308EB8F
:1016D0000501405C04F00701C840C00709EB0401A4
:1016E0000AEB050001D0012200E0002200F0EEF834
:1016F000641CA4B2BC42E8DB6D1CADB2B542E2DBB7
:10170000BDE8F0872DE9FF4F244CA26813785E07EF
:101710004FEAD30500D06D1C92F801C0966852883C
:101720000027801A68430CFB0068491E581800F017
:10173000FF093E46A34626E0002008EB050106E02F
:101740000C1A3B0214F8017C1F43401CC0B2A84293
:10175000F6D302988846002400EB060A0CE001202C
:10176000A040B8435146A9EB040014D05FF000023A
:1017700000F0ACF8641CE4B2DBF808000078A0428A
:10178000EDD8761CF6B2DBF808005A464078B04235
:10179000D2D8BDE8FF8F039AEAE7000028000020B6
:1017A0002DE9FF4F1F46934682460024DDF8348022
:1017B00022E07E1EF017012106EB507001EBE000E5
:1017C000002504FB00F60BEB040911E00AEBD50041
:1017D00005F00701305CC1F10701C840C00705D022
:1017E0000198494628440E9A00F070F86D1CADB27D
:1017F000BD42EBD3641CA4B24445DAD3BDE8FF8FED
:101800002DE9F04F1E46DDE9097B90468946824668
:1018100000251AE0002414E0E00870430AEB0501FB
:10182000405C04F00701C840C00708EB040109EB65
:10183000050001D05A4600E0002200F047F8641C81
:10184000A4B2BC42E8D36D1CADB2B542E2D3BDE850
:10185000F08F2DE9FC4F0546994617460C46AA42E3
:1018600001DD781B00E0E81B8046A14502DDA9EB05
:10187000040001E0A4EB090082464FF0FF30BD42B6
:1018800001DA012100E0014601914C4500DA012016
:101890008346CAF10000A8EB0A06009021462846BC
:1018A0000B9A00F013F8BD4201D14C450CD00099C1
:1018B0007000884203DD0199A6EB0A060D444045FD
:1018C000ECDA46445C44E9E7BDE8FC8F10B58028BB
:1018D00015D2002913DB402911DAC317090100EBE7
:1018E000537301EBE30123F00703064CC31A802076
:1018F0002144D840002A0A7802D002430A7010BD61
:101900008243FBE7F40C00202DE9F04F1C46002534
:101910000F1991468A468346561C0DE00BEB0500D5
:1019200080465146099AFFF7D1FF39464046099A49
:10193000FFF7CCFF6D1CEDB2B542EFDB00250BEBE2
:101940000906671C0EE000BF0AEB05042146584655
:10195000099AFFF7BBFF21463046099AFFF7B6FF09
:101960006D1CEDB2BD42EFDBBDE8F08F2DE9F0411B
:101970001F4690460C4605460B4E0EE03B4642463F
:101980002146FFF7BFFE287820280BD0B0680078EA
:10199000142800D9E41C04446D1C28780028EDD1DB
:1019A000BDE8F081241DF7E7280000202DE9FC4761
:1019B0009A4605460C461646DFF8508020E00A2875
:1019C00018D01349DFF84C9032460F5C98F800109D
:1019D000CDE9001A1048114919F8073050F82700CE
:1019E00008442146FFF7DCFE19F80700641C044494
:1019F0006D1C05E098F80000002406446D1C761C60
:101A000028780028DBD1BDE8FC870000B302002065
:101A1000A4010020A40200206801002098000020FA
:101A20002DE9FC47984691460D46044616E02028CD
:101A300012D00AF059FB0F210B4FCDE900180646D2
:101A4000B819BB5D4A462946401CFFF7D9FEB85D70
:101A50006D1C0544641C01E0641CED1C207800280A
:101A6000E5D1BDE8FC870000B5CE00082DE9F043C4
:101A7000CE188846C4B28718DDF81C900EE000BF6F
:101A800008F0FF0506E04A4629462046FFF71EFFFC
:101A90006D1CEDB2AE42F6DC641CE4B2A742EFDC92
:101AA000BDE8F0832DE9F041DFF8348000250827F8
:101AB0000021284609F022F808EB051400262078BA
:101AC00008F0D4FF6078A41C08F0D0FF761CF6B2B2
:101AD000BE42F4D36D1CEDB2402DE8D3BDE8F081D9
:101AE000F40C002010B5234C0246C4E9000101218A
:101AF00000209047202008F0B5FF012000F06EFC88
:101B0000202008F0AFFF012000F068FC062008F05C
:101B1000A9FF012000F062FC202008F0A3FF07F0DD
:101B200099FD012000F05AFC012008F09BFF3220B3
:101B300000F054FC262008F095FF07F08BFD0120F3
:101B400000F04CFC0C2008F08DFF012000F046FC5A
:101B50000020FFF7A4FDFFF7A5FF322000F03EFCB8
:101B6000012008F07FFF322000F038FC0248A0601E
:101B700010BD0000280000203400002070B50120B6
:101B800000F018F84FF4FA7000F028FC0122084D1C
:101B900054022146284600F056FD4FF47A7000F0BA
:101BA0001DFC21462846BDE87040002200F04BBDD8
:101BB0000018014002464FF48061014800F043BD27
:101BC000001801404FF480720149024802F077BAD0
:101BD000D4230020140B00207CB5134C00201349A3
:101BE0006081A0814870C87088700871FF200870FB
:101BF000FFF7E8FFFFF7C2FF0D4D286DC2B2C0F33B
:101C00000721CDE90012C0F30743020E09A10C48D9
:101C1000FEF7A8FBB5F85420E28002B00849BDE801
:101C2000704008A0FEF792BBBC0200200C00002010
:101C30007820002025642E25642E25642E2564003E
:101C40000625002047534D3E3E205365727665724F
:101C500049503A2025730D0A506F72743A2025645A
:101C60000000000070B500F023F84FF000420023A0
:101C7000FEF748FB14461D46D00702D1641C43F111
:101C80000005052200232046294604F0A7FD01286F
:101C90000AD0A41C45F10005052200232046294650
:101CA00004F09CFD0028F4D02046294670BD0000B9
:101CB00001480021704700006D99829DF8B500240D
:101CC000009490F824202546012A12D0012280F8A1
:101CD00024204A681F23072A0DD20668776B521EFC
:101CE00002EB820293409F430B6893401F4377634C
:101CF00019E00220F8BD06680D2A0AD2376BD21F00
:101D000002EB820293409F430B6893401F4337636B
:101D100009E0F76A0D3A02EB820293409F430B6899
:101D200093401F43F7620A68072306680A2A0AD30A
:101D3000F7680A3A02EB420293409F438B68934054
:101D40001F43F76008E0376902EB420293409F436C
:101D50008B6893401F4337610A68102A01D0112A0B
:101D600020D1124B02689A4217D193681B0219D4F2
:101D7000936843F4000393600968102912D10C4959
:101D80000C4A0968B1FBF2F101EB8101490000E066
:101D9000491E00910029FBD104E0816A41F0200135
:101DA0008162012480F824502046F8BD00240140BF
:101DB0002400002040420F002DE9F04104004FF0C4
:101DC00000057FD0A06A002628B9E66284F8246066
:101DD000204600F081F82046FFF7DCF8A16AC9062A
:101DE00000D420B1A06A40F01000A0626AE0A16AAD
:101DF00021F4885141F00201A162334923688B42EA
:101E0000E16904D1B1F5402F01D14FF40021277BC6
:101E10004FF4807C41EA470261680A43A16861454A
:101E200008D0012906D0002194F814E0BEF1010F7A
:101E300002D00AE06146F7E7C7B1A76A47F020077A
:101E4000A762E76A47F00107E7625F6827F469471E
:101E50000F435F60236899681C4F394011439960B4
:101E6000A16861450BD0012909D00CE0DFF860E0E2
:101E7000A7690EEB47370F4347F40061E5E7218A76
:101E80000D05A5F580152168CB6A23F470032B435B
:101E9000CB62216889680F4B1940914208D1E662F4
:101EA000A16A21F0020141F00101A162BDE8F081C7
:101EB000A06A20F0020040F01000A062E06A40F04A
:101EC0000100E0620120F1E7003C0140FDF7E1FF85
:101ED00000E0FFFFFE0E1FFF00B585B0002100915E
:101EE00001910291039100680E49884217D10E4872
:101EF000816941F400718161816901F4007104918B
:101F0000816941F0100181618069694600F010002B
:101F10000490032000900190044800F093FA05B06B
:101F200000BD0000002401400010024000100140EC
:101F300010B590F821100022022905D004218163F8
:101F400080F82020012010BD01680B6823F00E03EB
:101F50000B6001680B6823F001030B6090F84030C0
:101F6000C46B012101FA03F3636080F8211080F84B
:101F70002020104610BD00002DE9F05F90F82110E0
:101F80000024022903D004218163012485E0016833
:101F90000A6822F00E020A6001680A6822F0010253
:101FA0000A603F4E3E4FB215DFF8F4C0DFF8F09004
:101FB000DFF8ECA0DFF8E8B0DFF8E4E00168783F94
:101FC00013011502ACF1640CA9F15009AAF13C0A05
:101FD000ABF1280BAEF1140E4FF48018B14227D9A3
:101FE000B9420ED0614512D049451DD0514518D097
:101FF000594518D0714501D1424615E0294EB142EC
:1020000001D1012210E0274E1436B14201D1102235
:102010000AE0244E2836B14206D0224A3C32914290
:1020200001D11A4600E02A461E49091F0A602BE02A
:10203000B94213D0614517D0494522D051451DD032
:1020400059451DD0714501D142461AE0B14202D135
:102050004FF0807215E0134EB14201D1012210E021
:10206000104E1436B14201D110220AE00D4E28362E
:10207000B14206D00B4A3C32914201D11A4600E0EF
:102080002A46074980394A60012180F82110002141
:1020900080F82010416B01B188472046BDE8F09FD1
:1020A00080000240080402402DE9F05FC16B0A681D
:1020B00001680B68046C4FF0040808FA04F8844DBA
:1020C000844E854FDFF814C2DFF81492DFF814A2B3
:1020D000DFF814B2DFF814E218EA020F65D05FEA05
:1020E000437862D50A68920603D40A6822F0040293
:1020F0000A60DFF8F0814FF48062016808F114088B
:1021000013011402414524D9A9420DD0B1420FD088
:10211000B9421AD0614515D0494515D0514501D174
:10212000120312E0594501D104220EE0714501D19C
:1021300040220AE06D4D1435A94206D06B4A283280
:10214000914201D11A4600E022466749091F0A6000
:1021500029E0A94213D0B14215D0B94220D061453F
:102160001BD049451BD0514502D14FF4800217E0E6
:10217000414502D14FF0806212E0594501D104225D
:102180000EE0714501D140220AE0584D1435A942B4
:1021900006D0564A2832914201D11A4600E0224622
:1021A0004B4908394A60C16A71E04FF0020808FAE9
:1021B00004F818EA020F70D05FEA83786DD50A68D8
:1021C000920606D40A6822F00A020A60012180F809
:1021D0002110DFF810814FF40072016808F1140833
:1021E00013011402414524D9A9420DD0B1420FD0A8
:1021F000B9421AD0614515D0494515D0514501D194
:10220000120312E0594501D102220EE0714501D1BD
:1022100020220AE0354D1435A94206D0334A28322F
:10222000914201D11A4600E022462F49091F0A6057
:1022300029E0A94213D0B14215D0B94220D061455E
:102240001BD049451BD0514502D14FF4001217E075
:10225000414502D14FF0007212E0594501D10222EE
:102260000EE0714501D120220AE0204D1435A9422B
:1022700006D01E4A2832914201D11A4600E0224679
:10228000134908394A60002180F82010816A00292A
:102290001CD0BDE8F05F0847FFE70825A5401542C0
:1022A00014D01A0712D50A6822F00E020A6090F8BC
:1022B0004020C36B012101FA02F25A60816380F869
:1022C0002110002180F82010016BE0E7BDE8F09FAD
:1022D000080002401C00024030000240440002405E
:1022E000580002406C000240080402401C040240F6
:1022F00030B560B11A4B026814219A4209D2194BC9
:102300001344B3FBF1F18900016417490AE001208D
:1023100030BD134B5B421344B3FBF1F18900016400
:102320000F490839C163022180F82110136843F670
:10233000F0718B43F0E901142143D0E902452C43AD
:10234000214304692143446921438469214319439A
:10235000116000214163012242770177084630BDB8
:1023600008040240F8FFFDBF0000024070B50446BB
:1023700090F82000002501280CD0012084F82000CE
:1023800094F821600020012E06D084F82000022558
:10239000284670BD022070BD022684F82160A0632B
:1023A0002068066826F0010606602046FFF78AF8D6
:1023B000E06A00282068016802D041F00E0106E0C2
:1023C00021F0040101602068016841F00A01016008
:1023D0002068016841F001010160D9E770B5044649
:1023E00000F036F90546601C02D004480078044429
:1023F00000F02EF9401BA042FAD370BD1800002057
:1024000020280ED1074A506896280AD3064900238F
:10241000486810B1401E486002D103483838037044
:1024200053607047D003002064250020044910B594
:102430000A68024202D00860FFF7E2FF10BD000008
:10244000140401402DE9F84FDFF8C8910024A9F1E8
:10245000040B23460F2709F1040AABF1040ED1E067
:102460000125A54006EA0502AA4276D1DFF8A8C1F7
:102470004E68A6EB0C0866452BD00DDC032E34D03D
:1024800005DC36B3012E19D0022E2FD11BE0112E00
:1024900016D0122E2AD119E0B8F5881F19D006DC03
:1024A000B8F5803F15D0B8F5801F1FD111E0B8F501
:1024B000001F0ED0B8F5041F18D10AE0CB6815E054
:1024C000CB681B1D12E0CB6808330FE0CB680C33E0
:1024D0000CE08B682BB1012B4FF0080303D0456152
:1024E00004E0042302E0056100E00023FF2A01D894
:1024F000064601E000F104064FEA840501D9A5F182
:102500002005D6F8008007FA05FC28EA0C0803FA33
:1025100005F548EA0508C6F800804D68ED0070D55D
:102520003E4DAE6946F00106AE61AD6924F003068A
:1025300005F0010500953A4D06EB050CDCF8085056
:10254000A607360F07FA06F825EA0805DFF8D48053
:10255000404503D14FF0000825E052E0DFF8C88085
:10256000404502D14FF001081DE0DFF8C080404532
:1025700002D14FF0020816E0DFF8B480404502D1E6
:102580004FF003080FE0DFF8AC80404502D14FF078
:10259000040808E0DFF8A080404502D14FF00508AC
:1025A00001E04FF0060808FA06F848EA0508CCF8FA
:1025B00008804D68D9F80060ED024D4601D51643FC
:1025C00000E096432E604D68DAF80060AD02554693
:1025D00001D5164300E096432E604D68DBF800609D
:1025E000AD035D4601D5164300E096432E604D686D
:1025F000DEF80060ED03754601D5164300E0964312
:102600002E60641C0A681646E2407FF429AFBDE8DC
:10261000F88F000008040140000011100010024073
:102620000000014000080140000C01400010014082
:102630000014014000180140001C0140806808405F
:1026400000D0012070470AB1016170470904FBE71F
:102650000148806870470000180000200248816827
:10266000027811448160704718000020074810B5B7
:10267000016841F010010160032000F06DF80F20A7
:1026800000F006F800F024F8002010BD0020024001
:1026900070B50D4D04464FF47A712878B1FBF0F017
:1026A0000A490968B1FBF0F001F0E3FA48B9102CCF
:1026B00007D200222146501E00F02EF800206C6048
:1026C00070BD012070BD0000180000202400002013
:1026D000094808B5816941F001018161816901F012
:1026E00001010091C16941F08051C161C06900F0F0
:1026F0008050009008BD000000100240002809DB57
:1027000000F01F02012191404009800000F1E0200B
:10271000C0F8001170470000F0B40E4B1B680C4667
:10272000C3F30223C3F10705042D00D90425191DA5
:10273000072901D2002300E0DB1E012606FA05F17D
:10274000491E214099409E40761E16403143F0BC00
:1027500006F0F4BA0CED00E0064900F00702086844
:102760004FF6FF03184040EA0220034A1043086076
:10277000704700000CED00E00000FA05014901205F
:102780000862704700000E4210B501460020284C38
:1027900004292FD00BDC012930D0022929D100F0E7
:1027A0006BF96168C1F38131491C49001FE00829B8
:1027B00020D010291DD161682268D20119D51D4889
:1027C000C1F38342C903805C0AD56168194AC1F329
:1027D0004041921E515C184AB2FBF1F1484301E0BE
:1027E000164948436168490203D440000321B0FB05
:1027F000F1F010BDBDE8104000F04EB9226AC2F3FE
:102800000121012903D1920701D5C80310BD022976
:1028100005D1626A920702D549F6404010BD0329EE
:10282000FCD121688903F9D54FF2244010BD000086
:102830000010024076CB000800127A0000093D002B
:102840002DE9F84305460078354CC00754D0E069BF
:102850000026C00008D4E06940F08050E061E069E3
:10286000012600F0805000902E480168C90512D45E
:102870000168804641F480710160FFF7E9FE074678
:1028800005E000BFFFF7E4FEC01B642823D8D8F89A
:102890000000C005F6D5206A10F4407021D0A98848
:1028A00001F4407181421CD0206A1F49012220F4AA
:1028B00040700A6000220A602062C00711D0FFF752
:1028C000C7FE074641F2883808E000BFFFF7C0FEA8
:1028D000C11B414502D90320BDE8F883206A800767
:1028E000F4D5206A696820F44070084320621EB164
:1028F000E06920F08050E0612878800705D56068A5
:10290000A96820F44040084360602878C00605D5D7
:102910006068696920F48000084360600020DBE79C
:102920000010024000700040400442422DE9F04790
:102930000F46050061D0434E306800F00700B842F2
:1029400009D2306820F0070038433060306800F06A
:102950000700B84251D128683B4C810712D5400787
:1029600003D5606840F4E06060602878000703D514
:10297000606840F4605060606068A96820F0F00012
:10298000084360602878C00728D06868012810D004
:102990002168022810D0890700292EDA616821F009
:1029A000030101436160FFF753FE804641F288391D
:1029B0000DE021688903EFE78901EDE7FFF748FEA5
:1029C000A0EB0801494502D90320BDE8F087606803
:1029D000696800F00C00B0EB810FEFD1306800F0B7
:1029E0000700B8420BD9306820F007003843306048
:1029F000306800F00700B84201D00120E5E72878F0
:102A0000400705D56068E96820F4E060084360602D
:102A10002878000706D56068296920F4605040EAEC
:102A2000C100606000F038F86168084AC1F3031122
:102A3000515CC8400649086006480068FFF728FE58
:102A40000020C2E7002002400010024086CB0008B0
:102A5000240000201C000020044805490068496843
:102A6000044AC1F30221515CC84070472400002091
:102A70000010024096CB00080448054900684968E8
:102A8000044AC1F3C221515CC840704724000020B1
:102A90000010024096CB00080E4A51680E4801F023
:102AA0000C03042B11D0082B0FD10C48C1F3834326
:102AB000C903C05C0AD55168084AC1F34041921E5F
:102AC000515C054A5043B0FBF1F07047044948435C
:102AD000704700000010024000127A0064CB00082A
:102AE00000093D002DE9F84F040070D02078C04D5A
:102AF000C00749D06868C0F38100012807D0686822
:102B0000C0F38100022809D16868C00306D528688F
:102B1000800339D560680028E7D035E06068B0F5FB
:102B2000803F0BD010B1B0F5A02F11D0286820F451
:102B300080302860286820F4802002E0286840F473
:102B400080302860606890B1FFF782FD06460AE099
:102B5000286840F480202860F0E700BFFFF778FD88
:102B6000801B642873D828688003F7D50CE0FFF732
:102B70006FFD064605E000BFFFF76AFD801B642875
:102B8000F0D828688003F7D420789A4E80074FF059
:102B900001094FF0000839D5686810F00C0F07D014
:102BA0006868C0F38100022809D16868C00306D4B0
:102BB0002868800714D52069012808D110E0206911
:102BC000B0B1C6F80090FFF743FD074605E00AE103
:102BD000FFF73EFDC01B0228C4D828688007F7D540
:102BE0002868616920F0F80040EAC10028600DE023
:102BF000C6F80080FFF72CFD074604E0FFF728FD2C
:102C0000C01B022823D828688007F7D42078000743
:102C10002CD57948A169D9B1C0F80090FFF718FD0B
:102C2000074604E0FFF714FDC01B02280FD8686AAE
:102C30008007F7D571484FF4FA510068B0FBF1F006
:102C4000009000BF0098411E0091FAD20EE080E093
:102C5000C0F80080FFF7FCFC074604E0FFF7F8FC33
:102C6000C01B022875D8686A8007F7D4207840070F
:102C700060D5E8690027C00008D4E86940F08050BA
:102C8000E861E869012700F0805000905C48016825
:102C9000C90513D40168834641F480710160FFF7D0
:102CA000D7FC824606E000BFFFF7D2FCA0EB0A008B
:102CB00064284ED8DBF80000C005F5D5E06801288F
:102CC0000AD008B1052813D0286A20F00100286234
:102CD000286A20F0040002E0286A40F0010028621F
:102CE000E06841F2883B98B1FFF7B2FC82460BE006
:102CF000286A40F004002862EEE700BFFFF7A8FC56
:102D0000A0EB0A0159455AD8286A8007F6D50CE08D
:102D1000FFF79EFC824605E0FFF79AFCA0EB0A0154
:102D200059454CD8286A8007F6D41FB1E86920F0CD
:102D30008050E861E06988B36968C1F381010229C4
:102D400044D00228C6F8608004D0FFF781FC044616
:102D500038E034E0FFF77CFC074604E0FFF778FC3E
:102D6000C01B02282BD828688001F7D4206AB0F550
:102D7000803F05D16868A16820F40030084368608E
:102D8000D4E908010843696821F4741108436860B4
:102D9000C6F86090FFF75CFC044606E025E000BF43
:102DA000FFF756FC001B022809D828688001F7D5D8
:102DB0001BE000BFFFF74CFC001B022802D90320D8
:102DC000BDE8F88F28688001F4D40EE00128F7D020
:102DD0006868226A00F48031914204D1616A00F48B
:102DE0007010884201D00120EAE70020E8E70000E7
:102DF00000100240000042428004424224000020B1
:102E000000700040024850F8210080B27047000076
:102E1000006C0040024800EB810091B201607047F5
:102E2000006C00400348012101704178491C417049
:102E30007047000000000020704710B5044600688D
:102E40000168C90717D04168C90714D04068400716
:102E5000204607D5FFF7F0FF21686FF004004860B7
:102E6000042002E0FFF7DEFF012060742068416863
:102E700021F00101416010BD80B1017C01290FD01A
:102E800001210174022242740268136843F00103B5
:102E90001360417400210174084670470120704797
:102EA0000220704770B5040003D0607C002610B18A
:102EB00005E0012070BD2674204600F03DF8022098
:102EC0006074204600F00AF9042550BB204604F047
:102ED00033F830BB2068416821F007014160A068E9
:102EE00020B11448016821F0010101601148001F60
:102EF0000168A26821F46071114301606068411C9F
:102F000004D10120FFF740FC58B1401E2268C0F3F5
:102F100003419160216880B2C860204604F026F821
:102F200008B16574C5E7E67301206073A07360742F
:102F3000002070BD306C004008B500680849884228
:102F40000DD1FFF71BFC0748C16941F00061C16169
:102F5000C069054900F0006000900120086008BDCC
:102F600000280040001002403C0442422DE9F0419C
:102F70000D4604003BD0C5B3207C01283AD04FF069
:102F8000010884F8108002206074E87872B303F0BE
:102F9000CAFFE073687803F0C6FF6073A87803F097
:102FA000C2FFA073C2B2617BE07B04F028F82073FB
:102FB0002870204604F013F84FF46161B0FBF1F182
:102FC000002518292DD91822B1FBF2F1A1EB01112E
:102FD00001EB4101C1EB011100EBC1163146204666
:102FE00004F0B0F80427C8B90BE000E004E00120C9
:102FF000BDE8F0810220FBE7E07368786073A87891
:10300000CFE7204603F0D4FF411C0AD0B04208D2DB
:1030100006490144204604F048F810B1677425744D
:10302000E5E784F8118025740020E1E78051010074
:103030002DE9F0410D46040024D01DB3207C012869
:1030400023D04FF0010884F81080022060742878A3
:10305000EAB103F068FF4FF4616100FB01F66878A4
:1030600003F061FFC0EB001006EB8006A87803F0C8
:103070005AFF35182946204604F064F80026042734
:1030800010BB0FE00120BDE8F0810220FBE74FF408
:10309000616148436978C1EB011100EB8100A978B7
:1030A0004518E7E72068416821F0050141602046A6
:1030B00003F07EFF411C0AD0A84208D20649014411
:1030C000204603F0F2FF10B167742674DAE784F843
:1030D000118026740020D6E78051010070B50400ED
:1030E0000AD02068416821F008014160FFF7B0FA7A
:1030F00005464FF47A7608E0012070BDFFF7A8FA84
:10310000401BB04201D9032070BD20684068000711
:10311000F4D5002070BD10B5FDF767FF10BD7047F6
:10312000F0B5426E920F0A70426EC2F383624A702B
:10313000426EC2F301628A70426E120CCA70B0F81D
:103140006420120A0A7190F864204A71826E120D8E
:10315000CA80826EC2F303420A72B0F86820C2F3DA
:10316000C0324A72B0F86820C2F380328A72B0F876
:103170006820C2F34032CA72B0F86820C2F300324D
:103180000A7300264E73426C4FF40075012462B13D
:10319000012A3AD0026847499163816B41F080511E
:1031A000816380F834400120F0BDB0F86820C36E20
:1031B0009205120D42EA93720A61C26EC2F3C262B4
:1031C0000A75C26EC2F302624A75C26EC2F34252FF
:1031D0008A75C26EC2F38242CA75C26EC2F3C2322F
:1031E0000A760A69521C42650B7E03F007039B1C9A
:1031F0009A4042650B7A03F00F0704FA07F38365E0
:103200005B0A5A43C0E917250EE090F86820C36EA8
:103210009206920A42EA13420A610A69521C920219
:103220004265C0E91652056630F86C2FC2F3803251
:1032300001F8192F0288C2F3C6124A70027802F010
:103240007F028A704268D20FCA704268C2F341722C
:103250000A714268C2F382624A714268C2F38352C1
:103260008A714268C2F34052CA710E724268C2F358
:1032700000424A728288C2F3C0328A728288C2F3E4
:103280008032CA728288C2F340320A738288C2F3E3
:1032900000324A738288C2F381228A738288C2F321
:1032A0000122CA730079C0F3460008744C740020F0
:1032B000F0BD0000FF054000426C0A60826C4A606D
:1032C000C26C8A60026DCA60426D0A61826D4A6199
:1032D000C26D8A61006EC8610020704770B50446F7
:1032E000B0F8500000250104206804F068F918B116
:1032F000A16B0143A16304E00021206804F022F8DF
:103300000546C5F3432070BDF8B5056B044600685B
:10331000416B09041BD5290719D5D4E90A56002E9B
:1033200014D00027206804F02DF805F8010B010ADD
:1033300005F8011B010C05F8021B000E361F7F1C4F
:1033400005F8010C082FEDD3C4E90A56F8BD416B0E
:103350004FF00006C9054FF0010744D539028163DB
:103360002068C16B4CF23A129143C1632068C16A74
:1033700021F00101C16228071DD515F0220F09D0E7
:10338000206804F04DF928B1A16B0143A1632046E8
:10339000FFF7C5FE216840F23A50886384F8347024
:1033A0002663A80703D0204600F03AFAF8BD20466D
:1033B00000F03AFAF8BD2806FCD5A80609D5206821
:1033C00004F02EF928B1A16B0143A1632046FFF759
:1033D000A6FEA807EED12068C16A21F00801C162EB
:1033E00084F83470E3E7416B490424D5290722D5DA
:1033F000D4E90856002EDDD05FF0000715F8010B68
:10340000009015F8011B361F40EA0120009015F8C6
:10341000021B40EA0140009015F8011C40EA0160DF
:1034200000906946206803F0C0FF7F1C082FE5D399
:10343000C4E90856F8BD416B11F03A0FFAD0416B60
:10344000890703D5A16B41F00201A163416B090714
:1034500003D5A16B41F00801A163416B890603D537
:10346000A16B41F02001A163416BC90603D5A16B9B
:1034700041F01001A16340F23A7181632068C16B91
:1034800040F23A329143C163206804F0C9F8A16B5D
:103490000843A063280706D584F8347026632046C5
:1034A000FFF73DFEF8BD2806FCD515F0300F0CD017
:1034B000E16B11484863E06BFEF75EFD0028F1D038
:1034C000E06BBDE8F84004F063BAA8070CD0216CAB
:1034D0000A484863206CFEF74FFD0028E2D0206CBC
:1034E000BDE8F84004F032BAA66384F8347026636D
:1034F0002046FFF710FEF8BD917900084D790008CD
:1035000070B504000ED094F83400002518B9257762
:10351000204600F04FF8032084F83400204600F0E5
:103520000BF808B1012070BDA5632563012084F864
:103530003400002070BD0000FEB500250446762052
:103540000095CDE9015029460B460A46206803F054
:1035500003FF48BB154E46F8A05F206803F00EFF3E
:10356000012535600220FEF739FF204604F0AAFA53
:1035700030B100BF84F83450A16B0143A16313E064
:10358000204604F027FA0028F4D14FF40071206897
:1035900003F044FF002808D0226805499163A16B1D
:1035A0000143A16384F834500120FEBD0000304285
:1035B000FF05400030B585B00021009101910291D6
:1035C000039100681C49884233D11C48416941F489
:1035D00080614161416901F480610491816941F038
:1035E00010018161816901F010010491816941F04C
:1035F000200181618069022400F0200004904FF4D2
:10360000F850CDE900040325694603950C48FEF700
:1036100019FF0420CDE90004694603950948FEF727
:1036200011FF002211463120FFF776F83120FFF715
:1036300065F805B030BD0000008001400010024078
:1036400000100140001401402DE9F04F87B09B4667
:1036500016460D460446FEF7FBFF00903DB194F878
:103660003400012807D0A06B40F000500DE0A06BA3
:1036700040F0006009E00020A063E26D06EB0B0162
:10368000914204D9A06B40F00070A06386E0032152
:1036900084F834102168C862616C012900D0760278
:1036A0004FF0FF3101914FEA4B2102914FF0010899
:1036B00003AA902102278146CDF8188082E8820271
:1036C00001A9206803F028FEBBF1010F05D927638B
:1036D0003146206803F0FCFE05E0C4F83080314636
:1036E000206803F00EFFDFF834A130B12268C2F881
:1036F00038A0A16B0143A1634CE0029E1EE0406B29
:10370000000413D596B10027206803F03BFE05F8AE
:10371000010B010A05F8011B010C05F8021B000E44
:10372000361F7F1C05F8010C082FEDD3FEF790FF24
:103730000099411A109881421DD2E0B12068426B75
:1037400040F22A310A42DAD0416BC90509D5BBF1F2
:10375000010F06D9616C032903D003F061FF002833
:10376000C4D12068416B09071AD5C0F838A0A06BF6
:1037700040F0080050E02168C1F838A0A06B40F08C
:103780000040A06384F83480C4F83090032007B070
:10379000BDE8F08F84F83480C4F830900120F6E75B
:1037A000416B890705D5C0F838A0A06B40F0020036
:1037B00032E0416B89061BD5C0F838A0A06B40F001
:1037C000200029E003F0DEFD05F8010B010A05F8F1
:1037D000011B010C05F8021B000E05F8010C361F39
:1037E000FEF736FF0099411A109881420ED268B157
:1037F0002068416B890201D5002EE3D1216840F297
:103800003A50886384F834800020C0E72168C1F80A
:1038100038A0A06B40F00040A063BBE7FF0540006C
:1038200010B5FDF71BFC10BD10B5FDF729FC10BD50
:103830002DE9F04F8DB09B4616460D460446FEF727
:1038400007FF0A903DB194F83400012807D0A06B1F
:1038500040F000500DE0A06B40F0006009E0002057
:10386000A063E26D06EB0B01914204D9A06B40F01E
:103870000070A0637AE0032184F834102168C862E4
:10388000616C012900D076024FF0FF3103914FEABD
:103890004B2104919021CDE905104FF00109CDE9AC
:1038A0000709824603A9206803F036FDBBF1010F2A
:1038B00006D9202020633146206803F0CBFE05E0C6
:1038C000102020633146206803F0DDFE5FEA000827
:1038D00006D0216840488863A06B40EA080071E088
:1038E000049E27E0406B40041CD5DEB15FF000076A
:1038F00015F8010B009015F8011B361F40EA012056
:10390000009015F8021B40EA0140009015F8011CD8
:1039100040EA016000906946206803F046FD7F1C84
:10392000082FE5D3FEF794FE0A99411A16988142B2
:1039300020D2F8B12068416B40F21A321142D1D046
:10394000416BC90523D5BBF1010F20D9616C032957
:103950001DD003F065FED0B122681F499163A16BB1
:103960000143A16384F83490C4F830A001200DB065
:10397000BDE8F08F216818488863A06B40EA080012
:10398000A06384F83490C4F830A00320EFE72068E7
:10399000416B090705D510498163A06B40F0080011
:1039A00010E0416B890705D50B498163A06B40F09E
:1039B000020007E0416BC90606D507498163A06B89
:1039C00040F01000A063CDE740F23A51816384F8E3
:1039D00034900020CBE70000FF05400070B50400E4
:1039E00009D0606A002540B125616561A56294F83F
:1039F000510040B10CE0012070BD6068B0F5827FDD
:103A0000F4D0E561F2E784F85050204600F040F829
:103A1000022084F851002068016821F04001016013
:103A2000A088218900F4827001F404410843A1892F
:103A300001F400610843217C01F002010843217D6B
:103A400001F001010843218B01F400710843217F3B
:103A500001F03801084394F8201001F08001084378
:103A6000218D01F40051084321680860A0690421F8
:103A700001EA1040216848602068C16921F40061B2
:103A8000C1616565012084F85100002070BD00000F
:103A900030B585B00024009401940294039400682A
:103AA0001549884225D11548C16941F48041C16159
:103AB000C16901F480410491816941F0080181618B
:103AC00080690F4D00F0080004904FF420400090F2
:103AD000022001900320039069462846FEF7B2FCBD
:103AE0004FF48040CDE90004694628460294FEF771
:103AF000A9FC05B030BD00000038004000100240B5
:103B0000000C01402DE9F84F044690F850000026C3
:103B1000984615468A4601280CD0012784F8507033
:103B2000FEF796FD814694F85100B346012804D073
:103B300002269AE00220BDE8F88FBAF1000F6FD09C
:103B4000002D6DD0032084F85100C4F854B0C4F89F
:103B500030A0A586E586C4F838B0A4F83CB0A4F837
:103B60003EB0C4F844B0C4F840B0A068B0F5004F0F
:103B700009D12068016821F04001016020680168D6
:103B800041F48041016020680168490603D401685E
:103B900041F040010160E068B0F5006F606803D05B
:103BA00058B3012D29D049E008B1012D1FD1206B58
:103BB00021680088C86006E020688168890709D507
:103BC000216B0988C160206B801C2063E08E401E41
:103BD000E0860CE0FEF73CFDA0EB0901414503D374
:103BE000B8F1FF3F03D006E0B8F1000F03D0E08E3C
:103BF0000028E1D125E0032635E0206B216800781C
:103C0000087306E02068816889070AD5216B097866
:103C10000173206B401C2063E08E401EE0860DE0A7
:103C20001FE0FEF715FDA0EB0901414503D3B8F1F4
:103C3000FF3F03D0DFE7B8F1000FDCD0E08E0028B3
:103C4000E0D14A464146204604F01AF808B1202047
:103C50006065A06818B92068C16880680090606DD0
:103C600008B1012601E084F8517084F850B0304664
:103C700061E710B5401EB0F1807F01D3012010BD77
:103C80004FF0E02460610F21601705F057F8002025
:103C9000A06107202061002010BD70477047000020
:103CA00070B590F83C20012A2CD0012480F83C40CB
:103CB000022280F83D2003685A689D6822F0700651
:103CC0000A6832435A60104B02689A420ED00F4B7A
:103CD0009A420BD0B2F1804F08D00D4B9A4205D0DA
:103CE0000C4B9A4202D00C4B9A4204D1496825F001
:103CF00080031943916080F83D40002180F83C101A
:103D0000084670BD022070BD002C01400034014007
:103D10000004004000080040000C004010B5040002
:103D200003D094F83D0010B107E0012010BD002041
:103D300084F83C00204600F01FF8022084F83D0083
:103D4000211D206804F084FC012084F8460084F8DA
:103D50003E0084F83F0084F8400084F8410084F875
:103D6000420084F8430084F8440084F8450084F855
:103D70003D00002010BD000008B5006806498842DB
:103D800008D10648C16941F01001C161C06900F065
:103D90001000009008BD000000100040001002401C
:103DA00090F83D10012901D001207047022180F8D0
:103DB0003D100168CA6842F00102CA6000680E49FD
:103DC00088420ED00D4988420BD0B0F1804F08D008
:103DD0000B49884205D00B49884202D00A498842E3
:103DE00004D1816801F00701062903D0016841F080
:103DF0000101016000207047002C014000340140A7
:103E00000004004000080040000C0040704770B5FE
:103E10000446006801694FF00005C943890715D4BD
:103E2000C168C943890711D4E91E016101202077C7
:103E3000206880698007204602D0FFF7E7FF04E092
:103E400000F098F8204600F096F825772068016980
:103E5000C943490717D4C168C943490713D46FF050
:103E600004010161022020772068806910F4407FFE
:103E7000204602D0FFF7CAFF04E000F07BF820469E
:103E800000F079F8257720680169C943090716D43D
:103E9000C168C943090712D46FF008010161042009
:103EA00020772068C0698007204602D0FFF7AEFF68
:103EB00004E000F05FF8204600F05DF82577206808
:103EC0000169C943C90617D4C168C943C90613D4D7
:103ED0006FF010010161082020772068C06910F49C
:103EE000407F204602D0FFF791FF04E000F042F847
:103EF000204600F040F8257720680169C943C907CA
:103F000008D1C168C943C90704D1891E016120468F
:103F100000F032F820680169C943090609D4C16874
:103F2000C943090605D46FF0800101612046FFF7FF
:103F3000B4FE20680169C943490609D4C168C94370
:103F4000490605D46FF040010161204600F0B6F843
:103F500020680169C94389060BD4C168C943890631
:103F600007D46FF0200101612046BDE87040FFF7E3
:103F700095BE70BD7047704770B5454900680968C7
:103F800088426FD14349486840B1401E48600128CB
:103F900004D1002208214048FEF755FB3F4908683C
:103FA000B0F5801F01D2401C08603D494FF6FF72FA
:103FB0000888904201D2401C08803A48007808B92D
:103FC00006F0A8FC384C00252078E0B1A1682069F3
:103FD000364EB0FBF1F201FB12006168884201D25B
:103FE000012200E0002280213046FEF72CFB2069F0
:103FF000401C2061E168884205D92570002280219B
:104000003046FEF720FB2A4C2A4E2078D8B1A16812
:104010002069B0FBF1F201FB12006168884201D215
:10402000012200E0002204213046FEF70CFB20694B
:10403000401C2061E168884205D9257000220421D6
:104040003046FEF700FB1C4C207800281ED0A168EB
:104050002069B0FBF1F201FB12006168884202D2D4
:10406000012201E012E0002202213046FEF7EBFAC5
:104070002069401C2061E168884207D925703046DC
:10408000BDE8704000220221FEF7DDBA70BD0000DD
:104090003C0A00200000002000100140D403002052
:1040A000C00200201C0400207025002000180140E0
:1040B00084250020000C014098250020704738B569
:1040C000044690F84200202801D0022038BD61B19A
:1040D0005AB10120206300206063204604F0E0FC18
:1040E0000028F3D1216B012901D0012038BD2168BE
:1040F0000A684968009121680C3151E8002F42F0AC
:10410000100241E80023002BF5D138BD2DE9F04124
:104110000D462F490746006809682E4C4FF48078F9
:1041200088420DD12C492A46A1F5057005F041FDC4
:10413000424629492648FFF7C2FF6068401C60607C
:1041400026493868096888421BD12088258006B234
:10415000424623492148FFF7B2FF218820488E427A
:1041600003DA891B8AB2811908E0C6F580718AB228
:1041700081191C4800F01EFB22881949194800F0DB
:1041800019FB18493868096888421ED1164E424604
:1041900016493088358004B21248FFF790FF318805
:1041A00012488C4203DA091B8AB2011908E0C4F5EF
:1041B00080718AB20119094800F0FCFA32880B4973
:1041C000BDE8F041054800F0F5BABDE8F081000017
:1041D000CC0A002090000020741B0020840A0020DC
:1041E00060180020140B0020C8020020D4230020F7
:1041F00070470000F8B5016804460868CA684B6952
:1042000010F00F0F4FF0000559D003F0010602F433
:104210009077374365D0C10705D0D10503D5616CD0
:1042200041F001016164410705D5D90703D0616CF4
:1042300041F002016164810705D5D90703D0616CA3
:1042400041F004016164010707D502F02001314308
:1042500003D0616C41F008016164616C00293AD0BF
:10426000800604D5900602D5204604F05BFB20684A
:104270004069616CC0F38010090700D460B3204628
:1042800004F01BFB20684069400621D520681430EB
:1042900050E8001F21F0400140E80012002AF5D14B
:1042A000E06BA8B16D494163E06BFDF765FE002846
:1042B00011D0E06B416B01B0BDE8F04008478306C8
:1042C0000FD593060DD52046BDE8F84004F02ABB73
:1042D0002046FFF78DFFF8BD2046FFF789FF656494
:1042E000F8BD266B2023012E7CD1C6067AD5D606D2
:1042F00078D508684868009048694FF00206400683
:1043000040D5E16B086840680004000CE8D0A28D3D
:104310008242E5D9E085886920282DD020680C30BC
:1043200050E8001F21F4807140E80012002AF5D106
:104330002068143050E8001F21F0010140E800120D
:10434000002AF5D12068143050E8001F21F0400108
:1043500040E80012002AF5D184F842302563206835
:104360000C3050E8001F21F0100140E80012002A34
:10437000F5D1E06BFDF7DCFD6663A08DE18D401AA1
:1043800081B22AE0A08DE18D401A81B2E08D002833
:10439000A6D00029A4D022680C3252E8000F20F4E5
:1043A000907042E80007002FF5D12068143050E8E3
:1043B000002F22F0010240E80027002FF5D184F8F9
:1043C0004230256320680C3050E8002F22F01002A4
:1043D00040E80023002BF5D166632046FFF796FEE8
:1043E000F8BDFFE705062BD5150629D594F8410041
:1043F0002128F5D1A068B0F5805F01D12069B0B166
:10440000206A411C2162216800784860E08C401ECF
:104410000004000CE084E3D12068C16821F0800131
:10442000C1602068C16841F04001C160D8E7206ADE
:104430000088C0F308004860206A801C2062E5E71D
:104440004006CDD55006CBD5CA68204622F04002A2
:10445000CA6084F8413000F0E9F9C1E771870008CB
:1044600070B5040004D094F84100002510B106E0B6
:10447000012070BD84F84050204600F023F824202D
:1044800084F841002068C16821F40051C1602046D1
:1044900004F0AAFA2068016921F4904101612068C2
:1044A000416921F02A0141612068C16841F400514D
:1044B000C1606564202084F8410084F8420065638F
:1044C000002070BD2DE9F04786B0002500950195CC
:1044D000029503950446DFF80882D0F800C08148B1
:1044E00002210322804B102680274FF480694FF071
:1044F000200AC4454FD1D0F818C04CF4804CC0F805
:1045000018C0D0F818C00CF4804CCDF810C0D0F80A
:1045100018C04CF0040CC0F818C08069039200F079
:10452000040004900802CDE9000169469846184647
:10453000FDF788FFCDE90095694640460295FDF7F5
:1045400081FFDFF8AC8169494046B946C0E90015F2
:10455000C0E90257C8F81050C8E9055AC8F81C50FD
:10456000FDF7C6FE08B1FDF749F86048614FC4F891
:104570003C801438C8F824403860C7E90165C7E9B1
:1045800003957D61BD613846FD61A1E0A7637C6252
:1045900006B0BDE8F087DFF86081C4454ED1D0F8A1
:1045A0001CC04CF4003CC0F81CC0D0F81CC00CF47B
:1045B000003CCDF810C0D0F818C04CF0040CC0F886
:1045C00018C08069039200F0040004900420CDE933
:1045D0000001694698461846FDF734FF0820CDE9EA
:1045E0000005694640460295FDF72CFFDFF80C8177
:1045F0003E4940461431C0E90015C0E90257C8F8E9
:104600001050C8F81450C8F81850B946C8F81C50D3
:10461000FDF76EFE08B1FCF7F1FF3448384FC4F8DF
:104620003C802830C8F824403860C7E90165C7E9F4
:1046300003957D61BD613846FD6149E0314B9C4584
:10464000A6D1C36943F48023C361C36903F4802303
:104650000493836943F0080383618069CDE9009185
:1046600000F00800CDE90320DFF89C806946404651
:10467000FDF7E8FE4FF40060CDE9000569464046CD
:104680000295FDF7DFFEDFF884801849404628399F
:10469000C0E90015C0E90257C8F81050C8E9055A2A
:1046A000B946C8F81C50FDF723FE08B1FCF7A6FF79
:1046B0000E48174FC4F83C803C38C8F82440386096
:1046C000C7E90165C7E903957D61BD613846FD61B4
:1046D000FDF70EFE00283FF459AFFCF78FFF55E7BA
:1046E000003801400010024000080140580002401C
:1046F0005C0B0020A00B002000440040E40B0020D5
:10470000280C002000480040000C01406C0C0020E8
:10471000B00C0020704770472DE9F843044690F82C
:1047200041001F4616460D46202802D00220BDE853
:10473000F8837DB176B100206064212084F84100C7
:10474000FDF786FFA6848046E684A068B0F5805F0A
:1047500002D003E00120EAE7206910B12E460025CF
:104760000EE000260CE08021204604F0E1F9A0B91B
:10477000AEB116F8010B21684860E08C401EE08461
:10478000E08C43464FF0000200970028EBD14FF039
:104790004001204604F0CCF930B10320C7E735F8DA
:1047A000020BC0F30800E6E7202084F84100002057
:1047B000BDE7000070B5044690F84100202801D004
:1047C000022070BD49B342B32162A284E28400207A
:1047D0006064212384F84130A56B114BAB62A56B5B
:1047E000104BEB62A56B104B2B63A36B58632568D2
:1047F00013462A1DA06BFDF7B9FD21686FF040003C
:1048000008602068143050E8001F41F0800140E843
:104810000012002AF5D1002070BD012070BD0000FB
:104820006F880008B18800088187000870477047CA
:10483000FEE7000010B502F033FD4FF4FA639C1060
:104840002246FA21094800F051F8084840F6B833EA
:104850002246FA21143000F049F8E30022460348CA
:10486000FA21BDE81040283000F040B87025002043
:1048700010B50020064B0146802203F5487400BFA6
:1048800043F820102254401CC828F9D310BD000062
:10489000F410002070B50D460446FDF7E3F9C4E9B5
:1048A0000001FDF7DFF9C4E902012046FCF762FCD4
:1048B000401C04D00249002041F82500012070BDB1
:1048C000F41000207CB51446421E1D46CDE90001BF
:1048D00041F1FF332046294604F0F2F980F001004F
:1048E000084301D000207CBD01207CBD10B500F143
:1048F000040C00248CE81E000121017010BD000092
:104900003EB5002410480094019402940D4984603F
:10491000016004730475012505614FF46021446052
:10492000C161FDF749FA48B90A20CDE90005694699
:1049300002940548FDF7C2F9002801D0FCF75EFE9D
:104940003EBD0000002401401C09002010B50449B0
:104950000448FCF75DFE0249491E087010BD0000C6
:10496000F1080020F4D300082DE9F04F85B00024B1
:104970006F480094019402940394816941F01001FE
:104980008161816901F010010491816941F00401A4
:104990008161816901F004010491816941F008019C
:1049A0008161816901F008010491816941F0400150
:1049B0008161816901F040010491816941F0200128
:1049C00081618069002200F020000490C8215948CC
:1049D000FDF739FEDFF860B1002240F2531158466E
:1049E000FDF731FE012280215846FDF72CFE002202
:1049F000E6215248FDF727FE4FF68079002249460E
:104A00004F48FDF720FE4FF4805A012251464B4893
:104A1000FDF719FE012211024A48FDF714FE00229B
:104A20004FF480414748FDF70EFEC82001250226BD
:104A3000CDE90005CDE9024669463E48FDF702FD95
:104A40000327CDE902570095694658460195FDF7C1
:104A5000F9FC4FF48170CDE90005CDE902466946C5
:104A60005846FDF7EFFCD020CDE90005CDE902471F
:104A700069465846FDF7E6FC4FF02008CDE9008472
:104A8000694658460294FDF7DDFC1020CDE900048C
:104A9000694628480294FDF7D5FC2B48CDF80080E4
:104AA000CDE9010569462348FDF7CCFC1920CDE985
:104AB0000004694621480294FDF7C4FCE620CDE9D4
:104AC0000005CDE9024669461C48FDF7BBFCCDF860
:104AD00000900396CDE9015469461948FDF7B2FCF0
:104AE000CDF800A00397CDE9015469461348FDF7BE
:104AF000A9FC4FF48240CDE90005CDE902466946A4
:104B00001048FDF79FFC4FF43870CDE9000469466A
:104B10000C480294FDF796FC4FF43C408DE85100A0
:104B200069460848FDF78EFC05B0BDE8F08F00002F
:104B3000001002400010014000080140000C01403C
:104B400000180140001401400000211010B500229F
:104B500011460320FDF7E0FD0320FDF7CFFD002205
:104B600001210C20FDF7D8FD0C20FDF7C7FD002228
:104B700002210D20FDF7D0FD0D20FDF7BFFD002225
:104B800003210E20FDF7C8FD0E20FDF7B7FD002222
:104B900004210F20FDF7C0FD0F20FDF7AFFD00221F
:104BA00006211020FDF7B8FD1020FDF7A7FD00221B
:104BB00005211120FDF7B0FD1120FDF79FFD00221A
:104BC00011461720FDF7A8FD1720FDF797FD0022DD
:104BD00008212520FDF7A0FD2520FDF78FFD0022EF
:104BE00009212620FDF798FD2620FDF787FD0022EC
:104BF0000A212720FDF790FD2720FDF77FFD0022E9
:104C000007213620FDF788FDBDE810403620FDF76E
:104C100075BD00002DE9FC41002428480194264977
:104C200000940160611E41604FF480718160FEF765
:104C300039F948BB2148FEF71FF901211F48FEF74B
:104C4000E1F843F62077B84234D006258DF80450B9
:104C500059208DF8050040208DF80600012201A999
:104C60001648FEF7E5F978B98DF800408DF8015047
:104C700002268DF8026024208DF803000122694687
:104C80000E48FEF773F908B1FCF7B8FC0C494FF475
:104C9000FD6008808D701D20C8700E710120487164
:104CA0008C710868496805F004FF3A460121034801
:104CB000FEF7B0F8BDE8FC81002800404C09002058
:104CC000B40200200F4810B50D4901604FF4827105
:104CD000416000218160C1604FF400720161C0E950
:104CE00005121822C0E90721416281620A21C162CE
:104CF000FEF774FE002801D0FCF780FC10BD000018
:104D000000380040E40900201CB500240D48009440
:104D10000B490194C0E9001443F67F61C0E90241E8
:104D200080218161FEF7FAFF38B900946946054891
:104D30000194FEF7B5FF002801D0FCF75FFC1CBD15
:104D4000001000403C0A0020FEE700002DE9F04F73
:104D5000ADB01822FE491EA8FBF707FDFD48FE4F27
:104D6000012690F83100397B0025884203D0387342
:104D7000012826D0BD71F849B879DFF8DC83C979FC
:104D8000DFF8D89308F1200888427DD0F8711928FF
:104D900002D00020FCF783FCB979F1481E2974D2B7
:104DA000DFE801F013A4B9FAFBF8F7F6F5F4F3F233
:104DB000F1F0EFEEEEEEEDECEBEAE9E8E71173E689
:104DC000E5E4BE71D7E73D71A1E2E64CFF20387201
:104DD000607A04280ED132237F220A210020009518
:104DE000FCF744FE2B2006F08DFE01231422052142
:104DF000FCF716FE607A032839D132237F220A217C
:104E000000200095FCF732FE292006F07BFE0123EE
:104E10000A220021FCF704FEDFF84C834FF47A7776
:104E2000D2A1D8F80000B0FBF7F205A8FBF79AFA78
:104E3000D8F80000B0FBF7F1504661F30F0065F3BE
:104E40001F408246CC48534602788178C07803F0F0
:104E500096FF01230F22402105A8FCF787FD24209F
:104E600006F050FE01232D220F21FCF7D9FD607AB8
:104E700001280FD132237F220A2100200095FCF760
:104E8000F5FD0123142201E0E0E3E0E31146BBA0BD
:104E9000FCF78CFD607A022801D0C0B137E23223E2
:104EA0007F220A2100200095FCF7E0FD252006F076
:104EB00029FE01230F222821FCF7B2FD262006F04F
:104EC00021FE01231E221421FCF7AAFD0CE099F813
:104ED0000200534660F31F43A74865F30F030278AF
:104EE0008178C07803F04BFF6672FBE3022006F086
:104EF00009FE142201231146FCF792FD282201230A
:104F00001146A6A0FCF732FDA649A4A002680A60DB
:104F100080888880E6E3B8780325B0FBF5F105FBCF
:104F20001100C0EB00128A4800210C380F32FCF748
:104F3000BFFB0024B878B0FBF5F101EB410121443F
:104F40000A29ABDCB0FBF5F000EB40002044001D6B
:104F5000C0B206F0D7FDC4EB041201230A210A32C5
:104F6000FCF75EFD641C032CE4DBBBE37FE0B5E0F3
:104F700052E09BE354E33CE324E30CE37AE25EE299
:104F80005BE24DE247E240E215E2FDE1E6E1BFE12E
:104F90007EE150E1C7E000E084E20123002212211B
:104FA00081A0FCF7E3FC744801AD44460168396216
:104FB00040687862B8F8000098F8063098F8052044
:104FC00098F8041085E80F0098F80200009098F80F
:104FD000070098F8033000EB40011EA80A1876A1DC
:104FE00005A8FBF7BFF901231822002105A8FCF74B
:104FF000BDFC2088A379627921798DE80F0069488A
:10500000A378E27874A11E30FBF7ACF921231722B4
:105010001946122000965EE0B8780325B0FBF5F142
:1050200005FB1100C0EB0012494800210C380F327B
:10503000FCF73EFB0024B878B0FBF5F101EB410131
:105040002144012991DCB0FBF5F000EB4000204445
:105050002C30C0B206F056FDC4EB041201230A2125
:105060000A32FCF7DDFC641C032CE4DB3AE3BD727E
:105070002D2006F047FD012300222821FCF7D0FC5B
:105080005B4D4849286D020EC0F307430A70C0F318
:1050900007244B708C70C0B2C870B5F85410F981F9
:1050A000CDE9004053A105A8FBF75CF901231422C8
:1050B000002105A8FCF75AFCFA8954A105A8FBF7C2
:1050C00051F901232822002105A8FCF74FFC1E23DB
:1050D0002322009624E0FCF7BCFB03E3BD722C20E6
:1050E00006F010FD012300222821FCF799FC2D4A2F
:1050F0003F4B00201918497A30311154401C0728C1
:10510000F8DBD571274A44A105A8FBF72BF9012349
:105110001422002105A8FCF729FC1E231B2200965F
:105120001E211720D7E7787A0021C0EB001208482B
:105130000F320C38FCF7BCFA112006F0E3FC0A220F
:1051400001231146FCF76CFC122006F0DBFC67E043
:10515000B0D300082C250020E403002018250020EF
:10516000DC03002064250020480000202533642E45
:10517000303030564E440000B402002058696E2092
:105180004BED6E68204368E06F0A2020202020202D
:105190005175FD204B68E163680000002D2D2D2D19
:1051A0002D2D0000AC25002054696D6520536574D9
:1051B00074696E6700000000257320253032642F6B
:1051C000253032642F256420253032643A25303270
:1051D000643A253032642000253032642530326450
:1051E0002564253032642530326425303264000075
:1051F0007820002049503A20253033642E25303362
:10520000642E253033642E2530336400504F5254C1
:105210003A2025303464000049443A2025730000C8
:10522000012319220A21FCF7FBFB132006F06AFC7C
:10523000012328221CE1152006F064FC0123192219
:105240000021FCF7EDFB162006F05CFC0123282270
:105250000021FCF7E5FBFE484446016839624068DE
:105260007862B8F80000009098F8023098F80320AF
:10527000F8A105A8FBF776F801230A22232105A847
:10528000FCF774FB2278A178E07804F0FFFA27E0BD
:10529000152006F037FC012319220021FCF7C0FB82
:1052A000162006F02FFC012328220021FCF7B8FB72
:1052B000E74844460168396240687862B8F80030CF
:1052C00098F80220E7A105A8FBF74CF801230A2271
:1052D000282105A8FCF74AFB2178A07804F0F1FA10
:1052E000044682B2E2A105A8FBF73CF801232D2277
:1052F0003C2105A8FCF73AFB220CDFA105A8FBF72F
:1053000031F801231E223C2105A8FCF72FFBE9E11F
:10531000152006F0F7FB012319220021FCF780FB82
:10532000162006F0EFFB012328220021FCF778FB72
:10533000C74844460168396240687862B8F800207E
:10534000CEA105A8FBF70EF801230A222D2105A8FE
:10535000FCF70CFB207804F0D2FAC1E7042006F039
:10536000D1FB0A2201231146FCF75AFB152006F057
:10537000C9FB012319220021FCF752FB162006F07D
:10538000C1FB0123282253E0152006F0BBFB0123BB
:1053900019220021FCF744FB4C4699F80220B6A1E3
:1053A00005A8FAF7DFFF01231E22402105A8FCF71C
:1053B000DDFAA07874E0787A0325B0FBF5F105FBFF
:1053C0001100C0EB00120021AD480F32FCF770F95C
:1053D0000024787AB0FBF5F101EB41012144062964
:1053E00095DCB0FBF5F000EB400020441830C0B273
:1053F00006F088FBC4EB041201230A210A32FCF7F1
:105400000FFB641C032CE4DB6CE1007808B118206E
:105410000AE0222008E040780028FAD0192003E0B2
:1054200080780028F5D01A2006F06CFB01230022BA
:105430005FF00001FCF7F4FA54E12320F4E799F857
:105440000A0000B97E72787A0021C0EB00128C4805
:105450000F32FCF72DF91E2006F054FB0A2201231F
:105460001146FCF7DDFA1F2006F04CFB0123192240
:105470000A21DFE7082006F045FB0A220123114636
:10548000FCF7CEFA4C4699F80B207EA105A8FAF756
:1054900069FF01231E22322105A8FCF767FAE07A92
:1054A000F8811FE179484FF005084FF00A09B0F87C
:1054B0005600F881797AB1FBF8F208FB121000EB84
:1054C000800109EB410200216D48FCF7F1F8DFF89B
:1054D000C0B100244FEA07084FF0050998F80910F9
:1054E000B1FBF9F0B1FBF9F1204400EB400221449B
:1054F00001EB41010BEB81000BEB820301694FF4DF
:105500007A70B1FBF0F263A105A81433FAF72AFF11
:1055100004EB84070A2000EB470292460123142182
:1055200005A8FCF723FA98F80910B1FBF9F0011966
:10553000B8F80E00C840C0074FF00F0000EB47015D
:105540000BD0CDE900610C200B4600EB4701024671
:105550000A20FCF77EF900960AE0CDE900510C2004
:105560000B4600EB470102460A20FCF772F9009552
:10557000534610220C200199FCF76BF998F809109A
:10558000B1FBF9F00119DBF80800814202D2641C7A
:10559000052CA1DBA6E00A2006F0B4FA0A220123BA
:1055A0001146FCF73DFA4C4699F803203CA105A8AA
:1055B000FAF7D8FE01231E22322105A8FCF7D6F9FE
:1055C000E0786DE70B2006F09DFA0A2201231146D0
:1055D000FCF726FA4C46B9F8042027A105A8FAF7EB
:1055E000C1FE01231E22322105A8FCF7BFF9A088C5
:1055F00056E70C2006F086FA0A2201231146FCF732
:105600000FFA4C46B9F806201BA105A8FAF7AAFE26
:1056100001231E22322105A8FCF7A8F9E0883FE704
:105620000D2006F06FFA0A2201231146FCF7F8F963
:105630004C4699F810201BA105A8FAF793FE012308
:105640001E22322105A8FCF791F92DE04FE048E039
:10565000B4020020253032642F253032642F2534E7
:1056600064000000253032642F25346400000000FF
:1056700025643030300000002564000025346400CB
:10568000A4D3000825642525000000007820002010
:105690005C1700202533642E303030202573000045
:1056A0002564730025326400207CF9E60E2006F0A4
:1056B00029FA0A2201231146FCF7B2F9FB4899F8AE
:1056C000101089F811104672F948067003F0D8FAE4
:1056D000F8496420012208600821F748FCF7B3FF6D
:1056E00000E0BD71FCF7DEF92DB0BDE8F08F05F0EC
:1056F000F7F8F2490446FF2801D00D7009E0087858
:105700003C2806D9EE480D7090F83100012828D0C9
:10571000BD71BB790B204FF0020B4FF4FD621E2BC5
:105720007ED2DFE813F02F003C01B90146056E027E
:1057300022034903B103F40349044C047804E00450
:10574000E004E004E004E004E004E5041A051A06BD
:105750004E069306BF06750420007D00F106F10792
:105760005507BE71D5E7087840B10D703879022829
:1057700002D2401C387101E07879B871232C7DD1B8
:10578000787989E30878002878D000200870387983
:10579000B846032802D2401C88F80400DFF824B37E
:1057A0005D469BF802009BF805209BF804108DE8ED
:1057B00007009BF807009BF8033000EB40011EA890
:1057C0000A18C1A105A8FAF7CDFD01230022102176
:1057D00005A8FCF7CBF8A879C00705D00123002263
:1057E0004E21BFA0FCF7C2F803F066FFBD48006879
:1057F00007F0E8F80246BCA105A8FAF7B3FD0123BB
:105800000022692105A8FCF7B1F8B94800686428AE
:105810000DD9B8480178032909D1A449497A00E093
:1058200038E1012903D1B4490E70002101709F4D68
:1058300098F80B10687A88426ED098F80410032903
:105840006AD3002788F8047088F80B0004280ED16A
:1058500032237F220A2100200097FCF707F92B2032
:1058600006F050F9012314220521FCF7D9F8687AD3
:1058700003283CD132237F220A2100E0C0E100202E
:105880000097FCF7F3F8292006F03CF901230A22DF
:105890000021FCF7C5F896484FF47A780168B1FB0F
:1058A000F8F2AFF2387105A8FAF75CFD90489BF862
:1058B000002001685046B1FBF8F161F30F0067F377
:1058C0001F4082469BF802109BF80300534603F0EA
:1058D00056FA01230F22402105A8FCF747F824209F
:1058E00006F010F901232D220F21FCF799F8687AB0
:1058F00001280DD132237F220A2100200097FCF7D6
:10590000B5F8012314221146AFF29070FCF74EF85F
:10591000687A022801D0C0B13EE032237F220A21FA
:1059200000200097FCF7A2F8252006F0EBF80123F1
:105930000F222821FCF774F8262006F0E3F8012353
:105940001E221421FCF76CF825E032237F220A2165
:1059500000200097FCF78AF8272006F0D3F80F22E2
:1059600001231146FCF75CF8282006F0CBF8012350
:1059700023220A21FCF754F899F80200534660F3F9
:105980001F4367F30F039BF800209BF802109BF85E
:10599000030003F0F4F96E72FCF784F830E1A4F12F
:1059A000300009286ED85548B9784454491CC9B20A
:1059B000B970062951D35249BD7002780B789A42CA
:1059C0001ED143784E78B3421AD183788E78B34291
:1059D00016D1C378CE78B34212D103790E79B3428F
:1059E0000ED1437949798B420AD1324987F806B002
:1059F00064200860012208212F48FCF724FECDE72F
:105A00003F49891D0B789A421ED142784B789A42C1
:105A10001AD182788B789A4216D1C278CB789A4282
:105A200012D102790B799A420ED140794979884294
:105A30000AD1204964200122086008211E48FCF791
:105A400002FE1B20B871A9E71A484FF4FA7101222F
:105A5000016008211848FCF7F6FD0020B9782A23D8
:105A60002D266A46884201DA135400E01654401C81
:105A70000628F7DB28228DF80650012311466846D8
:105A8000FBF774FF232C00D1BD710D4890F8310055
:105A90000028B4D1BD7181E7302C33D0382C39D0F7
:105AA000232C3ED02A2C3ED060E00000642500204C
:105AB000D10300200400002000100140010000205C
:105AC0002C250020B4020020257320253032642FBD
:105AD00025303264202532642020253032642000B5
